{
  "_format": "hh-sol-artifact-1",
  "contractName": "UnitPaySettlement",
  "sourceName": "contracts/UnitPaySettlement.sol",
  "abi": [
    {
      "inputs": [
        {
          "internalType": "address",
          "name": "_defaultToken",
          "type": "address"
        },
        {
          "internalType": "address",
          "name": "initialOwner",
          "type": "address"
        }
      ],
      "stateMutability": "nonpayable",
      "type": "constructor"
    },
    {
      "inputs": [
        {
          "internalType": "address",
          "name": "owner",
          "type": "address"
        }
      ],
      "name": "OwnableInvalidOwner",
      "type": "error"
    },
    {
      "inputs": [
        {
          "internalType": "address",
          "name": "account",
          "type": "address"
        }
      ],
      "name": "OwnableUnauthorizedAccount",
      "type": "error"
    },
    {
      "inputs": [],
      "name": "ReentrancyGuardReentrantCall",
      "type": "error"
    },
    {
      "anonymous": false,
      "inputs": [
        {
          "indexed": true,
          "internalType": "address",
          "name": "previousOwner",
          "type": "address"
        },
        {
          "indexed": true,
          "internalType": "address",
          "name": "newOwner",
          "type": "address"
        }
      ],
      "name": "OwnershipTransferred",
      "type": "event"
    },
    {
      "anonymous": false,
      "inputs": [
        {
          "indexed": true,
          "internalType": "string",
          "name": "paymentId",
          "type": "string"
        },
        {
          "indexed": false,
          "internalType": "bool",
          "name": "isAuto",
          "type": "bool"
        }
      ],
      "name": "PaymentConfirmed",
      "type": "event"
    },
    {
      "anonymous": false,
      "inputs": [
        {
          "indexed": true,
          "internalType": "string",
          "name": "paymentId",
          "type": "string"
        }
      ],
      "name": "PaymentDisputed",
      "type": "event"
    },
    {
      "anonymous": false,
      "inputs": [
        {
          "indexed": true,
          "internalType": "string",
          "name": "paymentId",
          "type": "string"
        },
        {
          "indexed": true,
          "internalType": "address",
          "name": "user",
          "type": "address"
        },
        {
          "indexed": true,
          "internalType": "address",
          "name": "lp",
          "type": "address"
        },
        {
          "indexed": false,
          "internalType": "uint256",
          "name": "amount",
          "type": "uint256"
        },
        {
          "indexed": false,
          "internalType": "uint256",
          "name": "platformFee",
          "type": "uint256"
        }
      ],
      "name": "PaymentLocked",
      "type": "event"
    },
    {
      "anonymous": false,
      "inputs": [
        {
          "indexed": true,
          "internalType": "string",
          "name": "paymentId",
          "type": "string"
        },
        {
          "indexed": true,
          "internalType": "address",
          "name": "user",
          "type": "address"
        },
        {
          "indexed": false,
          "internalType": "uint256",
          "name": "amount",
          "type": "uint256"
        }
      ],
      "name": "PaymentRefunded",
      "type": "event"
    },
    {
      "anonymous": false,
      "inputs": [
        {
          "indexed": true,
          "internalType": "string",
          "name": "paymentId",
          "type": "string"
        },
        {
          "indexed": true,
          "internalType": "address",
          "name": "lp",
          "type": "address"
        },
        {
          "indexed": false,
          "internalType": "uint256",
          "name": "amount",
          "type": "uint256"
        },
        {
          "indexed": false,
          "internalType": "uint256",
          "name": "platformFee",
          "type": "uint256"
        }
      ],
      "name": "PaymentReleased",
      "type": "event"
    },
    {
      "anonymous": false,
      "inputs": [
        {
          "indexed": true,
          "internalType": "string",
          "name": "paymentId",
          "type": "string"
        },
        {
          "indexed": true,
          "internalType": "address",
          "name": "user",
          "type": "address"
        },
        {
          "indexed": true,
          "internalType": "address",
          "name": "lp",
          "type": "address"
        },
        {
          "indexed": false,
          "internalType": "uint256",
          "name": "amount",
          "type": "uint256"
        },
        {
          "indexed": false,
          "internalType": "string",
          "name": "network",
          "type": "string"
        }
      ],
      "name": "PaymentSettled",
      "type": "event"
    },
    {
      "anonymous": false,
      "inputs": [
        {
          "indexed": false,
          "internalType": "uint256",
          "name": "amount",
          "type": "uint256"
        }
      ],
      "name": "PlatformFeesWithdrawn",
      "type": "event"
    },
    {
      "anonymous": false,
      "inputs": [
        {
          "indexed": true,
          "internalType": "string",
          "name": "network",
          "type": "string"
        },
        {
          "indexed": true,
          "internalType": "address",
          "name": "token",
          "type": "address"
        },
        {
          "indexed": false,
          "internalType": "bool",
          "name": "isEnabled",
          "type": "bool"
        }
      ],
      "name": "TokenConfigUpdated",
      "type": "event"
    },
    {
      "inputs": [],
      "name": "AUTO_RELEASE_TIME",
      "outputs": [
        {
          "internalType": "uint256",
          "name": "",
          "type": "uint256"
        }
      ],
      "stateMutability": "view",
      "type": "function"
    },
    {
      "inputs": [],
      "name": "DISPUTE_WINDOW",
      "outputs": [
        {
          "internalType": "uint256",
          "name": "",
          "type": "uint256"
        }
      ],
      "stateMutability": "view",
      "type": "function"
    },
    {
      "inputs": [],
      "name": "PLATFORM_FEE_RATE",
      "outputs": [
        {
          "internalType": "uint256",
          "name": "",
          "type": "uint256"
        }
      ],
      "stateMutability": "view",
      "type": "function"
    },
    {
      "inputs": [],
      "name": "T1_LOCK_TIME",
      "outputs": [
        {
          "internalType": "uint256",
          "name": "",
          "type": "uint256"
        }
      ],
      "stateMutability": "view",
      "type": "function"
    },
    {
      "inputs": [
        {
          "internalType": "string",
          "name": "paymentId",
          "type": "string"
        }
      ],
      "name": "autoReleasePayment",
      "outputs": [
        {
          "internalType": "bool",
          "name": "",
          "type": "bool"
        }
      ],
      "stateMutability": "nonpayable",
      "type": "function"
    },
    {
      "inputs": [
        {
          "internalType": "string",
          "name": "paymentId",
          "type": "string"
        }
      ],
      "name": "confirmPayment",
      "outputs": [
        {
          "internalType": "bool",
          "name": "",
          "type": "bool"
        }
      ],
      "stateMutability": "nonpayable",
      "type": "function"
    },
    {
      "inputs": [],
      "name": "defaultToken",
      "outputs": [
        {
          "internalType": "contract IERC20",
          "name": "",
          "type": "address"
        }
      ],
      "stateMutability": "view",
      "type": "function"
    },
    {
      "inputs": [
        {
          "internalType": "string",
          "name": "paymentId",
          "type": "string"
        }
      ],
      "name": "disputePayment",
      "outputs": [
        {
          "internalType": "bool",
          "name": "",
          "type": "bool"
        }
      ],
      "stateMutability": "nonpayable",
      "type": "function"
    },
    {
      "inputs": [
        {
          "internalType": "address",
          "name": "token",
          "type": "address"
        },
        {
          "internalType": "uint256",
          "name": "amount",
          "type": "uint256"
        }
      ],
      "name": "emergencyWithdraw",
      "outputs": [],
      "stateMutability": "nonpayable",
      "type": "function"
    },
    {
      "inputs": [
        {
          "internalType": "address",
          "name": "lp",
          "type": "address"
        }
      ],
      "name": "getLPPaymentCount",
      "outputs": [
        {
          "internalType": "uint256",
          "name": "",
          "type": "uint256"
        }
      ],
      "stateMutability": "view",
      "type": "function"
    },
    {
      "inputs": [
        {
          "internalType": "string",
          "name": "network",
          "type": "string"
        }
      ],
      "name": "getNetworkTokens",
      "outputs": [
        {
          "internalType": "address[]",
          "name": "",
          "type": "address[]"
        }
      ],
      "stateMutability": "view",
      "type": "function"
    },
    {
      "inputs": [],
      "name": "getPaymentRecordsCount",
      "outputs": [
        {
          "internalType": "uint256",
          "name": "",
          "type": "uint256"
        }
      ],
      "stateMutability": "view",
      "type": "function"
    },
    {
      "inputs": [
        {
          "internalType": "address",
          "name": "user",
          "type": "address"
        }
      ],
      "name": "getUserPaymentCount",
      "outputs": [
        {
          "internalType": "uint256",
          "name": "",
          "type": "uint256"
        }
      ],
      "stateMutability": "view",
      "type": "function"
    },
    {
      "inputs": [
        {
          "internalType": "string",
          "name": "paymentId",
          "type": "string"
        }
      ],
      "name": "isPaymentIdUsed",
      "outputs": [
        {
          "internalType": "bool",
          "name": "",
          "type": "bool"
        }
      ],
      "stateMutability": "view",
      "type": "function"
    },
    {
      "inputs": [
        {
          "internalType": "address",
          "name": "lp",
          "type": "address"
        },
        {
          "internalType": "address",
          "name": "token",
          "type": "address"
        },
        {
          "internalType": "uint256",
          "name": "amount",
          "type": "uint256"
        },
        {
          "internalType": "string",
          "name": "network",
          "type": "string"
        },
        {
          "internalType": "string",
          "name": "paymentId",
          "type": "string"
        }
      ],
      "name": "lockPayment",
      "outputs": [
        {
          "internalType": "bool",
          "name": "",
          "type": "bool"
        }
      ],
      "stateMutability": "nonpayable",
      "type": "function"
    },
    {
      "inputs": [
        {
          "internalType": "string",
          "name": "",
          "type": "string"
        },
        {
          "internalType": "address",
          "name": "",
          "type": "address"
        }
      ],
      "name": "networkTokens",
      "outputs": [
        {
          "internalType": "address",
          "name": "tokenAddress",
          "type": "address"
        },
        {
          "internalType": "uint8",
          "name": "decimals",
          "type": "uint8"
        },
        {
          "internalType": "bool",
          "name": "isEnabled",
          "type": "bool"
        }
      ],
      "stateMutability": "view",
      "type": "function"
    },
    {
      "inputs": [],
      "name": "owner",
      "outputs": [
        {
          "internalType": "address",
          "name": "",
          "type": "address"
        }
      ],
      "stateMutability": "view",
      "type": "function"
    },
    {
      "inputs": [
        {
          "internalType": "uint256",
          "name": "",
          "type": "uint256"
        }
      ],
      "name": "paymentRecords",
      "outputs": [
        {
          "internalType": "address",
          "name": "user",
          "type": "address"
        },
        {
          "internalType": "address",
          "name": "lp",
          "type": "address"
        },
        {
          "internalType": "address",
          "name": "token",
          "type": "address"
        },
        {
          "internalType": "uint256",
          "name": "amount",
          "type": "uint256"
        },
        {
          "internalType": "uint256",
          "name": "timestamp",
          "type": "uint256"
        },
        {
          "internalType": "uint256",
          "name": "lockTime",
          "type": "uint256"
        },
        {
          "internalType": "uint256",
          "name": "releaseTime",
          "type": "uint256"
        },
        {
          "internalType": "uint256",
          "name": "platformFee",
          "type": "uint256"
        },
        {
          "internalType": "string",
          "name": "paymentId",
          "type": "string"
        },
        {
          "internalType": "string",
          "name": "network",
          "type": "string"
        },
        {
          "internalType": "enum UnitPaySettlement.PaymentType",
          "name": "paymentType",
          "type": "uint8"
        },
        {
          "internalType": "enum UnitPaySettlement.EscrowStatus",
          "name": "escrowStatus",
          "type": "uint8"
        },
        {
          "internalType": "bool",
          "name": "isDisputed",
          "type": "bool"
        }
      ],
      "stateMutability": "view",
      "type": "function"
    },
    {
      "inputs": [],
      "name": "platformPendingFees",
      "outputs": [
        {
          "internalType": "uint256",
          "name": "",
          "type": "uint256"
        }
      ],
      "stateMutability": "view",
      "type": "function"
    },
    {
      "inputs": [
        {
          "internalType": "string",
          "name": "paymentId",
          "type": "string"
        }
      ],
      "name": "refundPayment",
      "outputs": [
        {
          "internalType": "bool",
          "name": "",
          "type": "bool"
        }
      ],
      "stateMutability": "nonpayable",
      "type": "function"
    },
    {
      "inputs": [],
      "name": "renounceOwnership",
      "outputs": [],
      "stateMutability": "nonpayable",
      "type": "function"
    },
    {
      "inputs": [
        {
          "internalType": "address",
          "name": "lp",
          "type": "address"
        },
        {
          "internalType": "address",
          "name": "token",
          "type": "address"
        },
        {
          "internalType": "uint256",
          "name": "amount",
          "type": "uint256"
        },
        {
          "internalType": "string",
          "name": "network",
          "type": "string"
        },
        {
          "internalType": "string",
          "name": "paymentId",
          "type": "string"
        }
      ],
      "name": "settlePayment",
      "outputs": [
        {
          "internalType": "bool",
          "name": "",
          "type": "bool"
        }
      ],
      "stateMutability": "nonpayable",
      "type": "function"
    },
    {
      "inputs": [
        {
          "internalType": "address",
          "name": "newOwner",
          "type": "address"
        }
      ],
      "name": "transferOwnership",
      "outputs": [],
      "stateMutability": "nonpayable",
      "type": "function"
    },
    {
      "inputs": [
        {
          "internalType": "string",
          "name": "network",
          "type": "string"
        },
        {
          "internalType": "address",
          "name": "tokenAddress",
          "type": "address"
        },
        {
          "internalType": "uint8",
          "name": "decimals",
          "type": "uint8"
        },
        {
          "internalType": "bool",
          "name": "isEnabled",
          "type": "bool"
        }
      ],
      "name": "updateTokenConfig",
      "outputs": [],
      "stateMutability": "nonpayable",
      "type": "function"
    },
    {
      "inputs": [
        {
          "internalType": "string",
          "name": "paymentId",
          "type": "string"
        }
      ],
      "name": "withdrawPayment",
      "outputs": [
        {
          "internalType": "bool",
          "name": "",
          "type": "bool"
        }
      ],
      "stateMutability": "nonpayable",
      "type": "function"
    },
    {
      "inputs": [],
      "name": "withdrawPlatformFees",
      "outputs": [
        {
          "internalType": "bool",
          "name": "",
          "type": "bool"
        }
      ],
      "stateMutability": "nonpayable",
      "type": "function"
    }
  ],
  "bytecode": "0x6080346200013057601f6200286038819003918201601f19168301916001600160401b0383118484101762000135578084926040948552833981010312620001305760206200004e826200014b565b916001600160a01b039182916200006691016200014b565b1690811562000117576000549260018060a01b03199280848616176000558260405195167f8be0079c531659141344cd1fd0a4f28419497f9722a3daafe3b4186f6b6457e0600080a36001805516918215620000d5575060025416176002556040516126ff9081620001618239f35b62461bcd60e51b815260206004820152601860248201527f5a65726f2061646472657373206e6f7420616c6c6f77656400000000000000006044820152606490fd5b604051631e4fbdf760e01b815260006004820152602490fd5b600080fd5b634e487b7160e01b600052604160045260246000fd5b51906001600160a01b0382168203620001305756fe608080604052600436101561001357600080fd5b60003560e01c908163059113eb14611ecb57508063078081e61461192857806316e39dc21461175c578063225bc08a1461155657806328569d2b146113885780632930fa491461136c57806338a13287146111f75780635691fe63146110e357806356c350e41461103d5780635fc25f6f14610da4578063715018a614610d4b57806374c13fda14610d225780637e896cc5146107205780638362492f146106e657806383a41ff3146106c8578063860ba4c1146105f35780638da5cb5b146105ca578063912db0fb1461043b57806395ccea67146103bd5780639cf48d7d146103a0578063a006233314610366578063c2b4298e14610348578063c2e8528c1461032a578063d0b7830b146101ee578063f2fde38b146101605763f585dc571461013d57600080fd5b3461015b57600036600319011261015b5760206040516203f4808152f35b600080fd5b3461015b57602036600319011261015b57610179611f5c565b6101816121e0565b6001600160a01b039081169081156101d557600054826bffffffffffffffffffffffff60a01b821617600055167f8be0079c531659141344cd1fd0a4f28419497f9722a3daafe3b4186f6b6457e0600080a3005b604051631e4fbdf760e01b815260006004820152602490fd5b3461015b57600036600319011261015b576102076121e0565b61020f61259b565b60035480156102e55760006003819055600254815460405163a9059cbb60e01b81526001600160a01b039182166004820152602481018590529392602092859260449284929091165af19081156102d9576102966020927f9870c8023baa016ac002ddfa7cdad341155acddddee3032c07d4baa4947ae643946000916102ac575b50612518565b604051908152a160018055602060405160018152f35b6102cc9150843d81116102d2575b6102c4818361208b565b810190612500565b85610290565b503d6102ba565b6040513d6000823e3d90fd5b60405162461bcd60e51b815260206004820152601c60248201527f4e6f20706c6174666f726d206665657320746f207769746864726177000000006044820152606490fd5b3461015b57600036600319011261015b576020600354604051908152f35b3461015b57600036600319011261015b576020600454604051908152f35b3461015b57602036600319011261015b576001600160a01b03610387611f5c565b1660005260076020526020604060002054604051908152f35b3461015b57600036600319011261015b576020604051612a308152f35b3461015b57604036600319011261015b576103d6611f5c565b6103de6121e0565b6000805460405163a9059cbb60e01b81526001600160a01b0391821660048201526024803590820152926020928492604492849291165af180156102d95761042257005b6104399060203d81116102d2576102c4818361208b565b005b3461015b57602036600319011261015b576004356001600160401b03811161015b5761046b903690600401611f19565b9061047461259b565b604051828282376020818481016005815203019020546104958115156125be565b60001981019081116105b4576104aa90611fe4565b50600a8101805460ff8116600281101561059e5760016104ca91146125fe565b60ff8160081c16600581101561059e5760016104e69114612642565b82546001600160a01b03163303610565578061050b60ff6102009360101c1615612687565b61ff0019161790556006429101558160405192839283378101600081520390207f0338bd150f7922769ad6d998d3a6b2fc3668a74ac52c70c13136927bd1c19789602060405160008152a260018055602060405160018152f35b60405162461bcd60e51b81526020600482015260116024820152702737ba103830bcb6b2b73a1037bbb732b960791b6044820152606490fd5b634e487b7160e01b600052602160045260246000fd5b634e487b7160e01b600052601160045260246000fd5b3461015b57600036600319011261015b576000546040516001600160a01b039091168152602090f35b3461015b5760208060031936011261015b576004356001600160401b03811161015b5761062582913690600401611f19565b91908260405193849283378101600981520301902060405190818382549182815201908192600052846000209060005b868282106106b457868661066b8288038361208b565b604051928392818401908285525180915260408401929160005b82811061069457505050500390f35b83516001600160a01b031685528695509381019392810192600101610685565b835485529093019260019283019201610655565b3461015b57600036600319011261015b576020604051620151808152f35b3461015b57602036600319011261015b576001600160a01b03610707611f5c565b1660005260066020526020604060002054604051908152f35b3461015b5761072e36611f72565b61073d9692959193949661259b565b6107516001600160a01b0384161515612399565b61075c8715156123da565b610767811515612426565b61078860405182868237600583820152602081848101030190205415612472565b60405186868237602081888101600881520301902060018060a01b0383166000526020526107c060ff60406000205460a81c166124be565b6040516323b872dd60e01b81523360048201526001600160a01b0384166024820152604481018890526020818060648101038160006001600160a01b0388165af180156102d95761081891600091610d035750612518565b60045491604051906108298261206f565b3382526001600160a01b03858116602084015216604082015260608101889052426080820152600060a0820181905260c0820181905260e082015261086f36838761219a565b61010082015261088036888861219a565b610120820152600061014082015260006101608201526000610180820152600160401b831015610c0757600183016004556108ba83611fe4565b610ced57815181546001600160a01b039182166001600160a01b031991821617835560208401516001840180549184169183169190911790556040840151600284018054919093169116179055606082015160038201556080820151600482015560a0820151600582015560c0820151600682015560e082015160078201556101008201518051906001600160401b038211610c0757819061095f6008850154612035565b601f8111610c9a575b50602090601f8311600114610c2857600092610c1d575b50508160011b916000199060031b1c19161760088201555b6101208201518051906001600160401b038211610c075781906109bd6009850154612035565b601f8111610bb4575b50602090601f8311600114610b4257600092610b37575b50508160011b916000199060031b1c19161760098201555b610140820151600281101561059e5760ff8019600a84015416911617600a82015561016082015191600583101561059e57610180600a91610a3b610a5a95848601612556565b01519101805462ff0000191691151560101b62ff000016919091179055565b336000526006602052610a71826040600020612575565b60018060a01b0383166000526007602052610a90826040600020612575565b6001820182116105b4577fce1770ab7d1a256d012b7c071d6629036759ad11c5cffd2e6cd7d8b2dffc7e7c9386926040518383823760208160018682019460058652019303019020558160405192839283378101600081520390209360405196875260406020880152816040880152606087013760006060858701015260018060a01b0316936060813395601f80199101168101030190a460018055602060405160018152f35b015190508b806109dd565b9250600984016000526020600020906000935b601f1984168510610b99576001945083601f19811610610b80575b505050811b0160098201556109f5565b015160001960f88460031b161c191690558b8080610b70565b81810151835560209485019460019093019290910190610b55565b909150600984016000526020600020601f840160051c810160208510610c00575b90849392915b601f830160051c82018110610bf15750506109c6565b60008155859450600101610bdb565b5080610bd5565b634e487b7160e01b600052604160045260246000fd5b015190508b8061097f565b9250600884016000526020600020906000935b601f1984168510610c7f576001945083601f19811610610c66575b505050811b016008820155610997565b015160001960f88460031b161c191690558b8080610c56565b81810151835560209485019460019093019290910190610c3b565b909150600884016000526020600020601f840160051c810160208510610ce6575b90849392915b601f830160051c82018110610cd7575050610968565b60008155859450600101610cc1565b5080610cbb565b634e487b7160e01b600052600060045260246000fd5b610d1c915060203d6020116102d2576102c4818361208b565b89610290565b3461015b57600036600319011261015b576002546040516001600160a01b039091168152602090f35b3461015b57600036600319011261015b57610d646121e0565b600080546001600160a01b0319811682556001600160a01b03167f8be0079c531659141344cd1fd0a4f28419497f9722a3daafe3b4186f6b6457e08280a3005b3461015b5760208060031936011261015b576004356001600160401b03811161015b57610dd5903690600401611f19565b90610dde61259b565b604051828282378381848101600581520301902054610dfe8115156125be565b60001981019081116105b457610e1390611fe4565b50600a810180549360ff8516600281101561059e576001610e3491146125fe565b60ff8560081c16600581101561059e57600203611000576001830180546001600160a01b03969193919087163303610fd25760068501546201518081018091116105b4574210610f8d5780610e9260ff6103009360101c1615612687565b61ff00191617905560038301549060078401958654948584039384116105b4576003549586018096116105b457600395909555600290940154835460405163a9059cbb60e01b81529086166001600160a01b03166004820152602481018490529490889086908316816000816044810103925af19384156102d957610f426040957fa4b9aff2e7bd4815fd0c77044b1652a3cdc9d61c082a9a75510dd9d30d1c100997600091610f705750612518565b5416955494818451928392833781016000815203902093825191825286820152a36001805560405160018152f35b610f8791508b3d8d116102d2576102c4818361208b565b8b610290565b60405162461bcd60e51b815260048101899052601960248201527f542b31206c6f636b2074696d65206e6f742072656163686564000000000000006044820152606490fd5b60405162461bcd60e51b815260048101899052600660248201526504e6f74204c560d41b6044820152606490fd5b60405162461bcd60e51b815260048101879052601560248201527414185e5b595b9d081b9bdd0818dbdb999a5c9b5959605a1b6044820152606490fd5b3461015b57604036600319011261015b576004356001600160401b03811161015b573660238201121561015b57611080606091369060248160040135910161219a565b6110a1602061108d611f46565b928160405193828580945193849201612152565b8101600881520301902060018060a01b0380921660005260205260ff6040600020546040519281168352818160a01c16602084015260a81c1615156040820152f35b3461015b57602036600319011261015b5760043560045481101561015b5761110a90611fe4565b50805460018201546002830154600384015460048501546005860154600687015460078801546001600160a01b03978816989497958616969095169491611153600886016120ac565b93611160600987016120ac565b95600a01549860ff8a16988a60081c60ff16986040519c8d5260208d015260408c015260608b015260808a015260a089015260c088015260e08701526101a08061010088015286016111b191612175565b8581036101208701526111c391612175565b91600281101561059e57610140850152600581101561059e57839260ff9161016085015260101c1615156101808301520390f35b3461015b57602036600319011261015b576004356001600160401b03811161015b57611227903690600401611f19565b9061123061259b565b604051828282376020818481016005815203019020546112518115156125be565b60001981019081116105b45761126690611fe4565b5091600a83019182549360ff851693600285101561059e5761128b60018096146125fe565b60ff8660081c16600581101561059e57856112a69114612642565b6005820154612a3081018091116105b457421061132757610200866112d360ff60209960101c1615612687565b61ff0019161790556006429101558160405192839283378101600081520390207f0338bd150f7922769ad6d998d3a6b2fc3668a74ac52c70c13136927bd1c1978983604051848152a2808055604051908152f35b60405162461bcd60e51b815260206004820152601d60248201527f4175746f2072656c656173652074696d65206e6f7420726561636865640000006044820152606490fd5b3461015b57600036600319011261015b57602060405160058152f35b3461015b5760208060031936011261015b576004356001600160401b03811161015b576113b9903690600401611f19565b906113c26121e0565b6113ca61259b565b6040518282823783818481016005815203019020546113ea8115156125be565b60001981019081116105b4576113ff90611fe4565b50600a8101805460ff8116600281101561059e57600161141f91146125fe565b60ff8160081c16600581101561059e57600161143b9114612642565b60ff8160101c16156115225761ff0019166104001790556002810154815460038301805460405163a9059cbb60e01b81526001600160a01b03938416600482015260248101919091529095909392909190879085908316816000816044810103925af19283156102d9576114d988947f4f4233d8b608dab7ae8be019715573700f481096c3c0695cc3f8ff3bdc436bdd966000916115055750612518565b541694549381604051928392833781016000815203902092604051908152a36001805560405160018152f35b61151c9150863d88116102d2576102c4818361208b565b8a610290565b60405162461bcd60e51b815260048101879052600c60248201526b139bdd08191a5cdc1d5d195960a21b6044820152606490fd5b3461015b5760208060031936011261015b576004356001600160401b03811161015b57611587903690600401611f19565b61158f61259b565b6040518183823783818381016005815203019020546115af8115156125be565b60001981019081116105b4576115c490611fe4565b5091600a8301805460ff811694600286101561059e576115e760018097146125fe565b60ff8260081c16600581101561059e57866116029114612642565b8054336001600160a01b039182161490811561174d575b501561170857600501546203f48081018091116105b45742116116ca5760ff8160101c166116925762ff00001916620100001790556040519182918190833781016000815203902090604051917f91c26a99a0a4d117c4d67f42c08c4c42d13094fbef4b6a53a9dd88e5c2256386600080a28080558152f35b60405162461bcd60e51b815260048101879052601060248201526f105b1c9958591e48191a5cdc1d5d195960821b6044820152606490fd5b60405162461bcd60e51b8152600481018790526016602482015275111a5cdc1d5d19481dda5b991bddc8195e1c1a5c995960521b6044820152606490fd5b60405162461bcd60e51b815260048101889052601760248201527f4e6f74207061796d656e74207061727469636970616e740000000000000000006044820152606490fd5b90508682015416331488611619565b3461015b57608036600319011261015b576004356001600160401b03811161015b5761178c903690600401611f19565b611794611f46565b9060443560ff8116810361015b57606435918215159384840361015b576117b96121e0565b6001600160a01b03169485156118eb5781156118a6577f5b98a0b8d95466d30425b78df6c383f9e0e0ceb178abd7068bbf3d501d94dc2d93602093604051848482378581868101600881520301902088600052855260406000209081548960ff60a81b8a60a81b169260ff60a01b9060a01b169169ffffffffffffffffffff60b01b16171717905560001461188357611865866040518484823785818681016009815203019020612224565b505b81604051928392833781016000815203902092604051908152a3005b6118a08660405184848237858186810160098152030190206122a9565b50611867565b60405162461bcd60e51b815260206004820152601760248201527f4e6574776f726b2063616e6e6f7420626520656d7074790000000000000000006044820152606490fd5b60405162461bcd60e51b8152602060048201526015602482015274496e76616c696420746f6b656e206164647265737360581b6044820152606490fd5b3461015b5761193636611f72565b9394909261194261259b565b6119566001600160a01b0388161515612399565b6119618615156123da565b61196c851515612426565b61198b6040518686823760208188810160058152030190205415612472565b60405183828237602081858101600881520301902060018060a01b0383166000526020526119c360ff60406000205460a81c166124be565b856005810204600514861517156105b4576040516323b872dd60e01b8152336004820152306024820152604481018790529060208260648160006001600160a01b0388165af19182156102d957611a8f92611a2591600091611eb25750612518565b6004549360405193611a368561206f565b3385526001600160a01b038a8116602087015216604085015260608401889052426080850181905260a0850152600060c08501526103e8600589020460e0850152611a8236888861219a565b610100850152369161219a565b610120820152600161014082015260016101608201526000610180820152600160401b821015610c075760018201600455611ac982611fe4565b610ced57815181546001600160a01b039182166001600160a01b031991821617835560208401516001840180549184169183169190911790556040840151600284018054919093169116179055606082015160038201556080820151600482015560a0820151600582015560c0820151600682015560e082015160078201556101008201518051906001600160401b038211610c07578190611b6e6008850154612035565b601f8111611e5f575b50602090601f8311600114611ded57600092611de2575b50508160011b916000199060031b1c19161760088201555b6101208201518051906001600160401b038211610c0757611bca6009840154612035565b601f8111611d9b575b50602090601f8311600114611d2857600a93929160009183611d1d575b50508160011b916000199060031b1c19161760098201555b01610140820151600281101561059e5760ff80198354169116178155610160820151600581101561059e57611c5e92611c446101809284612556565b0151815462ff0000191690151560101b62ff000016179055565b336000526006602052611c75816040600020612575565b60018060a01b0385166000526007602052611c94816040600020612575565b6001810181116105b457604051838382376020816001868201946005865201930301902055816040519283928337810160008152039020916103e86005604051938085520204602083015260018060a01b0316917f53c508e52d8f5e261d87a8d93a78c6851a65cafad8c6d9793451b38b256015f360403393a460018055602060405160018152f35b015190508a80611bf0565b906009840160005260206000209160005b601f1985168110611d835750918391600193600a9695601f19811610611d6a575b505050811b016009820155611c08565b015160001960f88460031b161c191690558a8080611d5a565b91926020600181928685015181550194019201611d39565b600984016000526020600020601f840160051c810160208510611ddb575b601f830160051c82018110611dcf575050611bd3565b60008155600101611db9565b5080611db9565b015190508980611b8e565b9250600884016000526020600020906000935b601f1984168510611e44576001945083601f19811610611e2b575b505050811b016008820155611ba6565b015160001960f88460031b161c19169055898080611e1b565b81810151835560209485019460019093019290910190611e00565b909150600884016000526020600020601f840160051c810160208510611eab575b90849392915b601f830160051c82018110611e9c575050611b77565b60008155859450600101611e86565b5080611e80565b61151c915060203d6020116102d2576102c4818361208b565b3461015b57602036600319011261015b57600435906001600160401b03821161015b57602081611f0082943690600401611f19565b8091833781016005815203019020541515604051908152f35b9181601f8401121561015b578235916001600160401b03831161015b576020838186019501011161015b57565b602435906001600160a01b038216820361015b57565b600435906001600160a01b038216820361015b57565b9060a060031983011261015b576001600160a01b0391600435838116810361015b5792602435908116810361015b5791604435916001600160401b039160643583811161015b5782611fc691600401611f19565b9390939260843591821161015b57611fe091600401611f19565b9091565b60045481101561201f57600b906004600052027f8a35acfbc15ff81a39ae7d344fd709f28e8600b4aa8c65c6b64bfe7fe36bd19b0190600090565b634e487b7160e01b600052603260045260246000fd5b90600182811c92168015612065575b602083101461204f57565b634e487b7160e01b600052602260045260246000fd5b91607f1691612044565b6101a081019081106001600160401b03821117610c0757604052565b90601f801991011681019081106001600160401b03821117610c0757604052565b90604051918260008254926120c084612035565b90818452600194858116908160001461212f57506001146120ec575b50506120ea9250038361208b565b565b9093915060005260209081600020936000915b8183106121175750506120ea935082010138806120dc565b855488840185015294850194879450918301916120ff565b9150506120ea94506020925060ff191682840152151560051b82010138806120dc565b60005b8381106121655750506000910152565b8181015183820152602001612155565b9060209161218e81518092818552858086019101612152565b601f01601f1916010190565b9291926001600160401b038211610c0757604051916121c3601f8201601f19166020018461208b565b82948184528183011161015b578281602093846000960137010152565b6000546001600160a01b031633036121f457565b60405163118cdaa760e01b8152336004820152602490fd5b805482101561201f5760005260206000200190600090565b919060018301600090828252806020526040822054156000146122a357845494600160401b86101561228f578361227f612268886001604098999a0185558461220c565b819391549060031b91821b91600019901b19161790565b9055549382526020522055600190565b634e487b7160e01b83526041600452602483fd5b50925050565b90600182019060009281845282602052604084205490811515600014612392576000199180830181811161237e5782549084820191821161236a57818103612335575b5050508054801561232157820191612304838361220c565b909182549160031b1b191690555582526020526040812055600190565b634e487b7160e01b86526031600452602486fd5b612355612345612268938661220c565b90549060031b1c9283928661220c565b905586528460205260408620553880806122ec565b634e487b7160e01b88526011600452602488fd5b634e487b7160e01b87526011600452602487fd5b5050505090565b156123a057565b60405162461bcd60e51b8152602060048201526012602482015271496e76616c6964204c50206164647265737360701b6044820152606490fd5b156123e157565b60405162461bcd60e51b815260206004820152601d60248201527f416d6f756e74206d7573742062652067726561746572207468616e20300000006044820152606490fd5b1561242d57565b60405162461bcd60e51b815260206004820152601a60248201527f5061796d656e742049442063616e6e6f7420626520656d7074790000000000006044820152606490fd5b1561247957565b60405162461bcd60e51b815260206004820152601760248201527f5061796d656e7420494420616c726561647920757365640000000000000000006044820152606490fd5b156124c557565b60405162461bcd60e51b8152602060048201526013602482015272151bdad95b881b9bdd081cdd5c1c1bdc9d1959606a1b6044820152606490fd5b9081602091031261015b5751801515810361015b5790565b1561251f57565b60405162461bcd60e51b815260206004820152600f60248201526e151c985b9cd9995c8819985a5b1959608a1b6044820152606490fd5b90600581101561059e5761ff0082549160081b169061ff001916179055565b805490600160401b821015610c0757816122689160016125979401815561220c565b9055565b6002600154146125ac576002600155565b604051633ee5aeb560e01b8152600490fd5b156125c557565b60405162461bcd60e51b815260206004820152601160248201527014185e5b595b9d081b9bdd08199bdd5b99607a1b6044820152606490fd5b1561260557565b60405162461bcd60e51b8152602060048201526015602482015274139bdd08185b88195cd8dc9bddc81c185e5b595b9d605a1b6044820152606490fd5b1561264957565b60405162461bcd60e51b8152602060048201526016602482015275496e76616c6964207061796d656e742073746174757360501b6044820152606490fd5b1561268e57565b60405162461bcd60e51b815260206004820152601360248201527214185e5b595b9d081a5cc8191a5cdc1d5d1959606a1b6044820152606490fdfea2646970667358221220a62045b9d4b212de1845a8e124300cf8d557dafa0ae049f45a7fe63d010fe07c64736f6c63430008140033",
  "linkReferences": {},
  "deployedLinkReferences": {}
}