{"contracts/UnitpayGetters.sol":{"UnitpayGetters":{"abi":[{"inputs":[{"internalType":"address","name":"_functionsRouter","type":"address"},{"internalType":"uint64","name":"_subscriptionId","type":"uint64"}],"stateMutability":"nonpayable","type":"constructor"},{"inputs":[],"name":"OnlyRouterCanFulfill","type":"error"},{"anonymous":false,"inputs":[{"indexed":true,"internalType":"bytes32","name":"id","type":"bytes32"}],"name":"RequestFulfilled","type":"event"},{"anonymous":false,"inputs":[{"indexed":true,"internalType":"bytes32","name":"id","type":"bytes32"}],"name":"RequestSent","type":"event"},{"inputs":[],"name":"getFunctionsRouter","outputs":[{"internalType":"address","name":"","type":"address"}],"stateMutability":"view","type":"function"},{"inputs":[],"name":"getSubscriptionId","outputs":[{"internalType":"uint64","name":"","type":"uint64"}],"stateMutability":"view","type":"function"},{"inputs":[{"internalType":"bytes32","name":"requestId","type":"bytes32"},{"internalType":"bytes","name":"response","type":"bytes"},{"internalType":"bytes","name":"err","type":"bytes"}],"name":"handleOracleFulfillment","outputs":[],"stateMutability":"nonpayable","type":"function"}],"evm":{"bytecode":{"linkReferences":{},"object":"60c03461008d576001600160401b0390601f6102e838819003918201601f19168301918483118484101761009257808492604094855283398101031261008d5780516001600160a01b038116919082900361008d5760200151918216820361008d5760805260a05260405161023f90816100a98239608051818181609b0152610119015260a05181605e0152f35b600080fd5b634e487b7160e01b600052604160045260246000fdfe6080604052600436101561001257600080fd5b6000803560e01c80630ca76175146100ca5780633395a79a146100855763de3d9fb71461003e57600080fd5b34610082578060031936011261008257602060405167ffffffffffffffff7f0000000000000000000000000000000000000000000000000000000000000000168152f35b80fd5b50346100825780600319360112610082576040517f00000000000000000000000000000000000000000000000000000000000000006001600160a01b03168152602090f35b50346100825760603660031901126100825767ffffffffffffffff602435818111610187576100fd90369060040161018b565b506044359081116101835761011690369060040161018b565b507f00000000000000000000000000000000000000000000000000000000000000006001600160a01b03163303610171576004357f85e1543bf2f84fe80c6badbce3648c8539ad1df4d2b3d822938ca0538be727e68280a280f35b60405163c6829f8360e01b8152600490fd5b5080fd5b8280fd5b81601f820112156101ee5780359067ffffffffffffffff928383116101f35760405193601f8401601f19908116603f01168501908111858210176101f357604052828452602083830101116101ee57816000926020809301838601378301015290565b600080fd5b634e487b7160e01b600052604160045260246000fdfea26469706673582212202f34691c0f7d20ce615249fd85b3faea8817e1136a9d532ff21b3ad9ca1c1d3e64736f6c63430008140033","opcodes":"PUSH1 0xC0 CALLVALUE PUSH2 0x8D JUMPI PUSH1 0x1 PUSH1 0x1 PUSH1 0x40 SHL SUB SWAP1 PUSH1 0x1F PUSH2 0x2E8 CODESIZE DUP2 SWAP1 SUB SWAP2 DUP3 ADD PUSH1 0x1F NOT AND DUP4 ADD SWAP2 DUP5 DUP4 GT DUP5 DUP5 LT OR PUSH2 0x92 JUMPI DUP1 DUP5 SWAP3 PUSH1 0x40 SWAP5 DUP6 MSTORE DUP4 CODECOPY DUP2 ADD SUB SLT PUSH2 0x8D JUMPI DUP1 MLOAD PUSH1 0x1 PUSH1 0x1 PUSH1 0xA0 SHL SUB DUP2 AND SWAP2 SWAP1 DUP3 SWAP1 SUB PUSH2 0x8D JUMPI PUSH1 0x20 ADD MLOAD SWAP2 DUP3 AND DUP3 SUB PUSH2 0x8D JUMPI PUSH1 0x80 MSTORE PUSH1 0xA0 MSTORE PUSH1 0x40 MLOAD PUSH2 0x23F SWAP1 DUP2 PUSH2 0xA9 DUP3 CODECOPY PUSH1 0x80 MLOAD DUP2 DUP2 DUP2 PUSH1 0x9B ADD MSTORE PUSH2 0x119 ADD MSTORE PUSH1 0xA0 MLOAD DUP2 PUSH1 0x5E ADD MSTORE RETURN JUMPDEST PUSH1 0x0 DUP1 REVERT JUMPDEST PUSH4 0x4E487B71 PUSH1 0xE0 SHL PUSH1 0x0 MSTORE PUSH1 0x41 PUSH1 0x4 MSTORE PUSH1 0x24 PUSH1 0x0 REVERT INVALID PUSH1 0x80 PUSH1 0x40 MSTORE PUSH1 0x4 CALLDATASIZE LT ISZERO PUSH2 0x12 JUMPI PUSH1 0x0 DUP1 REVERT JUMPDEST PUSH1 0x0 DUP1 CALLDATALOAD PUSH1 0xE0 SHR DUP1 PUSH4 0xCA76175 EQ PUSH2 0xCA JUMPI DUP1 PUSH4 0x3395A79A EQ PUSH2 0x85 JUMPI PUSH4 0xDE3D9FB7 EQ PUSH2 0x3E JUMPI PUSH1 0x0 DUP1 REVERT JUMPDEST CALLVALUE PUSH2 0x82 JUMPI DUP1 PUSH1 0x3 NOT CALLDATASIZE ADD SLT PUSH2 0x82 JUMPI PUSH1 0x20 PUSH1 0x40 MLOAD PUSH8 0xFFFFFFFFFFFFFFFF PUSH32 0x0 AND DUP2 MSTORE RETURN JUMPDEST DUP1 REVERT JUMPDEST POP CALLVALUE PUSH2 0x82 JUMPI DUP1 PUSH1 0x3 NOT CALLDATASIZE ADD SLT PUSH2 0x82 JUMPI PUSH1 0x40 MLOAD PUSH32 0x0 PUSH1 0x1 PUSH1 0x1 PUSH1 0xA0 SHL SUB AND DUP2 MSTORE PUSH1 0x20 SWAP1 RETURN JUMPDEST POP CALLVALUE PUSH2 0x82 JUMPI PUSH1 0x60 CALLDATASIZE PUSH1 0x3 NOT ADD SLT PUSH2 0x82 JUMPI PUSH8 0xFFFFFFFFFFFFFFFF PUSH1 0x24 CALLDATALOAD DUP2 DUP2 GT PUSH2 0x187 JUMPI PUSH2 0xFD SWAP1 CALLDATASIZE SWAP1 PUSH1 0x4 ADD PUSH2 0x18B JUMP JUMPDEST POP PUSH1 0x44 CALLDATALOAD SWAP1 DUP2 GT PUSH2 0x183 JUMPI PUSH2 0x116 SWAP1 CALLDATASIZE SWAP1 PUSH1 0x4 ADD PUSH2 0x18B JUMP JUMPDEST POP PUSH32 0x0 PUSH1 0x1 PUSH1 0x1 PUSH1 0xA0 SHL SUB AND CALLER SUB PUSH2 0x171 JUMPI PUSH1 0x4 CALLDATALOAD PUSH32 0x85E1543BF2F84FE80C6BADBCE3648C8539AD1DF4D2B3D822938CA0538BE727E6 DUP3 DUP1 LOG2 DUP1 RETURN JUMPDEST PUSH1 0x40 MLOAD PUSH4 0xC6829F83 PUSH1 0xE0 SHL DUP2 MSTORE PUSH1 0x4 SWAP1 REVERT JUMPDEST POP DUP1 REVERT JUMPDEST DUP3 DUP1 REVERT JUMPDEST DUP2 PUSH1 0x1F DUP3 ADD SLT ISZERO PUSH2 0x1EE JUMPI DUP1 CALLDATALOAD SWAP1 PUSH8 0xFFFFFFFFFFFFFFFF SWAP3 DUP4 DUP4 GT PUSH2 0x1F3 JUMPI PUSH1 0x40 MLOAD SWAP4 PUSH1 0x1F DUP5 ADD PUSH1 0x1F NOT SWAP1 DUP2 AND PUSH1 0x3F ADD AND DUP6 ADD SWAP1 DUP2 GT DUP6 DUP3 LT OR PUSH2 0x1F3 JUMPI PUSH1 0x40 MSTORE DUP3 DUP5 MSTORE PUSH1 0x20 DUP4 DUP4 ADD ADD GT PUSH2 0x1EE JUMPI DUP2 PUSH1 0x0 SWAP3 PUSH1 0x20 DUP1 SWAP4 ADD DUP4 DUP7 ADD CALLDATACOPY DUP4 ADD ADD MSTORE SWAP1 JUMP JUMPDEST PUSH1 0x0 DUP1 REVERT JUMPDEST PUSH4 0x4E487B71 PUSH1 0xE0 SHL PUSH1 0x0 MSTORE PUSH1 0x41 PUSH1 0x4 MSTORE PUSH1 0x24 PUSH1 0x0 REVERT INVALID LOG2 PUSH5 0x6970667358 0x22 SLT KECCAK256 0x2F CALLVALUE PUSH10 0x1C0F7D20CE615249FD85 0xB3 STATICCALL 0xEA DUP9 OR 0xE1 SGT PUSH11 0x9D532FF21B3AD9CA1C1D3E PUSH5 0x736F6C6343 STOP ADDMOD EQ STOP CALLER "},"methodIdentifiers":{"getFunctionsRouter()":"3395a79a","getSubscriptionId()":"de3d9fb7","handleOracleFulfillment(bytes32,bytes,bytes)":"0ca76175"}}}}}