{"contracts/UnitpayEnhanced.sol":{"UnitpayEnhanced":{"abi":[{"inputs":[{"internalType":"address","name":"_defaultToken","type":"address"},{"internalType":"address","name":"_functionsRouter","type":"address"},{"internalType":"bytes32","name":"_source","type":"bytes32"},{"internalType":"bytes32","name":"_secrets","type":"bytes32"},{"internalType":"uint64","name":"_subscriptionId","type":"uint64"},{"internalType":"bytes32","name":"_donId","type":"bytes32"}],"stateMutability":"nonpayable","type":"constructor"},{"inputs":[],"name":"EmptyArgs","type":"error"},{"inputs":[],"name":"EmptySource","type":"error"},{"inputs":[],"name":"NoInlineSecrets","type":"error"},{"inputs":[],"name":"OnlyRouterCanFulfill","type":"error"},{"inputs":[],"name":"ReentrancyGuardReentrantCall","type":"error"},{"anonymous":false,"inputs":[{"indexed":false,"internalType":"address","name":"functionsRouter","type":"address"},{"indexed":false,"internalType":"uint64","name":"subscriptionId","type":"uint64"}],"name":"ChainlinkConfigUpdated","type":"event"},{"anonymous":false,"inputs":[{"indexed":true,"internalType":"string","name":"paymentId","type":"string"},{"indexed":false,"internalType":"string","name":"orderIdStr","type":"string"}],"name":"OrderSubmitted","type":"event"},{"anonymous":false,"inputs":[{"indexed":true,"internalType":"string","name":"paymentId","type":"string"}],"name":"OrderVerified","type":"event"},{"anonymous":false,"inputs":[{"indexed":true,"internalType":"address","name":"from","type":"address"},{"indexed":true,"internalType":"address","name":"to","type":"address"}],"name":"OwnershipTransferRequested","type":"event"},{"anonymous":false,"inputs":[{"indexed":true,"internalType":"address","name":"from","type":"address"},{"indexed":true,"internalType":"address","name":"to","type":"address"}],"name":"OwnershipTransferred","type":"event"},{"anonymous":false,"inputs":[{"indexed":true,"internalType":"string","name":"paymentId","type":"string"},{"indexed":false,"internalType":"bool","name":"isAuto","type":"bool"}],"name":"PaymentConfirmed","type":"event"},{"anonymous":false,"inputs":[{"indexed":true,"internalType":"string","name":"paymentId","type":"string"}],"name":"PaymentDisputed","type":"event"},{"anonymous":false,"inputs":[{"indexed":true,"internalType":"string","name":"paymentId","type":"string"},{"indexed":true,"internalType":"address","name":"user","type":"address"},{"indexed":false,"internalType":"uint256","name":"amount","type":"uint256"}],"name":"PaymentExpired","type":"event"},{"anonymous":false,"inputs":[{"indexed":true,"internalType":"string","name":"paymentId","type":"string"},{"indexed":true,"internalType":"address","name":"user","type":"address"},{"indexed":true,"internalType":"address","name":"lp","type":"address"},{"indexed":false,"internalType":"uint256","name":"amount","type":"uint256"},{"indexed":false,"internalType":"uint256","name":"platformFee","type":"uint256"}],"name":"PaymentLocked","type":"event"},{"anonymous":false,"inputs":[{"indexed":true,"internalType":"string","name":"paymentId","type":"string"},{"indexed":true,"internalType":"address","name":"user","type":"address"},{"indexed":false,"internalType":"uint256","name":"amount","type":"uint256"}],"name":"PaymentRefunded","type":"event"},{"anonymous":false,"inputs":[{"indexed":true,"internalType":"string","name":"paymentId","type":"string"},{"indexed":true,"internalType":"address","name":"lp","type":"address"},{"indexed":false,"internalType":"uint256","name":"amount","type":"uint256"},{"indexed":false,"internalType":"uint256","name":"platformFee","type":"uint256"}],"name":"PaymentReleased","type":"event"},{"anonymous":false,"inputs":[{"indexed":true,"internalType":"string","name":"paymentId","type":"string"},{"indexed":true,"internalType":"address","name":"user","type":"address"},{"indexed":true,"internalType":"address","name":"lp","type":"address"},{"indexed":false,"internalType":"uint256","name":"amount","type":"uint256"},{"indexed":false,"internalType":"string","name":"network","type":"string"}],"name":"PaymentSettled","type":"event"},{"anonymous":false,"inputs":[{"indexed":true,"internalType":"string","name":"paymentId","type":"string"},{"indexed":false,"internalType":"uint8","name":"oldStatus","type":"uint8"},{"indexed":false,"internalType":"uint8","name":"newStatus","type":"uint8"},{"indexed":false,"internalType":"address","name":"triggeredBy","type":"address"},{"indexed":false,"internalType":"uint256","name":"timestamp","type":"uint256"}],"name":"PaymentStatusChanged","type":"event"},{"anonymous":false,"inputs":[{"indexed":false,"internalType":"uint256","name":"amount","type":"uint256"}],"name":"PlatformFeesWithdrawn","type":"event"},{"anonymous":false,"inputs":[{"indexed":true,"internalType":"bytes32","name":"id","type":"bytes32"}],"name":"RequestFulfilled","type":"event"},{"anonymous":false,"inputs":[{"indexed":true,"internalType":"bytes32","name":"id","type":"bytes32"}],"name":"RequestSent","type":"event"},{"anonymous":false,"inputs":[{"indexed":false,"internalType":"bytes32","name":"source","type":"bytes32"},{"indexed":false,"internalType":"bytes32","name":"secrets","type":"bytes32"}],"name":"SourceAndSecretsUpdated","type":"event"},{"anonymous":false,"inputs":[{"indexed":true,"internalType":"string","name":"network","type":"string"},{"indexed":true,"internalType":"address","name":"token","type":"address"},{"indexed":false,"internalType":"bool","name":"isEnabled","type":"bool"}],"name":"TokenConfigUpdated","type":"event"},{"anonymous":false,"inputs":[{"indexed":true,"internalType":"string","name":"paymentId","type":"string"},{"indexed":false,"internalType":"string","name":"reason","type":"string"}],"name":"VerificationFailed","type":"event"},{"anonymous":false,"inputs":[{"indexed":true,"internalType":"string","name":"paymentId","type":"string"},{"indexed":false,"internalType":"bytes32","name":"requestId","type":"bytes32"}],"name":"VerificationRequested","type":"event"},{"inputs":[],"name":"AUTO_RELEASE_TIME","outputs":[{"internalType":"uint256","name":"","type":"uint256"}],"stateMutability":"view","type":"function"},{"inputs":[],"name":"DISPUTE_WINDOW","outputs":[{"internalType":"uint256","name":"","type":"uint256"}],"stateMutability":"view","type":"function"},{"inputs":[],"name":"PAYMENT_EXPIRY_TIME","outputs":[{"internalType":"uint256","name":"","type":"uint256"}],"stateMutability":"view","type":"function"},{"inputs":[],"name":"PLATFORM_FEE_RATE","outputs":[{"internalType":"uint256","name":"","type":"uint256"}],"stateMutability":"view","type":"function"},{"inputs":[],"name":"T1_LOCK_TIME","outputs":[{"internalType":"uint256","name":"","type":"uint256"}],"stateMutability":"view","type":"function"},{"inputs":[],"name":"acceptOwnership","outputs":[],"stateMutability":"nonpayable","type":"function"},{"inputs":[{"internalType":"string","name":"paymentId","type":"string"}],"name":"confirmPayment","outputs":[],"stateMutability":"nonpayable","type":"function"},{"inputs":[{"internalType":"address","name":"lp","type":"address"},{"internalType":"address","name":"token","type":"address"},{"internalType":"uint256","name":"amount","type":"uint256"},{"internalType":"string","name":"network","type":"string"},{"internalType":"string","name":"merchantEmail","type":"string"}],"name":"createOrder","outputs":[{"internalType":"string","name":"","type":"string"}],"stateMutability":"nonpayable","type":"function"},{"inputs":[],"name":"defaultToken","outputs":[{"internalType":"contract IERC20","name":"","type":"address"}],"stateMutability":"view","type":"function"},{"inputs":[{"internalType":"string","name":"paymentId","type":"string"}],"name":"disputePayment","outputs":[],"stateMutability":"nonpayable","type":"function"},{"inputs":[{"internalType":"string","name":"paymentId","type":"string"}],"name":"expirePayment","outputs":[],"stateMutability":"nonpayable","type":"function"},{"inputs":[],"name":"getFunctionsRouter","outputs":[{"internalType":"address","name":"","type":"address"}],"stateMutability":"view","type":"function"},{"inputs":[{"internalType":"address","name":"lp","type":"address"}],"name":"getLpPayments","outputs":[{"internalType":"uint256[]","name":"","type":"uint256[]"}],"stateMutability":"view","type":"function"},{"inputs":[{"internalType":"string","name":"network","type":"string"}],"name":"getNetworkTokens","outputs":[{"internalType":"address[]","name":"","type":"address[]"}],"stateMutability":"view","type":"function"},{"inputs":[{"internalType":"uint256","name":"index","type":"uint256"}],"name":"getPaymentByIndex","outputs":[{"internalType":"address","name":"user","type":"address"},{"internalType":"address","name":"lp","type":"address"},{"internalType":"address","name":"token","type":"address"},{"internalType":"uint256","name":"amount","type":"uint256"},{"internalType":"uint256","name":"timestamp","type":"uint256"},{"internalType":"uint256","name":"lockTime","type":"uint256"},{"internalType":"uint256","name":"releaseTime","type":"uint256"},{"internalType":"uint256","name":"platformFee","type":"uint256"},{"internalType":"string","name":"paymentId","type":"string"},{"internalType":"string","name":"network","type":"string"},{"internalType":"enum UnitpayEnhanced.PaymentType","name":"paymentType","type":"uint8"},{"internalType":"enum UnitpayEnhanced.EscrowStatus","name":"escrowStatus","type":"uint8"},{"internalType":"bool","name":"isDisputed","type":"bool"}],"stateMutability":"view","type":"function"},{"inputs":[{"internalType":"string","name":"paymentId","type":"string"}],"name":"getPaymentByPaymentId","outputs":[{"internalType":"address","name":"user","type":"address"},{"internalType":"address","name":"lp","type":"address"},{"internalType":"address","name":"token","type":"address"},{"internalType":"uint256","name":"amount","type":"uint256"},{"internalType":"uint256","name":"timestamp","type":"uint256"},{"internalType":"uint256","name":"lockTime","type":"uint256"},{"internalType":"uint256","name":"releaseTime","type":"uint256"},{"internalType":"uint256","name":"platformFee","type":"uint256"},{"internalType":"string","name":"_paymentId","type":"string"},{"internalType":"string","name":"network","type":"string"},{"internalType":"enum UnitpayEnhanced.PaymentType","name":"paymentType","type":"uint8"},{"internalType":"enum UnitpayEnhanced.EscrowStatus","name":"escrowStatus","type":"uint8"},{"internalType":"bool","name":"isDisputed","type":"bool"}],"stateMutability":"view","type":"function"},{"inputs":[],"name":"getSubscriptionId","outputs":[{"internalType":"uint64","name":"","type":"uint64"}],"stateMutability":"view","type":"function"},{"inputs":[{"internalType":"address","name":"user","type":"address"}],"name":"getUserPayments","outputs":[{"internalType":"uint256[]","name":"","type":"uint256[]"}],"stateMutability":"view","type":"function"},{"inputs":[{"internalType":"bytes32","name":"requestId","type":"bytes32"},{"internalType":"bytes","name":"response","type":"bytes"},{"internalType":"bytes","name":"err","type":"bytes"}],"name":"handleOracleFulfillment","outputs":[],"stateMutability":"nonpayable","type":"function"},{"inputs":[{"internalType":"address","name":"lp","type":"address"},{"internalType":"address","name":"token","type":"address"},{"internalType":"uint256","name":"amount","type":"uint256"},{"internalType":"string","name":"network","type":"string"},{"internalType":"string","name":"paymentId","type":"string"}],"name":"lockPayment","outputs":[{"internalType":"bool","name":"","type":"bool"}],"stateMutability":"nonpayable","type":"function"},{"inputs":[{"internalType":"address","name":"","type":"address"}],"name":"lpPaypalEmail","outputs":[{"internalType":"string","name":"","type":"string"}],"stateMutability":"view","type":"function"},{"inputs":[{"internalType":"string","name":"","type":"string"}],"name":"merchantEmails","outputs":[{"internalType":"string","name":"","type":"string"}],"stateMutability":"view","type":"function"},{"inputs":[{"internalType":"string","name":"","type":"string"},{"internalType":"address","name":"","type":"address"}],"name":"networkTokens","outputs":[{"internalType":"address","name":"tokenAddress","type":"address"},{"internalType":"uint8","name":"decimals","type":"uint8"},{"internalType":"bool","name":"isEnabled","type":"bool"}],"stateMutability":"view","type":"function"},{"inputs":[],"name":"owner","outputs":[{"internalType":"address","name":"","type":"address"}],"stateMutability":"view","type":"function"},{"inputs":[{"internalType":"uint256","name":"","type":"uint256"}],"name":"paymentRecords","outputs":[{"internalType":"address","name":"user","type":"address"},{"internalType":"address","name":"lp","type":"address"},{"internalType":"address","name":"token","type":"address"},{"internalType":"uint256","name":"amount","type":"uint256"},{"internalType":"uint256","name":"timestamp","type":"uint256"},{"internalType":"uint256","name":"lockTime","type":"uint256"},{"internalType":"uint256","name":"releaseTime","type":"uint256"},{"internalType":"uint256","name":"platformFee","type":"uint256"},{"internalType":"string","name":"paymentId","type":"string"},{"internalType":"string","name":"network","type":"string"},{"internalType":"enum UnitpayEnhanced.PaymentType","name":"paymentType","type":"uint8"},{"internalType":"enum UnitpayEnhanced.EscrowStatus","name":"escrowStatus","type":"uint8"},{"internalType":"bool","name":"isDisputed","type":"bool"}],"stateMutability":"view","type":"function"},{"inputs":[],"name":"platformPendingFees","outputs":[{"internalType":"uint256","name":"","type":"uint256"}],"stateMutability":"view","type":"function"},{"inputs":[{"internalType":"string","name":"paymentId","type":"string"}],"name":"refundPayment","outputs":[],"stateMutability":"nonpayable","type":"function"},{"inputs":[{"internalType":"string","name":"email","type":"string"}],"name":"registerLp","outputs":[],"stateMutability":"nonpayable","type":"function"},{"inputs":[{"internalType":"string","name":"paymentId","type":"string"}],"name":"releasePayment","outputs":[],"stateMutability":"nonpayable","type":"function"},{"inputs":[{"internalType":"address","name":"lp","type":"address"},{"internalType":"address","name":"token","type":"address"},{"internalType":"uint256","name":"amount","type":"uint256"},{"internalType":"string","name":"network","type":"string"},{"internalType":"string","name":"paymentId","type":"string"}],"name":"settlePayment","outputs":[{"internalType":"bool","name":"","type":"bool"}],"stateMutability":"nonpayable","type":"function"},{"inputs":[{"internalType":"string","name":"paymentId","type":"string"},{"internalType":"string","name":"orderIdStr","type":"string"}],"name":"submitOrderId","outputs":[],"stateMutability":"nonpayable","type":"function"},{"inputs":[{"internalType":"string","name":"","type":"string"}],"name":"submittedOrderIds","outputs":[{"internalType":"string","name":"","type":"string"}],"stateMutability":"view","type":"function"},{"inputs":[{"internalType":"address","name":"to","type":"address"}],"name":"transferOwnership","outputs":[],"stateMutability":"nonpayable","type":"function"},{"inputs":[{"internalType":"address","name":"_functionsRouter","type":"address"}],"name":"updateFunctionsRouter","outputs":[],"stateMutability":"nonpayable","type":"function"},{"inputs":[{"internalType":"bytes32","name":"_source","type":"bytes32"},{"internalType":"bytes32","name":"_secrets","type":"bytes32"}],"name":"updateSourceAndSecrets","outputs":[],"stateMutability":"nonpayable","type":"function"},{"inputs":[{"internalType":"uint64","name":"_subscriptionId","type":"uint64"}],"name":"updateSubscriptionId","outputs":[],"stateMutability":"nonpayable","type":"function"},{"inputs":[{"internalType":"string","name":"network","type":"string"},{"internalType":"address","name":"tokenAddress","type":"address"},{"internalType":"uint8","name":"decimals","type":"uint8"},{"internalType":"bool","name":"isEnabled","type":"bool"}],"name":"updateTokenConfig","outputs":[],"stateMutability":"nonpayable","type":"function"},{"inputs":[{"internalType":"string","name":"","type":"string"}],"name":"verificationStatus","outputs":[{"internalType":"enum UnitpayEnhanced.VerificationStatus","name":"","type":"uint8"}],"stateMutability":"view","type":"function"},{"inputs":[{"internalType":"address","name":"token","type":"address"}],"name":"withdrawPlatformFees","outputs":[],"stateMutability":"nonpayable","type":"function"}],"evm":{"bytecode":{"linkReferences":{},"object":"60a03462000191576001600160401b03601f62004f8c38819003918201601f191684019183831185841017620001965780859260c09460405283398101031262000191576200004e82620001ac565b916200005d60208201620001ac565b926040820151906060830151926080810151948516809503620001915760a0015160016000556001600160a01b039586166080529433156200014c57600180546001600160a01b03199081163317909155911690811562000107576003541617600355600f5560105560018060401b03196012541617601255601155604051614dca9081620001c2823960805181818161065a0152818161073301528181610f2e0152612f810152f35b60405162461bcd60e51b815260206004820152601860248201527f5a65726f2061646472657373206e6f7420616c6c6f77656400000000000000006044820152606490fd5b60405162461bcd60e51b815260206004820152601860248201527f43616e6e6f7420736574206f776e657220746f207a65726f00000000000000006044820152606490fd5b600080fd5b634e487b7160e01b600052604160045260246000fd5b51906001600160a01b0382168203620001915756fe6080604052600436101561001257600080fd5b60003560e01c80630252d0ed14610287578063078081e6146102825780630ca761751461027d57806314b1dd1b1461027857806316e39dc2146102735780631a98dcb31461026e578063225bc08a146102695780632485d0f51461026457806328569d2b1461025f5780632930fa491461025a5780632d9e4977146102555780633395a79a146102505780635691fe631461024b57806356c350e4146102465780635922aeda14610241578063604f89791461023c578063666b9f4b1461023757806369f7e9b11461023257806373e306e31461022d57806374c13fda1461022857806379ba5097146102235780637e896cc51461021e57806383a41ff314610219578063860ba4c1146102145780638da5cb5b1461020f578063912db0fb1461020a578063977a2968146102055780639cf48d7d146102005780639d7dadeb146101fb578063a1941949146101f6578063a6b16096146101f1578063b7948996146101ec578063c2e8528c146101e7578063cd6c57c4146101e2578063d60bed9d146101dd578063de3d9fb7146101d8578063ec3889b5146101d3578063f2fde38b146101ce5763f585dc57146101c957600080fd5b6123aa565b6122e6565b61220c565b6121e5565b61204d565b612016565b611ff8565b611f19565b611cbf565b611b91565b611b19565b611afc565b611ae0565b6119d3565b6119aa565b611902565b6118e4565b611642565b611582565b611559565b61152c565b6114cb565b6114aa565b611376565b611286565b611216565b611093565b610f18565b610e94565b610e3d565b610c19565b610bc7565b610968565b610921565b610772565b6106cb565b61060b565b6104bc565b6102be565b9181601f840112156102b9578235916001600160401b0383116102b957602083818601950101116102b957565b600080fd5b346102b95760403660031901126102b9576001600160401b036004358181116102b9576102ef90369060040161028c565b91906024359182116102b95761041c927ff3897b43b82055dbcce0f9011f85a239a69153e8b3c03aa8fc17dabd642787e261033161041794369060040161028c565b61039f6001610390600a61036461035f61034e8a8c9a999a61255b565b5461035a8115156125d8565b61262e565b610f73565b5080840154610385906001600160a01b03163390868060a01b03161461265e565b015460081c60ff1690565b61039981610fe5565b146126aa565b6103c56103b66103af8688612574565b5460ff1690565b6103bf81611522565b156126ef565b6103d981846103d4878961258d565b612494565b6103f36103e68587612574565b805460ff19166001179055565b6103fd848661272f565b9261040d60405192839283612765565b0390a236916105b6565b612938565b005b602435906001600160a01b03821682036102b957565b600435906001600160a01b03821682036102b957565b9060a06003198301126102b9576001600160a01b039160043583811681036102b9579260243590811681036102b95791604435916001600160401b03916064358381116102b9578261049e9160040161028c565b939093926084359182116102b9576104b89160040161028c565b9091565b346102b95760206104fa6104ec6104f46104d53661044a565b96939597916104e59391936148be565b36916105b6565b9436916105b6565b936146e5565b60016000556040519015158152f35b634e487b7160e01b600052604160045260246000fd5b604081019081106001600160401b0382111761053a57604052565b610509565b608081019081106001600160401b0382111761053a57604052565b90601f801991011681019081106001600160401b0382111761053a57604052565b604051906101a082018281106001600160401b0382111761053a57604052565b6001600160401b03811161053a57601f01601f191660200190565b9291926105c28261059b565b916105d0604051938461055a565b8294818452818301116102b9578281602093846000960137010152565b9080601f830112156102b957816020610608933591016105b6565b90565b346102b95760603660031901126102b9576004356001600160401b036024358181116102b95761063f9036906004016105ed565b906044359081116102b9576106589036906004016105ed565b7f00000000000000000000000000000000000000000000000000000000000000006001600160a01b031633036106b9576106929183613ea7565b7f85e1543bf2f84fe80c6badbce3648c8539ad1df4d2b3d822938ca0538be727e6600080a2005b60405163c6829f8360e01b8152600490fd5b346102b95760203660031901126102b9576004356001600160401b0381168091036102b95760407f216f7020a29aa48a5cd85533a935f918c19d3c37e64e723350a6eb69881441679161071c6123c8565b6012805467ffffffffffffffff19168217905581517f00000000000000000000000000000000000000000000000000000000000000006001600160a01b031681526020810191909152a1005b801515036102b957565b346102b95760803660031901126102b9576004356001600160401b0381116102b9576107a290369060040161028c565b906107ab61041e565b906044359160ff831683036102b957606435926107c784610768565b6107cf6123c8565b6001600160a01b038216946107e58615156148e1565b80156108dc578383610892876108b1956108756108416108c49961082a897f5b98a0b8d95466d30425b78df6c383f9e0e0ceb178abd7068bbf3d501d94dc2d9d6125a6565b9060018060a01b0316600052602052604060002090565b80546001600160a01b0319166001600160a01b03871617815591825460ff60a01b191660a09190911b60ff60a01b16178255565b805460ff60a81b191691151560a81b60ff60a81b16919091179055565b86156108c9576108ab906108a684846125bf565b614925565b5061272f565b6040519315158452929081906020820190565b0390a3005b6108ab906108d784846125bf565b61498d565b60405162461bcd60e51b815260206004820152601760248201527f4e6574776f726b2063616e6e6f7420626520656d7074790000000000000000006044820152606490fd5b346102b95760003660031901126102b95760206040516107088152f35b60206003198201126102b957600435906001600160401b0382116102b9576104b89160040161028c565b346102b957610a356109793661093e565b906109826148be565b610a3061099561035f61034e858561255b565b50610a1f60ff600a830192610a15610a0d60058654936109c260018787166109bc81610fc9565b14614af0565b6109e6868660081c166109d481610fe5565b60018114908115610a64575b50614c35565b8054610a06906001600160a01b03165b6001600160a01b03163314614b75565b015461307c565b421115614c72565b60101c1615614cb7565b805462ff0000191662010000179055565b61272f565b7f91c26a99a0a4d117c4d67f42c08c4c42d13094fbef4b6a53a9dd88e5c2256386600080a261041c6001600055565b60029150610a7181610fe5565b14386109e0565b634e487b7160e01b600052600060045260246000fd5b90600182811c92168015610abe575b6020831014610aa857565b634e487b7160e01b600052602260045260246000fd5b91607f1691610a9d565b9060405191826000825492610adc84610a8e565b908184526001948581169081600014610b4b5750600114610b08575b5050610b069250038361055a565b565b9093915060005260209081600020936000915b818310610b33575050610b0693508201013880610af8565b85548884018501529485019487945091830191610b1b565b915050610b0694506020925060ff191682840152151560051b8201013880610af8565b60005b838110610b815750506000910152565b8181015183820152602001610b71565b90602091610baa81518092818552858086019101610b6e565b601f01601f1916010190565b906020610608928181520190610b91565b346102b95760203660031901126102b9576001600160a01b03610be8610434565b16600052600b602052610c15610c016040600020610ac8565b604051918291602083526020830190610b91565b0390f35b346102b957610d2b610c2a3661093e565b9190610c346148be565b610c4461035f61034e858461255b565b50600a810193845492610c5f600160ff86166109bc81610fc9565b610cc360ff8560081c1696610c7388610fe5565b600188148015610e2a575b610c8790614cf6565b60018501546001600160a01b0396610cab9188163314908115610e1c575b50614b75565b610cb488610fe5565b805461ff001916610400179055565b6002830154610ce890610cdc906001600160a01b031681565b6001600160a01b031690565b835460038501805460405163a9059cbb60e01b81526001600160a01b03909316600484015260248301529096909591602091889190829060009082906044820190565b03925af1948515610e17577f4f4233d8b608dab7ae8be019715573700f481096c3c0695cc3f8ff3bdc436bdd610d90610db496610d83610ddc99600080516020614d758339815191529b600091610de9575b506144f5565b546001600160a01b031690565b915492610d9d868661272f565b60405194855292169280602081015b0390a361272f565b6040805160ff9095168552600460208601523390850152426060850152929081906080820190565b0390a261041c6001600055565b610e0a915060203d8111610e10575b610e02818361055a565b810190613e46565b38610d7d565b503d610df8565b612f1e565b60ff915060101c1638610ca5565b50610e3488610fe5565b60028814610c7e565b346102b95760003660031901126102b957602060405160058152f35b6020908160408183019282815285518094520193019160005b828110610e80575050505090565b835185529381019392810192600101610e72565b346102b9576020806003193601126102b9576001600160a01b03610eb6610434565b1660005260088152604060002090604051908181845491828152019360005281600020916000905b828210610f0157610c1585610ef58189038261055a565b60405191829182610e59565b835486529485019460019384019390910190610ede565b346102b95760003660031901126102b9576040517f00000000000000000000000000000000000000000000000000000000000000006001600160a01b03168152602090f35b634e487b7160e01b600052603260045260246000fd5b600554811015610fae57600b906005600052027f036b6384b5eca791c62761152d0c79bb0604c104a5fb6f4eb0703f3154bb3db00190600090565b610f5d565b634e487b7160e01b600052602160045260246000fd5b60021115610fd357565b610fb3565b906002821015610fd35752565b60061115610fd357565b906006821015610fd35752565b989196611080969b9e9d9b611074966101809c96610b069f9a60408e916110659961108b9f9860018060a01b03928380921686521660208501521691015260608d015260808c015260a08b015260c08a015260e08901526101a0806101008a0152880190610b91565b90868203610120880152610b91565b98610140850190610fd8565b610160830190610fef565b019015159052565b346102b95760203660031901126102b9576004356005548110156102b9576110ba90610f73565b50805460018201546001600160a01b039182169291610c15911660028301549093906001600160a01b0316926003810154946004820154916005810154600682015460078301549061110e60088501610ac8565b92600a61111d60098701610ac8565b950154966040519b8c9b8c9860ff8b60101c169b60ff808d60081c169c169a610ffc565b9061115460209282815194859201610b6e565b0190565b6020611171918160405193828580945193849201610b6e565b8101600981520301902090565b6020611197918160405193828580945193849201610b6e565b8101600c81520301902090565b60206111bd918160405193828580945193849201610b6e565b8101600e81520301902090565b60206111e3918160405193828580945193849201610b6e565b8101600d81520301902090565b6020611209918160405193828580945193849201610b6e565b8101600681520301902090565b346102b95760403660031901126102b9576004356001600160401b0381116102b95761125c61124b60609236906004016105ed565b61082a61125661041e565b91611158565b5460ff6040519160018060a01b0381168352818160a01c16602084015260a81c1615156040820152f35b346102b95760203660031901126102b95760043560055481101561133b576112ad90610f73565b5080546001600160a01b03166001820154909190610c15906001600160a01b031660028301549093906001600160a01b03169260038101549460048201546005830154926006810154600782015490600a8301549561131a600961131360088701610ac8565b9501610ac8565b946040519b8c9b8c9860ff8b60101c169b60ff808d60081c169c169a610ffc565b60405162461bcd60e51b8152602060048201526013602482015272496e646578206f7574206f6620626f756e647360681b6044820152606490fd5b346102b9576113843661044a565b959193909294861561143b576114286113fb9661142e96611412610c159a6113d9620f424060405160208101904282523360601b6040820152446054820152605481526113d08161053f565b519020066142ef565b98611409604051809d819c637061795f60e01b60208401526024830190611141565b03601f1981018c528b61055a565b6103d48a61117e565b6104e561141e886111a4565b805460ff19169055565b926146e5565b5060405191829182610bb6565b60405162461bcd60e51b815260206004820152601e60248201527f4d65726368616e7420656d61696c2063616e6e6f7420626520656d70747900006044820152606490fd5b60206003198201126102b957600435906001600160401b0382116102b957610608916004016105ed565b346102b957610c15610c016114c66114c136611480565b61117e565b610ac8565b346102b95760403660031901126102b9577f7c7fc64fb8e9eab789082a884abdac75659103a8b5ba08d25925d6610e74996d604060043560243561150d6123c8565b81600f558060105582519182526020820152a1005b60041115610fd357565b346102b95760ff61154461153f36611480565b6111a4565b54166040516004821015610fd3576020918152f35b346102b95760003660031901126102b9576003546040516001600160a01b039091168152602090f35b346102b95760008060031936011261163f576002546001600160a01b039081163303611601576001546001600160a01b0316600180546001600160a01b0319163317905590600280546001600160a01b03191690553391167f8be0079c531659141344cd1fd0a4f28419497f9722a3daafe3b4186f6b6457e08380a380f35b60405162461bcd60e51b815260206004820152601660248201527526bab9ba10313290383937b837b9b2b21037bbb732b960511b6044820152606490fd5b80fd5b346102b9576116503661044a565b90919392949561165e6148be565b6001600160a01b03818116979061167689151561438e565b6116818615156143cf565b61168c84151561441b565b6116af6116aa6116a08461082a8b8d6125a6565b5460a81c60ff1690565b6144b3565b6040516323b872dd60e01b81523360048201523060248201526044810187905290821692906020906000908281606481858a5af18015610e17576116f99183916118cd57506144f5565b808261176461171261170a8c6131bf565b6103e8900490565b9761171d898d612651565b61173161172c8b6004546130c6565b600455565b60405163a9059cbb60e01b81526001600160a01b0389166004820152602481019190915293849283919082906044820190565b03925af18015610e175761177f9183916118b0575b50614a95565b6005549485948461178e61057b565b338152946001600160a01b03909116908501526001600160a01b031660408401528860608401524260808401528160a08401528160c084015260e0830152366117d89087896105b6565b6101008301526117e9368a8c6105b6565b610120830152806101408301528061016083015261018082015261180c9061454b565b33600090815260076020526040902082611825916146ac565b6001600160a01b0316600090815260086020526040902090611846916146ac565b61184f9061308c565b611859828461255b565b556118639161272f565b9160405191829133956118769284614ad9565b037fce1770ab7d1a256d012b7c071d6629036759ad11c5cffd2e6cd7d8b2dffc7e7c91a46118a46001600055565b60405160018152602090f35b6118c79150843d8611610e1057610e02818361055a565b38611779565b610e0a9150843d8611610e1057610e02818361055a565b346102b95760003660031901126102b9576020604051620151808152f35b346102b9576119196119133661093e565b906125bf565b60405190819080548084526020809401908192600052846000209060005b8682821061199657868661194d8288038361055a565b604051928392818401908285525180915260408401929160005b82811061197657505050500390f35b83516001600160a01b031685528695509381019392810192600101611967565b835485529093019260019283019201611937565b346102b95760003660031901126102b9576001546040516001600160a01b039091168152602090f35b346102b957611ab8600080516020614d75833981519152610ddc6119f63661093e565b611a019491946148be565b611a1161035f61034e838861255b565b5094600a860195611a7660ff8854611a3060018383166109bc81610fc9565b60081c1697611a3e89610fe5565b611a4a60018a14614b34565b8254611a5e906001600160a01b03166109f6565b611a6789610fe5565b805461ff001916610200179055565b600642910155611a86828261272f565b604051600081527f0338bd150f7922769ad6d998d3a6b2fc3668a74ac52c70c13136927bd1c1978990602090a261272f565b6040805160ff9095168552600260208601523390850152426060850152929081906080820190565b346102b957610c15610c016114c6611af736611480565b6111ca565b346102b95760003660031901126102b9576020604051612a308152f35b346102b9576020806003193601126102b9576001600160a01b03611b3b610434565b1660005260078152604060002090604051908181845491828152019360005281600020916000905b828210611b7a57610c1585610ef58189038261055a565b835486529485019460019384019390910190611b63565b346102b957611b9f3661093e565b908115611c8257600090338252602092600b845260408320916001600160401b03821161053a57611bda82611bd48554610a8e565b8561244f565b8394601f8311600114611c16575093839482939492611c0b575b50508160011b916000199060031b1c191617905580f35b013590503880611bf4565b90601f19831695611c2c85600052602060002090565b9286905b888210611c6a57505083600195969710611c50575b505050811b01905580f35b0135600019600384901b60f8161c19169055388080611c45565b80600184968294958701358155019501920190611c30565b60405162461bcd60e51b8152602060048201526015602482015274456d61696c2063616e6e6f7420626520656d70747960581b6044820152606490fd5b346102b957611de6611cd03661093e565b9190611cda6148be565b611cea61035f61034e858461255b565b50600a810193611d65855495611d08600160ff89166109bc81610fc9565b611d3b60ff808960081c1698611d1d8a610fe5565b60028a148015611eea575b611d3190614bb2565b60101c1615614bf3565b611d4487610fe5565b60018714611eae575b611d5687610fe5565b805461ff001916610300179055565b6003820154926007830193611d8b61172c611d8287548094612651565b926004546130c6565b6020816001611da9610cdc610cdc60028a015460018060a01b031690565b9601805460405163a9059cbb60e01b81526001600160a01b0390911660048201526024810192909252909790958891829060009082906044820190565b03925af1948515610e17577fa4b9aff2e7bd4815fd0c77044b1652a3cdc9d61c082a9a75510dd9d30d1c1009611e3d611e6e96610d83610ddc99600080516020614d758339815191529b600091611e965750614a95565b9154611e49868661272f565b6040805195865260208601929092526001600160a01b03909316939081908101610dac565b6040805160ff9095168552600360208601523390850152426060850152929081906080820190565b6118c7915060203d8111610e1057610e02818361055a565b611eb8838661272f565b604051600181527f0338bd150f7922769ad6d998d3a6b2fc3668a74ac52c70c13136927bd1c1978990602090a2611d4d565b50611ef48a610fe5565b60018a148015611d285750611d31611f0f600589015461309a565b4210159050611d28565b346102b95760203660031901126102b957611f32610434565b611f3a6123c8565b6001600160a01b031615611fb35760405162461bcd60e51b815260206004820152603960248201527f526f7574657220757064617465206e6f7420737570706f72746564202d206e6560448201527f656420746f206465706c6f79206e657720636f6e7472616374000000000000006064820152608490fd5b60405162461bcd60e51b815260206004820152601860248201527f5a65726f2061646472657373206e6f7420616c6c6f77656400000000000000006044820152606490fd5b346102b95760003660031901126102b9576020600454604051908152f35b346102b9576112ad61035f602061202c3661093e565b9190826040519384928337810160068152030190205461035a8115156125d8565b346102b95761205b3661093e565b906120646148be565b61207461035f61034e848461255b565b5061213a600a8201936120de60ff865461209560018383166109bc81610fc9565b60081c16956120a387610fe5565b6120af60018814614b34565b6120c66120bf60058701546130a9565b4211614d32565b6120cf87610fe5565b805461ff001916610500179055565b60028301546120f790610cdc906001600160a01b031681565b835460038501805460405163a9059cbb60e01b81526001600160a01b03909316600484015260248301529590939091602091859190829060009082906044820190565b03925af1948515610e1757612170610ddc95610d83600080516020614d75833981519152986121bd97600091610de957506144f5565b9054907f28afe715dbd83795e640b15a8e7a443f6bcc98def0089c4fe40e6c0841de9145610dac6121a1868661272f565b6040519485526001600160a01b03909316939081906020820190565b6040805160ff9095168552600560208601523390850152426060850152929081906080820190565b346102b95760003660031901126102b95760206001600160401b0360125416604051908152f35b346102b95760203660031901126102b957612290612228610434565b6122306123c8565b6001600160a01b03166122448115156148e1565b602060045480926122556000600455565b60015460405163a9059cbb60e01b81526001600160a01b03909116600482015260248101929092529093849190829060009082906044820190565b03925af1908115610e17576122d16122e1927f9870c8023baa016ac002ddfa7cdad341155acddddee3032c07d4baa4947ae64394600091610de957506144f5565b6040519081529081906020820190565b0390a1005b346102b95760203660031901126102b9576122ff610434565b6123076123c8565b6001600160a01b031633811461236557600280546001600160a01b0319168217905560015461233e906001600160a01b0316610cdc565b7fed8889f560326eb138920d842192f0eb3dd22b4f139c87a2c57538e05bae1278600080a3005b60405162461bcd60e51b815260206004820152601760248201527f43616e6e6f74207472616e7366657220746f2073656c660000000000000000006044820152606490fd5b346102b95760003660031901126102b95760206040516203f4808152f35b6001546001600160a01b031633036123dc57565b60405162461bcd60e51b815260206004820152601660248201527527b7363c9031b0b63630b1363290313c9037bbb732b960511b6044820152606490fd5b916124349183549060031b91821b91600019901b19161790565b9055565b818110612443575050565b60008155600101612438565b9190601f811161245e57505050565b610b06926000526020600020906020601f840160051c8301931061248a575b601f0160051c0190612438565b909150819061247d565b9092916001600160401b03811161053a576124b9816124b38454610a8e565b8461244f565b6000601f82116001146124f357819293946000926124e8575b50508160011b916000199060031b1c1916179055565b0135905038806124d2565b601f1982169461250884600052602060002090565b91805b878110612543575083600195969710612529575b505050811b019055565b0135600019600384901b60f8161c1916905538808061251f565b9092602060018192868601358155019401910161250b565b6020908260405193849283378101600681520301902090565b6020908260405193849283378101600e81520301902090565b6020908260405193849283378101600d81520301902090565b6020908260405193849283378101600981520301902090565b6020908260405193849283378101600a81520301902090565b156125df57565b60405162461bcd60e51b815260206004820152601160248201527014185e5b595b9d081b9bdd08199bdd5b99607a1b6044820152606490fd5b634e487b7160e01b600052601160045260246000fd5b60001981019190821161263d57565b612618565b601f1981019190821161263d57565b9190820391821161263d57565b1561266557565b60405162461bcd60e51b815260206004820152601d60248201527f4f6e6c792064657369676e61746564204c502063616e207375626d69740000006044820152606490fd5b156126b157565b60405162461bcd60e51b8152602060048201526016602482015275496e76616c6964207061796d656e742073746174757360501b6044820152606490fd5b156126f657565b60405162461bcd60e51b8152602060048201526011602482015270105b1c9958591e481cdd589b5a5d1d1959607a1b6044820152606490fd5b81604051928392833781016000815203902090565b908060209392818452848401376000828201840152601f01601f1916010190565b916020610608938181520191612744565b6040519060e082018281106001600160401b0382111761053a57604052606060c08360008152600060208201526000604082015282808201528260808201528260a08201520152565b6040519060a082018281106001600160401b0382111761053a57604052600482528160005b608081106127f0575050565b8060606020809385010152016127e4565b805115610fae5760200190565b805160011015610fae5760400190565b805160021015610fae5760600190565b805160031015610fae5760800190565b8051821015610fae5760209160051b010190565b91909182516001600160401b03811161053a57612873816124b38454610a8e565b602080601f83116001146128ae5750819293946000926128a35750508160011b916000199060031b1c1916179055565b0151905038806124d2565b90601f198316956128c485600052602060002090565b926000905b888210612900575050836001959697106128e757505050811b019055565b015160001960f88460031b161c1916905538808061251f565b806001859682949686015181550195019301906128c9565b61293090602060405192828480945193849201610b6e565b810103902090565b7fcb4efc405b00543d057b47dbeaf4292cbb3b07be86fbeaa9d4afd6080ec711da612ac8612ab7612a94612a7f61297a61035f612974886111f0565b5461262e565b50612a7a61298a6114c6896111ca565b6129966114c68a61117e565b92612a4c60036129cf6114c66129b5600186015460018060a01b031690565b6001600160a01b03166000908152600b6020526040902090565b926129d8612776565b96612a0c6129f8612a06600f546040519283916020830160209181520190565b03601f19810183528261055a565b89612dd2565b601054612acd575b612a1c6127bf565b95612a2687612801565b52612a3086612801565b50612a3a8661280e565b52612a448561280e565b500154613b96565b612a558361281e565b52612a5f8261281e565b50612a698261282e565b52612a738161282e565b5082612ef0565b612bff565b6012546001600160401b031660115491612f2a565b93612ab281612aad876000526013602052604060002090565b612852565b612918565b604051938452929081906020820190565b0390a2565b612ad688612dfb565b612a14565b60405190612ae88261051f565b600c82526b31b7b232a637b1b0ba34b7b760a11b6020830152565b60031115610fd357565b60405190612b1a8261051f565b60088252676c616e677561676560c01b6020830152565b60011115610fd357565b60405190612b488261051f565b6006825265736f7572636560d01b6020830152565b60405190612b6a8261051f565b60048252636172677360e01b6020830152565b600019811461263d5760010190565b60405190612b998261051f565b600f82526e39b2b1b932ba39a637b1b0ba34b7b760891b6020830152565b60405190612bc48261051f565b60078252667365637265747360c81b6020830152565b60405190612be78261051f565b600982526862797465734172677360b81b6020830152565b612c0761302c565b90612c19612c13612adb565b83613825565b612c368151612c2781612b03565b612c3081612b03565b83613125565b612c41612c13612b0d565b612c5b6040820151612c5281612b31565b612c3081612b31565b612c66612c13612b3b565b612c74606082015183613825565b60a08101805151612d79575b506080810190815151612cf9575b60c0915001805151612ca1575b50515190565b91612cad612c13612bda565b612cb6826138a9565b60005b83518051821015612ce65790612cdc612cd582612ce19461283e565b5185613770565b612b7d565b612cb9565b50509150612cf381613935565b38612c9b565b602081018051612d0881612b03565b612d1181612b03565b15612d675760c092612d4a612d6292612d31612d2b612b8c565b88613825565b51612d3b81612b03565b612d4481612b03565b86613125565b612d5b612d55612bb7565b86613825565b5184613770565b612c8e565b60405163a80d31f760e01b8152600490fd5b92612d8b612d85612b5d565b84613825565b612d94836138a9565b60005b84518051821015612dbf5790612cdc612db382612dba9461283e565b5186613825565b612d97565b50509250612dcc82613935565b38612c80565b815115612de9576000808252604082015260600152565b6040516322ce3edd60e01b8152600490fd5b612e0361302c565b612e2b604051612e128161051f565b60068152651cdb1bdd125160d21b602082015282613825565b805190612e36613012565b50815151600181019081811161263d576020840151811015612eb5575b6000602060809551928301015380518211612ead575b5050612e94604051612e7a8161051f565b60078152663b32b939b4b7b760c91b602082015282613825565b612e9e815161351e565b50600260208401525151910152565b523880612e69565b8160011b938285046002148315171561263d57602081612ee6608097612edf6000955191846130d3565b50826136b8565b5095505050612e53565b815115612efd5760a00152565b60405163fe936cb760e01b8152600490fd5b908160209103126102b9575190565b6040513d6000823e3d90fd5b916020916001600160401b0391612f63604051958694859463230e93b160e11b865216600485015260a0602485015260a4840190610b91565b60016044840152620493e060648401526084830191909152038160007f00000000000000000000000000000000000000000000000000000000000000006001600160a01b03165af1908115610e1757600091612fe4575b50807f1131472297a800fee664d1d89cfa8f7676ff07189ecc53f80bbb5f4969099db8600080a290565b613005915060203d811161300b575b612ffd818361055a565b810190612f0f565b38612fba565b503d612ff3565b6040519061301f8261051f565b6000602083606081520152565b6040516130388161051f565b613040613012565b8082526020820160008152613053613012565b5061010060208301526040518092526000825261012082019182106102b9576000916040525290565b906203f480820180921161263d57565b906001820180921161263d57565b90612a30820180921161263d57565b90610708820180921161263d57565b906020820180921161263d57565b9190820180921161263d57565b906130dc613012565b50601f81168061310b575b50806020830152604051908183526000825281016020019081106102b95760405290565b6020036020811161263d57810180911161263d57386130e7565b90815191613131613012565b50825151600181019081811161263d57602085015181101561318a575b60c26020610b069651928301015380518211613182575b50506040519160208301526020825261317d8261051f565b613770565b523880613165565b8160011b948286046002148315171561263d576020816131b5610b0698612edf60c2955191846130d3565b509650505061314e565b9060058202918083046005149015171561263d57565b908160011b918083046002149015171561263d57565b6131f3613012565b50805151600181019081811161263d57602083015181101561322c575b605b6020845192830101538051821161322857505090565b5290565b8160011b8281046002148315171561263d576132559061324e855191866130d3565b50846136b8565b50613210565b613263613012565b50805151600181019081811161263d576020830151811015613298575b605a6020845192830101538051821161322857505090565b8160011b8281046002148315171561263d576132ba9061324e855191866130d3565b50613280565b6132c8613012565b50805151600181019081811161263d5760208301518110156132fd575b60596020845192830101538051821161322857505090565b8160011b8281046002148315171561263d5761331f9061324e855191866130d3565b506132e5565b61332d613012565b50805151600181019081811161263d576020830151811015613362575b60586020845192830101538051821161322857505090565b8160011b8281046002148315171561263d576133849061324e855191866130d3565b5061334a565b613392613012565b50805151600181019081811161263d5760208301518110156133c7575b607b6020845192830101538051821161322857505090565b8160011b8281046002148315171561263d576133e99061324e855191866130d3565b506133af565b6133f7613012565b50805151600181019081811161263d57602083015181101561342c575b607a6020845192830101538051821161322857505090565b8160011b8281046002148315171561263d5761344e9061324e855191866130d3565b50613414565b61345c613012565b50805151600181019081811161263d576020830151811015613491575b60796020845192830101538051821161322857505090565b8160011b8281046002148315171561263d576134b39061324e855191866130d3565b50613479565b6134c1613012565b50805151600181019081811161263d5760208301518110156134f6575b60786020845192830101538051821161322857505090565b8160011b8281046002148315171561263d576135189061324e855191866130d3565b506134de565b613526613012565b50805151600181019081811161263d57602083015181101561355b575b60016020845192830101538051821161322857505090565b8160011b8281046002148315171561263d5761357d9061324e855191866130d3565b50613543565b9061358c613012565b50815151600181019182821161263d5760208401518210156135bf575b6020845192830101538051821161322857505090565b8260011b8381046002148415171561263d576135e8906135e1865191876130d3565b50856136b8565b506135a9565b906135fb825191836130d3565b50613604613012565b50805190613610613012565b5061361e8151831115613769565b8251519261362c83856130c6565b9160209282848094015182116136a1575b5183815197820101968211613699575b505001915b818110156136735760001991036101000a0190811990511690825116179052565b919261368e61368861369492865181526130b8565b946130b8565b92612642565b613652565b52388061364d565b6136b36136ad836131d5565b826135ee565b61363d565b906136c1613012565b5080516136cc613012565b506136da8251821115613769565b825151916136e882846130c6565b6020918291828701518111613752575b86518381519782010196821161374a575b505001915b818110156137305760001991036101000a019081199051169082511617905290565b919261368e61368861374592865181526130b8565b61370e565b523880613709565b61376461375e826131d5565b886135ee565b6136f8565b156102b957565b81516137a79291906001600160401b03811690601782116137aa5761379f9150604060ff845192161790613583565b505b516136b8565b50565b5060ff81116137cf576137c9906137c18351613325565b508251613afe565b506137a1565b61ffff81116137ee576137c9906137e683516132c0565b508251613a97565b63ffffffff811161380f576137c990613807835161325b565b508251613a2e565b6137c99061381d83516131eb565b5082516139c2565b81516137a79291906001600160401b03811690601782116138545761379f9150606060ff845192161790613583565b5060ff811161386b576137c9906137c183516134b9565b61ffff8111613882576137c9906137e68351613454565b63ffffffff811161389b576137c99061380783516133ef565b6137c99061381d835161338a565b8051906138b4613012565b50815151600181019081811161263d576020840151811015613902575b609f60208095519283010153805182116138fa575b5050018051906001820180921161263d5752565b5238806138e6565b8160011b938285046002148315171561263d5760208161392b8297612edf609f955191846130d3565b50955050506138d1565b805190613940613012565b50815151600181019081811161263d57602084015181101561398f575b60ff6020809551928301015380518211613987575b505001805160001981019190821161263d5752565b523880613972565b8160011b938285046002148315171561263d576020816139b88297612edf60ff955191846130d3565b509550505061395d565b906139cb613012565b5081515180600801918260081161263d5760208401518311613a0d575b6008845192830101906001600160401b03198251161790528051821161322857505090565b8260011b8381046002148415171561263d57613a2990856135ee565b6139e8565b90613a37613012565b5081515180600401918260041161263d5760208401518311613a76575b60048451928301019063ffffffff198251161790528051821161322857505090565b8260011b8381046002148415171561263d57613a9290856135ee565b613a54565b90613aa0613012565b5081515180600201918260021161263d5760208401518311613add575b60028451928301019061ffff198251161790528051821161322857505090565b8260011b8381046002148415171561263d57613af990856135ee565b613abd565b90613b07613012565b5081515180600101918260011161263d5760208401518311613b43575b60018451928301019060ff198251161790528051821161322857505090565b8260011b8381046002148415171561263d57613b5f90856135ee565b613b24565b90613b6e8261059b565b613b7b604051918261055a565b8281528092613b8c601f199161059b565b0190602036910137565b806000917a184f03e93ff9f4daa797ed6e38ed64bf6a1f01000000000000000080821015613ccb575b506d04ee2d6d415b85acef810000000080831015613cbc575b50662386f26fc1000080831015613cad575b506305f5e10080831015613c9e575b5061271080831015613c8f575b506064821015613c7f575b600a80921015613c75575b600190816021613c2d828701613b64565b95860101905b613c3f575b5050505090565b600019019083906f181899199a1a9b1b9c1cb0b131b232b360811b8282061a835304918215613c7057919082613c33565b613c38565b9160010191613c1c565b9190606460029104910191613c11565b60049193920491019138613c06565b60089193920491019138613bf9565b60109193920491019138613bea565b60209193920491019138613bd8565b604093508104915038613bbf565b15613ce057565b60405162461bcd60e51b815260206004820152600f60248201526e155b9adb9bdddb881c995c5d595cdd608a1b6044820152606490fd5b613d218154610a8e565b9081613d2b575050565b81601f60009311600114613d3d575055565b908083918252613d5c601f60208420940160051c840160018501612438565b5555565b81601f820112156102b9578051613d768161059b565b92613d84604051948561055a565b818452602082840101116102b9576106089160208085019101610b6e565b916080838303126102b9578251906001600160401b03918281116102b95783613dcc918601613d60565b9360208101518381116102b95784613de5918301613d60565b9360408201519360608301519081116102b9576106089201613d60565b60405190613e0f8261051f565b600982526810d3d354131155115160ba1b6020830152565b906006811015610fd35761ff0082549160081b169061ff001916179055565b908160209103126102b9575161060881610768565b15613e6257565b60405162461bcd60e51b815260206004820152601c60248201527f4175746f2072656c65617365207472616e73666572206661696c6564000000006044820152606490fd5b9190613ee8613ee3613ec66114c6866000526013602052604060002090565b94613ed386511515613cd9565b6000526013602052604060002090565b613d17565b613ef761035f61034e856111f0565b50915161427157613f12602091828082518301019101613da2565b909392838151910120936001860194613f376114c66129b5885460018060a01b031690565b85815191012014928361424e575b5082614240575b5081614223575b50156141a25783613f77613f6a61405195966111a4565b805460ff19166002179055565b61172c600a860195613f8e875460ff9060081c1690565b613f9781610fe5565b875461ff001916610200178855426006830155613fb384612918565b7fa9666caa7f73e1d8695413f0d01a9d1a35790236aef99afea9a330c933260ec1600080a2613fe184612918565b604051600081527f0338bd150f7922769ad6d998d3a6b2fc3668a74ac52c70c13136927bd1c1978990602090a261401784612918565b6040805160ff9093168352600260208401523090830152426060830152600080516020614d75833981519152979091889181906080820190565b0390a2865461406a9060081c60ff1697611d5689610fe5565b6140e58460038301546140ab610cdc610cdc6002600788019761409d6140928a548098612651565b9a8b976004546130c6565b01546001600160a01b031690565b885460405163a9059cbb60e01b81526001600160a01b03909116600482015260248101929092529092839190829060009082906044820190565b03925af1908115610e1757612ac896610d837fa4b9aff2e7bd4815fd0c77044b1652a3cdc9d61c082a9a75510dd9d30d1c1009936141309361415d99600092614185575b5050613e5b565b915461413b85612918565b6040805195865260208601929092526001600160a01b039390931693a3612918565b6040805160ff9095168552600360208601523090850152426060850152929081906080820190565b61419b9250803d10610e1057610e02818361055a565b3880614129565b50505080612ab26141b56141c2936111a4565b805460ff19166003179055565b7f7c25a4602a93bbf53e4a774f7358258af8f55caf75fc6b294ac8bb2f056d8bea60405180612ac88160609060208152601a60208201527f566572696669636174696f6e2064617461206d69736d6174636800000000000060408201520190565b9050818151910120614233613e02565b8281519101201438613f53565b600386015414915038613f4c565b9092508381519101206142636114c68861117e565b848151910120149138613f45565b505080612ab26141b5614283936111a4565b7f7c25a4602a93bbf53e4a774f7358258af8f55caf75fc6b294ac8bb2f056d8bea60405180612ac88160809060208152602260208201527f45787465726e616c206572726f7220647572696e67207665726966696361746960408201526137b760f11b60608201520190565b8015614370576000818181805b614358575061430a81613b64565b935b6143165750505090565b61431f9061262e565b90600a906030828206810180911161263d578551841015610fae5760f81b6001600160f81b031916841a8584016020015304908161430c565b9150614365600a91612b7d565b9104808492916142fc565b5060405161437d8161051f565b60018152600360fc1b602082015290565b1561439557565b60405162461bcd60e51b8152602060048201526012602482015271496e76616c6964204c50206164647265737360701b6044820152606490fd5b156143d657565b60405162461bcd60e51b815260206004820152601d60248201527f416d6f756e74206d7573742062652067726561746572207468616e20300000006044820152606490fd5b1561442257565b60405162461bcd60e51b815260206004820152601a60248201527f5061796d656e742049442063616e6e6f7420626520656d7074790000000000006044820152606490fd5b1561446e57565b60405162461bcd60e51b815260206004820152601760248201527f5061796d656e7420494420616c726561647920757365640000000000000000006044820152606490fd5b156144ba57565b60405162461bcd60e51b8152602060048201526013602482015272151bdad95b881b9bdd081cdd5c1c1bdc9d1959606a1b6044820152606490fd5b156144fc57565b60405162461bcd60e51b815260206004820152600f60248201526e151c985b9cd9995c8819985a5b1959608a1b6044820152606490fd5b906002811015610fd35760ff80198354169116179055565b600554600160401b81101561053a5780600161456a9201600555610f73565b91909161468f57805182546001600160a01b0319166001600160a01b03909116178255610b06916146779061018090600a9060208501516001820180546001600160a01b0319166001600160a01b0390921691909117905560408501516002820180546001600160a01b0319166001600160a01b03909216919091179055606085015160038201556080850151600482015560a0850151600582015560c0850151600682015560e0850151600782015561462c61010086015160088301612852565b61463e61012086015160098301612852565b019261465861014082015161465281610fc9565b85614533565b61467061016082015161466a81610fe5565b85613e27565b0151151590565b815462ff0000191690151560101b62ff000016179055565b610a78565b8054821015610fae5760005260206000200190600090565b805490600160401b82101561053a57816146ce91600161243494018155614694565b819391549060031b91821b91600019901b19161790565b91929060018060a01b03808416956146fe87151561438e565b6147098615156143cf565b6147158151151561441b565b614728614721826111f0565b5415614467565b61473b6116aa6116a08561082a88611158565b61474761170a876131bf565b6040516323b872dd60e01b815233600482015230602482015260448101889052909590926020908490606490829060009089165af1948515610e17576148868861486761488b9461484d6148b6996147cb7f53c508e52d8f5e261d87a8d93a78c6851a65cafad8c6d9793451b38b256015f39c61489a9b600091610de957506144f5565b6005549687956147ff6147dc61057b565b338152936001600160a01b03871660208601526001600160a01b03166040850152565b60608301524260808301524260a0830152600060c08301528d60e083015289610100830152610120820152614838610140820160019052565b6001610160820152600061018082015261454b565b33600090815260076020526040902061486c9084906146ac565b6146ac565b6001600160a01b0316600090815260086020526040902090565b61308c565b614894826111f0565b55612918565b9260405191829133968360209093929193604081019481520152565b0390a4600190565b6002600054146148cf576002600055565b604051633ee5aeb560e01b8152600490fd5b156148e857565b60405162461bcd60e51b8152602060048201526015602482015274496e76616c696420746f6b656e206164647265737360581b6044820152606490fd5b610608916001600160a01b0316906001810190826000528160205260406000205415600014614985578054600160401b81101561053a576149706146ce826001879401855584614694565b90555491600052602052604060002055600190565b505050600090565b610608916001600160a01b0316906149e0565b80549081156149ca57600019918201916149ba8383614694565b909182549160031b1b1916905555565b634e487b7160e01b600052603160045260246000fd5b6001810191806000528260205260406000205492831515600014614a8c57600019928484019085821161263d57805494850194851161263d576000958583614a4397614a349503614a49575b5050506149a0565b90600052602052604060002090565b55600190565b614a73614a6d91614a5d614a839487614694565b90549060031b1c92839187614694565b9061241a565b8590600052602052604060002090565b55388080614a2c565b50505050600090565b15614a9c57565b60405162461bcd60e51b8152602060048201526015602482015274151c985b9cd9995c881d1bc813140819985a5b1959605a1b6044820152606490fd5b604090610608949281528160208201520191612744565b15614af757565b60405162461bcd60e51b8152602060048201526015602482015274139bdd08185b88195cd8dc9bddc81c185e5b595b9d605a1b6044820152606490fd5b15614b3b57565b60405162461bcd60e51b815260206004820152601260248201527114185e5b595b9d081b9bdd081b1bd8dad95960721b6044820152606490fd5b15614b7c57565b60405162461bcd60e51b815260206004820152600e60248201526d139bdd08185d5d1a1bdc9a5e995960921b6044820152606490fd5b15614bb957565b60405162461bcd60e51b815260206004820152601260248201527110d85b9b9bdd081c995b19585cd9481e595d60721b6044820152606490fd5b15614bfa57565b60405162461bcd60e51b815260206004820152601360248201527214185e5b595b9d081a5cc8191a5cdc1d5d1959606a1b6044820152606490fd5b15614c3c57565b60405162461bcd60e51b815260206004820152600e60248201526d43616e6e6f74206469737075746560901b6044820152606490fd5b15614c7957565b60405162461bcd60e51b8152602060048201526016602482015275111a5cdc1d5d19481dda5b991bddc8195e1c1a5c995960521b6044820152606490fd5b15614cbe57565b60405162461bcd60e51b815260206004820152601060248201526f105b1c9958591e48191a5cdc1d5d195960821b6044820152606490fd5b15614cfd57565b60405162461bcd60e51b815260206004820152600d60248201526c10d85b9b9bdd081c99599d5b99609a1b6044820152606490fd5b15614d3957565b60405162461bcd60e51b815260206004820152601360248201527214185e5b595b9d081b9bdd08195e1c1a5c9959606a1b6044820152606490fdfe22c682de3fcd506153c6e19ddc037c8ea009baf9e1f7561ca71fc25a6316ad72a26469706673582212208433d6eb9d78f359afd108cbaec05af14833e6b2e9a496a4639812dfa72c72e264736f6c63430008140033","opcodes":"PUSH1 0xA0 CALLVALUE PUSH3 0x191 JUMPI PUSH1 0x1 PUSH1 0x1 PUSH1 0x40 SHL SUB PUSH1 0x1F PUSH3 0x4F8C CODESIZE DUP2 SWAP1 SUB SWAP2 DUP3 ADD PUSH1 0x1F NOT AND DUP5 ADD SWAP2 DUP4 DUP4 GT DUP6 DUP5 LT OR PUSH3 0x196 JUMPI DUP1 DUP6 SWAP3 PUSH1 0xC0 SWAP5 PUSH1 0x40 MSTORE DUP4 CODECOPY DUP2 ADD SUB SLT PUSH3 0x191 JUMPI PUSH3 0x4E DUP3 PUSH3 0x1AC JUMP JUMPDEST SWAP2 PUSH3 0x5D PUSH1 0x20 DUP3 ADD PUSH3 0x1AC JUMP JUMPDEST SWAP3 PUSH1 0x40 DUP3 ADD MLOAD SWAP1 PUSH1 0x60 DUP4 ADD MLOAD SWAP3 PUSH1 0x80 DUP2 ADD MLOAD SWAP5 DUP6 AND DUP1 SWAP6 SUB PUSH3 0x191 JUMPI PUSH1 0xA0 ADD MLOAD PUSH1 0x1 PUSH1 0x0 SSTORE PUSH1 0x1 PUSH1 0x1 PUSH1 0xA0 SHL SUB SWAP6 DUP7 AND PUSH1 0x80 MSTORE SWAP5 CALLER ISZERO PUSH3 0x14C JUMPI PUSH1 0x1 DUP1 SLOAD PUSH1 0x1 PUSH1 0x1 PUSH1 0xA0 SHL SUB NOT SWAP1 DUP2 AND CALLER OR SWAP1 SWAP2 SSTORE SWAP2 AND SWAP1 DUP2 ISZERO PUSH3 0x107 JUMPI PUSH1 0x3 SLOAD AND OR PUSH1 0x3 SSTORE PUSH1 0xF SSTORE PUSH1 0x10 SSTORE PUSH1 0x1 DUP1 PUSH1 0x40 SHL SUB NOT PUSH1 0x12 SLOAD AND OR PUSH1 0x12 SSTORE PUSH1 0x11 SSTORE PUSH1 0x40 MLOAD PUSH2 0x4DCA SWAP1 DUP2 PUSH3 0x1C2 DUP3 CODECOPY PUSH1 0x80 MLOAD DUP2 DUP2 DUP2 PUSH2 0x65A ADD MSTORE DUP2 DUP2 PUSH2 0x733 ADD MSTORE DUP2 DUP2 PUSH2 0xF2E ADD MSTORE PUSH2 0x2F81 ADD MSTORE RETURN JUMPDEST PUSH1 0x40 MLOAD PUSH3 0x461BCD PUSH1 0xE5 SHL DUP2 MSTORE PUSH1 0x20 PUSH1 0x4 DUP3 ADD MSTORE PUSH1 0x18 PUSH1 0x24 DUP3 ADD MSTORE PUSH32 0x5A65726F2061646472657373206E6F7420616C6C6F7765640000000000000000 PUSH1 0x44 DUP3 ADD MSTORE PUSH1 0x64 SWAP1 REVERT JUMPDEST PUSH1 0x40 MLOAD PUSH3 0x461BCD PUSH1 0xE5 SHL DUP2 MSTORE PUSH1 0x20 PUSH1 0x4 DUP3 ADD MSTORE PUSH1 0x18 PUSH1 0x24 DUP3 ADD MSTORE PUSH32 0x43616E6E6F7420736574206F776E657220746F207A65726F0000000000000000 PUSH1 0x44 DUP3 ADD MSTORE PUSH1 0x64 SWAP1 REVERT JUMPDEST PUSH1 0x0 DUP1 REVERT JUMPDEST PUSH4 0x4E487B71 PUSH1 0xE0 SHL PUSH1 0x0 MSTORE PUSH1 0x41 PUSH1 0x4 MSTORE PUSH1 0x24 PUSH1 0x0 REVERT JUMPDEST MLOAD SWAP1 PUSH1 0x1 PUSH1 0x1 PUSH1 0xA0 SHL SUB DUP3 AND DUP3 SUB PUSH3 0x191 JUMPI JUMP INVALID PUSH1 0x80 PUSH1 0x40 MSTORE PUSH1 0x4 CALLDATASIZE LT ISZERO PUSH2 0x12 JUMPI PUSH1 0x0 DUP1 REVERT JUMPDEST PUSH1 0x0 CALLDATALOAD PUSH1 0xE0 SHR DUP1 PUSH4 0x252D0ED EQ PUSH2 0x287 JUMPI DUP1 PUSH4 0x78081E6 EQ PUSH2 0x282 JUMPI DUP1 PUSH4 0xCA76175 EQ PUSH2 0x27D JUMPI DUP1 PUSH4 0x14B1DD1B EQ PUSH2 0x278 JUMPI DUP1 PUSH4 0x16E39DC2 EQ PUSH2 0x273 JUMPI DUP1 PUSH4 0x1A98DCB3 EQ PUSH2 0x26E JUMPI DUP1 PUSH4 0x225BC08A EQ PUSH2 0x269 JUMPI DUP1 PUSH4 0x2485D0F5 EQ PUSH2 0x264 JUMPI DUP1 PUSH4 0x28569D2B EQ PUSH2 0x25F JUMPI DUP1 PUSH4 0x2930FA49 EQ PUSH2 0x25A JUMPI DUP1 PUSH4 0x2D9E4977 EQ PUSH2 0x255 JUMPI DUP1 PUSH4 0x3395A79A EQ PUSH2 0x250 JUMPI DUP1 PUSH4 0x5691FE63 EQ PUSH2 0x24B JUMPI DUP1 PUSH4 0x56C350E4 EQ PUSH2 0x246 JUMPI DUP1 PUSH4 0x5922AEDA EQ PUSH2 0x241 JUMPI DUP1 PUSH4 0x604F8979 EQ PUSH2 0x23C JUMPI DUP1 PUSH4 0x666B9F4B EQ PUSH2 0x237 JUMPI DUP1 PUSH4 0x69F7E9B1 EQ PUSH2 0x232 JUMPI DUP1 PUSH4 0x73E306E3 EQ PUSH2 0x22D JUMPI DUP1 PUSH4 0x74C13FDA EQ PUSH2 0x228 JUMPI DUP1 PUSH4 0x79BA5097 EQ PUSH2 0x223 JUMPI DUP1 PUSH4 0x7E896CC5 EQ PUSH2 0x21E JUMPI DUP1 PUSH4 0x83A41FF3 EQ PUSH2 0x219 JUMPI DUP1 PUSH4 0x860BA4C1 EQ PUSH2 0x214 JUMPI DUP1 PUSH4 0x8DA5CB5B EQ PUSH2 0x20F JUMPI DUP1 PUSH4 0x912DB0FB EQ PUSH2 0x20A JUMPI DUP1 PUSH4 0x977A2968 EQ PUSH2 0x205 JUMPI DUP1 PUSH4 0x9CF48D7D EQ PUSH2 0x200 JUMPI DUP1 PUSH4 0x9D7DADEB EQ PUSH2 0x1FB JUMPI DUP1 PUSH4 0xA1941949 EQ PUSH2 0x1F6 JUMPI DUP1 PUSH4 0xA6B16096 EQ PUSH2 0x1F1 JUMPI DUP1 PUSH4 0xB7948996 EQ PUSH2 0x1EC JUMPI DUP1 PUSH4 0xC2E8528C EQ PUSH2 0x1E7 JUMPI DUP1 PUSH4 0xCD6C57C4 EQ PUSH2 0x1E2 JUMPI DUP1 PUSH4 0xD60BED9D EQ PUSH2 0x1DD JUMPI DUP1 PUSH4 0xDE3D9FB7 EQ PUSH2 0x1D8 JUMPI DUP1 PUSH4 0xEC3889B5 EQ PUSH2 0x1D3 JUMPI DUP1 PUSH4 0xF2FDE38B EQ PUSH2 0x1CE JUMPI PUSH4 0xF585DC57 EQ PUSH2 0x1C9 JUMPI PUSH1 0x0 DUP1 REVERT JUMPDEST PUSH2 0x23AA JUMP JUMPDEST PUSH2 0x22E6 JUMP JUMPDEST PUSH2 0x220C JUMP JUMPDEST PUSH2 0x21E5 JUMP JUMPDEST PUSH2 0x204D JUMP JUMPDEST PUSH2 0x2016 JUMP JUMPDEST PUSH2 0x1FF8 JUMP JUMPDEST PUSH2 0x1F19 JUMP JUMPDEST PUSH2 0x1CBF JUMP JUMPDEST PUSH2 0x1B91 JUMP JUMPDEST PUSH2 0x1B19 JUMP JUMPDEST PUSH2 0x1AFC JUMP JUMPDEST PUSH2 0x1AE0 JUMP JUMPDEST PUSH2 0x19D3 JUMP JUMPDEST PUSH2 0x19AA JUMP JUMPDEST PUSH2 0x1902 JUMP JUMPDEST PUSH2 0x18E4 JUMP JUMPDEST PUSH2 0x1642 JUMP JUMPDEST PUSH2 0x1582 JUMP JUMPDEST PUSH2 0x1559 JUMP JUMPDEST PUSH2 0x152C JUMP JUMPDEST PUSH2 0x14CB JUMP JUMPDEST PUSH2 0x14AA JUMP JUMPDEST PUSH2 0x1376 JUMP JUMPDEST PUSH2 0x1286 JUMP JUMPDEST PUSH2 0x1216 JUMP JUMPDEST PUSH2 0x1093 JUMP JUMPDEST PUSH2 0xF18 JUMP JUMPDEST PUSH2 0xE94 JUMP JUMPDEST PUSH2 0xE3D JUMP JUMPDEST PUSH2 0xC19 JUMP JUMPDEST PUSH2 0xBC7 JUMP JUMPDEST PUSH2 0x968 JUMP JUMPDEST PUSH2 0x921 JUMP JUMPDEST PUSH2 0x772 JUMP JUMPDEST PUSH2 0x6CB JUMP JUMPDEST PUSH2 0x60B JUMP JUMPDEST PUSH2 0x4BC JUMP JUMPDEST PUSH2 0x2BE JUMP JUMPDEST SWAP2 DUP2 PUSH1 0x1F DUP5 ADD SLT ISZERO PUSH2 0x2B9 JUMPI DUP3 CALLDATALOAD SWAP2 PUSH1 0x1 PUSH1 0x1 PUSH1 0x40 SHL SUB DUP4 GT PUSH2 0x2B9 JUMPI PUSH1 0x20 DUP4 DUP2 DUP7 ADD SWAP6 ADD ADD GT PUSH2 0x2B9 JUMPI JUMP JUMPDEST PUSH1 0x0 DUP1 REVERT JUMPDEST CALLVALUE PUSH2 0x2B9 JUMPI PUSH1 0x40 CALLDATASIZE PUSH1 0x3 NOT ADD SLT PUSH2 0x2B9 JUMPI PUSH1 0x1 PUSH1 0x1 PUSH1 0x40 SHL SUB PUSH1 0x4 CALLDATALOAD DUP2 DUP2 GT PUSH2 0x2B9 JUMPI PUSH2 0x2EF SWAP1 CALLDATASIZE SWAP1 PUSH1 0x4 ADD PUSH2 0x28C JUMP JUMPDEST SWAP2 SWAP1 PUSH1 0x24 CALLDATALOAD SWAP2 DUP3 GT PUSH2 0x2B9 JUMPI PUSH2 0x41C SWAP3 PUSH32 0xF3897B43B82055DBCCE0F9011F85A239A69153E8B3C03AA8FC17DABD642787E2 PUSH2 0x331 PUSH2 0x417 SWAP5 CALLDATASIZE SWAP1 PUSH1 0x4 ADD PUSH2 0x28C JUMP JUMPDEST PUSH2 0x39F PUSH1 0x1 PUSH2 0x390 PUSH1 0xA PUSH2 0x364 PUSH2 0x35F PUSH2 0x34E DUP11 DUP13 SWAP11 SWAP10 SWAP11 PUSH2 0x255B JUMP JUMPDEST SLOAD PUSH2 0x35A DUP2 ISZERO ISZERO PUSH2 0x25D8 JUMP JUMPDEST PUSH2 0x262E JUMP JUMPDEST PUSH2 0xF73 JUMP JUMPDEST POP DUP1 DUP5 ADD SLOAD PUSH2 0x385 SWAP1 PUSH1 0x1 PUSH1 0x1 PUSH1 0xA0 SHL SUB AND CALLER SWAP1 DUP7 DUP1 PUSH1 0xA0 SHL SUB AND EQ PUSH2 0x265E JUMP JUMPDEST ADD SLOAD PUSH1 0x8 SHR PUSH1 0xFF AND SWAP1 JUMP JUMPDEST PUSH2 0x399 DUP2 PUSH2 0xFE5 JUMP JUMPDEST EQ PUSH2 0x26AA JUMP JUMPDEST PUSH2 0x3C5 PUSH2 0x3B6 PUSH2 0x3AF DUP7 DUP9 PUSH2 0x2574 JUMP JUMPDEST SLOAD PUSH1 0xFF AND SWAP1 JUMP JUMPDEST PUSH2 0x3BF DUP2 PUSH2 0x1522 JUMP JUMPDEST ISZERO PUSH2 0x26EF JUMP JUMPDEST PUSH2 0x3D9 DUP2 DUP5 PUSH2 0x3D4 DUP8 DUP10 PUSH2 0x258D JUMP JUMPDEST PUSH2 0x2494 JUMP JUMPDEST PUSH2 0x3F3 PUSH2 0x3E6 DUP6 DUP8 PUSH2 0x2574 JUMP JUMPDEST DUP1 SLOAD PUSH1 0xFF NOT AND PUSH1 0x1 OR SWAP1 SSTORE JUMP JUMPDEST PUSH2 0x3FD DUP5 DUP7 PUSH2 0x272F JUMP JUMPDEST SWAP3 PUSH2 0x40D PUSH1 0x40 MLOAD SWAP3 DUP4 SWAP3 DUP4 PUSH2 0x2765 JUMP JUMPDEST SUB SWAP1 LOG2 CALLDATASIZE SWAP2 PUSH2 0x5B6 JUMP JUMPDEST PUSH2 0x2938 JUMP JUMPDEST STOP JUMPDEST PUSH1 0x24 CALLDATALOAD SWAP1 PUSH1 0x1 PUSH1 0x1 PUSH1 0xA0 SHL SUB DUP3 AND DUP3 SUB PUSH2 0x2B9 JUMPI JUMP JUMPDEST PUSH1 0x4 CALLDATALOAD SWAP1 PUSH1 0x1 PUSH1 0x1 PUSH1 0xA0 SHL SUB DUP3 AND DUP3 SUB PUSH2 0x2B9 JUMPI JUMP JUMPDEST SWAP1 PUSH1 0xA0 PUSH1 0x3 NOT DUP4 ADD SLT PUSH2 0x2B9 JUMPI PUSH1 0x1 PUSH1 0x1 PUSH1 0xA0 SHL SUB SWAP2 PUSH1 0x4 CALLDATALOAD DUP4 DUP2 AND DUP2 SUB PUSH2 0x2B9 JUMPI SWAP3 PUSH1 0x24 CALLDATALOAD SWAP1 DUP2 AND DUP2 SUB PUSH2 0x2B9 JUMPI SWAP2 PUSH1 0x44 CALLDATALOAD SWAP2 PUSH1 0x1 PUSH1 0x1 PUSH1 0x40 SHL SUB SWAP2 PUSH1 0x64 CALLDATALOAD DUP4 DUP2 GT PUSH2 0x2B9 JUMPI DUP3 PUSH2 0x49E SWAP2 PUSH1 0x4 ADD PUSH2 0x28C JUMP JUMPDEST SWAP4 SWAP1 SWAP4 SWAP3 PUSH1 0x84 CALLDATALOAD SWAP2 DUP3 GT PUSH2 0x2B9 JUMPI PUSH2 0x4B8 SWAP2 PUSH1 0x4 ADD PUSH2 0x28C JUMP JUMPDEST SWAP1 SWAP2 JUMP JUMPDEST CALLVALUE PUSH2 0x2B9 JUMPI PUSH1 0x20 PUSH2 0x4FA PUSH2 0x4EC PUSH2 0x4F4 PUSH2 0x4D5 CALLDATASIZE PUSH2 0x44A JUMP JUMPDEST SWAP7 SWAP4 SWAP6 SWAP8 SWAP2 PUSH2 0x4E5 SWAP4 SWAP2 SWAP4 PUSH2 0x48BE JUMP JUMPDEST CALLDATASIZE SWAP2 PUSH2 0x5B6 JUMP JUMPDEST SWAP5 CALLDATASIZE SWAP2 PUSH2 0x5B6 JUMP JUMPDEST SWAP4 PUSH2 0x46E5 JUMP JUMPDEST PUSH1 0x1 PUSH1 0x0 SSTORE PUSH1 0x40 MLOAD SWAP1 ISZERO ISZERO DUP2 MSTORE RETURN JUMPDEST PUSH4 0x4E487B71 PUSH1 0xE0 SHL PUSH1 0x0 MSTORE PUSH1 0x41 PUSH1 0x4 MSTORE PUSH1 0x24 PUSH1 0x0 REVERT JUMPDEST PUSH1 0x40 DUP2 ADD SWAP1 DUP2 LT PUSH1 0x1 PUSH1 0x1 PUSH1 0x40 SHL SUB DUP3 GT OR PUSH2 0x53A JUMPI PUSH1 0x40 MSTORE JUMP JUMPDEST PUSH2 0x509 JUMP JUMPDEST PUSH1 0x80 DUP2 ADD SWAP1 DUP2 LT PUSH1 0x1 PUSH1 0x1 PUSH1 0x40 SHL SUB DUP3 GT OR PUSH2 0x53A JUMPI PUSH1 0x40 MSTORE JUMP JUMPDEST SWAP1 PUSH1 0x1F DUP1 NOT SWAP2 ADD AND DUP2 ADD SWAP1 DUP2 LT PUSH1 0x1 PUSH1 0x1 PUSH1 0x40 SHL SUB DUP3 GT OR PUSH2 0x53A JUMPI PUSH1 0x40 MSTORE JUMP JUMPDEST PUSH1 0x40 MLOAD SWAP1 PUSH2 0x1A0 DUP3 ADD DUP3 DUP2 LT PUSH1 0x1 PUSH1 0x1 PUSH1 0x40 SHL SUB DUP3 GT OR PUSH2 0x53A JUMPI PUSH1 0x40 MSTORE JUMP JUMPDEST PUSH1 0x1 PUSH1 0x1 PUSH1 0x40 SHL SUB DUP2 GT PUSH2 0x53A JUMPI PUSH1 0x1F ADD PUSH1 0x1F NOT AND PUSH1 0x20 ADD SWAP1 JUMP JUMPDEST SWAP3 SWAP2 SWAP3 PUSH2 0x5C2 DUP3 PUSH2 0x59B JUMP JUMPDEST SWAP2 PUSH2 0x5D0 PUSH1 0x40 MLOAD SWAP4 DUP5 PUSH2 0x55A JUMP JUMPDEST DUP3 SWAP5 DUP2 DUP5 MSTORE DUP2 DUP4 ADD GT PUSH2 0x2B9 JUMPI DUP3 DUP2 PUSH1 0x20 SWAP4 DUP5 PUSH1 0x0 SWAP7 ADD CALLDATACOPY ADD ADD MSTORE JUMP JUMPDEST SWAP1 DUP1 PUSH1 0x1F DUP4 ADD SLT ISZERO PUSH2 0x2B9 JUMPI DUP2 PUSH1 0x20 PUSH2 0x608 SWAP4 CALLDATALOAD SWAP2 ADD PUSH2 0x5B6 JUMP JUMPDEST SWAP1 JUMP JUMPDEST CALLVALUE PUSH2 0x2B9 JUMPI PUSH1 0x60 CALLDATASIZE PUSH1 0x3 NOT ADD SLT PUSH2 0x2B9 JUMPI PUSH1 0x4 CALLDATALOAD PUSH1 0x1 PUSH1 0x1 PUSH1 0x40 SHL SUB PUSH1 0x24 CALLDATALOAD DUP2 DUP2 GT PUSH2 0x2B9 JUMPI PUSH2 0x63F SWAP1 CALLDATASIZE SWAP1 PUSH1 0x4 ADD PUSH2 0x5ED JUMP JUMPDEST SWAP1 PUSH1 0x44 CALLDATALOAD SWAP1 DUP2 GT PUSH2 0x2B9 JUMPI PUSH2 0x658 SWAP1 CALLDATASIZE SWAP1 PUSH1 0x4 ADD PUSH2 0x5ED JUMP JUMPDEST PUSH32 0x0 PUSH1 0x1 PUSH1 0x1 PUSH1 0xA0 SHL SUB AND CALLER SUB PUSH2 0x6B9 JUMPI PUSH2 0x692 SWAP2 DUP4 PUSH2 0x3EA7 JUMP JUMPDEST PUSH32 0x85E1543BF2F84FE80C6BADBCE3648C8539AD1DF4D2B3D822938CA0538BE727E6 PUSH1 0x0 DUP1 LOG2 STOP JUMPDEST PUSH1 0x40 MLOAD PUSH4 0xC6829F83 PUSH1 0xE0 SHL DUP2 MSTORE PUSH1 0x4 SWAP1 REVERT JUMPDEST CALLVALUE PUSH2 0x2B9 JUMPI PUSH1 0x20 CALLDATASIZE PUSH1 0x3 NOT ADD SLT PUSH2 0x2B9 JUMPI PUSH1 0x4 CALLDATALOAD PUSH1 0x1 PUSH1 0x1 PUSH1 0x40 SHL SUB DUP2 AND DUP1 SWAP2 SUB PUSH2 0x2B9 JUMPI PUSH1 0x40 PUSH32 0x216F7020A29AA48A5CD85533A935F918C19D3C37E64E723350A6EB6988144167 SWAP2 PUSH2 0x71C PUSH2 0x23C8 JUMP JUMPDEST PUSH1 0x12 DUP1 SLOAD PUSH8 0xFFFFFFFFFFFFFFFF NOT AND DUP3 OR SWAP1 SSTORE DUP2 MLOAD PUSH32 0x0 PUSH1 0x1 PUSH1 0x1 PUSH1 0xA0 SHL SUB AND DUP2 MSTORE PUSH1 0x20 DUP2 ADD SWAP2 SWAP1 SWAP2 MSTORE LOG1 STOP JUMPDEST DUP1 ISZERO ISZERO SUB PUSH2 0x2B9 JUMPI JUMP JUMPDEST CALLVALUE PUSH2 0x2B9 JUMPI PUSH1 0x80 CALLDATASIZE PUSH1 0x3 NOT ADD SLT PUSH2 0x2B9 JUMPI PUSH1 0x4 CALLDATALOAD PUSH1 0x1 PUSH1 0x1 PUSH1 0x40 SHL SUB DUP2 GT PUSH2 0x2B9 JUMPI PUSH2 0x7A2 SWAP1 CALLDATASIZE SWAP1 PUSH1 0x4 ADD PUSH2 0x28C JUMP JUMPDEST SWAP1 PUSH2 0x7AB PUSH2 0x41E JUMP JUMPDEST SWAP1 PUSH1 0x44 CALLDATALOAD SWAP2 PUSH1 0xFF DUP4 AND DUP4 SUB PUSH2 0x2B9 JUMPI PUSH1 0x64 CALLDATALOAD SWAP3 PUSH2 0x7C7 DUP5 PUSH2 0x768 JUMP JUMPDEST PUSH2 0x7CF PUSH2 0x23C8 JUMP JUMPDEST PUSH1 0x1 PUSH1 0x1 PUSH1 0xA0 SHL SUB DUP3 AND SWAP5 PUSH2 0x7E5 DUP7 ISZERO ISZERO PUSH2 0x48E1 JUMP JUMPDEST DUP1 ISZERO PUSH2 0x8DC JUMPI DUP4 DUP4 PUSH2 0x892 DUP8 PUSH2 0x8B1 SWAP6 PUSH2 0x875 PUSH2 0x841 PUSH2 0x8C4 SWAP10 PUSH2 0x82A DUP10 PUSH32 0x5B98A0B8D95466D30425B78DF6C383F9E0E0CEB178ABD7068BBF3D501D94DC2D SWAP14 PUSH2 0x25A6 JUMP JUMPDEST SWAP1 PUSH1 0x1 DUP1 PUSH1 0xA0 SHL SUB AND PUSH1 0x0 MSTORE PUSH1 0x20 MSTORE PUSH1 0x40 PUSH1 0x0 KECCAK256 SWAP1 JUMP JUMPDEST DUP1 SLOAD PUSH1 0x1 PUSH1 0x1 PUSH1 0xA0 SHL SUB NOT AND PUSH1 0x1 PUSH1 0x1 PUSH1 0xA0 SHL SUB DUP8 AND OR DUP2 SSTORE SWAP2 DUP3 SLOAD PUSH1 0xFF PUSH1 0xA0 SHL NOT AND PUSH1 0xA0 SWAP2 SWAP1 SWAP2 SHL PUSH1 0xFF PUSH1 0xA0 SHL AND OR DUP3 SSTORE JUMP JUMPDEST DUP1 SLOAD PUSH1 0xFF PUSH1 0xA8 SHL NOT AND SWAP2 ISZERO ISZERO PUSH1 0xA8 SHL PUSH1 0xFF PUSH1 0xA8 SHL AND SWAP2 SWAP1 SWAP2 OR SWAP1 SSTORE JUMP JUMPDEST DUP7 ISZERO PUSH2 0x8C9 JUMPI PUSH2 0x8AB SWAP1 PUSH2 0x8A6 DUP5 DUP5 PUSH2 0x25BF JUMP JUMPDEST PUSH2 0x4925 JUMP JUMPDEST POP PUSH2 0x272F JUMP JUMPDEST PUSH1 0x40 MLOAD SWAP4 ISZERO ISZERO DUP5 MSTORE SWAP3 SWAP1 DUP2 SWAP1 PUSH1 0x20 DUP3 ADD SWAP1 JUMP JUMPDEST SUB SWAP1 LOG3 STOP JUMPDEST PUSH2 0x8AB SWAP1 PUSH2 0x8D7 DUP5 DUP5 PUSH2 0x25BF JUMP JUMPDEST PUSH2 0x498D JUMP JUMPDEST PUSH1 0x40 MLOAD PUSH3 0x461BCD PUSH1 0xE5 SHL DUP2 MSTORE PUSH1 0x20 PUSH1 0x4 DUP3 ADD MSTORE PUSH1 0x17 PUSH1 0x24 DUP3 ADD MSTORE PUSH32 0x4E6574776F726B2063616E6E6F7420626520656D707479000000000000000000 PUSH1 0x44 DUP3 ADD MSTORE PUSH1 0x64 SWAP1 REVERT JUMPDEST CALLVALUE PUSH2 0x2B9 JUMPI PUSH1 0x0 CALLDATASIZE PUSH1 0x3 NOT ADD SLT PUSH2 0x2B9 JUMPI PUSH1 0x20 PUSH1 0x40 MLOAD PUSH2 0x708 DUP2 MSTORE RETURN JUMPDEST PUSH1 0x20 PUSH1 0x3 NOT DUP3 ADD SLT PUSH2 0x2B9 JUMPI PUSH1 0x4 CALLDATALOAD SWAP1 PUSH1 0x1 PUSH1 0x1 PUSH1 0x40 SHL SUB DUP3 GT PUSH2 0x2B9 JUMPI PUSH2 0x4B8 SWAP2 PUSH1 0x4 ADD PUSH2 0x28C JUMP JUMPDEST CALLVALUE PUSH2 0x2B9 JUMPI PUSH2 0xA35 PUSH2 0x979 CALLDATASIZE PUSH2 0x93E JUMP JUMPDEST SWAP1 PUSH2 0x982 PUSH2 0x48BE JUMP JUMPDEST PUSH2 0xA30 PUSH2 0x995 PUSH2 0x35F PUSH2 0x34E DUP6 DUP6 PUSH2 0x255B JUMP JUMPDEST POP PUSH2 0xA1F PUSH1 0xFF PUSH1 0xA DUP4 ADD SWAP3 PUSH2 0xA15 PUSH2 0xA0D PUSH1 0x5 DUP7 SLOAD SWAP4 PUSH2 0x9C2 PUSH1 0x1 DUP8 DUP8 AND PUSH2 0x9BC DUP2 PUSH2 0xFC9 JUMP JUMPDEST EQ PUSH2 0x4AF0 JUMP JUMPDEST PUSH2 0x9E6 DUP7 DUP7 PUSH1 0x8 SHR AND PUSH2 0x9D4 DUP2 PUSH2 0xFE5 JUMP JUMPDEST PUSH1 0x1 DUP2 EQ SWAP1 DUP2 ISZERO PUSH2 0xA64 JUMPI JUMPDEST POP PUSH2 0x4C35 JUMP JUMPDEST DUP1 SLOAD PUSH2 0xA06 SWAP1 PUSH1 0x1 PUSH1 0x1 PUSH1 0xA0 SHL SUB AND JUMPDEST PUSH1 0x1 PUSH1 0x1 PUSH1 0xA0 SHL SUB AND CALLER EQ PUSH2 0x4B75 JUMP JUMPDEST ADD SLOAD PUSH2 0x307C JUMP JUMPDEST TIMESTAMP GT ISZERO PUSH2 0x4C72 JUMP JUMPDEST PUSH1 0x10 SHR AND ISZERO PUSH2 0x4CB7 JUMP JUMPDEST DUP1 SLOAD PUSH3 0xFF0000 NOT AND PUSH3 0x10000 OR SWAP1 SSTORE JUMP JUMPDEST PUSH2 0x272F JUMP JUMPDEST PUSH32 0x91C26A99A0A4D117C4D67F42C08C4C42D13094FBEF4B6A53A9DD88E5C2256386 PUSH1 0x0 DUP1 LOG2 PUSH2 0x41C PUSH1 0x1 PUSH1 0x0 SSTORE JUMP JUMPDEST PUSH1 0x2 SWAP2 POP PUSH2 0xA71 DUP2 PUSH2 0xFE5 JUMP JUMPDEST EQ CODESIZE PUSH2 0x9E0 JUMP JUMPDEST PUSH4 0x4E487B71 PUSH1 0xE0 SHL PUSH1 0x0 MSTORE PUSH1 0x0 PUSH1 0x4 MSTORE PUSH1 0x24 PUSH1 0x0 REVERT JUMPDEST SWAP1 PUSH1 0x1 DUP3 DUP2 SHR SWAP3 AND DUP1 ISZERO PUSH2 0xABE JUMPI JUMPDEST PUSH1 0x20 DUP4 LT EQ PUSH2 0xAA8 JUMPI JUMP JUMPDEST PUSH4 0x4E487B71 PUSH1 0xE0 SHL PUSH1 0x0 MSTORE PUSH1 0x22 PUSH1 0x4 MSTORE PUSH1 0x24 PUSH1 0x0 REVERT JUMPDEST SWAP2 PUSH1 0x7F AND SWAP2 PUSH2 0xA9D JUMP JUMPDEST SWAP1 PUSH1 0x40 MLOAD SWAP2 DUP3 PUSH1 0x0 DUP3 SLOAD SWAP3 PUSH2 0xADC DUP5 PUSH2 0xA8E JUMP JUMPDEST SWAP1 DUP2 DUP5 MSTORE PUSH1 0x1 SWAP5 DUP6 DUP2 AND SWAP1 DUP2 PUSH1 0x0 EQ PUSH2 0xB4B JUMPI POP PUSH1 0x1 EQ PUSH2 0xB08 JUMPI JUMPDEST POP POP PUSH2 0xB06 SWAP3 POP SUB DUP4 PUSH2 0x55A JUMP JUMPDEST JUMP JUMPDEST SWAP1 SWAP4 SWAP2 POP PUSH1 0x0 MSTORE PUSH1 0x20 SWAP1 DUP2 PUSH1 0x0 KECCAK256 SWAP4 PUSH1 0x0 SWAP2 JUMPDEST DUP2 DUP4 LT PUSH2 0xB33 JUMPI POP POP PUSH2 0xB06 SWAP4 POP DUP3 ADD ADD CODESIZE DUP1 PUSH2 0xAF8 JUMP JUMPDEST DUP6 SLOAD DUP9 DUP5 ADD DUP6 ADD MSTORE SWAP5 DUP6 ADD SWAP5 DUP8 SWAP5 POP SWAP2 DUP4 ADD SWAP2 PUSH2 0xB1B JUMP JUMPDEST SWAP2 POP POP PUSH2 0xB06 SWAP5 POP PUSH1 0x20 SWAP3 POP PUSH1 0xFF NOT AND DUP3 DUP5 ADD MSTORE ISZERO ISZERO PUSH1 0x5 SHL DUP3 ADD ADD CODESIZE DUP1 PUSH2 0xAF8 JUMP JUMPDEST PUSH1 0x0 JUMPDEST DUP4 DUP2 LT PUSH2 0xB81 JUMPI POP POP PUSH1 0x0 SWAP2 ADD MSTORE JUMP JUMPDEST DUP2 DUP2 ADD MLOAD DUP4 DUP3 ADD MSTORE PUSH1 0x20 ADD PUSH2 0xB71 JUMP JUMPDEST SWAP1 PUSH1 0x20 SWAP2 PUSH2 0xBAA DUP2 MLOAD DUP1 SWAP3 DUP2 DUP6 MSTORE DUP6 DUP1 DUP7 ADD SWAP2 ADD PUSH2 0xB6E JUMP JUMPDEST PUSH1 0x1F ADD PUSH1 0x1F NOT AND ADD ADD SWAP1 JUMP JUMPDEST SWAP1 PUSH1 0x20 PUSH2 0x608 SWAP3 DUP2 DUP2 MSTORE ADD SWAP1 PUSH2 0xB91 JUMP JUMPDEST CALLVALUE PUSH2 0x2B9 JUMPI PUSH1 0x20 CALLDATASIZE PUSH1 0x3 NOT ADD SLT PUSH2 0x2B9 JUMPI PUSH1 0x1 PUSH1 0x1 PUSH1 0xA0 SHL SUB PUSH2 0xBE8 PUSH2 0x434 JUMP JUMPDEST AND PUSH1 0x0 MSTORE PUSH1 0xB PUSH1 0x20 MSTORE PUSH2 0xC15 PUSH2 0xC01 PUSH1 0x40 PUSH1 0x0 KECCAK256 PUSH2 0xAC8 JUMP JUMPDEST PUSH1 0x40 MLOAD SWAP2 DUP3 SWAP2 PUSH1 0x20 DUP4 MSTORE PUSH1 0x20 DUP4 ADD SWAP1 PUSH2 0xB91 JUMP JUMPDEST SUB SWAP1 RETURN JUMPDEST CALLVALUE PUSH2 0x2B9 JUMPI PUSH2 0xD2B PUSH2 0xC2A CALLDATASIZE PUSH2 0x93E JUMP JUMPDEST SWAP2 SWAP1 PUSH2 0xC34 PUSH2 0x48BE JUMP JUMPDEST PUSH2 0xC44 PUSH2 0x35F PUSH2 0x34E DUP6 DUP5 PUSH2 0x255B JUMP JUMPDEST POP PUSH1 0xA DUP2 ADD SWAP4 DUP5 SLOAD SWAP3 PUSH2 0xC5F PUSH1 0x1 PUSH1 0xFF DUP7 AND PUSH2 0x9BC DUP2 PUSH2 0xFC9 JUMP JUMPDEST PUSH2 0xCC3 PUSH1 0xFF DUP6 PUSH1 0x8 SHR AND SWAP7 PUSH2 0xC73 DUP9 PUSH2 0xFE5 JUMP JUMPDEST PUSH1 0x1 DUP9 EQ DUP1 ISZERO PUSH2 0xE2A JUMPI JUMPDEST PUSH2 0xC87 SWAP1 PUSH2 0x4CF6 JUMP JUMPDEST PUSH1 0x1 DUP6 ADD SLOAD PUSH1 0x1 PUSH1 0x1 PUSH1 0xA0 SHL SUB SWAP7 PUSH2 0xCAB SWAP2 DUP9 AND CALLER EQ SWAP1 DUP2 ISZERO PUSH2 0xE1C JUMPI JUMPDEST POP PUSH2 0x4B75 JUMP JUMPDEST PUSH2 0xCB4 DUP9 PUSH2 0xFE5 JUMP JUMPDEST DUP1 SLOAD PUSH2 0xFF00 NOT AND PUSH2 0x400 OR SWAP1 SSTORE JUMP JUMPDEST PUSH1 0x2 DUP4 ADD SLOAD PUSH2 0xCE8 SWAP1 PUSH2 0xCDC SWAP1 PUSH1 0x1 PUSH1 0x1 PUSH1 0xA0 SHL SUB AND DUP2 JUMP JUMPDEST PUSH1 0x1 PUSH1 0x1 PUSH1 0xA0 SHL SUB AND SWAP1 JUMP JUMPDEST DUP4 SLOAD PUSH1 0x3 DUP6 ADD DUP1 SLOAD PUSH1 0x40 MLOAD PUSH4 0xA9059CBB PUSH1 0xE0 SHL DUP2 MSTORE PUSH1 0x1 PUSH1 0x1 PUSH1 0xA0 SHL SUB SWAP1 SWAP4 AND PUSH1 0x4 DUP5 ADD MSTORE PUSH1 0x24 DUP4 ADD MSTORE SWAP1 SWAP7 SWAP1 SWAP6 SWAP2 PUSH1 0x20 SWAP2 DUP9 SWAP2 SWAP1 DUP3 SWAP1 PUSH1 0x0 SWAP1 DUP3 SWAP1 PUSH1 0x44 DUP3 ADD SWAP1 JUMP JUMPDEST SUB SWAP3 GAS CALL SWAP5 DUP6 ISZERO PUSH2 0xE17 JUMPI PUSH32 0x4F4233D8B608DAB7AE8BE019715573700F481096C3C0695CC3F8FF3BDC436BDD PUSH2 0xD90 PUSH2 0xDB4 SWAP7 PUSH2 0xD83 PUSH2 0xDDC SWAP10 PUSH1 0x0 DUP1 MLOAD PUSH1 0x20 PUSH2 0x4D75 DUP4 CODECOPY DUP2 MLOAD SWAP2 MSTORE SWAP12 PUSH1 0x0 SWAP2 PUSH2 0xDE9 JUMPI JUMPDEST POP PUSH2 0x44F5 JUMP JUMPDEST SLOAD PUSH1 0x1 PUSH1 0x1 PUSH1 0xA0 SHL SUB AND SWAP1 JUMP JUMPDEST SWAP2 SLOAD SWAP3 PUSH2 0xD9D DUP7 DUP7 PUSH2 0x272F JUMP JUMPDEST PUSH1 0x40 MLOAD SWAP5 DUP6 MSTORE SWAP3 AND SWAP3 DUP1 PUSH1 0x20 DUP2 ADD JUMPDEST SUB SWAP1 LOG3 PUSH2 0x272F JUMP JUMPDEST PUSH1 0x40 DUP1 MLOAD PUSH1 0xFF SWAP1 SWAP6 AND DUP6 MSTORE PUSH1 0x4 PUSH1 0x20 DUP7 ADD MSTORE CALLER SWAP1 DUP6 ADD MSTORE TIMESTAMP PUSH1 0x60 DUP6 ADD MSTORE SWAP3 SWAP1 DUP2 SWAP1 PUSH1 0x80 DUP3 ADD SWAP1 JUMP JUMPDEST SUB SWAP1 LOG2 PUSH2 0x41C PUSH1 0x1 PUSH1 0x0 SSTORE JUMP JUMPDEST PUSH2 0xE0A SWAP2 POP PUSH1 0x20 RETURNDATASIZE DUP2 GT PUSH2 0xE10 JUMPI JUMPDEST PUSH2 0xE02 DUP2 DUP4 PUSH2 0x55A JUMP JUMPDEST DUP2 ADD SWAP1 PUSH2 0x3E46 JUMP JUMPDEST CODESIZE PUSH2 0xD7D JUMP JUMPDEST POP RETURNDATASIZE PUSH2 0xDF8 JUMP JUMPDEST PUSH2 0x2F1E JUMP JUMPDEST PUSH1 0xFF SWAP2 POP PUSH1 0x10 SHR AND CODESIZE PUSH2 0xCA5 JUMP JUMPDEST POP PUSH2 0xE34 DUP9 PUSH2 0xFE5 JUMP JUMPDEST PUSH1 0x2 DUP9 EQ PUSH2 0xC7E JUMP JUMPDEST CALLVALUE PUSH2 0x2B9 JUMPI PUSH1 0x0 CALLDATASIZE PUSH1 0x3 NOT ADD SLT PUSH2 0x2B9 JUMPI PUSH1 0x20 PUSH1 0x40 MLOAD PUSH1 0x5 DUP2 MSTORE RETURN JUMPDEST PUSH1 0x20 SWAP1 DUP2 PUSH1 0x40 DUP2 DUP4 ADD SWAP3 DUP3 DUP2 MSTORE DUP6 MLOAD DUP1 SWAP5 MSTORE ADD SWAP4 ADD SWAP2 PUSH1 0x0 JUMPDEST DUP3 DUP2 LT PUSH2 0xE80 JUMPI POP POP POP POP SWAP1 JUMP JUMPDEST DUP4 MLOAD DUP6 MSTORE SWAP4 DUP2 ADD SWAP4 SWAP3 DUP2 ADD SWAP3 PUSH1 0x1 ADD PUSH2 0xE72 JUMP JUMPDEST CALLVALUE PUSH2 0x2B9 JUMPI PUSH1 0x20 DUP1 PUSH1 0x3 NOT CALLDATASIZE ADD SLT PUSH2 0x2B9 JUMPI PUSH1 0x1 PUSH1 0x1 PUSH1 0xA0 SHL SUB PUSH2 0xEB6 PUSH2 0x434 JUMP JUMPDEST AND PUSH1 0x0 MSTORE PUSH1 0x8 DUP2 MSTORE PUSH1 0x40 PUSH1 0x0 KECCAK256 SWAP1 PUSH1 0x40 MLOAD SWAP1 DUP2 DUP2 DUP5 SLOAD SWAP2 DUP3 DUP2 MSTORE ADD SWAP4 PUSH1 0x0 MSTORE DUP2 PUSH1 0x0 KECCAK256 SWAP2 PUSH1 0x0 SWAP1 JUMPDEST DUP3 DUP3 LT PUSH2 0xF01 JUMPI PUSH2 0xC15 DUP6 PUSH2 0xEF5 DUP2 DUP10 SUB DUP3 PUSH2 0x55A JUMP JUMPDEST PUSH1 0x40 MLOAD SWAP2 DUP3 SWAP2 DUP3 PUSH2 0xE59 JUMP JUMPDEST DUP4 SLOAD DUP7 MSTORE SWAP5 DUP6 ADD SWAP5 PUSH1 0x1 SWAP4 DUP5 ADD SWAP4 SWAP1 SWAP2 ADD SWAP1 PUSH2 0xEDE JUMP JUMPDEST CALLVALUE PUSH2 0x2B9 JUMPI PUSH1 0x0 CALLDATASIZE PUSH1 0x3 NOT ADD SLT PUSH2 0x2B9 JUMPI PUSH1 0x40 MLOAD PUSH32 0x0 PUSH1 0x1 PUSH1 0x1 PUSH1 0xA0 SHL SUB AND DUP2 MSTORE PUSH1 0x20 SWAP1 RETURN JUMPDEST PUSH4 0x4E487B71 PUSH1 0xE0 SHL PUSH1 0x0 MSTORE PUSH1 0x32 PUSH1 0x4 MSTORE PUSH1 0x24 PUSH1 0x0 REVERT JUMPDEST PUSH1 0x5 SLOAD DUP2 LT ISZERO PUSH2 0xFAE JUMPI PUSH1 0xB SWAP1 PUSH1 0x5 PUSH1 0x0 MSTORE MUL PUSH32 0x36B6384B5ECA791C62761152D0C79BB0604C104A5FB6F4EB0703F3154BB3DB0 ADD SWAP1 PUSH1 0x0 SWAP1 JUMP JUMPDEST PUSH2 0xF5D JUMP JUMPDEST PUSH4 0x4E487B71 PUSH1 0xE0 SHL PUSH1 0x0 MSTORE PUSH1 0x21 PUSH1 0x4 MSTORE PUSH1 0x24 PUSH1 0x0 REVERT JUMPDEST PUSH1 0x2 GT ISZERO PUSH2 0xFD3 JUMPI JUMP JUMPDEST PUSH2 0xFB3 JUMP JUMPDEST SWAP1 PUSH1 0x2 DUP3 LT ISZERO PUSH2 0xFD3 JUMPI MSTORE JUMP JUMPDEST PUSH1 0x6 GT ISZERO PUSH2 0xFD3 JUMPI JUMP JUMPDEST SWAP1 PUSH1 0x6 DUP3 LT ISZERO PUSH2 0xFD3 JUMPI MSTORE JUMP JUMPDEST SWAP9 SWAP2 SWAP7 PUSH2 0x1080 SWAP7 SWAP12 SWAP15 SWAP14 SWAP12 PUSH2 0x1074 SWAP7 PUSH2 0x180 SWAP13 SWAP7 PUSH2 0xB06 SWAP16 SWAP11 PUSH1 0x40 DUP15 SWAP2 PUSH2 0x1065 SWAP10 PUSH2 0x108B SWAP16 SWAP9 PUSH1 0x1 DUP1 PUSH1 0xA0 SHL SUB SWAP3 DUP4 DUP1 SWAP3 AND DUP7 MSTORE AND PUSH1 0x20 DUP6 ADD MSTORE AND SWAP2 ADD MSTORE PUSH1 0x60 DUP14 ADD MSTORE PUSH1 0x80 DUP13 ADD MSTORE PUSH1 0xA0 DUP12 ADD MSTORE PUSH1 0xC0 DUP11 ADD MSTORE PUSH1 0xE0 DUP10 ADD MSTORE PUSH2 0x1A0 DUP1 PUSH2 0x100 DUP11 ADD MSTORE DUP9 ADD SWAP1 PUSH2 0xB91 JUMP JUMPDEST SWAP1 DUP7 DUP3 SUB PUSH2 0x120 DUP9 ADD MSTORE PUSH2 0xB91 JUMP JUMPDEST SWAP9 PUSH2 0x140 DUP6 ADD SWAP1 PUSH2 0xFD8 JUMP JUMPDEST PUSH2 0x160 DUP4 ADD SWAP1 PUSH2 0xFEF JUMP JUMPDEST ADD SWAP1 ISZERO ISZERO SWAP1 MSTORE JUMP JUMPDEST CALLVALUE PUSH2 0x2B9 JUMPI PUSH1 0x20 CALLDATASIZE PUSH1 0x3 NOT ADD SLT PUSH2 0x2B9 JUMPI PUSH1 0x4 CALLDATALOAD PUSH1 0x5 SLOAD DUP2 LT ISZERO PUSH2 0x2B9 JUMPI PUSH2 0x10BA SWAP1 PUSH2 0xF73 JUMP JUMPDEST POP DUP1 SLOAD PUSH1 0x1 DUP3 ADD SLOAD PUSH1 0x1 PUSH1 0x1 PUSH1 0xA0 SHL SUB SWAP2 DUP3 AND SWAP3 SWAP2 PUSH2 0xC15 SWAP2 AND PUSH1 0x2 DUP4 ADD SLOAD SWAP1 SWAP4 SWAP1 PUSH1 0x1 PUSH1 0x1 PUSH1 0xA0 SHL SUB AND SWAP3 PUSH1 0x3 DUP2 ADD SLOAD SWAP5 PUSH1 0x4 DUP3 ADD SLOAD SWAP2 PUSH1 0x5 DUP2 ADD SLOAD PUSH1 0x6 DUP3 ADD SLOAD PUSH1 0x7 DUP4 ADD SLOAD SWAP1 PUSH2 0x110E PUSH1 0x8 DUP6 ADD PUSH2 0xAC8 JUMP JUMPDEST SWAP3 PUSH1 0xA PUSH2 0x111D PUSH1 0x9 DUP8 ADD PUSH2 0xAC8 JUMP JUMPDEST SWAP6 ADD SLOAD SWAP7 PUSH1 0x40 MLOAD SWAP12 DUP13 SWAP12 DUP13 SWAP9 PUSH1 0xFF DUP12 PUSH1 0x10 SHR AND SWAP12 PUSH1 0xFF DUP1 DUP14 PUSH1 0x8 SHR AND SWAP13 AND SWAP11 PUSH2 0xFFC JUMP JUMPDEST SWAP1 PUSH2 0x1154 PUSH1 0x20 SWAP3 DUP3 DUP2 MLOAD SWAP5 DUP6 SWAP3 ADD PUSH2 0xB6E JUMP JUMPDEST ADD SWAP1 JUMP JUMPDEST PUSH1 0x20 PUSH2 0x1171 SWAP2 DUP2 PUSH1 0x40 MLOAD SWAP4 DUP3 DUP6 DUP1 SWAP5 MLOAD SWAP4 DUP5 SWAP3 ADD PUSH2 0xB6E JUMP JUMPDEST DUP2 ADD PUSH1 0x9 DUP2 MSTORE SUB ADD SWAP1 KECCAK256 SWAP1 JUMP JUMPDEST PUSH1 0x20 PUSH2 0x1197 SWAP2 DUP2 PUSH1 0x40 MLOAD SWAP4 DUP3 DUP6 DUP1 SWAP5 MLOAD SWAP4 DUP5 SWAP3 ADD PUSH2 0xB6E JUMP JUMPDEST DUP2 ADD PUSH1 0xC DUP2 MSTORE SUB ADD SWAP1 KECCAK256 SWAP1 JUMP JUMPDEST PUSH1 0x20 PUSH2 0x11BD SWAP2 DUP2 PUSH1 0x40 MLOAD SWAP4 DUP3 DUP6 DUP1 SWAP5 MLOAD SWAP4 DUP5 SWAP3 ADD PUSH2 0xB6E JUMP JUMPDEST DUP2 ADD PUSH1 0xE DUP2 MSTORE SUB ADD SWAP1 KECCAK256 SWAP1 JUMP JUMPDEST PUSH1 0x20 PUSH2 0x11E3 SWAP2 DUP2 PUSH1 0x40 MLOAD SWAP4 DUP3 DUP6 DUP1 SWAP5 MLOAD SWAP4 DUP5 SWAP3 ADD PUSH2 0xB6E JUMP JUMPDEST DUP2 ADD PUSH1 0xD DUP2 MSTORE SUB ADD SWAP1 KECCAK256 SWAP1 JUMP JUMPDEST PUSH1 0x20 PUSH2 0x1209 SWAP2 DUP2 PUSH1 0x40 MLOAD SWAP4 DUP3 DUP6 DUP1 SWAP5 MLOAD SWAP4 DUP5 SWAP3 ADD PUSH2 0xB6E JUMP JUMPDEST DUP2 ADD PUSH1 0x6 DUP2 MSTORE SUB ADD SWAP1 KECCAK256 SWAP1 JUMP JUMPDEST CALLVALUE PUSH2 0x2B9 JUMPI PUSH1 0x40 CALLDATASIZE PUSH1 0x3 NOT ADD SLT PUSH2 0x2B9 JUMPI PUSH1 0x4 CALLDATALOAD PUSH1 0x1 PUSH1 0x1 PUSH1 0x40 SHL SUB DUP2 GT PUSH2 0x2B9 JUMPI PUSH2 0x125C PUSH2 0x124B PUSH1 0x60 SWAP3 CALLDATASIZE SWAP1 PUSH1 0x4 ADD PUSH2 0x5ED JUMP JUMPDEST PUSH2 0x82A PUSH2 0x1256 PUSH2 0x41E JUMP JUMPDEST SWAP2 PUSH2 0x1158 JUMP JUMPDEST SLOAD PUSH1 0xFF PUSH1 0x40 MLOAD SWAP2 PUSH1 0x1 DUP1 PUSH1 0xA0 SHL SUB DUP2 AND DUP4 MSTORE DUP2 DUP2 PUSH1 0xA0 SHR AND PUSH1 0x20 DUP5 ADD MSTORE PUSH1 0xA8 SHR AND ISZERO ISZERO PUSH1 0x40 DUP3 ADD MSTORE RETURN JUMPDEST CALLVALUE PUSH2 0x2B9 JUMPI PUSH1 0x20 CALLDATASIZE PUSH1 0x3 NOT ADD SLT PUSH2 0x2B9 JUMPI PUSH1 0x4 CALLDATALOAD PUSH1 0x5 SLOAD DUP2 LT ISZERO PUSH2 0x133B JUMPI PUSH2 0x12AD SWAP1 PUSH2 0xF73 JUMP JUMPDEST POP DUP1 SLOAD PUSH1 0x1 PUSH1 0x1 PUSH1 0xA0 SHL SUB AND PUSH1 0x1 DUP3 ADD SLOAD SWAP1 SWAP2 SWAP1 PUSH2 0xC15 SWAP1 PUSH1 0x1 PUSH1 0x1 PUSH1 0xA0 SHL SUB AND PUSH1 0x2 DUP4 ADD SLOAD SWAP1 SWAP4 SWAP1 PUSH1 0x1 PUSH1 0x1 PUSH1 0xA0 SHL SUB AND SWAP3 PUSH1 0x3 DUP2 ADD SLOAD SWAP5 PUSH1 0x4 DUP3 ADD SLOAD PUSH1 0x5 DUP4 ADD SLOAD SWAP3 PUSH1 0x6 DUP2 ADD SLOAD PUSH1 0x7 DUP3 ADD SLOAD SWAP1 PUSH1 0xA DUP4 ADD SLOAD SWAP6 PUSH2 0x131A PUSH1 0x9 PUSH2 0x1313 PUSH1 0x8 DUP8 ADD PUSH2 0xAC8 JUMP JUMPDEST SWAP6 ADD PUSH2 0xAC8 JUMP JUMPDEST SWAP5 PUSH1 0x40 MLOAD SWAP12 DUP13 SWAP12 DUP13 SWAP9 PUSH1 0xFF DUP12 PUSH1 0x10 SHR AND SWAP12 PUSH1 0xFF DUP1 DUP14 PUSH1 0x8 SHR AND SWAP13 AND SWAP11 PUSH2 0xFFC JUMP JUMPDEST PUSH1 0x40 MLOAD PUSH3 0x461BCD PUSH1 0xE5 SHL DUP2 MSTORE PUSH1 0x20 PUSH1 0x4 DUP3 ADD MSTORE PUSH1 0x13 PUSH1 0x24 DUP3 ADD MSTORE PUSH19 0x496E646578206F7574206F6620626F756E6473 PUSH1 0x68 SHL PUSH1 0x44 DUP3 ADD MSTORE PUSH1 0x64 SWAP1 REVERT JUMPDEST CALLVALUE PUSH2 0x2B9 JUMPI PUSH2 0x1384 CALLDATASIZE PUSH2 0x44A JUMP JUMPDEST SWAP6 SWAP2 SWAP4 SWAP1 SWAP3 SWAP5 DUP7 ISZERO PUSH2 0x143B JUMPI PUSH2 0x1428 PUSH2 0x13FB SWAP7 PUSH2 0x142E SWAP7 PUSH2 0x1412 PUSH2 0xC15 SWAP11 PUSH2 0x13D9 PUSH3 0xF4240 PUSH1 0x40 MLOAD PUSH1 0x20 DUP2 ADD SWAP1 TIMESTAMP DUP3 MSTORE CALLER PUSH1 0x60 SHL PUSH1 0x40 DUP3 ADD MSTORE PREVRANDAO PUSH1 0x54 DUP3 ADD MSTORE PUSH1 0x54 DUP2 MSTORE PUSH2 0x13D0 DUP2 PUSH2 0x53F JUMP JUMPDEST MLOAD SWAP1 KECCAK256 MOD PUSH2 0x42EF JUMP JUMPDEST SWAP9 PUSH2 0x1409 PUSH1 0x40 MLOAD DUP1 SWAP14 DUP2 SWAP13 PUSH4 0x7061795F PUSH1 0xE0 SHL PUSH1 0x20 DUP5 ADD MSTORE PUSH1 0x24 DUP4 ADD SWAP1 PUSH2 0x1141 JUMP JUMPDEST SUB PUSH1 0x1F NOT DUP2 ADD DUP13 MSTORE DUP12 PUSH2 0x55A JUMP JUMPDEST PUSH2 0x3D4 DUP11 PUSH2 0x117E JUMP JUMPDEST PUSH2 0x4E5 PUSH2 0x141E DUP9 PUSH2 0x11A4 JUMP JUMPDEST DUP1 SLOAD PUSH1 0xFF NOT AND SWAP1 SSTORE JUMP JUMPDEST SWAP3 PUSH2 0x46E5 JUMP JUMPDEST POP PUSH1 0x40 MLOAD SWAP2 DUP3 SWAP2 DUP3 PUSH2 0xBB6 JUMP JUMPDEST PUSH1 0x40 MLOAD PUSH3 0x461BCD PUSH1 0xE5 SHL DUP2 MSTORE PUSH1 0x20 PUSH1 0x4 DUP3 ADD MSTORE PUSH1 0x1E PUSH1 0x24 DUP3 ADD MSTORE PUSH32 0x4D65726368616E7420656D61696C2063616E6E6F7420626520656D7074790000 PUSH1 0x44 DUP3 ADD MSTORE PUSH1 0x64 SWAP1 REVERT JUMPDEST PUSH1 0x20 PUSH1 0x3 NOT DUP3 ADD SLT PUSH2 0x2B9 JUMPI PUSH1 0x4 CALLDATALOAD SWAP1 PUSH1 0x1 PUSH1 0x1 PUSH1 0x40 SHL SUB DUP3 GT PUSH2 0x2B9 JUMPI PUSH2 0x608 SWAP2 PUSH1 0x4 ADD PUSH2 0x5ED JUMP JUMPDEST CALLVALUE PUSH2 0x2B9 JUMPI PUSH2 0xC15 PUSH2 0xC01 PUSH2 0x14C6 PUSH2 0x14C1 CALLDATASIZE PUSH2 0x1480 JUMP JUMPDEST PUSH2 0x117E JUMP JUMPDEST PUSH2 0xAC8 JUMP JUMPDEST CALLVALUE PUSH2 0x2B9 JUMPI PUSH1 0x40 CALLDATASIZE PUSH1 0x3 NOT ADD SLT PUSH2 0x2B9 JUMPI PUSH32 0x7C7FC64FB8E9EAB789082A884ABDAC75659103A8B5BA08D25925D6610E74996D PUSH1 0x40 PUSH1 0x4 CALLDATALOAD PUSH1 0x24 CALLDATALOAD PUSH2 0x150D PUSH2 0x23C8 JUMP JUMPDEST DUP2 PUSH1 0xF SSTORE DUP1 PUSH1 0x10 SSTORE DUP3 MLOAD SWAP2 DUP3 MSTORE PUSH1 0x20 DUP3 ADD MSTORE LOG1 STOP JUMPDEST PUSH1 0x4 GT ISZERO PUSH2 0xFD3 JUMPI JUMP JUMPDEST CALLVALUE PUSH2 0x2B9 JUMPI PUSH1 0xFF PUSH2 0x1544 PUSH2 0x153F CALLDATASIZE PUSH2 0x1480 JUMP JUMPDEST PUSH2 0x11A4 JUMP JUMPDEST SLOAD AND PUSH1 0x40 MLOAD PUSH1 0x4 DUP3 LT ISZERO PUSH2 0xFD3 JUMPI PUSH1 0x20 SWAP2 DUP2 MSTORE RETURN JUMPDEST CALLVALUE PUSH2 0x2B9 JUMPI PUSH1 0x0 CALLDATASIZE PUSH1 0x3 NOT ADD SLT PUSH2 0x2B9 JUMPI PUSH1 0x3 SLOAD PUSH1 0x40 MLOAD PUSH1 0x1 PUSH1 0x1 PUSH1 0xA0 SHL SUB SWAP1 SWAP2 AND DUP2 MSTORE PUSH1 0x20 SWAP1 RETURN JUMPDEST CALLVALUE PUSH2 0x2B9 JUMPI PUSH1 0x0 DUP1 PUSH1 0x3 NOT CALLDATASIZE ADD SLT PUSH2 0x163F JUMPI PUSH1 0x2 SLOAD PUSH1 0x1 PUSH1 0x1 PUSH1 0xA0 SHL SUB SWAP1 DUP2 AND CALLER SUB PUSH2 0x1601 JUMPI PUSH1 0x1 SLOAD PUSH1 0x1 PUSH1 0x1 PUSH1 0xA0 SHL SUB AND PUSH1 0x1 DUP1 SLOAD PUSH1 0x1 PUSH1 0x1 PUSH1 0xA0 SHL SUB NOT AND CALLER OR SWAP1 SSTORE SWAP1 PUSH1 0x2 DUP1 SLOAD PUSH1 0x1 PUSH1 0x1 PUSH1 0xA0 SHL SUB NOT AND SWAP1 SSTORE CALLER SWAP2 AND PUSH32 0x8BE0079C531659141344CD1FD0A4F28419497F9722A3DAAFE3B4186F6B6457E0 DUP4 DUP1 LOG3 DUP1 RETURN JUMPDEST PUSH1 0x40 MLOAD PUSH3 0x461BCD PUSH1 0xE5 SHL DUP2 MSTORE PUSH1 0x20 PUSH1 0x4 DUP3 ADD MSTORE PUSH1 0x16 PUSH1 0x24 DUP3 ADD MSTORE PUSH22 0x26BAB9BA10313290383937B837B9B2B21037BBB732B9 PUSH1 0x51 SHL PUSH1 0x44 DUP3 ADD MSTORE PUSH1 0x64 SWAP1 REVERT JUMPDEST DUP1 REVERT JUMPDEST CALLVALUE PUSH2 0x2B9 JUMPI PUSH2 0x1650 CALLDATASIZE PUSH2 0x44A JUMP JUMPDEST SWAP1 SWAP2 SWAP4 SWAP3 SWAP5 SWAP6 PUSH2 0x165E PUSH2 0x48BE JUMP JUMPDEST PUSH1 0x1 PUSH1 0x1 PUSH1 0xA0 SHL SUB DUP2 DUP2 AND SWAP8 SWAP1 PUSH2 0x1676 DUP10 ISZERO ISZERO PUSH2 0x438E JUMP JUMPDEST PUSH2 0x1681 DUP7 ISZERO ISZERO PUSH2 0x43CF JUMP JUMPDEST PUSH2 0x168C DUP5 ISZERO ISZERO PUSH2 0x441B JUMP JUMPDEST PUSH2 0x16AF PUSH2 0x16AA PUSH2 0x16A0 DUP5 PUSH2 0x82A DUP12 DUP14 PUSH2 0x25A6 JUMP JUMPDEST SLOAD PUSH1 0xA8 SHR PUSH1 0xFF AND SWAP1 JUMP JUMPDEST PUSH2 0x44B3 JUMP JUMPDEST PUSH1 0x40 MLOAD PUSH4 0x23B872DD PUSH1 0xE0 SHL DUP2 MSTORE CALLER PUSH1 0x4 DUP3 ADD MSTORE ADDRESS PUSH1 0x24 DUP3 ADD MSTORE PUSH1 0x44 DUP2 ADD DUP8 SWAP1 MSTORE SWAP1 DUP3 AND SWAP3 SWAP1 PUSH1 0x20 SWAP1 PUSH1 0x0 SWAP1 DUP3 DUP2 PUSH1 0x64 DUP2 DUP6 DUP11 GAS CALL DUP1 ISZERO PUSH2 0xE17 JUMPI PUSH2 0x16F9 SWAP2 DUP4 SWAP2 PUSH2 0x18CD JUMPI POP PUSH2 0x44F5 JUMP JUMPDEST DUP1 DUP3 PUSH2 0x1764 PUSH2 0x1712 PUSH2 0x170A DUP13 PUSH2 0x31BF JUMP JUMPDEST PUSH2 0x3E8 SWAP1 DIV SWAP1 JUMP JUMPDEST SWAP8 PUSH2 0x171D DUP10 DUP14 PUSH2 0x2651 JUMP JUMPDEST PUSH2 0x1731 PUSH2 0x172C DUP12 PUSH1 0x4 SLOAD PUSH2 0x30C6 JUMP JUMPDEST PUSH1 0x4 SSTORE JUMP JUMPDEST PUSH1 0x40 MLOAD PUSH4 0xA9059CBB PUSH1 0xE0 SHL DUP2 MSTORE PUSH1 0x1 PUSH1 0x1 PUSH1 0xA0 SHL SUB DUP10 AND PUSH1 0x4 DUP3 ADD MSTORE PUSH1 0x24 DUP2 ADD SWAP2 SWAP1 SWAP2 MSTORE SWAP4 DUP5 SWAP3 DUP4 SWAP2 SWAP1 DUP3 SWAP1 PUSH1 0x44 DUP3 ADD SWAP1 JUMP JUMPDEST SUB SWAP3 GAS CALL DUP1 ISZERO PUSH2 0xE17 JUMPI PUSH2 0x177F SWAP2 DUP4 SWAP2 PUSH2 0x18B0 JUMPI JUMPDEST POP PUSH2 0x4A95 JUMP JUMPDEST PUSH1 0x5 SLOAD SWAP5 DUP6 SWAP5 DUP5 PUSH2 0x178E PUSH2 0x57B JUMP JUMPDEST CALLER DUP2 MSTORE SWAP5 PUSH1 0x1 PUSH1 0x1 PUSH1 0xA0 SHL SUB SWAP1 SWAP2 AND SWAP1 DUP6 ADD MSTORE PUSH1 0x1 PUSH1 0x1 PUSH1 0xA0 SHL SUB AND PUSH1 0x40 DUP5 ADD MSTORE DUP9 PUSH1 0x60 DUP5 ADD MSTORE TIMESTAMP PUSH1 0x80 DUP5 ADD MSTORE DUP2 PUSH1 0xA0 DUP5 ADD MSTORE DUP2 PUSH1 0xC0 DUP5 ADD MSTORE PUSH1 0xE0 DUP4 ADD MSTORE CALLDATASIZE PUSH2 0x17D8 SWAP1 DUP8 DUP10 PUSH2 0x5B6 JUMP JUMPDEST PUSH2 0x100 DUP4 ADD MSTORE PUSH2 0x17E9 CALLDATASIZE DUP11 DUP13 PUSH2 0x5B6 JUMP JUMPDEST PUSH2 0x120 DUP4 ADD MSTORE DUP1 PUSH2 0x140 DUP4 ADD MSTORE DUP1 PUSH2 0x160 DUP4 ADD MSTORE PUSH2 0x180 DUP3 ADD MSTORE PUSH2 0x180C SWAP1 PUSH2 0x454B JUMP JUMPDEST CALLER PUSH1 0x0 SWAP1 DUP2 MSTORE PUSH1 0x7 PUSH1 0x20 MSTORE PUSH1 0x40 SWAP1 KECCAK256 DUP3 PUSH2 0x1825 SWAP2 PUSH2 0x46AC JUMP JUMPDEST PUSH1 0x1 PUSH1 0x1 PUSH1 0xA0 SHL SUB AND PUSH1 0x0 SWAP1 DUP2 MSTORE PUSH1 0x8 PUSH1 0x20 MSTORE PUSH1 0x40 SWAP1 KECCAK256 SWAP1 PUSH2 0x1846 SWAP2 PUSH2 0x46AC JUMP JUMPDEST PUSH2 0x184F SWAP1 PUSH2 0x308C JUMP JUMPDEST PUSH2 0x1859 DUP3 DUP5 PUSH2 0x255B JUMP JUMPDEST SSTORE PUSH2 0x1863 SWAP2 PUSH2 0x272F JUMP JUMPDEST SWAP2 PUSH1 0x40 MLOAD SWAP2 DUP3 SWAP2 CALLER SWAP6 PUSH2 0x1876 SWAP3 DUP5 PUSH2 0x4AD9 JUMP JUMPDEST SUB PUSH32 0xCE1770AB7D1A256D012B7C071D6629036759AD11C5CFFD2E6CD7D8B2DFFC7E7C SWAP2 LOG4 PUSH2 0x18A4 PUSH1 0x1 PUSH1 0x0 SSTORE JUMP JUMPDEST PUSH1 0x40 MLOAD PUSH1 0x1 DUP2 MSTORE PUSH1 0x20 SWAP1 RETURN JUMPDEST PUSH2 0x18C7 SWAP2 POP DUP5 RETURNDATASIZE DUP7 GT PUSH2 0xE10 JUMPI PUSH2 0xE02 DUP2 DUP4 PUSH2 0x55A JUMP JUMPDEST CODESIZE PUSH2 0x1779 JUMP JUMPDEST PUSH2 0xE0A SWAP2 POP DUP5 RETURNDATASIZE DUP7 GT PUSH2 0xE10 JUMPI PUSH2 0xE02 DUP2 DUP4 PUSH2 0x55A JUMP JUMPDEST CALLVALUE PUSH2 0x2B9 JUMPI PUSH1 0x0 CALLDATASIZE PUSH1 0x3 NOT ADD SLT PUSH2 0x2B9 JUMPI PUSH1 0x20 PUSH1 0x40 MLOAD PUSH3 0x15180 DUP2 MSTORE RETURN JUMPDEST CALLVALUE PUSH2 0x2B9 JUMPI PUSH2 0x1919 PUSH2 0x1913 CALLDATASIZE PUSH2 0x93E JUMP JUMPDEST SWAP1 PUSH2 0x25BF JUMP JUMPDEST PUSH1 0x40 MLOAD SWAP1 DUP2 SWAP1 DUP1 SLOAD DUP1 DUP5 MSTORE PUSH1 0x20 DUP1 SWAP5 ADD SWAP1 DUP2 SWAP3 PUSH1 0x0 MSTORE DUP5 PUSH1 0x0 KECCAK256 SWAP1 PUSH1 0x0 JUMPDEST DUP7 DUP3 DUP3 LT PUSH2 0x1996 JUMPI DUP7 DUP7 PUSH2 0x194D DUP3 DUP9 SUB DUP4 PUSH2 0x55A JUMP JUMPDEST PUSH1 0x40 MLOAD SWAP3 DUP4 SWAP3 DUP2 DUP5 ADD SWAP1 DUP3 DUP6 MSTORE MLOAD DUP1 SWAP2 MSTORE PUSH1 0x40 DUP5 ADD SWAP3 SWAP2 PUSH1 0x0 JUMPDEST DUP3 DUP2 LT PUSH2 0x1976 JUMPI POP POP POP POP SUB SWAP1 RETURN JUMPDEST DUP4 MLOAD PUSH1 0x1 PUSH1 0x1 PUSH1 0xA0 SHL SUB AND DUP6 MSTORE DUP7 SWAP6 POP SWAP4 DUP2 ADD SWAP4 SWAP3 DUP2 ADD SWAP3 PUSH1 0x1 ADD PUSH2 0x1967 JUMP JUMPDEST DUP4 SLOAD DUP6 MSTORE SWAP1 SWAP4 ADD SWAP3 PUSH1 0x1 SWAP3 DUP4 ADD SWAP3 ADD PUSH2 0x1937 JUMP JUMPDEST CALLVALUE PUSH2 0x2B9 JUMPI PUSH1 0x0 CALLDATASIZE PUSH1 0x3 NOT ADD SLT PUSH2 0x2B9 JUMPI PUSH1 0x1 SLOAD PUSH1 0x40 MLOAD PUSH1 0x1 PUSH1 0x1 PUSH1 0xA0 SHL SUB SWAP1 SWAP2 AND DUP2 MSTORE PUSH1 0x20 SWAP1 RETURN JUMPDEST CALLVALUE PUSH2 0x2B9 JUMPI PUSH2 0x1AB8 PUSH1 0x0 DUP1 MLOAD PUSH1 0x20 PUSH2 0x4D75 DUP4 CODECOPY DUP2 MLOAD SWAP2 MSTORE PUSH2 0xDDC PUSH2 0x19F6 CALLDATASIZE PUSH2 0x93E JUMP JUMPDEST PUSH2 0x1A01 SWAP5 SWAP2 SWAP5 PUSH2 0x48BE JUMP JUMPDEST PUSH2 0x1A11 PUSH2 0x35F PUSH2 0x34E DUP4 DUP9 PUSH2 0x255B JUMP JUMPDEST POP SWAP5 PUSH1 0xA DUP7 ADD SWAP6 PUSH2 0x1A76 PUSH1 0xFF DUP9 SLOAD PUSH2 0x1A30 PUSH1 0x1 DUP4 DUP4 AND PUSH2 0x9BC DUP2 PUSH2 0xFC9 JUMP JUMPDEST PUSH1 0x8 SHR AND SWAP8 PUSH2 0x1A3E DUP10 PUSH2 0xFE5 JUMP JUMPDEST PUSH2 0x1A4A PUSH1 0x1 DUP11 EQ PUSH2 0x4B34 JUMP JUMPDEST DUP3 SLOAD PUSH2 0x1A5E SWAP1 PUSH1 0x1 PUSH1 0x1 PUSH1 0xA0 SHL SUB AND PUSH2 0x9F6 JUMP JUMPDEST PUSH2 0x1A67 DUP10 PUSH2 0xFE5 JUMP JUMPDEST DUP1 SLOAD PUSH2 0xFF00 NOT AND PUSH2 0x200 OR SWAP1 SSTORE JUMP JUMPDEST PUSH1 0x6 TIMESTAMP SWAP2 ADD SSTORE PUSH2 0x1A86 DUP3 DUP3 PUSH2 0x272F JUMP JUMPDEST PUSH1 0x40 MLOAD PUSH1 0x0 DUP2 MSTORE PUSH32 0x338BD150F7922769AD6D998D3A6B2FC3668A74AC52C70C13136927BD1C19789 SWAP1 PUSH1 0x20 SWAP1 LOG2 PUSH2 0x272F JUMP JUMPDEST PUSH1 0x40 DUP1 MLOAD PUSH1 0xFF SWAP1 SWAP6 AND DUP6 MSTORE PUSH1 0x2 PUSH1 0x20 DUP7 ADD MSTORE CALLER SWAP1 DUP6 ADD MSTORE TIMESTAMP PUSH1 0x60 DUP6 ADD MSTORE SWAP3 SWAP1 DUP2 SWAP1 PUSH1 0x80 DUP3 ADD SWAP1 JUMP JUMPDEST CALLVALUE PUSH2 0x2B9 JUMPI PUSH2 0xC15 PUSH2 0xC01 PUSH2 0x14C6 PUSH2 0x1AF7 CALLDATASIZE PUSH2 0x1480 JUMP JUMPDEST PUSH2 0x11CA JUMP JUMPDEST CALLVALUE PUSH2 0x2B9 JUMPI PUSH1 0x0 CALLDATASIZE PUSH1 0x3 NOT ADD SLT PUSH2 0x2B9 JUMPI PUSH1 0x20 PUSH1 0x40 MLOAD PUSH2 0x2A30 DUP2 MSTORE RETURN JUMPDEST CALLVALUE PUSH2 0x2B9 JUMPI PUSH1 0x20 DUP1 PUSH1 0x3 NOT CALLDATASIZE ADD SLT PUSH2 0x2B9 JUMPI PUSH1 0x1 PUSH1 0x1 PUSH1 0xA0 SHL SUB PUSH2 0x1B3B PUSH2 0x434 JUMP JUMPDEST AND PUSH1 0x0 MSTORE PUSH1 0x7 DUP2 MSTORE PUSH1 0x40 PUSH1 0x0 KECCAK256 SWAP1 PUSH1 0x40 MLOAD SWAP1 DUP2 DUP2 DUP5 SLOAD SWAP2 DUP3 DUP2 MSTORE ADD SWAP4 PUSH1 0x0 MSTORE DUP2 PUSH1 0x0 KECCAK256 SWAP2 PUSH1 0x0 SWAP1 JUMPDEST DUP3 DUP3 LT PUSH2 0x1B7A JUMPI PUSH2 0xC15 DUP6 PUSH2 0xEF5 DUP2 DUP10 SUB DUP3 PUSH2 0x55A JUMP JUMPDEST DUP4 SLOAD DUP7 MSTORE SWAP5 DUP6 ADD SWAP5 PUSH1 0x1 SWAP4 DUP5 ADD SWAP4 SWAP1 SWAP2 ADD SWAP1 PUSH2 0x1B63 JUMP JUMPDEST CALLVALUE PUSH2 0x2B9 JUMPI PUSH2 0x1B9F CALLDATASIZE PUSH2 0x93E JUMP JUMPDEST SWAP1 DUP2 ISZERO PUSH2 0x1C82 JUMPI PUSH1 0x0 SWAP1 CALLER DUP3 MSTORE PUSH1 0x20 SWAP3 PUSH1 0xB DUP5 MSTORE PUSH1 0x40 DUP4 KECCAK256 SWAP2 PUSH1 0x1 PUSH1 0x1 PUSH1 0x40 SHL SUB DUP3 GT PUSH2 0x53A JUMPI PUSH2 0x1BDA DUP3 PUSH2 0x1BD4 DUP6 SLOAD PUSH2 0xA8E JUMP JUMPDEST DUP6 PUSH2 0x244F JUMP JUMPDEST DUP4 SWAP5 PUSH1 0x1F DUP4 GT PUSH1 0x1 EQ PUSH2 0x1C16 JUMPI POP SWAP4 DUP4 SWAP5 DUP3 SWAP4 SWAP5 SWAP3 PUSH2 0x1C0B JUMPI JUMPDEST POP POP DUP2 PUSH1 0x1 SHL SWAP2 PUSH1 0x0 NOT SWAP1 PUSH1 0x3 SHL SHR NOT AND OR SWAP1 SSTORE DUP1 RETURN JUMPDEST ADD CALLDATALOAD SWAP1 POP CODESIZE DUP1 PUSH2 0x1BF4 JUMP JUMPDEST SWAP1 PUSH1 0x1F NOT DUP4 AND SWAP6 PUSH2 0x1C2C DUP6 PUSH1 0x0 MSTORE PUSH1 0x20 PUSH1 0x0 KECCAK256 SWAP1 JUMP JUMPDEST SWAP3 DUP7 SWAP1 JUMPDEST DUP9 DUP3 LT PUSH2 0x1C6A JUMPI POP POP DUP4 PUSH1 0x1 SWAP6 SWAP7 SWAP8 LT PUSH2 0x1C50 JUMPI JUMPDEST POP POP POP DUP2 SHL ADD SWAP1 SSTORE DUP1 RETURN JUMPDEST ADD CALLDATALOAD PUSH1 0x0 NOT PUSH1 0x3 DUP5 SWAP1 SHL PUSH1 0xF8 AND SHR NOT AND SWAP1 SSTORE CODESIZE DUP1 DUP1 PUSH2 0x1C45 JUMP JUMPDEST DUP1 PUSH1 0x1 DUP5 SWAP7 DUP3 SWAP5 SWAP6 DUP8 ADD CALLDATALOAD DUP2 SSTORE ADD SWAP6 ADD SWAP3 ADD SWAP1 PUSH2 0x1C30 JUMP JUMPDEST PUSH1 0x40 MLOAD PUSH3 0x461BCD PUSH1 0xE5 SHL DUP2 MSTORE PUSH1 0x20 PUSH1 0x4 DUP3 ADD MSTORE PUSH1 0x15 PUSH1 0x24 DUP3 ADD MSTORE PUSH21 0x456D61696C2063616E6E6F7420626520656D707479 PUSH1 0x58 SHL PUSH1 0x44 DUP3 ADD MSTORE PUSH1 0x64 SWAP1 REVERT JUMPDEST CALLVALUE PUSH2 0x2B9 JUMPI PUSH2 0x1DE6 PUSH2 0x1CD0 CALLDATASIZE PUSH2 0x93E JUMP JUMPDEST SWAP2 SWAP1 PUSH2 0x1CDA PUSH2 0x48BE JUMP JUMPDEST PUSH2 0x1CEA PUSH2 0x35F PUSH2 0x34E DUP6 DUP5 PUSH2 0x255B JUMP JUMPDEST POP PUSH1 0xA DUP2 ADD SWAP4 PUSH2 0x1D65 DUP6 SLOAD SWAP6 PUSH2 0x1D08 PUSH1 0x1 PUSH1 0xFF DUP10 AND PUSH2 0x9BC DUP2 PUSH2 0xFC9 JUMP JUMPDEST PUSH2 0x1D3B PUSH1 0xFF DUP1 DUP10 PUSH1 0x8 SHR AND SWAP9 PUSH2 0x1D1D DUP11 PUSH2 0xFE5 JUMP JUMPDEST PUSH1 0x2 DUP11 EQ DUP1 ISZERO PUSH2 0x1EEA JUMPI JUMPDEST PUSH2 0x1D31 SWAP1 PUSH2 0x4BB2 JUMP JUMPDEST PUSH1 0x10 SHR AND ISZERO PUSH2 0x4BF3 JUMP JUMPDEST PUSH2 0x1D44 DUP8 PUSH2 0xFE5 JUMP JUMPDEST PUSH1 0x1 DUP8 EQ PUSH2 0x1EAE JUMPI JUMPDEST PUSH2 0x1D56 DUP8 PUSH2 0xFE5 JUMP JUMPDEST DUP1 SLOAD PUSH2 0xFF00 NOT AND PUSH2 0x300 OR SWAP1 SSTORE JUMP JUMPDEST PUSH1 0x3 DUP3 ADD SLOAD SWAP3 PUSH1 0x7 DUP4 ADD SWAP4 PUSH2 0x1D8B PUSH2 0x172C PUSH2 0x1D82 DUP8 SLOAD DUP1 SWAP5 PUSH2 0x2651 JUMP JUMPDEST SWAP3 PUSH1 0x4 SLOAD PUSH2 0x30C6 JUMP JUMPDEST PUSH1 0x20 DUP2 PUSH1 0x1 PUSH2 0x1DA9 PUSH2 0xCDC PUSH2 0xCDC PUSH1 0x2 DUP11 ADD SLOAD PUSH1 0x1 DUP1 PUSH1 0xA0 SHL SUB AND SWAP1 JUMP JUMPDEST SWAP7 ADD DUP1 SLOAD PUSH1 0x40 MLOAD PUSH4 0xA9059CBB PUSH1 0xE0 SHL DUP2 MSTORE PUSH1 0x1 PUSH1 0x1 PUSH1 0xA0 SHL SUB SWAP1 SWAP2 AND PUSH1 0x4 DUP3 ADD MSTORE PUSH1 0x24 DUP2 ADD SWAP3 SWAP1 SWAP3 MSTORE SWAP1 SWAP8 SWAP1 SWAP6 DUP9 SWAP2 DUP3 SWAP1 PUSH1 0x0 SWAP1 DUP3 SWAP1 PUSH1 0x44 DUP3 ADD SWAP1 JUMP JUMPDEST SUB SWAP3 GAS CALL SWAP5 DUP6 ISZERO PUSH2 0xE17 JUMPI PUSH32 0xA4B9AFF2E7BD4815FD0C77044B1652A3CDC9D61C082A9A75510DD9D30D1C1009 PUSH2 0x1E3D PUSH2 0x1E6E SWAP7 PUSH2 0xD83 PUSH2 0xDDC SWAP10 PUSH1 0x0 DUP1 MLOAD PUSH1 0x20 PUSH2 0x4D75 DUP4 CODECOPY DUP2 MLOAD SWAP2 MSTORE SWAP12 PUSH1 0x0 SWAP2 PUSH2 0x1E96 JUMPI POP PUSH2 0x4A95 JUMP JUMPDEST SWAP2 SLOAD PUSH2 0x1E49 DUP7 DUP7 PUSH2 0x272F JUMP JUMPDEST PUSH1 0x40 DUP1 MLOAD SWAP6 DUP7 MSTORE PUSH1 0x20 DUP7 ADD SWAP3 SWAP1 SWAP3 MSTORE PUSH1 0x1 PUSH1 0x1 PUSH1 0xA0 SHL SUB SWAP1 SWAP4 AND SWAP4 SWAP1 DUP2 SWAP1 DUP2 ADD PUSH2 0xDAC JUMP JUMPDEST PUSH1 0x40 DUP1 MLOAD PUSH1 0xFF SWAP1 SWAP6 AND DUP6 MSTORE PUSH1 0x3 PUSH1 0x20 DUP7 ADD MSTORE CALLER SWAP1 DUP6 ADD MSTORE TIMESTAMP PUSH1 0x60 DUP6 ADD MSTORE SWAP3 SWAP1 DUP2 SWAP1 PUSH1 0x80 DUP3 ADD SWAP1 JUMP JUMPDEST PUSH2 0x18C7 SWAP2 POP PUSH1 0x20 RETURNDATASIZE DUP2 GT PUSH2 0xE10 JUMPI PUSH2 0xE02 DUP2 DUP4 PUSH2 0x55A JUMP JUMPDEST PUSH2 0x1EB8 DUP4 DUP7 PUSH2 0x272F JUMP JUMPDEST PUSH1 0x40 MLOAD PUSH1 0x1 DUP2 MSTORE PUSH32 0x338BD150F7922769AD6D998D3A6B2FC3668A74AC52C70C13136927BD1C19789 SWAP1 PUSH1 0x20 SWAP1 LOG2 PUSH2 0x1D4D JUMP JUMPDEST POP PUSH2 0x1EF4 DUP11 PUSH2 0xFE5 JUMP JUMPDEST PUSH1 0x1 DUP11 EQ DUP1 ISZERO PUSH2 0x1D28 JUMPI POP PUSH2 0x1D31 PUSH2 0x1F0F PUSH1 0x5 DUP10 ADD SLOAD PUSH2 0x309A JUMP JUMPDEST TIMESTAMP LT ISZERO SWAP1 POP PUSH2 0x1D28 JUMP JUMPDEST CALLVALUE PUSH2 0x2B9 JUMPI PUSH1 0x20 CALLDATASIZE PUSH1 0x3 NOT ADD SLT PUSH2 0x2B9 JUMPI PUSH2 0x1F32 PUSH2 0x434 JUMP JUMPDEST PUSH2 0x1F3A PUSH2 0x23C8 JUMP JUMPDEST PUSH1 0x1 PUSH1 0x1 PUSH1 0xA0 SHL SUB AND ISZERO PUSH2 0x1FB3 JUMPI PUSH1 0x40 MLOAD PUSH3 0x461BCD PUSH1 0xE5 SHL DUP2 MSTORE PUSH1 0x20 PUSH1 0x4 DUP3 ADD MSTORE PUSH1 0x39 PUSH1 0x24 DUP3 ADD MSTORE PUSH32 0x526F7574657220757064617465206E6F7420737570706F72746564202D206E65 PUSH1 0x44 DUP3 ADD MSTORE PUSH32 0x656420746F206465706C6F79206E657720636F6E747261637400000000000000 PUSH1 0x64 DUP3 ADD MSTORE PUSH1 0x84 SWAP1 REVERT JUMPDEST PUSH1 0x40 MLOAD PUSH3 0x461BCD PUSH1 0xE5 SHL DUP2 MSTORE PUSH1 0x20 PUSH1 0x4 DUP3 ADD MSTORE PUSH1 0x18 PUSH1 0x24 DUP3 ADD MSTORE PUSH32 0x5A65726F2061646472657373206E6F7420616C6C6F7765640000000000000000 PUSH1 0x44 DUP3 ADD MSTORE PUSH1 0x64 SWAP1 REVERT JUMPDEST CALLVALUE PUSH2 0x2B9 JUMPI PUSH1 0x0 CALLDATASIZE PUSH1 0x3 NOT ADD SLT PUSH2 0x2B9 JUMPI PUSH1 0x20 PUSH1 0x4 SLOAD PUSH1 0x40 MLOAD SWAP1 DUP2 MSTORE RETURN JUMPDEST CALLVALUE PUSH2 0x2B9 JUMPI PUSH2 0x12AD PUSH2 0x35F PUSH1 0x20 PUSH2 0x202C CALLDATASIZE PUSH2 0x93E JUMP JUMPDEST SWAP2 SWAP1 DUP3 PUSH1 0x40 MLOAD SWAP4 DUP5 SWAP3 DUP4 CALLDATACOPY DUP2 ADD PUSH1 0x6 DUP2 MSTORE SUB ADD SWAP1 KECCAK256 SLOAD PUSH2 0x35A DUP2 ISZERO ISZERO PUSH2 0x25D8 JUMP JUMPDEST CALLVALUE PUSH2 0x2B9 JUMPI PUSH2 0x205B CALLDATASIZE PUSH2 0x93E JUMP JUMPDEST SWAP1 PUSH2 0x2064 PUSH2 0x48BE JUMP JUMPDEST PUSH2 0x2074 PUSH2 0x35F PUSH2 0x34E DUP5 DUP5 PUSH2 0x255B JUMP JUMPDEST POP PUSH2 0x213A PUSH1 0xA DUP3 ADD SWAP4 PUSH2 0x20DE PUSH1 0xFF DUP7 SLOAD PUSH2 0x2095 PUSH1 0x1 DUP4 DUP4 AND PUSH2 0x9BC DUP2 PUSH2 0xFC9 JUMP JUMPDEST PUSH1 0x8 SHR AND SWAP6 PUSH2 0x20A3 DUP8 PUSH2 0xFE5 JUMP JUMPDEST PUSH2 0x20AF PUSH1 0x1 DUP9 EQ PUSH2 0x4B34 JUMP JUMPDEST PUSH2 0x20C6 PUSH2 0x20BF PUSH1 0x5 DUP8 ADD SLOAD PUSH2 0x30A9 JUMP JUMPDEST TIMESTAMP GT PUSH2 0x4D32 JUMP JUMPDEST PUSH2 0x20CF DUP8 PUSH2 0xFE5 JUMP JUMPDEST DUP1 SLOAD PUSH2 0xFF00 NOT AND PUSH2 0x500 OR SWAP1 SSTORE JUMP JUMPDEST PUSH1 0x2 DUP4 ADD SLOAD PUSH2 0x20F7 SWAP1 PUSH2 0xCDC SWAP1 PUSH1 0x1 PUSH1 0x1 PUSH1 0xA0 SHL SUB AND DUP2 JUMP JUMPDEST DUP4 SLOAD PUSH1 0x3 DUP6 ADD DUP1 SLOAD PUSH1 0x40 MLOAD PUSH4 0xA9059CBB PUSH1 0xE0 SHL DUP2 MSTORE PUSH1 0x1 PUSH1 0x1 PUSH1 0xA0 SHL SUB SWAP1 SWAP4 AND PUSH1 0x4 DUP5 ADD MSTORE PUSH1 0x24 DUP4 ADD MSTORE SWAP6 SWAP1 SWAP4 SWAP1 SWAP2 PUSH1 0x20 SWAP2 DUP6 SWAP2 SWAP1 DUP3 SWAP1 PUSH1 0x0 SWAP1 DUP3 SWAP1 PUSH1 0x44 DUP3 ADD SWAP1 JUMP JUMPDEST SUB SWAP3 GAS CALL SWAP5 DUP6 ISZERO PUSH2 0xE17 JUMPI PUSH2 0x2170 PUSH2 0xDDC SWAP6 PUSH2 0xD83 PUSH1 0x0 DUP1 MLOAD PUSH1 0x20 PUSH2 0x4D75 DUP4 CODECOPY DUP2 MLOAD SWAP2 MSTORE SWAP9 PUSH2 0x21BD SWAP8 PUSH1 0x0 SWAP2 PUSH2 0xDE9 JUMPI POP PUSH2 0x44F5 JUMP JUMPDEST SWAP1 SLOAD SWAP1 PUSH32 0x28AFE715DBD83795E640B15A8E7A443F6BCC98DEF0089C4FE40E6C0841DE9145 PUSH2 0xDAC PUSH2 0x21A1 DUP7 DUP7 PUSH2 0x272F JUMP JUMPDEST PUSH1 0x40 MLOAD SWAP5 DUP6 MSTORE PUSH1 0x1 PUSH1 0x1 PUSH1 0xA0 SHL SUB SWAP1 SWAP4 AND SWAP4 SWAP1 DUP2 SWAP1 PUSH1 0x20 DUP3 ADD SWAP1 JUMP JUMPDEST PUSH1 0x40 DUP1 MLOAD PUSH1 0xFF SWAP1 SWAP6 AND DUP6 MSTORE PUSH1 0x5 PUSH1 0x20 DUP7 ADD MSTORE CALLER SWAP1 DUP6 ADD MSTORE TIMESTAMP PUSH1 0x60 DUP6 ADD MSTORE SWAP3 SWAP1 DUP2 SWAP1 PUSH1 0x80 DUP3 ADD SWAP1 JUMP JUMPDEST CALLVALUE PUSH2 0x2B9 JUMPI PUSH1 0x0 CALLDATASIZE PUSH1 0x3 NOT ADD SLT PUSH2 0x2B9 JUMPI PUSH1 0x20 PUSH1 0x1 PUSH1 0x1 PUSH1 0x40 SHL SUB PUSH1 0x12 SLOAD AND PUSH1 0x40 MLOAD SWAP1 DUP2 MSTORE RETURN JUMPDEST CALLVALUE PUSH2 0x2B9 JUMPI PUSH1 0x20 CALLDATASIZE PUSH1 0x3 NOT ADD SLT PUSH2 0x2B9 JUMPI PUSH2 0x2290 PUSH2 0x2228 PUSH2 0x434 JUMP JUMPDEST PUSH2 0x2230 PUSH2 0x23C8 JUMP JUMPDEST PUSH1 0x1 PUSH1 0x1 PUSH1 0xA0 SHL SUB AND PUSH2 0x2244 DUP2 ISZERO ISZERO PUSH2 0x48E1 JUMP JUMPDEST PUSH1 0x20 PUSH1 0x4 SLOAD DUP1 SWAP3 PUSH2 0x2255 PUSH1 0x0 PUSH1 0x4 SSTORE JUMP JUMPDEST PUSH1 0x1 SLOAD PUSH1 0x40 MLOAD PUSH4 0xA9059CBB PUSH1 0xE0 SHL DUP2 MSTORE PUSH1 0x1 PUSH1 0x1 PUSH1 0xA0 SHL SUB SWAP1 SWAP2 AND PUSH1 0x4 DUP3 ADD MSTORE PUSH1 0x24 DUP2 ADD SWAP3 SWAP1 SWAP3 MSTORE SWAP1 SWAP4 DUP5 SWAP2 SWAP1 DUP3 SWAP1 PUSH1 0x0 SWAP1 DUP3 SWAP1 PUSH1 0x44 DUP3 ADD SWAP1 JUMP JUMPDEST SUB SWAP3 GAS CALL SWAP1 DUP2 ISZERO PUSH2 0xE17 JUMPI PUSH2 0x22D1 PUSH2 0x22E1 SWAP3 PUSH32 0x9870C8023BAA016AC002DDFA7CDAD341155ACDDDDEE3032C07D4BAA4947AE643 SWAP5 PUSH1 0x0 SWAP2 PUSH2 0xDE9 JUMPI POP PUSH2 0x44F5 JUMP JUMPDEST PUSH1 0x40 MLOAD SWAP1 DUP2 MSTORE SWAP1 DUP2 SWAP1 PUSH1 0x20 DUP3 ADD SWAP1 JUMP JUMPDEST SUB SWAP1 LOG1 STOP JUMPDEST CALLVALUE PUSH2 0x2B9 JUMPI PUSH1 0x20 CALLDATASIZE PUSH1 0x3 NOT ADD SLT PUSH2 0x2B9 JUMPI PUSH2 0x22FF PUSH2 0x434 JUMP JUMPDEST PUSH2 0x2307 PUSH2 0x23C8 JUMP JUMPDEST PUSH1 0x1 PUSH1 0x1 PUSH1 0xA0 SHL SUB AND CALLER DUP2 EQ PUSH2 0x2365 JUMPI PUSH1 0x2 DUP1 SLOAD PUSH1 0x1 PUSH1 0x1 PUSH1 0xA0 SHL SUB NOT AND DUP3 OR SWAP1 SSTORE PUSH1 0x1 SLOAD PUSH2 0x233E SWAP1 PUSH1 0x1 PUSH1 0x1 PUSH1 0xA0 SHL SUB AND PUSH2 0xCDC JUMP JUMPDEST PUSH32 0xED8889F560326EB138920D842192F0EB3DD22B4F139C87A2C57538E05BAE1278 PUSH1 0x0 DUP1 LOG3 STOP JUMPDEST PUSH1 0x40 MLOAD PUSH3 0x461BCD PUSH1 0xE5 SHL DUP2 MSTORE PUSH1 0x20 PUSH1 0x4 DUP3 ADD MSTORE PUSH1 0x17 PUSH1 0x24 DUP3 ADD MSTORE PUSH32 0x43616E6E6F74207472616E7366657220746F2073656C66000000000000000000 PUSH1 0x44 DUP3 ADD MSTORE PUSH1 0x64 SWAP1 REVERT JUMPDEST CALLVALUE PUSH2 0x2B9 JUMPI PUSH1 0x0 CALLDATASIZE PUSH1 0x3 NOT ADD SLT PUSH2 0x2B9 JUMPI PUSH1 0x20 PUSH1 0x40 MLOAD PUSH3 0x3F480 DUP2 MSTORE RETURN JUMPDEST PUSH1 0x1 SLOAD PUSH1 0x1 PUSH1 0x1 PUSH1 0xA0 SHL SUB AND CALLER SUB PUSH2 0x23DC JUMPI JUMP JUMPDEST PUSH1 0x40 MLOAD PUSH3 0x461BCD PUSH1 0xE5 SHL DUP2 MSTORE PUSH1 0x20 PUSH1 0x4 DUP3 ADD MSTORE PUSH1 0x16 PUSH1 0x24 DUP3 ADD MSTORE PUSH22 0x27B7363C9031B0B63630B1363290313C9037BBB732B9 PUSH1 0x51 SHL PUSH1 0x44 DUP3 ADD MSTORE PUSH1 0x64 SWAP1 REVERT JUMPDEST SWAP2 PUSH2 0x2434 SWAP2 DUP4 SLOAD SWAP1 PUSH1 0x3 SHL SWAP2 DUP3 SHL SWAP2 PUSH1 0x0 NOT SWAP1 SHL NOT AND OR SWAP1 JUMP JUMPDEST SWAP1 SSTORE JUMP JUMPDEST DUP2 DUP2 LT PUSH2 0x2443 JUMPI POP POP JUMP JUMPDEST PUSH1 0x0 DUP2 SSTORE PUSH1 0x1 ADD PUSH2 0x2438 JUMP JUMPDEST SWAP2 SWAP1 PUSH1 0x1F DUP2 GT PUSH2 0x245E JUMPI POP POP POP JUMP JUMPDEST PUSH2 0xB06 SWAP3 PUSH1 0x0 MSTORE PUSH1 0x20 PUSH1 0x0 KECCAK256 SWAP1 PUSH1 0x20 PUSH1 0x1F DUP5 ADD PUSH1 0x5 SHR DUP4 ADD SWAP4 LT PUSH2 0x248A JUMPI JUMPDEST PUSH1 0x1F ADD PUSH1 0x5 SHR ADD SWAP1 PUSH2 0x2438 JUMP JUMPDEST SWAP1 SWAP2 POP DUP2 SWAP1 PUSH2 0x247D JUMP JUMPDEST SWAP1 SWAP3 SWAP2 PUSH1 0x1 PUSH1 0x1 PUSH1 0x40 SHL SUB DUP2 GT PUSH2 0x53A JUMPI PUSH2 0x24B9 DUP2 PUSH2 0x24B3 DUP5 SLOAD PUSH2 0xA8E JUMP JUMPDEST DUP5 PUSH2 0x244F JUMP JUMPDEST PUSH1 0x0 PUSH1 0x1F DUP3 GT PUSH1 0x1 EQ PUSH2 0x24F3 JUMPI DUP2 SWAP3 SWAP4 SWAP5 PUSH1 0x0 SWAP3 PUSH2 0x24E8 JUMPI JUMPDEST POP POP DUP2 PUSH1 0x1 SHL SWAP2 PUSH1 0x0 NOT SWAP1 PUSH1 0x3 SHL SHR NOT AND OR SWAP1 SSTORE JUMP JUMPDEST ADD CALLDATALOAD SWAP1 POP CODESIZE DUP1 PUSH2 0x24D2 JUMP JUMPDEST PUSH1 0x1F NOT DUP3 AND SWAP5 PUSH2 0x2508 DUP5 PUSH1 0x0 MSTORE PUSH1 0x20 PUSH1 0x0 KECCAK256 SWAP1 JUMP JUMPDEST SWAP2 DUP1 JUMPDEST DUP8 DUP2 LT PUSH2 0x2543 JUMPI POP DUP4 PUSH1 0x1 SWAP6 SWAP7 SWAP8 LT PUSH2 0x2529 JUMPI JUMPDEST POP POP POP DUP2 SHL ADD SWAP1 SSTORE JUMP JUMPDEST ADD CALLDATALOAD PUSH1 0x0 NOT PUSH1 0x3 DUP5 SWAP1 SHL PUSH1 0xF8 AND SHR NOT AND SWAP1 SSTORE CODESIZE DUP1 DUP1 PUSH2 0x251F JUMP JUMPDEST SWAP1 SWAP3 PUSH1 0x20 PUSH1 0x1 DUP2 SWAP3 DUP7 DUP7 ADD CALLDATALOAD DUP2 SSTORE ADD SWAP5 ADD SWAP2 ADD PUSH2 0x250B JUMP JUMPDEST PUSH1 0x20 SWAP1 DUP3 PUSH1 0x40 MLOAD SWAP4 DUP5 SWAP3 DUP4 CALLDATACOPY DUP2 ADD PUSH1 0x6 DUP2 MSTORE SUB ADD SWAP1 KECCAK256 SWAP1 JUMP JUMPDEST PUSH1 0x20 SWAP1 DUP3 PUSH1 0x40 MLOAD SWAP4 DUP5 SWAP3 DUP4 CALLDATACOPY DUP2 ADD PUSH1 0xE DUP2 MSTORE SUB ADD SWAP1 KECCAK256 SWAP1 JUMP JUMPDEST PUSH1 0x20 SWAP1 DUP3 PUSH1 0x40 MLOAD SWAP4 DUP5 SWAP3 DUP4 CALLDATACOPY DUP2 ADD PUSH1 0xD DUP2 MSTORE SUB ADD SWAP1 KECCAK256 SWAP1 JUMP JUMPDEST PUSH1 0x20 SWAP1 DUP3 PUSH1 0x40 MLOAD SWAP4 DUP5 SWAP3 DUP4 CALLDATACOPY DUP2 ADD PUSH1 0x9 DUP2 MSTORE SUB ADD SWAP1 KECCAK256 SWAP1 JUMP JUMPDEST PUSH1 0x20 SWAP1 DUP3 PUSH1 0x40 MLOAD SWAP4 DUP5 SWAP3 DUP4 CALLDATACOPY DUP2 ADD PUSH1 0xA DUP2 MSTORE SUB ADD SWAP1 KECCAK256 SWAP1 JUMP JUMPDEST ISZERO PUSH2 0x25DF JUMPI JUMP JUMPDEST PUSH1 0x40 MLOAD PUSH3 0x461BCD PUSH1 0xE5 SHL DUP2 MSTORE PUSH1 0x20 PUSH1 0x4 DUP3 ADD MSTORE PUSH1 0x11 PUSH1 0x24 DUP3 ADD MSTORE PUSH17 0x14185E5B595B9D081B9BDD08199BDD5B99 PUSH1 0x7A SHL PUSH1 0x44 DUP3 ADD MSTORE PUSH1 0x64 SWAP1 REVERT JUMPDEST PUSH4 0x4E487B71 PUSH1 0xE0 SHL PUSH1 0x0 MSTORE PUSH1 0x11 PUSH1 0x4 MSTORE PUSH1 0x24 PUSH1 0x0 REVERT JUMPDEST PUSH1 0x0 NOT DUP2 ADD SWAP2 SWAP1 DUP3 GT PUSH2 0x263D JUMPI JUMP JUMPDEST PUSH2 0x2618 JUMP JUMPDEST PUSH1 0x1F NOT DUP2 ADD SWAP2 SWAP1 DUP3 GT PUSH2 0x263D JUMPI JUMP JUMPDEST SWAP2 SWAP1 DUP3 SUB SWAP2 DUP3 GT PUSH2 0x263D JUMPI JUMP JUMPDEST ISZERO PUSH2 0x2665 JUMPI JUMP JUMPDEST PUSH1 0x40 MLOAD PUSH3 0x461BCD PUSH1 0xE5 SHL DUP2 MSTORE PUSH1 0x20 PUSH1 0x4 DUP3 ADD MSTORE PUSH1 0x1D PUSH1 0x24 DUP3 ADD MSTORE PUSH32 0x4F6E6C792064657369676E61746564204C502063616E207375626D6974000000 PUSH1 0x44 DUP3 ADD MSTORE PUSH1 0x64 SWAP1 REVERT JUMPDEST ISZERO PUSH2 0x26B1 JUMPI JUMP JUMPDEST PUSH1 0x40 MLOAD PUSH3 0x461BCD PUSH1 0xE5 SHL DUP2 MSTORE PUSH1 0x20 PUSH1 0x4 DUP3 ADD MSTORE PUSH1 0x16 PUSH1 0x24 DUP3 ADD MSTORE PUSH22 0x496E76616C6964207061796D656E7420737461747573 PUSH1 0x50 SHL PUSH1 0x44 DUP3 ADD MSTORE PUSH1 0x64 SWAP1 REVERT JUMPDEST ISZERO PUSH2 0x26F6 JUMPI JUMP JUMPDEST PUSH1 0x40 MLOAD PUSH3 0x461BCD PUSH1 0xE5 SHL DUP2 MSTORE PUSH1 0x20 PUSH1 0x4 DUP3 ADD MSTORE PUSH1 0x11 PUSH1 0x24 DUP3 ADD MSTORE PUSH17 0x105B1C9958591E481CDD589B5A5D1D1959 PUSH1 0x7A SHL PUSH1 0x44 DUP3 ADD MSTORE PUSH1 0x64 SWAP1 REVERT JUMPDEST DUP2 PUSH1 0x40 MLOAD SWAP3 DUP4 SWAP3 DUP4 CALLDATACOPY DUP2 ADD PUSH1 0x0 DUP2 MSTORE SUB SWAP1 KECCAK256 SWAP1 JUMP JUMPDEST SWAP1 DUP1 PUSH1 0x20 SWAP4 SWAP3 DUP2 DUP5 MSTORE DUP5 DUP5 ADD CALLDATACOPY PUSH1 0x0 DUP3 DUP3 ADD DUP5 ADD MSTORE PUSH1 0x1F ADD PUSH1 0x1F NOT AND ADD ADD SWAP1 JUMP JUMPDEST SWAP2 PUSH1 0x20 PUSH2 0x608 SWAP4 DUP2 DUP2 MSTORE ADD SWAP2 PUSH2 0x2744 JUMP JUMPDEST PUSH1 0x40 MLOAD SWAP1 PUSH1 0xE0 DUP3 ADD DUP3 DUP2 LT PUSH1 0x1 PUSH1 0x1 PUSH1 0x40 SHL SUB DUP3 GT OR PUSH2 0x53A JUMPI PUSH1 0x40 MSTORE PUSH1 0x60 PUSH1 0xC0 DUP4 PUSH1 0x0 DUP2 MSTORE PUSH1 0x0 PUSH1 0x20 DUP3 ADD MSTORE PUSH1 0x0 PUSH1 0x40 DUP3 ADD MSTORE DUP3 DUP1 DUP3 ADD MSTORE DUP3 PUSH1 0x80 DUP3 ADD MSTORE DUP3 PUSH1 0xA0 DUP3 ADD MSTORE ADD MSTORE JUMP JUMPDEST PUSH1 0x40 MLOAD SWAP1 PUSH1 0xA0 DUP3 ADD DUP3 DUP2 LT PUSH1 0x1 PUSH1 0x1 PUSH1 0x40 SHL SUB DUP3 GT OR PUSH2 0x53A JUMPI PUSH1 0x40 MSTORE PUSH1 0x4 DUP3 MSTORE DUP2 PUSH1 0x0 JUMPDEST PUSH1 0x80 DUP2 LT PUSH2 0x27F0 JUMPI POP POP JUMP JUMPDEST DUP1 PUSH1 0x60 PUSH1 0x20 DUP1 SWAP4 DUP6 ADD ADD MSTORE ADD PUSH2 0x27E4 JUMP JUMPDEST DUP1 MLOAD ISZERO PUSH2 0xFAE JUMPI PUSH1 0x20 ADD SWAP1 JUMP JUMPDEST DUP1 MLOAD PUSH1 0x1 LT ISZERO PUSH2 0xFAE JUMPI PUSH1 0x40 ADD SWAP1 JUMP JUMPDEST DUP1 MLOAD PUSH1 0x2 LT ISZERO PUSH2 0xFAE JUMPI PUSH1 0x60 ADD SWAP1 JUMP JUMPDEST DUP1 MLOAD PUSH1 0x3 LT ISZERO PUSH2 0xFAE JUMPI PUSH1 0x80 ADD SWAP1 JUMP JUMPDEST DUP1 MLOAD DUP3 LT ISZERO PUSH2 0xFAE JUMPI PUSH1 0x20 SWAP2 PUSH1 0x5 SHL ADD ADD SWAP1 JUMP JUMPDEST SWAP2 SWAP1 SWAP2 DUP3 MLOAD PUSH1 0x1 PUSH1 0x1 PUSH1 0x40 SHL SUB DUP2 GT PUSH2 0x53A JUMPI PUSH2 0x2873 DUP2 PUSH2 0x24B3 DUP5 SLOAD PUSH2 0xA8E JUMP JUMPDEST PUSH1 0x20 DUP1 PUSH1 0x1F DUP4 GT PUSH1 0x1 EQ PUSH2 0x28AE JUMPI POP DUP2 SWAP3 SWAP4 SWAP5 PUSH1 0x0 SWAP3 PUSH2 0x28A3 JUMPI POP POP DUP2 PUSH1 0x1 SHL SWAP2 PUSH1 0x0 NOT SWAP1 PUSH1 0x3 SHL SHR NOT AND OR SWAP1 SSTORE JUMP JUMPDEST ADD MLOAD SWAP1 POP CODESIZE DUP1 PUSH2 0x24D2 JUMP JUMPDEST SWAP1 PUSH1 0x1F NOT DUP4 AND SWAP6 PUSH2 0x28C4 DUP6 PUSH1 0x0 MSTORE PUSH1 0x20 PUSH1 0x0 KECCAK256 SWAP1 JUMP JUMPDEST SWAP3 PUSH1 0x0 SWAP1 JUMPDEST DUP9 DUP3 LT PUSH2 0x2900 JUMPI POP POP DUP4 PUSH1 0x1 SWAP6 SWAP7 SWAP8 LT PUSH2 0x28E7 JUMPI POP POP POP DUP2 SHL ADD SWAP1 SSTORE JUMP JUMPDEST ADD MLOAD PUSH1 0x0 NOT PUSH1 0xF8 DUP5 PUSH1 0x3 SHL AND SHR NOT AND SWAP1 SSTORE CODESIZE DUP1 DUP1 PUSH2 0x251F JUMP JUMPDEST DUP1 PUSH1 0x1 DUP6 SWAP7 DUP3 SWAP5 SWAP7 DUP7 ADD MLOAD DUP2 SSTORE ADD SWAP6 ADD SWAP4 ADD SWAP1 PUSH2 0x28C9 JUMP JUMPDEST PUSH2 0x2930 SWAP1 PUSH1 0x20 PUSH1 0x40 MLOAD SWAP3 DUP3 DUP5 DUP1 SWAP5 MLOAD SWAP4 DUP5 SWAP3 ADD PUSH2 0xB6E JUMP JUMPDEST DUP2 ADD SUB SWAP1 KECCAK256 SWAP1 JUMP JUMPDEST PUSH32 0xCB4EFC405B00543D057B47DBEAF4292CBB3B07BE86FBEAA9D4AFD6080EC711DA PUSH2 0x2AC8 PUSH2 0x2AB7 PUSH2 0x2A94 PUSH2 0x2A7F PUSH2 0x297A PUSH2 0x35F PUSH2 0x2974 DUP9 PUSH2 0x11F0 JUMP JUMPDEST SLOAD PUSH2 0x262E JUMP JUMPDEST POP PUSH2 0x2A7A PUSH2 0x298A PUSH2 0x14C6 DUP10 PUSH2 0x11CA JUMP JUMPDEST PUSH2 0x2996 PUSH2 0x14C6 DUP11 PUSH2 0x117E JUMP JUMPDEST SWAP3 PUSH2 0x2A4C PUSH1 0x3 PUSH2 0x29CF PUSH2 0x14C6 PUSH2 0x29B5 PUSH1 0x1 DUP7 ADD SLOAD PUSH1 0x1 DUP1 PUSH1 0xA0 SHL SUB AND SWAP1 JUMP JUMPDEST PUSH1 0x1 PUSH1 0x1 PUSH1 0xA0 SHL SUB AND PUSH1 0x0 SWAP1 DUP2 MSTORE PUSH1 0xB PUSH1 0x20 MSTORE PUSH1 0x40 SWAP1 KECCAK256 SWAP1 JUMP JUMPDEST SWAP3 PUSH2 0x29D8 PUSH2 0x2776 JUMP JUMPDEST SWAP7 PUSH2 0x2A0C PUSH2 0x29F8 PUSH2 0x2A06 PUSH1 0xF SLOAD PUSH1 0x40 MLOAD SWAP3 DUP4 SWAP2 PUSH1 0x20 DUP4 ADD PUSH1 0x20 SWAP2 DUP2 MSTORE ADD SWAP1 JUMP JUMPDEST SUB PUSH1 0x1F NOT DUP2 ADD DUP4 MSTORE DUP3 PUSH2 0x55A JUMP JUMPDEST DUP10 PUSH2 0x2DD2 JUMP JUMPDEST PUSH1 0x10 SLOAD PUSH2 0x2ACD JUMPI JUMPDEST PUSH2 0x2A1C PUSH2 0x27BF JUMP JUMPDEST SWAP6 PUSH2 0x2A26 DUP8 PUSH2 0x2801 JUMP JUMPDEST MSTORE PUSH2 0x2A30 DUP7 PUSH2 0x2801 JUMP JUMPDEST POP PUSH2 0x2A3A DUP7 PUSH2 0x280E JUMP JUMPDEST MSTORE PUSH2 0x2A44 DUP6 PUSH2 0x280E JUMP JUMPDEST POP ADD SLOAD PUSH2 0x3B96 JUMP JUMPDEST PUSH2 0x2A55 DUP4 PUSH2 0x281E JUMP JUMPDEST MSTORE PUSH2 0x2A5F DUP3 PUSH2 0x281E JUMP JUMPDEST POP PUSH2 0x2A69 DUP3 PUSH2 0x282E JUMP JUMPDEST MSTORE PUSH2 0x2A73 DUP2 PUSH2 0x282E JUMP JUMPDEST POP DUP3 PUSH2 0x2EF0 JUMP JUMPDEST PUSH2 0x2BFF JUMP JUMPDEST PUSH1 0x12 SLOAD PUSH1 0x1 PUSH1 0x1 PUSH1 0x40 SHL SUB AND PUSH1 0x11 SLOAD SWAP2 PUSH2 0x2F2A JUMP JUMPDEST SWAP4 PUSH2 0x2AB2 DUP2 PUSH2 0x2AAD DUP8 PUSH1 0x0 MSTORE PUSH1 0x13 PUSH1 0x20 MSTORE PUSH1 0x40 PUSH1 0x0 KECCAK256 SWAP1 JUMP JUMPDEST PUSH2 0x2852 JUMP JUMPDEST PUSH2 0x2918 JUMP JUMPDEST PUSH1 0x40 MLOAD SWAP4 DUP5 MSTORE SWAP3 SWAP1 DUP2 SWAP1 PUSH1 0x20 DUP3 ADD SWAP1 JUMP JUMPDEST SUB SWAP1 LOG2 JUMP JUMPDEST PUSH2 0x2AD6 DUP9 PUSH2 0x2DFB JUMP JUMPDEST PUSH2 0x2A14 JUMP JUMPDEST PUSH1 0x40 MLOAD SWAP1 PUSH2 0x2AE8 DUP3 PUSH2 0x51F JUMP JUMPDEST PUSH1 0xC DUP3 MSTORE PUSH12 0x31B7B232A637B1B0BA34B7B7 PUSH1 0xA1 SHL PUSH1 0x20 DUP4 ADD MSTORE JUMP JUMPDEST PUSH1 0x3 GT ISZERO PUSH2 0xFD3 JUMPI JUMP JUMPDEST PUSH1 0x40 MLOAD SWAP1 PUSH2 0x2B1A DUP3 PUSH2 0x51F JUMP JUMPDEST PUSH1 0x8 DUP3 MSTORE PUSH8 0x6C616E6775616765 PUSH1 0xC0 SHL PUSH1 0x20 DUP4 ADD MSTORE JUMP JUMPDEST PUSH1 0x1 GT ISZERO PUSH2 0xFD3 JUMPI JUMP JUMPDEST PUSH1 0x40 MLOAD SWAP1 PUSH2 0x2B48 DUP3 PUSH2 0x51F JUMP JUMPDEST PUSH1 0x6 DUP3 MSTORE PUSH6 0x736F75726365 PUSH1 0xD0 SHL PUSH1 0x20 DUP4 ADD MSTORE JUMP JUMPDEST PUSH1 0x40 MLOAD SWAP1 PUSH2 0x2B6A DUP3 PUSH2 0x51F JUMP JUMPDEST PUSH1 0x4 DUP3 MSTORE PUSH4 0x61726773 PUSH1 0xE0 SHL PUSH1 0x20 DUP4 ADD MSTORE JUMP JUMPDEST PUSH1 0x0 NOT DUP2 EQ PUSH2 0x263D JUMPI PUSH1 0x1 ADD SWAP1 JUMP JUMPDEST PUSH1 0x40 MLOAD SWAP1 PUSH2 0x2B99 DUP3 PUSH2 0x51F JUMP JUMPDEST PUSH1 0xF DUP3 MSTORE PUSH15 0x39B2B1B932BA39A637B1B0BA34B7B7 PUSH1 0x89 SHL PUSH1 0x20 DUP4 ADD MSTORE JUMP JUMPDEST PUSH1 0x40 MLOAD SWAP1 PUSH2 0x2BC4 DUP3 PUSH2 0x51F JUMP JUMPDEST PUSH1 0x7 DUP3 MSTORE PUSH7 0x73656372657473 PUSH1 0xC8 SHL PUSH1 0x20 DUP4 ADD MSTORE JUMP JUMPDEST PUSH1 0x40 MLOAD SWAP1 PUSH2 0x2BE7 DUP3 PUSH2 0x51F JUMP JUMPDEST PUSH1 0x9 DUP3 MSTORE PUSH9 0x627974657341726773 PUSH1 0xB8 SHL PUSH1 0x20 DUP4 ADD MSTORE JUMP JUMPDEST PUSH2 0x2C07 PUSH2 0x302C JUMP JUMPDEST SWAP1 PUSH2 0x2C19 PUSH2 0x2C13 PUSH2 0x2ADB JUMP JUMPDEST DUP4 PUSH2 0x3825 JUMP JUMPDEST PUSH2 0x2C36 DUP2 MLOAD PUSH2 0x2C27 DUP2 PUSH2 0x2B03 JUMP JUMPDEST PUSH2 0x2C30 DUP2 PUSH2 0x2B03 JUMP JUMPDEST DUP4 PUSH2 0x3125 JUMP JUMPDEST PUSH2 0x2C41 PUSH2 0x2C13 PUSH2 0x2B0D JUMP JUMPDEST PUSH2 0x2C5B PUSH1 0x40 DUP3 ADD MLOAD PUSH2 0x2C52 DUP2 PUSH2 0x2B31 JUMP JUMPDEST PUSH2 0x2C30 DUP2 PUSH2 0x2B31 JUMP JUMPDEST PUSH2 0x2C66 PUSH2 0x2C13 PUSH2 0x2B3B JUMP JUMPDEST PUSH2 0x2C74 PUSH1 0x60 DUP3 ADD MLOAD DUP4 PUSH2 0x3825 JUMP JUMPDEST PUSH1 0xA0 DUP2 ADD DUP1 MLOAD MLOAD PUSH2 0x2D79 JUMPI JUMPDEST POP PUSH1 0x80 DUP2 ADD SWAP1 DUP2 MLOAD MLOAD PUSH2 0x2CF9 JUMPI JUMPDEST PUSH1 0xC0 SWAP2 POP ADD DUP1 MLOAD MLOAD PUSH2 0x2CA1 JUMPI JUMPDEST POP MLOAD MLOAD SWAP1 JUMP JUMPDEST SWAP2 PUSH2 0x2CAD PUSH2 0x2C13 PUSH2 0x2BDA JUMP JUMPDEST PUSH2 0x2CB6 DUP3 PUSH2 0x38A9 JUMP JUMPDEST PUSH1 0x0 JUMPDEST DUP4 MLOAD DUP1 MLOAD DUP3 LT ISZERO PUSH2 0x2CE6 JUMPI SWAP1 PUSH2 0x2CDC PUSH2 0x2CD5 DUP3 PUSH2 0x2CE1 SWAP5 PUSH2 0x283E JUMP JUMPDEST MLOAD DUP6 PUSH2 0x3770 JUMP JUMPDEST PUSH2 0x2B7D JUMP JUMPDEST PUSH2 0x2CB9 JUMP JUMPDEST POP POP SWAP2 POP PUSH2 0x2CF3 DUP2 PUSH2 0x3935 JUMP JUMPDEST CODESIZE PUSH2 0x2C9B JUMP JUMPDEST PUSH1 0x20 DUP2 ADD DUP1 MLOAD PUSH2 0x2D08 DUP2 PUSH2 0x2B03 JUMP JUMPDEST PUSH2 0x2D11 DUP2 PUSH2 0x2B03 JUMP JUMPDEST ISZERO PUSH2 0x2D67 JUMPI PUSH1 0xC0 SWAP3 PUSH2 0x2D4A PUSH2 0x2D62 SWAP3 PUSH2 0x2D31 PUSH2 0x2D2B PUSH2 0x2B8C JUMP JUMPDEST DUP9 PUSH2 0x3825 JUMP JUMPDEST MLOAD PUSH2 0x2D3B DUP2 PUSH2 0x2B03 JUMP JUMPDEST PUSH2 0x2D44 DUP2 PUSH2 0x2B03 JUMP JUMPDEST DUP7 PUSH2 0x3125 JUMP JUMPDEST PUSH2 0x2D5B PUSH2 0x2D55 PUSH2 0x2BB7 JUMP JUMPDEST DUP7 PUSH2 0x3825 JUMP JUMPDEST MLOAD DUP5 PUSH2 0x3770 JUMP JUMPDEST PUSH2 0x2C8E JUMP JUMPDEST PUSH1 0x40 MLOAD PUSH4 0xA80D31F7 PUSH1 0xE0 SHL DUP2 MSTORE PUSH1 0x4 SWAP1 REVERT JUMPDEST SWAP3 PUSH2 0x2D8B PUSH2 0x2D85 PUSH2 0x2B5D JUMP JUMPDEST DUP5 PUSH2 0x3825 JUMP JUMPDEST PUSH2 0x2D94 DUP4 PUSH2 0x38A9 JUMP JUMPDEST PUSH1 0x0 JUMPDEST DUP5 MLOAD DUP1 MLOAD DUP3 LT ISZERO PUSH2 0x2DBF JUMPI SWAP1 PUSH2 0x2CDC PUSH2 0x2DB3 DUP3 PUSH2 0x2DBA SWAP5 PUSH2 0x283E JUMP JUMPDEST MLOAD DUP7 PUSH2 0x3825 JUMP JUMPDEST PUSH2 0x2D97 JUMP JUMPDEST POP POP SWAP3 POP PUSH2 0x2DCC DUP3 PUSH2 0x3935 JUMP JUMPDEST CODESIZE PUSH2 0x2C80 JUMP JUMPDEST DUP2 MLOAD ISZERO PUSH2 0x2DE9 JUMPI PUSH1 0x0 DUP1 DUP3 MSTORE PUSH1 0x40 DUP3 ADD MSTORE PUSH1 0x60 ADD MSTORE JUMP JUMPDEST PUSH1 0x40 MLOAD PUSH4 0x22CE3EDD PUSH1 0xE0 SHL DUP2 MSTORE PUSH1 0x4 SWAP1 REVERT JUMPDEST PUSH2 0x2E03 PUSH2 0x302C JUMP JUMPDEST PUSH2 0x2E2B PUSH1 0x40 MLOAD PUSH2 0x2E12 DUP2 PUSH2 0x51F JUMP JUMPDEST PUSH1 0x6 DUP2 MSTORE PUSH6 0x1CDB1BDD1251 PUSH1 0xD2 SHL PUSH1 0x20 DUP3 ADD MSTORE DUP3 PUSH2 0x3825 JUMP JUMPDEST DUP1 MLOAD SWAP1 PUSH2 0x2E36 PUSH2 0x3012 JUMP JUMPDEST POP DUP2 MLOAD MLOAD PUSH1 0x1 DUP2 ADD SWAP1 DUP2 DUP2 GT PUSH2 0x263D JUMPI PUSH1 0x20 DUP5 ADD MLOAD DUP2 LT ISZERO PUSH2 0x2EB5 JUMPI JUMPDEST PUSH1 0x0 PUSH1 0x20 PUSH1 0x80 SWAP6 MLOAD SWAP3 DUP4 ADD ADD MSTORE8 DUP1 MLOAD DUP3 GT PUSH2 0x2EAD JUMPI JUMPDEST POP POP PUSH2 0x2E94 PUSH1 0x40 MLOAD PUSH2 0x2E7A DUP2 PUSH2 0x51F JUMP JUMPDEST PUSH1 0x7 DUP2 MSTORE PUSH7 0x3B32B939B4B7B7 PUSH1 0xC9 SHL PUSH1 0x20 DUP3 ADD MSTORE DUP3 PUSH2 0x3825 JUMP JUMPDEST PUSH2 0x2E9E DUP2 MLOAD PUSH2 0x351E JUMP JUMPDEST POP PUSH1 0x2 PUSH1 0x20 DUP5 ADD MSTORE MLOAD MLOAD SWAP2 ADD MSTORE JUMP JUMPDEST MSTORE CODESIZE DUP1 PUSH2 0x2E69 JUMP JUMPDEST DUP2 PUSH1 0x1 SHL SWAP4 DUP3 DUP6 DIV PUSH1 0x2 EQ DUP4 ISZERO OR ISZERO PUSH2 0x263D JUMPI PUSH1 0x20 DUP2 PUSH2 0x2EE6 PUSH1 0x80 SWAP8 PUSH2 0x2EDF PUSH1 0x0 SWAP6 MLOAD SWAP2 DUP5 PUSH2 0x30D3 JUMP JUMPDEST POP DUP3 PUSH2 0x36B8 JUMP JUMPDEST POP SWAP6 POP POP POP PUSH2 0x2E53 JUMP JUMPDEST DUP2 MLOAD ISZERO PUSH2 0x2EFD JUMPI PUSH1 0xA0 ADD MSTORE JUMP JUMPDEST PUSH1 0x40 MLOAD PUSH4 0xFE936CB7 PUSH1 0xE0 SHL DUP2 MSTORE PUSH1 0x4 SWAP1 REVERT JUMPDEST SWAP1 DUP2 PUSH1 0x20 SWAP2 SUB SLT PUSH2 0x2B9 JUMPI MLOAD SWAP1 JUMP JUMPDEST PUSH1 0x40 MLOAD RETURNDATASIZE PUSH1 0x0 DUP3 RETURNDATACOPY RETURNDATASIZE SWAP1 REVERT JUMPDEST SWAP2 PUSH1 0x20 SWAP2 PUSH1 0x1 PUSH1 0x1 PUSH1 0x40 SHL SUB SWAP2 PUSH2 0x2F63 PUSH1 0x40 MLOAD SWAP6 DUP7 SWAP5 DUP6 SWAP5 PUSH4 0x230E93B1 PUSH1 0xE1 SHL DUP7 MSTORE AND PUSH1 0x4 DUP6 ADD MSTORE PUSH1 0xA0 PUSH1 0x24 DUP6 ADD MSTORE PUSH1 0xA4 DUP5 ADD SWAP1 PUSH2 0xB91 JUMP JUMPDEST PUSH1 0x1 PUSH1 0x44 DUP5 ADD MSTORE PUSH3 0x493E0 PUSH1 0x64 DUP5 ADD MSTORE PUSH1 0x84 DUP4 ADD SWAP2 SWAP1 SWAP2 MSTORE SUB DUP2 PUSH1 0x0 PUSH32 0x0 PUSH1 0x1 PUSH1 0x1 PUSH1 0xA0 SHL SUB AND GAS CALL SWAP1 DUP2 ISZERO PUSH2 0xE17 JUMPI PUSH1 0x0 SWAP2 PUSH2 0x2FE4 JUMPI JUMPDEST POP DUP1 PUSH32 0x1131472297A800FEE664D1D89CFA8F7676FF07189ECC53F80BBB5F4969099DB8 PUSH1 0x0 DUP1 LOG2 SWAP1 JUMP JUMPDEST PUSH2 0x3005 SWAP2 POP PUSH1 0x20 RETURNDATASIZE DUP2 GT PUSH2 0x300B JUMPI JUMPDEST PUSH2 0x2FFD DUP2 DUP4 PUSH2 0x55A JUMP JUMPDEST DUP2 ADD SWAP1 PUSH2 0x2F0F JUMP JUMPDEST CODESIZE PUSH2 0x2FBA JUMP JUMPDEST POP RETURNDATASIZE PUSH2 0x2FF3 JUMP JUMPDEST PUSH1 0x40 MLOAD SWAP1 PUSH2 0x301F DUP3 PUSH2 0x51F JUMP JUMPDEST PUSH1 0x0 PUSH1 0x20 DUP4 PUSH1 0x60 DUP2 MSTORE ADD MSTORE JUMP JUMPDEST PUSH1 0x40 MLOAD PUSH2 0x3038 DUP2 PUSH2 0x51F JUMP JUMPDEST PUSH2 0x3040 PUSH2 0x3012 JUMP JUMPDEST DUP1 DUP3 MSTORE PUSH1 0x20 DUP3 ADD PUSH1 0x0 DUP2 MSTORE PUSH2 0x3053 PUSH2 0x3012 JUMP JUMPDEST POP PUSH2 0x100 PUSH1 0x20 DUP4 ADD MSTORE PUSH1 0x40 MLOAD DUP1 SWAP3 MSTORE PUSH1 0x0 DUP3 MSTORE PUSH2 0x120 DUP3 ADD SWAP2 DUP3 LT PUSH2 0x2B9 JUMPI PUSH1 0x0 SWAP2 PUSH1 0x40 MSTORE MSTORE SWAP1 JUMP JUMPDEST SWAP1 PUSH3 0x3F480 DUP3 ADD DUP1 SWAP3 GT PUSH2 0x263D JUMPI JUMP JUMPDEST SWAP1 PUSH1 0x1 DUP3 ADD DUP1 SWAP3 GT PUSH2 0x263D JUMPI JUMP JUMPDEST SWAP1 PUSH2 0x2A30 DUP3 ADD DUP1 SWAP3 GT PUSH2 0x263D JUMPI JUMP JUMPDEST SWAP1 PUSH2 0x708 DUP3 ADD DUP1 SWAP3 GT PUSH2 0x263D JUMPI JUMP JUMPDEST SWAP1 PUSH1 0x20 DUP3 ADD DUP1 SWAP3 GT PUSH2 0x263D JUMPI JUMP JUMPDEST SWAP2 SWAP1 DUP3 ADD DUP1 SWAP3 GT PUSH2 0x263D JUMPI JUMP JUMPDEST SWAP1 PUSH2 0x30DC PUSH2 0x3012 JUMP JUMPDEST POP PUSH1 0x1F DUP2 AND DUP1 PUSH2 0x310B JUMPI JUMPDEST POP DUP1 PUSH1 0x20 DUP4 ADD MSTORE PUSH1 0x40 MLOAD SWAP1 DUP2 DUP4 MSTORE PUSH1 0x0 DUP3 MSTORE DUP2 ADD PUSH1 0x20 ADD SWAP1 DUP2 LT PUSH2 0x2B9 JUMPI PUSH1 0x40 MSTORE SWAP1 JUMP JUMPDEST PUSH1 0x20 SUB PUSH1 0x20 DUP2 GT PUSH2 0x263D JUMPI DUP2 ADD DUP1 SWAP2 GT PUSH2 0x263D JUMPI CODESIZE PUSH2 0x30E7 JUMP JUMPDEST SWAP1 DUP2 MLOAD SWAP2 PUSH2 0x3131 PUSH2 0x3012 JUMP JUMPDEST POP DUP3 MLOAD MLOAD PUSH1 0x1 DUP2 ADD SWAP1 DUP2 DUP2 GT PUSH2 0x263D JUMPI PUSH1 0x20 DUP6 ADD MLOAD DUP2 LT ISZERO PUSH2 0x318A JUMPI JUMPDEST PUSH1 0xC2 PUSH1 0x20 PUSH2 0xB06 SWAP7 MLOAD SWAP3 DUP4 ADD ADD MSTORE8 DUP1 MLOAD DUP3 GT PUSH2 0x3182 JUMPI JUMPDEST POP POP PUSH1 0x40 MLOAD SWAP2 PUSH1 0x20 DUP4 ADD MSTORE PUSH1 0x20 DUP3 MSTORE PUSH2 0x317D DUP3 PUSH2 0x51F JUMP JUMPDEST PUSH2 0x3770 JUMP JUMPDEST MSTORE CODESIZE DUP1 PUSH2 0x3165 JUMP JUMPDEST DUP2 PUSH1 0x1 SHL SWAP5 DUP3 DUP7 DIV PUSH1 0x2 EQ DUP4 ISZERO OR ISZERO PUSH2 0x263D JUMPI PUSH1 0x20 DUP2 PUSH2 0x31B5 PUSH2 0xB06 SWAP9 PUSH2 0x2EDF PUSH1 0xC2 SWAP6 MLOAD SWAP2 DUP5 PUSH2 0x30D3 JUMP JUMPDEST POP SWAP7 POP POP POP PUSH2 0x314E JUMP JUMPDEST SWAP1 PUSH1 0x5 DUP3 MUL SWAP2 DUP1 DUP4 DIV PUSH1 0x5 EQ SWAP1 ISZERO OR ISZERO PUSH2 0x263D JUMPI JUMP JUMPDEST SWAP1 DUP2 PUSH1 0x1 SHL SWAP2 DUP1 DUP4 DIV PUSH1 0x2 EQ SWAP1 ISZERO OR ISZERO PUSH2 0x263D JUMPI JUMP JUMPDEST PUSH2 0x31F3 PUSH2 0x3012 JUMP JUMPDEST POP DUP1 MLOAD MLOAD PUSH1 0x1 DUP2 ADD SWAP1 DUP2 DUP2 GT PUSH2 0x263D JUMPI PUSH1 0x20 DUP4 ADD MLOAD DUP2 LT ISZERO PUSH2 0x322C JUMPI JUMPDEST PUSH1 0x5B PUSH1 0x20 DUP5 MLOAD SWAP3 DUP4 ADD ADD MSTORE8 DUP1 MLOAD DUP3 GT PUSH2 0x3228 JUMPI POP POP SWAP1 JUMP JUMPDEST MSTORE SWAP1 JUMP JUMPDEST DUP2 PUSH1 0x1 SHL DUP3 DUP2 DIV PUSH1 0x2 EQ DUP4 ISZERO OR ISZERO PUSH2 0x263D JUMPI PUSH2 0x3255 SWAP1 PUSH2 0x324E DUP6 MLOAD SWAP2 DUP7 PUSH2 0x30D3 JUMP JUMPDEST POP DUP5 PUSH2 0x36B8 JUMP JUMPDEST POP PUSH2 0x3210 JUMP JUMPDEST PUSH2 0x3263 PUSH2 0x3012 JUMP JUMPDEST POP DUP1 MLOAD MLOAD PUSH1 0x1 DUP2 ADD SWAP1 DUP2 DUP2 GT PUSH2 0x263D JUMPI PUSH1 0x20 DUP4 ADD MLOAD DUP2 LT ISZERO PUSH2 0x3298 JUMPI JUMPDEST PUSH1 0x5A PUSH1 0x20 DUP5 MLOAD SWAP3 DUP4 ADD ADD MSTORE8 DUP1 MLOAD DUP3 GT PUSH2 0x3228 JUMPI POP POP SWAP1 JUMP JUMPDEST DUP2 PUSH1 0x1 SHL DUP3 DUP2 DIV PUSH1 0x2 EQ DUP4 ISZERO OR ISZERO PUSH2 0x263D JUMPI PUSH2 0x32BA SWAP1 PUSH2 0x324E DUP6 MLOAD SWAP2 DUP7 PUSH2 0x30D3 JUMP JUMPDEST POP PUSH2 0x3280 JUMP JUMPDEST PUSH2 0x32C8 PUSH2 0x3012 JUMP JUMPDEST POP DUP1 MLOAD MLOAD PUSH1 0x1 DUP2 ADD SWAP1 DUP2 DUP2 GT PUSH2 0x263D JUMPI PUSH1 0x20 DUP4 ADD MLOAD DUP2 LT ISZERO PUSH2 0x32FD JUMPI JUMPDEST PUSH1 0x59 PUSH1 0x20 DUP5 MLOAD SWAP3 DUP4 ADD ADD MSTORE8 DUP1 MLOAD DUP3 GT PUSH2 0x3228 JUMPI POP POP SWAP1 JUMP JUMPDEST DUP2 PUSH1 0x1 SHL DUP3 DUP2 DIV PUSH1 0x2 EQ DUP4 ISZERO OR ISZERO PUSH2 0x263D JUMPI PUSH2 0x331F SWAP1 PUSH2 0x324E DUP6 MLOAD SWAP2 DUP7 PUSH2 0x30D3 JUMP JUMPDEST POP PUSH2 0x32E5 JUMP JUMPDEST PUSH2 0x332D PUSH2 0x3012 JUMP JUMPDEST POP DUP1 MLOAD MLOAD PUSH1 0x1 DUP2 ADD SWAP1 DUP2 DUP2 GT PUSH2 0x263D JUMPI PUSH1 0x20 DUP4 ADD MLOAD DUP2 LT ISZERO PUSH2 0x3362 JUMPI JUMPDEST PUSH1 0x58 PUSH1 0x20 DUP5 MLOAD SWAP3 DUP4 ADD ADD MSTORE8 DUP1 MLOAD DUP3 GT PUSH2 0x3228 JUMPI POP POP SWAP1 JUMP JUMPDEST DUP2 PUSH1 0x1 SHL DUP3 DUP2 DIV PUSH1 0x2 EQ DUP4 ISZERO OR ISZERO PUSH2 0x263D JUMPI PUSH2 0x3384 SWAP1 PUSH2 0x324E DUP6 MLOAD SWAP2 DUP7 PUSH2 0x30D3 JUMP JUMPDEST POP PUSH2 0x334A JUMP JUMPDEST PUSH2 0x3392 PUSH2 0x3012 JUMP JUMPDEST POP DUP1 MLOAD MLOAD PUSH1 0x1 DUP2 ADD SWAP1 DUP2 DUP2 GT PUSH2 0x263D JUMPI PUSH1 0x20 DUP4 ADD MLOAD DUP2 LT ISZERO PUSH2 0x33C7 JUMPI JUMPDEST PUSH1 0x7B PUSH1 0x20 DUP5 MLOAD SWAP3 DUP4 ADD ADD MSTORE8 DUP1 MLOAD DUP3 GT PUSH2 0x3228 JUMPI POP POP SWAP1 JUMP JUMPDEST DUP2 PUSH1 0x1 SHL DUP3 DUP2 DIV PUSH1 0x2 EQ DUP4 ISZERO OR ISZERO PUSH2 0x263D JUMPI PUSH2 0x33E9 SWAP1 PUSH2 0x324E DUP6 MLOAD SWAP2 DUP7 PUSH2 0x30D3 JUMP JUMPDEST POP PUSH2 0x33AF JUMP JUMPDEST PUSH2 0x33F7 PUSH2 0x3012 JUMP JUMPDEST POP DUP1 MLOAD MLOAD PUSH1 0x1 DUP2 ADD SWAP1 DUP2 DUP2 GT PUSH2 0x263D JUMPI PUSH1 0x20 DUP4 ADD MLOAD DUP2 LT ISZERO PUSH2 0x342C JUMPI JUMPDEST PUSH1 0x7A PUSH1 0x20 DUP5 MLOAD SWAP3 DUP4 ADD ADD MSTORE8 DUP1 MLOAD DUP3 GT PUSH2 0x3228 JUMPI POP POP SWAP1 JUMP JUMPDEST DUP2 PUSH1 0x1 SHL DUP3 DUP2 DIV PUSH1 0x2 EQ DUP4 ISZERO OR ISZERO PUSH2 0x263D JUMPI PUSH2 0x344E SWAP1 PUSH2 0x324E DUP6 MLOAD SWAP2 DUP7 PUSH2 0x30D3 JUMP JUMPDEST POP PUSH2 0x3414 JUMP JUMPDEST PUSH2 0x345C PUSH2 0x3012 JUMP JUMPDEST POP DUP1 MLOAD MLOAD PUSH1 0x1 DUP2 ADD SWAP1 DUP2 DUP2 GT PUSH2 0x263D JUMPI PUSH1 0x20 DUP4 ADD MLOAD DUP2 LT ISZERO PUSH2 0x3491 JUMPI JUMPDEST PUSH1 0x79 PUSH1 0x20 DUP5 MLOAD SWAP3 DUP4 ADD ADD MSTORE8 DUP1 MLOAD DUP3 GT PUSH2 0x3228 JUMPI POP POP SWAP1 JUMP JUMPDEST DUP2 PUSH1 0x1 SHL DUP3 DUP2 DIV PUSH1 0x2 EQ DUP4 ISZERO OR ISZERO PUSH2 0x263D JUMPI PUSH2 0x34B3 SWAP1 PUSH2 0x324E DUP6 MLOAD SWAP2 DUP7 PUSH2 0x30D3 JUMP JUMPDEST POP PUSH2 0x3479 JUMP JUMPDEST PUSH2 0x34C1 PUSH2 0x3012 JUMP JUMPDEST POP DUP1 MLOAD MLOAD PUSH1 0x1 DUP2 ADD SWAP1 DUP2 DUP2 GT PUSH2 0x263D JUMPI PUSH1 0x20 DUP4 ADD MLOAD DUP2 LT ISZERO PUSH2 0x34F6 JUMPI JUMPDEST PUSH1 0x78 PUSH1 0x20 DUP5 MLOAD SWAP3 DUP4 ADD ADD MSTORE8 DUP1 MLOAD DUP3 GT PUSH2 0x3228 JUMPI POP POP SWAP1 JUMP JUMPDEST DUP2 PUSH1 0x1 SHL DUP3 DUP2 DIV PUSH1 0x2 EQ DUP4 ISZERO OR ISZERO PUSH2 0x263D JUMPI PUSH2 0x3518 SWAP1 PUSH2 0x324E DUP6 MLOAD SWAP2 DUP7 PUSH2 0x30D3 JUMP JUMPDEST POP PUSH2 0x34DE JUMP JUMPDEST PUSH2 0x3526 PUSH2 0x3012 JUMP JUMPDEST POP DUP1 MLOAD MLOAD PUSH1 0x1 DUP2 ADD SWAP1 DUP2 DUP2 GT PUSH2 0x263D JUMPI PUSH1 0x20 DUP4 ADD MLOAD DUP2 LT ISZERO PUSH2 0x355B JUMPI JUMPDEST PUSH1 0x1 PUSH1 0x20 DUP5 MLOAD SWAP3 DUP4 ADD ADD MSTORE8 DUP1 MLOAD DUP3 GT PUSH2 0x3228 JUMPI POP POP SWAP1 JUMP JUMPDEST DUP2 PUSH1 0x1 SHL DUP3 DUP2 DIV PUSH1 0x2 EQ DUP4 ISZERO OR ISZERO PUSH2 0x263D JUMPI PUSH2 0x357D SWAP1 PUSH2 0x324E DUP6 MLOAD SWAP2 DUP7 PUSH2 0x30D3 JUMP JUMPDEST POP PUSH2 0x3543 JUMP JUMPDEST SWAP1 PUSH2 0x358C PUSH2 0x3012 JUMP JUMPDEST POP DUP2 MLOAD MLOAD PUSH1 0x1 DUP2 ADD SWAP2 DUP3 DUP3 GT PUSH2 0x263D JUMPI PUSH1 0x20 DUP5 ADD MLOAD DUP3 LT ISZERO PUSH2 0x35BF JUMPI JUMPDEST PUSH1 0x20 DUP5 MLOAD SWAP3 DUP4 ADD ADD MSTORE8 DUP1 MLOAD DUP3 GT PUSH2 0x3228 JUMPI POP POP SWAP1 JUMP JUMPDEST DUP3 PUSH1 0x1 SHL DUP4 DUP2 DIV PUSH1 0x2 EQ DUP5 ISZERO OR ISZERO PUSH2 0x263D JUMPI PUSH2 0x35E8 SWAP1 PUSH2 0x35E1 DUP7 MLOAD SWAP2 DUP8 PUSH2 0x30D3 JUMP JUMPDEST POP DUP6 PUSH2 0x36B8 JUMP JUMPDEST POP PUSH2 0x35A9 JUMP JUMPDEST SWAP1 PUSH2 0x35FB DUP3 MLOAD SWAP2 DUP4 PUSH2 0x30D3 JUMP JUMPDEST POP PUSH2 0x3604 PUSH2 0x3012 JUMP JUMPDEST POP DUP1 MLOAD SWAP1 PUSH2 0x3610 PUSH2 0x3012 JUMP JUMPDEST POP PUSH2 0x361E DUP2 MLOAD DUP4 GT ISZERO PUSH2 0x3769 JUMP JUMPDEST DUP3 MLOAD MLOAD SWAP3 PUSH2 0x362C DUP4 DUP6 PUSH2 0x30C6 JUMP JUMPDEST SWAP2 PUSH1 0x20 SWAP3 DUP3 DUP5 DUP1 SWAP5 ADD MLOAD DUP3 GT PUSH2 0x36A1 JUMPI JUMPDEST MLOAD DUP4 DUP2 MLOAD SWAP8 DUP3 ADD ADD SWAP7 DUP3 GT PUSH2 0x3699 JUMPI JUMPDEST POP POP ADD SWAP2 JUMPDEST DUP2 DUP2 LT ISZERO PUSH2 0x3673 JUMPI PUSH1 0x0 NOT SWAP2 SUB PUSH2 0x100 EXP ADD SWAP1 DUP2 NOT SWAP1 MLOAD AND SWAP1 DUP3 MLOAD AND OR SWAP1 MSTORE JUMP JUMPDEST SWAP2 SWAP3 PUSH2 0x368E PUSH2 0x3688 PUSH2 0x3694 SWAP3 DUP7 MLOAD DUP2 MSTORE PUSH2 0x30B8 JUMP JUMPDEST SWAP5 PUSH2 0x30B8 JUMP JUMPDEST SWAP3 PUSH2 0x2642 JUMP JUMPDEST PUSH2 0x3652 JUMP JUMPDEST MSTORE CODESIZE DUP1 PUSH2 0x364D JUMP JUMPDEST PUSH2 0x36B3 PUSH2 0x36AD DUP4 PUSH2 0x31D5 JUMP JUMPDEST DUP3 PUSH2 0x35EE JUMP JUMPDEST PUSH2 0x363D JUMP JUMPDEST SWAP1 PUSH2 0x36C1 PUSH2 0x3012 JUMP JUMPDEST POP DUP1 MLOAD PUSH2 0x36CC PUSH2 0x3012 JUMP JUMPDEST POP PUSH2 0x36DA DUP3 MLOAD DUP3 GT ISZERO PUSH2 0x3769 JUMP JUMPDEST DUP3 MLOAD MLOAD SWAP2 PUSH2 0x36E8 DUP3 DUP5 PUSH2 0x30C6 JUMP JUMPDEST PUSH1 0x20 SWAP2 DUP3 SWAP2 DUP3 DUP8 ADD MLOAD DUP2 GT PUSH2 0x3752 JUMPI JUMPDEST DUP7 MLOAD DUP4 DUP2 MLOAD SWAP8 DUP3 ADD ADD SWAP7 DUP3 GT PUSH2 0x374A JUMPI JUMPDEST POP POP ADD SWAP2 JUMPDEST DUP2 DUP2 LT ISZERO PUSH2 0x3730 JUMPI PUSH1 0x0 NOT SWAP2 SUB PUSH2 0x100 EXP ADD SWAP1 DUP2 NOT SWAP1 MLOAD AND SWAP1 DUP3 MLOAD AND OR SWAP1 MSTORE SWAP1 JUMP JUMPDEST SWAP2 SWAP3 PUSH2 0x368E PUSH2 0x3688 PUSH2 0x3745 SWAP3 DUP7 MLOAD DUP2 MSTORE PUSH2 0x30B8 JUMP JUMPDEST PUSH2 0x370E JUMP JUMPDEST MSTORE CODESIZE DUP1 PUSH2 0x3709 JUMP JUMPDEST PUSH2 0x3764 PUSH2 0x375E DUP3 PUSH2 0x31D5 JUMP JUMPDEST DUP9 PUSH2 0x35EE JUMP JUMPDEST PUSH2 0x36F8 JUMP JUMPDEST ISZERO PUSH2 0x2B9 JUMPI JUMP JUMPDEST DUP2 MLOAD PUSH2 0x37A7 SWAP3 SWAP2 SWAP1 PUSH1 0x1 PUSH1 0x1 PUSH1 0x40 SHL SUB DUP2 AND SWAP1 PUSH1 0x17 DUP3 GT PUSH2 0x37AA JUMPI PUSH2 0x379F SWAP2 POP PUSH1 0x40 PUSH1 0xFF DUP5 MLOAD SWAP3 AND OR SWAP1 PUSH2 0x3583 JUMP JUMPDEST POP JUMPDEST MLOAD PUSH2 0x36B8 JUMP JUMPDEST POP JUMP JUMPDEST POP PUSH1 0xFF DUP2 GT PUSH2 0x37CF JUMPI PUSH2 0x37C9 SWAP1 PUSH2 0x37C1 DUP4 MLOAD PUSH2 0x3325 JUMP JUMPDEST POP DUP3 MLOAD PUSH2 0x3AFE JUMP JUMPDEST POP PUSH2 0x37A1 JUMP JUMPDEST PUSH2 0xFFFF DUP2 GT PUSH2 0x37EE JUMPI PUSH2 0x37C9 SWAP1 PUSH2 0x37E6 DUP4 MLOAD PUSH2 0x32C0 JUMP JUMPDEST POP DUP3 MLOAD PUSH2 0x3A97 JUMP JUMPDEST PUSH4 0xFFFFFFFF DUP2 GT PUSH2 0x380F JUMPI PUSH2 0x37C9 SWAP1 PUSH2 0x3807 DUP4 MLOAD PUSH2 0x325B JUMP JUMPDEST POP DUP3 MLOAD PUSH2 0x3A2E JUMP JUMPDEST PUSH2 0x37C9 SWAP1 PUSH2 0x381D DUP4 MLOAD PUSH2 0x31EB JUMP JUMPDEST POP DUP3 MLOAD PUSH2 0x39C2 JUMP JUMPDEST DUP2 MLOAD PUSH2 0x37A7 SWAP3 SWAP2 SWAP1 PUSH1 0x1 PUSH1 0x1 PUSH1 0x40 SHL SUB DUP2 AND SWAP1 PUSH1 0x17 DUP3 GT PUSH2 0x3854 JUMPI PUSH2 0x379F SWAP2 POP PUSH1 0x60 PUSH1 0xFF DUP5 MLOAD SWAP3 AND OR SWAP1 PUSH2 0x3583 JUMP JUMPDEST POP PUSH1 0xFF DUP2 GT PUSH2 0x386B JUMPI PUSH2 0x37C9 SWAP1 PUSH2 0x37C1 DUP4 MLOAD PUSH2 0x34B9 JUMP JUMPDEST PUSH2 0xFFFF DUP2 GT PUSH2 0x3882 JUMPI PUSH2 0x37C9 SWAP1 PUSH2 0x37E6 DUP4 MLOAD PUSH2 0x3454 JUMP JUMPDEST PUSH4 0xFFFFFFFF DUP2 GT PUSH2 0x389B JUMPI PUSH2 0x37C9 SWAP1 PUSH2 0x3807 DUP4 MLOAD PUSH2 0x33EF JUMP JUMPDEST PUSH2 0x37C9 SWAP1 PUSH2 0x381D DUP4 MLOAD PUSH2 0x338A JUMP JUMPDEST DUP1 MLOAD SWAP1 PUSH2 0x38B4 PUSH2 0x3012 JUMP JUMPDEST POP DUP2 MLOAD MLOAD PUSH1 0x1 DUP2 ADD SWAP1 DUP2 DUP2 GT PUSH2 0x263D JUMPI PUSH1 0x20 DUP5 ADD MLOAD DUP2 LT ISZERO PUSH2 0x3902 JUMPI JUMPDEST PUSH1 0x9F PUSH1 0x20 DUP1 SWAP6 MLOAD SWAP3 DUP4 ADD ADD MSTORE8 DUP1 MLOAD DUP3 GT PUSH2 0x38FA JUMPI JUMPDEST POP POP ADD DUP1 MLOAD SWAP1 PUSH1 0x1 DUP3 ADD DUP1 SWAP3 GT PUSH2 0x263D JUMPI MSTORE JUMP JUMPDEST MSTORE CODESIZE DUP1 PUSH2 0x38E6 JUMP JUMPDEST DUP2 PUSH1 0x1 SHL SWAP4 DUP3 DUP6 DIV PUSH1 0x2 EQ DUP4 ISZERO OR ISZERO PUSH2 0x263D JUMPI PUSH1 0x20 DUP2 PUSH2 0x392B DUP3 SWAP8 PUSH2 0x2EDF PUSH1 0x9F SWAP6 MLOAD SWAP2 DUP5 PUSH2 0x30D3 JUMP JUMPDEST POP SWAP6 POP POP POP PUSH2 0x38D1 JUMP JUMPDEST DUP1 MLOAD SWAP1 PUSH2 0x3940 PUSH2 0x3012 JUMP JUMPDEST POP DUP2 MLOAD MLOAD PUSH1 0x1 DUP2 ADD SWAP1 DUP2 DUP2 GT PUSH2 0x263D JUMPI PUSH1 0x20 DUP5 ADD MLOAD DUP2 LT ISZERO PUSH2 0x398F JUMPI JUMPDEST PUSH1 0xFF PUSH1 0x20 DUP1 SWAP6 MLOAD SWAP3 DUP4 ADD ADD MSTORE8 DUP1 MLOAD DUP3 GT PUSH2 0x3987 JUMPI JUMPDEST POP POP ADD DUP1 MLOAD PUSH1 0x0 NOT DUP2 ADD SWAP2 SWAP1 DUP3 GT PUSH2 0x263D JUMPI MSTORE JUMP JUMPDEST MSTORE CODESIZE DUP1 PUSH2 0x3972 JUMP JUMPDEST DUP2 PUSH1 0x1 SHL SWAP4 DUP3 DUP6 DIV PUSH1 0x2 EQ DUP4 ISZERO OR ISZERO PUSH2 0x263D JUMPI PUSH1 0x20 DUP2 PUSH2 0x39B8 DUP3 SWAP8 PUSH2 0x2EDF PUSH1 0xFF SWAP6 MLOAD SWAP2 DUP5 PUSH2 0x30D3 JUMP JUMPDEST POP SWAP6 POP POP POP PUSH2 0x395D JUMP JUMPDEST SWAP1 PUSH2 0x39CB PUSH2 0x3012 JUMP JUMPDEST POP DUP2 MLOAD MLOAD DUP1 PUSH1 0x8 ADD SWAP2 DUP3 PUSH1 0x8 GT PUSH2 0x263D JUMPI PUSH1 0x20 DUP5 ADD MLOAD DUP4 GT PUSH2 0x3A0D JUMPI JUMPDEST PUSH1 0x8 DUP5 MLOAD SWAP3 DUP4 ADD ADD SWAP1 PUSH1 0x1 PUSH1 0x1 PUSH1 0x40 SHL SUB NOT DUP3 MLOAD AND OR SWAP1 MSTORE DUP1 MLOAD DUP3 GT PUSH2 0x3228 JUMPI POP POP SWAP1 JUMP JUMPDEST DUP3 PUSH1 0x1 SHL DUP4 DUP2 DIV PUSH1 0x2 EQ DUP5 ISZERO OR ISZERO PUSH2 0x263D JUMPI PUSH2 0x3A29 SWAP1 DUP6 PUSH2 0x35EE JUMP JUMPDEST PUSH2 0x39E8 JUMP JUMPDEST SWAP1 PUSH2 0x3A37 PUSH2 0x3012 JUMP JUMPDEST POP DUP2 MLOAD MLOAD DUP1 PUSH1 0x4 ADD SWAP2 DUP3 PUSH1 0x4 GT PUSH2 0x263D JUMPI PUSH1 0x20 DUP5 ADD MLOAD DUP4 GT PUSH2 0x3A76 JUMPI JUMPDEST PUSH1 0x4 DUP5 MLOAD SWAP3 DUP4 ADD ADD SWAP1 PUSH4 0xFFFFFFFF NOT DUP3 MLOAD AND OR SWAP1 MSTORE DUP1 MLOAD DUP3 GT PUSH2 0x3228 JUMPI POP POP SWAP1 JUMP JUMPDEST DUP3 PUSH1 0x1 SHL DUP4 DUP2 DIV PUSH1 0x2 EQ DUP5 ISZERO OR ISZERO PUSH2 0x263D JUMPI PUSH2 0x3A92 SWAP1 DUP6 PUSH2 0x35EE JUMP JUMPDEST PUSH2 0x3A54 JUMP JUMPDEST SWAP1 PUSH2 0x3AA0 PUSH2 0x3012 JUMP JUMPDEST POP DUP2 MLOAD MLOAD DUP1 PUSH1 0x2 ADD SWAP2 DUP3 PUSH1 0x2 GT PUSH2 0x263D JUMPI PUSH1 0x20 DUP5 ADD MLOAD DUP4 GT PUSH2 0x3ADD JUMPI JUMPDEST PUSH1 0x2 DUP5 MLOAD SWAP3 DUP4 ADD ADD SWAP1 PUSH2 0xFFFF NOT DUP3 MLOAD AND OR SWAP1 MSTORE DUP1 MLOAD DUP3 GT PUSH2 0x3228 JUMPI POP POP SWAP1 JUMP JUMPDEST DUP3 PUSH1 0x1 SHL DUP4 DUP2 DIV PUSH1 0x2 EQ DUP5 ISZERO OR ISZERO PUSH2 0x263D JUMPI PUSH2 0x3AF9 SWAP1 DUP6 PUSH2 0x35EE JUMP JUMPDEST PUSH2 0x3ABD JUMP JUMPDEST SWAP1 PUSH2 0x3B07 PUSH2 0x3012 JUMP JUMPDEST POP DUP2 MLOAD MLOAD DUP1 PUSH1 0x1 ADD SWAP2 DUP3 PUSH1 0x1 GT PUSH2 0x263D JUMPI PUSH1 0x20 DUP5 ADD MLOAD DUP4 GT PUSH2 0x3B43 JUMPI JUMPDEST PUSH1 0x1 DUP5 MLOAD SWAP3 DUP4 ADD ADD SWAP1 PUSH1 0xFF NOT DUP3 MLOAD AND OR SWAP1 MSTORE DUP1 MLOAD DUP3 GT PUSH2 0x3228 JUMPI POP POP SWAP1 JUMP JUMPDEST DUP3 PUSH1 0x1 SHL DUP4 DUP2 DIV PUSH1 0x2 EQ DUP5 ISZERO OR ISZERO PUSH2 0x263D JUMPI PUSH2 0x3B5F SWAP1 DUP6 PUSH2 0x35EE JUMP JUMPDEST PUSH2 0x3B24 JUMP JUMPDEST SWAP1 PUSH2 0x3B6E DUP3 PUSH2 0x59B JUMP JUMPDEST PUSH2 0x3B7B PUSH1 0x40 MLOAD SWAP2 DUP3 PUSH2 0x55A JUMP JUMPDEST DUP3 DUP2 MSTORE DUP1 SWAP3 PUSH2 0x3B8C PUSH1 0x1F NOT SWAP2 PUSH2 0x59B JUMP JUMPDEST ADD SWAP1 PUSH1 0x20 CALLDATASIZE SWAP2 ADD CALLDATACOPY JUMP JUMPDEST DUP1 PUSH1 0x0 SWAP2 PUSH27 0x184F03E93FF9F4DAA797ED6E38ED64BF6A1F010000000000000000 DUP1 DUP3 LT ISZERO PUSH2 0x3CCB JUMPI JUMPDEST POP PUSH14 0x4EE2D6D415B85ACEF8100000000 DUP1 DUP4 LT ISZERO PUSH2 0x3CBC JUMPI JUMPDEST POP PUSH7 0x2386F26FC10000 DUP1 DUP4 LT ISZERO PUSH2 0x3CAD JUMPI JUMPDEST POP PUSH4 0x5F5E100 DUP1 DUP4 LT ISZERO PUSH2 0x3C9E JUMPI JUMPDEST POP PUSH2 0x2710 DUP1 DUP4 LT ISZERO PUSH2 0x3C8F JUMPI JUMPDEST POP PUSH1 0x64 DUP3 LT ISZERO PUSH2 0x3C7F JUMPI JUMPDEST PUSH1 0xA DUP1 SWAP3 LT ISZERO PUSH2 0x3C75 JUMPI JUMPDEST PUSH1 0x1 SWAP1 DUP2 PUSH1 0x21 PUSH2 0x3C2D DUP3 DUP8 ADD PUSH2 0x3B64 JUMP JUMPDEST SWAP6 DUP7 ADD ADD SWAP1 JUMPDEST PUSH2 0x3C3F JUMPI JUMPDEST POP POP POP POP SWAP1 JUMP JUMPDEST PUSH1 0x0 NOT ADD SWAP1 DUP4 SWAP1 PUSH16 0x181899199A1A9B1B9C1CB0B131B232B3 PUSH1 0x81 SHL DUP3 DUP3 MOD BYTE DUP4 MSTORE8 DIV SWAP2 DUP3 ISZERO PUSH2 0x3C70 JUMPI SWAP2 SWAP1 DUP3 PUSH2 0x3C33 JUMP JUMPDEST PUSH2 0x3C38 JUMP JUMPDEST SWAP2 PUSH1 0x1 ADD SWAP2 PUSH2 0x3C1C JUMP JUMPDEST SWAP2 SWAP1 PUSH1 0x64 PUSH1 0x2 SWAP2 DIV SWAP2 ADD SWAP2 PUSH2 0x3C11 JUMP JUMPDEST PUSH1 0x4 SWAP2 SWAP4 SWAP3 DIV SWAP2 ADD SWAP2 CODESIZE PUSH2 0x3C06 JUMP JUMPDEST PUSH1 0x8 SWAP2 SWAP4 SWAP3 DIV SWAP2 ADD SWAP2 CODESIZE PUSH2 0x3BF9 JUMP JUMPDEST PUSH1 0x10 SWAP2 SWAP4 SWAP3 DIV SWAP2 ADD SWAP2 CODESIZE PUSH2 0x3BEA JUMP JUMPDEST PUSH1 0x20 SWAP2 SWAP4 SWAP3 DIV SWAP2 ADD SWAP2 CODESIZE PUSH2 0x3BD8 JUMP JUMPDEST PUSH1 0x40 SWAP4 POP DUP2 DIV SWAP2 POP CODESIZE PUSH2 0x3BBF JUMP JUMPDEST ISZERO PUSH2 0x3CE0 JUMPI JUMP JUMPDEST PUSH1 0x40 MLOAD PUSH3 0x461BCD PUSH1 0xE5 SHL DUP2 MSTORE PUSH1 0x20 PUSH1 0x4 DUP3 ADD MSTORE PUSH1 0xF PUSH1 0x24 DUP3 ADD MSTORE PUSH15 0x155B9ADB9BDDDB881C995C5D595CDD PUSH1 0x8A SHL PUSH1 0x44 DUP3 ADD MSTORE PUSH1 0x64 SWAP1 REVERT JUMPDEST PUSH2 0x3D21 DUP2 SLOAD PUSH2 0xA8E JUMP JUMPDEST SWAP1 DUP2 PUSH2 0x3D2B JUMPI POP POP JUMP JUMPDEST DUP2 PUSH1 0x1F PUSH1 0x0 SWAP4 GT PUSH1 0x1 EQ PUSH2 0x3D3D JUMPI POP SSTORE JUMP JUMPDEST SWAP1 DUP1 DUP4 SWAP2 DUP3 MSTORE PUSH2 0x3D5C PUSH1 0x1F PUSH1 0x20 DUP5 KECCAK256 SWAP5 ADD PUSH1 0x5 SHR DUP5 ADD PUSH1 0x1 DUP6 ADD PUSH2 0x2438 JUMP JUMPDEST SSTORE SSTORE JUMP JUMPDEST DUP2 PUSH1 0x1F DUP3 ADD SLT ISZERO PUSH2 0x2B9 JUMPI DUP1 MLOAD PUSH2 0x3D76 DUP2 PUSH2 0x59B JUMP JUMPDEST SWAP3 PUSH2 0x3D84 PUSH1 0x40 MLOAD SWAP5 DUP6 PUSH2 0x55A JUMP JUMPDEST DUP2 DUP5 MSTORE PUSH1 0x20 DUP3 DUP5 ADD ADD GT PUSH2 0x2B9 JUMPI PUSH2 0x608 SWAP2 PUSH1 0x20 DUP1 DUP6 ADD SWAP2 ADD PUSH2 0xB6E JUMP JUMPDEST SWAP2 PUSH1 0x80 DUP4 DUP4 SUB SLT PUSH2 0x2B9 JUMPI DUP3 MLOAD SWAP1 PUSH1 0x1 PUSH1 0x1 PUSH1 0x40 SHL SUB SWAP2 DUP3 DUP2 GT PUSH2 0x2B9 JUMPI DUP4 PUSH2 0x3DCC SWAP2 DUP7 ADD PUSH2 0x3D60 JUMP JUMPDEST SWAP4 PUSH1 0x20 DUP2 ADD MLOAD DUP4 DUP2 GT PUSH2 0x2B9 JUMPI DUP5 PUSH2 0x3DE5 SWAP2 DUP4 ADD PUSH2 0x3D60 JUMP JUMPDEST SWAP4 PUSH1 0x40 DUP3 ADD MLOAD SWAP4 PUSH1 0x60 DUP4 ADD MLOAD SWAP1 DUP2 GT PUSH2 0x2B9 JUMPI PUSH2 0x608 SWAP3 ADD PUSH2 0x3D60 JUMP JUMPDEST PUSH1 0x40 MLOAD SWAP1 PUSH2 0x3E0F DUP3 PUSH2 0x51F JUMP JUMPDEST PUSH1 0x9 DUP3 MSTORE PUSH9 0x10D3D3541311551151 PUSH1 0xBA SHL PUSH1 0x20 DUP4 ADD MSTORE JUMP JUMPDEST SWAP1 PUSH1 0x6 DUP2 LT ISZERO PUSH2 0xFD3 JUMPI PUSH2 0xFF00 DUP3 SLOAD SWAP2 PUSH1 0x8 SHL AND SWAP1 PUSH2 0xFF00 NOT AND OR SWAP1 SSTORE JUMP JUMPDEST SWAP1 DUP2 PUSH1 0x20 SWAP2 SUB SLT PUSH2 0x2B9 JUMPI MLOAD PUSH2 0x608 DUP2 PUSH2 0x768 JUMP JUMPDEST ISZERO PUSH2 0x3E62 JUMPI JUMP JUMPDEST PUSH1 0x40 MLOAD PUSH3 0x461BCD PUSH1 0xE5 SHL DUP2 MSTORE PUSH1 0x20 PUSH1 0x4 DUP3 ADD MSTORE PUSH1 0x1C PUSH1 0x24 DUP3 ADD MSTORE PUSH32 0x4175746F2072656C65617365207472616E73666572206661696C656400000000 PUSH1 0x44 DUP3 ADD MSTORE PUSH1 0x64 SWAP1 REVERT JUMPDEST SWAP2 SWAP1 PUSH2 0x3EE8 PUSH2 0x3EE3 PUSH2 0x3EC6 PUSH2 0x14C6 DUP7 PUSH1 0x0 MSTORE PUSH1 0x13 PUSH1 0x20 MSTORE PUSH1 0x40 PUSH1 0x0 KECCAK256 SWAP1 JUMP JUMPDEST SWAP5 PUSH2 0x3ED3 DUP7 MLOAD ISZERO ISZERO PUSH2 0x3CD9 JUMP JUMPDEST PUSH1 0x0 MSTORE PUSH1 0x13 PUSH1 0x20 MSTORE PUSH1 0x40 PUSH1 0x0 KECCAK256 SWAP1 JUMP JUMPDEST PUSH2 0x3D17 JUMP JUMPDEST PUSH2 0x3EF7 PUSH2 0x35F PUSH2 0x34E DUP6 PUSH2 0x11F0 JUMP JUMPDEST POP SWAP2 MLOAD PUSH2 0x4271 JUMPI PUSH2 0x3F12 PUSH1 0x20 SWAP2 DUP3 DUP1 DUP3 MLOAD DUP4 ADD ADD SWAP2 ADD PUSH2 0x3DA2 JUMP JUMPDEST SWAP1 SWAP4 SWAP3 DUP4 DUP2 MLOAD SWAP2 ADD KECCAK256 SWAP4 PUSH1 0x1 DUP7 ADD SWAP5 PUSH2 0x3F37 PUSH2 0x14C6 PUSH2 0x29B5 DUP9 SLOAD PUSH1 0x1 DUP1 PUSH1 0xA0 SHL SUB AND SWAP1 JUMP JUMPDEST DUP6 DUP2 MLOAD SWAP2 ADD KECCAK256 EQ SWAP3 DUP4 PUSH2 0x424E JUMPI JUMPDEST POP DUP3 PUSH2 0x4240 JUMPI JUMPDEST POP DUP2 PUSH2 0x4223 JUMPI JUMPDEST POP ISZERO PUSH2 0x41A2 JUMPI DUP4 PUSH2 0x3F77 PUSH2 0x3F6A PUSH2 0x4051 SWAP6 SWAP7 PUSH2 0x11A4 JUMP JUMPDEST DUP1 SLOAD PUSH1 0xFF NOT AND PUSH1 0x2 OR SWAP1 SSTORE JUMP JUMPDEST PUSH2 0x172C PUSH1 0xA DUP7 ADD SWAP6 PUSH2 0x3F8E DUP8 SLOAD PUSH1 0xFF SWAP1 PUSH1 0x8 SHR AND SWAP1 JUMP JUMPDEST PUSH2 0x3F97 DUP2 PUSH2 0xFE5 JUMP JUMPDEST DUP8 SLOAD PUSH2 0xFF00 NOT AND PUSH2 0x200 OR DUP9 SSTORE TIMESTAMP PUSH1 0x6 DUP4 ADD SSTORE PUSH2 0x3FB3 DUP5 PUSH2 0x2918 JUMP JUMPDEST PUSH32 0xA9666CAA7F73E1D8695413F0D01A9D1A35790236AEF99AFEA9A330C933260EC1 PUSH1 0x0 DUP1 LOG2 PUSH2 0x3FE1 DUP5 PUSH2 0x2918 JUMP JUMPDEST PUSH1 0x40 MLOAD PUSH1 0x0 DUP2 MSTORE PUSH32 0x338BD150F7922769AD6D998D3A6B2FC3668A74AC52C70C13136927BD1C19789 SWAP1 PUSH1 0x20 SWAP1 LOG2 PUSH2 0x4017 DUP5 PUSH2 0x2918 JUMP JUMPDEST PUSH1 0x40 DUP1 MLOAD PUSH1 0xFF SWAP1 SWAP4 AND DUP4 MSTORE PUSH1 0x2 PUSH1 0x20 DUP5 ADD MSTORE ADDRESS SWAP1 DUP4 ADD MSTORE TIMESTAMP PUSH1 0x60 DUP4 ADD MSTORE PUSH1 0x0 DUP1 MLOAD PUSH1 0x20 PUSH2 0x4D75 DUP4 CODECOPY DUP2 MLOAD SWAP2 MSTORE SWAP8 SWAP1 SWAP2 DUP9 SWAP2 DUP2 SWAP1 PUSH1 0x80 DUP3 ADD SWAP1 JUMP JUMPDEST SUB SWAP1 LOG2 DUP7 SLOAD PUSH2 0x406A SWAP1 PUSH1 0x8 SHR PUSH1 0xFF AND SWAP8 PUSH2 0x1D56 DUP10 PUSH2 0xFE5 JUMP JUMPDEST PUSH2 0x40E5 DUP5 PUSH1 0x3 DUP4 ADD SLOAD PUSH2 0x40AB PUSH2 0xCDC PUSH2 0xCDC PUSH1 0x2 PUSH1 0x7 DUP9 ADD SWAP8 PUSH2 0x409D PUSH2 0x4092 DUP11 SLOAD DUP1 SWAP9 PUSH2 0x2651 JUMP JUMPDEST SWAP11 DUP12 SWAP8 PUSH1 0x4 SLOAD PUSH2 0x30C6 JUMP JUMPDEST ADD SLOAD PUSH1 0x1 PUSH1 0x1 PUSH1 0xA0 SHL SUB AND SWAP1 JUMP JUMPDEST DUP9 SLOAD PUSH1 0x40 MLOAD PUSH4 0xA9059CBB PUSH1 0xE0 SHL DUP2 MSTORE PUSH1 0x1 PUSH1 0x1 PUSH1 0xA0 SHL SUB SWAP1 SWAP2 AND PUSH1 0x4 DUP3 ADD MSTORE PUSH1 0x24 DUP2 ADD SWAP3 SWAP1 SWAP3 MSTORE SWAP1 SWAP3 DUP4 SWAP2 SWAP1 DUP3 SWAP1 PUSH1 0x0 SWAP1 DUP3 SWAP1 PUSH1 0x44 DUP3 ADD SWAP1 JUMP JUMPDEST SUB SWAP3 GAS CALL SWAP1 DUP2 ISZERO PUSH2 0xE17 JUMPI PUSH2 0x2AC8 SWAP7 PUSH2 0xD83 PUSH32 0xA4B9AFF2E7BD4815FD0C77044B1652A3CDC9D61C082A9A75510DD9D30D1C1009 SWAP4 PUSH2 0x4130 SWAP4 PUSH2 0x415D SWAP10 PUSH1 0x0 SWAP3 PUSH2 0x4185 JUMPI JUMPDEST POP POP PUSH2 0x3E5B JUMP JUMPDEST SWAP2 SLOAD PUSH2 0x413B DUP6 PUSH2 0x2918 JUMP JUMPDEST PUSH1 0x40 DUP1 MLOAD SWAP6 DUP7 MSTORE PUSH1 0x20 DUP7 ADD SWAP3 SWAP1 SWAP3 MSTORE PUSH1 0x1 PUSH1 0x1 PUSH1 0xA0 SHL SUB SWAP4 SWAP1 SWAP4 AND SWAP4 LOG3 PUSH2 0x2918 JUMP JUMPDEST PUSH1 0x40 DUP1 MLOAD PUSH1 0xFF SWAP1 SWAP6 AND DUP6 MSTORE PUSH1 0x3 PUSH1 0x20 DUP7 ADD MSTORE ADDRESS SWAP1 DUP6 ADD MSTORE TIMESTAMP PUSH1 0x60 DUP6 ADD MSTORE SWAP3 SWAP1 DUP2 SWAP1 PUSH1 0x80 DUP3 ADD SWAP1 JUMP JUMPDEST PUSH2 0x419B SWAP3 POP DUP1 RETURNDATASIZE LT PUSH2 0xE10 JUMPI PUSH2 0xE02 DUP2 DUP4 PUSH2 0x55A JUMP JUMPDEST CODESIZE DUP1 PUSH2 0x4129 JUMP JUMPDEST POP POP POP DUP1 PUSH2 0x2AB2 PUSH2 0x41B5 PUSH2 0x41C2 SWAP4 PUSH2 0x11A4 JUMP JUMPDEST DUP1 SLOAD PUSH1 0xFF NOT AND PUSH1 0x3 OR SWAP1 SSTORE JUMP JUMPDEST PUSH32 0x7C25A4602A93BBF53E4A774F7358258AF8F55CAF75FC6B294AC8BB2F056D8BEA PUSH1 0x40 MLOAD DUP1 PUSH2 0x2AC8 DUP2 PUSH1 0x60 SWAP1 PUSH1 0x20 DUP2 MSTORE PUSH1 0x1A PUSH1 0x20 DUP3 ADD MSTORE PUSH32 0x566572696669636174696F6E2064617461206D69736D61746368000000000000 PUSH1 0x40 DUP3 ADD MSTORE ADD SWAP1 JUMP JUMPDEST SWAP1 POP DUP2 DUP2 MLOAD SWAP2 ADD KECCAK256 PUSH2 0x4233 PUSH2 0x3E02 JUMP JUMPDEST DUP3 DUP2 MLOAD SWAP2 ADD KECCAK256 EQ CODESIZE PUSH2 0x3F53 JUMP JUMPDEST PUSH1 0x3 DUP7 ADD SLOAD EQ SWAP2 POP CODESIZE PUSH2 0x3F4C JUMP JUMPDEST SWAP1 SWAP3 POP DUP4 DUP2 MLOAD SWAP2 ADD KECCAK256 PUSH2 0x4263 PUSH2 0x14C6 DUP9 PUSH2 0x117E JUMP JUMPDEST DUP5 DUP2 MLOAD SWAP2 ADD KECCAK256 EQ SWAP2 CODESIZE PUSH2 0x3F45 JUMP JUMPDEST POP POP DUP1 PUSH2 0x2AB2 PUSH2 0x41B5 PUSH2 0x4283 SWAP4 PUSH2 0x11A4 JUMP JUMPDEST PUSH32 0x7C25A4602A93BBF53E4A774F7358258AF8F55CAF75FC6B294AC8BB2F056D8BEA PUSH1 0x40 MLOAD DUP1 PUSH2 0x2AC8 DUP2 PUSH1 0x80 SWAP1 PUSH1 0x20 DUP2 MSTORE PUSH1 0x22 PUSH1 0x20 DUP3 ADD MSTORE PUSH32 0x45787465726E616C206572726F7220647572696E672076657269666963617469 PUSH1 0x40 DUP3 ADD MSTORE PUSH2 0x37B7 PUSH1 0xF1 SHL PUSH1 0x60 DUP3 ADD MSTORE ADD SWAP1 JUMP JUMPDEST DUP1 ISZERO PUSH2 0x4370 JUMPI PUSH1 0x0 DUP2 DUP2 DUP2 DUP1 JUMPDEST PUSH2 0x4358 JUMPI POP PUSH2 0x430A DUP2 PUSH2 0x3B64 JUMP JUMPDEST SWAP4 JUMPDEST PUSH2 0x4316 JUMPI POP POP POP SWAP1 JUMP JUMPDEST PUSH2 0x431F SWAP1 PUSH2 0x262E JUMP JUMPDEST SWAP1 PUSH1 0xA SWAP1 PUSH1 0x30 DUP3 DUP3 MOD DUP2 ADD DUP1 SWAP2 GT PUSH2 0x263D JUMPI DUP6 MLOAD DUP5 LT ISZERO PUSH2 0xFAE JUMPI PUSH1 0xF8 SHL PUSH1 0x1 PUSH1 0x1 PUSH1 0xF8 SHL SUB NOT AND DUP5 BYTE DUP6 DUP5 ADD PUSH1 0x20 ADD MSTORE8 DIV SWAP1 DUP2 PUSH2 0x430C JUMP JUMPDEST SWAP2 POP PUSH2 0x4365 PUSH1 0xA SWAP2 PUSH2 0x2B7D JUMP JUMPDEST SWAP2 DIV DUP1 DUP5 SWAP3 SWAP2 PUSH2 0x42FC JUMP JUMPDEST POP PUSH1 0x40 MLOAD PUSH2 0x437D DUP2 PUSH2 0x51F JUMP JUMPDEST PUSH1 0x1 DUP2 MSTORE PUSH1 0x3 PUSH1 0xFC SHL PUSH1 0x20 DUP3 ADD MSTORE SWAP1 JUMP JUMPDEST ISZERO PUSH2 0x4395 JUMPI JUMP JUMPDEST PUSH1 0x40 MLOAD PUSH3 0x461BCD PUSH1 0xE5 SHL DUP2 MSTORE PUSH1 0x20 PUSH1 0x4 DUP3 ADD MSTORE PUSH1 0x12 PUSH1 0x24 DUP3 ADD MSTORE PUSH18 0x496E76616C6964204C502061646472657373 PUSH1 0x70 SHL PUSH1 0x44 DUP3 ADD MSTORE PUSH1 0x64 SWAP1 REVERT JUMPDEST ISZERO PUSH2 0x43D6 JUMPI JUMP JUMPDEST PUSH1 0x40 MLOAD PUSH3 0x461BCD PUSH1 0xE5 SHL DUP2 MSTORE PUSH1 0x20 PUSH1 0x4 DUP3 ADD MSTORE PUSH1 0x1D PUSH1 0x24 DUP3 ADD MSTORE PUSH32 0x416D6F756E74206D7573742062652067726561746572207468616E2030000000 PUSH1 0x44 DUP3 ADD MSTORE PUSH1 0x64 SWAP1 REVERT JUMPDEST ISZERO PUSH2 0x4422 JUMPI JUMP JUMPDEST PUSH1 0x40 MLOAD PUSH3 0x461BCD PUSH1 0xE5 SHL DUP2 MSTORE PUSH1 0x20 PUSH1 0x4 DUP3 ADD MSTORE PUSH1 0x1A PUSH1 0x24 DUP3 ADD MSTORE PUSH32 0x5061796D656E742049442063616E6E6F7420626520656D707479000000000000 PUSH1 0x44 DUP3 ADD MSTORE PUSH1 0x64 SWAP1 REVERT JUMPDEST ISZERO PUSH2 0x446E JUMPI JUMP JUMPDEST PUSH1 0x40 MLOAD PUSH3 0x461BCD PUSH1 0xE5 SHL DUP2 MSTORE PUSH1 0x20 PUSH1 0x4 DUP3 ADD MSTORE PUSH1 0x17 PUSH1 0x24 DUP3 ADD MSTORE PUSH32 0x5061796D656E7420494420616C72656164792075736564000000000000000000 PUSH1 0x44 DUP3 ADD MSTORE PUSH1 0x64 SWAP1 REVERT JUMPDEST ISZERO PUSH2 0x44BA JUMPI JUMP JUMPDEST PUSH1 0x40 MLOAD PUSH3 0x461BCD PUSH1 0xE5 SHL DUP2 MSTORE PUSH1 0x20 PUSH1 0x4 DUP3 ADD MSTORE PUSH1 0x13 PUSH1 0x24 DUP3 ADD MSTORE PUSH19 0x151BDAD95B881B9BDD081CDD5C1C1BDC9D1959 PUSH1 0x6A SHL PUSH1 0x44 DUP3 ADD MSTORE PUSH1 0x64 SWAP1 REVERT JUMPDEST ISZERO PUSH2 0x44FC JUMPI JUMP JUMPDEST PUSH1 0x40 MLOAD PUSH3 0x461BCD PUSH1 0xE5 SHL DUP2 MSTORE PUSH1 0x20 PUSH1 0x4 DUP3 ADD MSTORE PUSH1 0xF PUSH1 0x24 DUP3 ADD MSTORE PUSH15 0x151C985B9CD9995C8819985A5B1959 PUSH1 0x8A SHL PUSH1 0x44 DUP3 ADD MSTORE PUSH1 0x64 SWAP1 REVERT JUMPDEST SWAP1 PUSH1 0x2 DUP2 LT ISZERO PUSH2 0xFD3 JUMPI PUSH1 0xFF DUP1 NOT DUP4 SLOAD AND SWAP2 AND OR SWAP1 SSTORE JUMP JUMPDEST PUSH1 0x5 SLOAD PUSH1 0x1 PUSH1 0x40 SHL DUP2 LT ISZERO PUSH2 0x53A JUMPI DUP1 PUSH1 0x1 PUSH2 0x456A SWAP3 ADD PUSH1 0x5 SSTORE PUSH2 0xF73 JUMP JUMPDEST SWAP2 SWAP1 SWAP2 PUSH2 0x468F JUMPI DUP1 MLOAD DUP3 SLOAD PUSH1 0x1 PUSH1 0x1 PUSH1 0xA0 SHL SUB NOT AND PUSH1 0x1 PUSH1 0x1 PUSH1 0xA0 SHL SUB SWAP1 SWAP2 AND OR DUP3 SSTORE PUSH2 0xB06 SWAP2 PUSH2 0x4677 SWAP1 PUSH2 0x180 SWAP1 PUSH1 0xA SWAP1 PUSH1 0x20 DUP6 ADD MLOAD PUSH1 0x1 DUP3 ADD DUP1 SLOAD PUSH1 0x1 PUSH1 0x1 PUSH1 0xA0 SHL SUB NOT AND PUSH1 0x1 PUSH1 0x1 PUSH1 0xA0 SHL SUB SWAP1 SWAP3 AND SWAP2 SWAP1 SWAP2 OR SWAP1 SSTORE PUSH1 0x40 DUP6 ADD MLOAD PUSH1 0x2 DUP3 ADD DUP1 SLOAD PUSH1 0x1 PUSH1 0x1 PUSH1 0xA0 SHL SUB NOT AND PUSH1 0x1 PUSH1 0x1 PUSH1 0xA0 SHL SUB SWAP1 SWAP3 AND SWAP2 SWAP1 SWAP2 OR SWAP1 SSTORE PUSH1 0x60 DUP6 ADD MLOAD PUSH1 0x3 DUP3 ADD SSTORE PUSH1 0x80 DUP6 ADD MLOAD PUSH1 0x4 DUP3 ADD SSTORE PUSH1 0xA0 DUP6 ADD MLOAD PUSH1 0x5 DUP3 ADD SSTORE PUSH1 0xC0 DUP6 ADD MLOAD PUSH1 0x6 DUP3 ADD SSTORE PUSH1 0xE0 DUP6 ADD MLOAD PUSH1 0x7 DUP3 ADD SSTORE PUSH2 0x462C PUSH2 0x100 DUP7 ADD MLOAD PUSH1 0x8 DUP4 ADD PUSH2 0x2852 JUMP JUMPDEST PUSH2 0x463E PUSH2 0x120 DUP7 ADD MLOAD PUSH1 0x9 DUP4 ADD PUSH2 0x2852 JUMP JUMPDEST ADD SWAP3 PUSH2 0x4658 PUSH2 0x140 DUP3 ADD MLOAD PUSH2 0x4652 DUP2 PUSH2 0xFC9 JUMP JUMPDEST DUP6 PUSH2 0x4533 JUMP JUMPDEST PUSH2 0x4670 PUSH2 0x160 DUP3 ADD MLOAD PUSH2 0x466A DUP2 PUSH2 0xFE5 JUMP JUMPDEST DUP6 PUSH2 0x3E27 JUMP JUMPDEST ADD MLOAD ISZERO ISZERO SWAP1 JUMP JUMPDEST DUP2 SLOAD PUSH3 0xFF0000 NOT AND SWAP1 ISZERO ISZERO PUSH1 0x10 SHL PUSH3 0xFF0000 AND OR SWAP1 SSTORE JUMP JUMPDEST PUSH2 0xA78 JUMP JUMPDEST DUP1 SLOAD DUP3 LT ISZERO PUSH2 0xFAE JUMPI PUSH1 0x0 MSTORE PUSH1 0x20 PUSH1 0x0 KECCAK256 ADD SWAP1 PUSH1 0x0 SWAP1 JUMP JUMPDEST DUP1 SLOAD SWAP1 PUSH1 0x1 PUSH1 0x40 SHL DUP3 LT ISZERO PUSH2 0x53A JUMPI DUP2 PUSH2 0x46CE SWAP2 PUSH1 0x1 PUSH2 0x2434 SWAP5 ADD DUP2 SSTORE PUSH2 0x4694 JUMP JUMPDEST DUP2 SWAP4 SWAP2 SLOAD SWAP1 PUSH1 0x3 SHL SWAP2 DUP3 SHL SWAP2 PUSH1 0x0 NOT SWAP1 SHL NOT AND OR SWAP1 JUMP JUMPDEST SWAP2 SWAP3 SWAP1 PUSH1 0x1 DUP1 PUSH1 0xA0 SHL SUB DUP1 DUP5 AND SWAP6 PUSH2 0x46FE DUP8 ISZERO ISZERO PUSH2 0x438E JUMP JUMPDEST PUSH2 0x4709 DUP7 ISZERO ISZERO PUSH2 0x43CF JUMP JUMPDEST PUSH2 0x4715 DUP2 MLOAD ISZERO ISZERO PUSH2 0x441B JUMP JUMPDEST PUSH2 0x4728 PUSH2 0x4721 DUP3 PUSH2 0x11F0 JUMP JUMPDEST SLOAD ISZERO PUSH2 0x4467 JUMP JUMPDEST PUSH2 0x473B PUSH2 0x16AA PUSH2 0x16A0 DUP6 PUSH2 0x82A DUP9 PUSH2 0x1158 JUMP JUMPDEST PUSH2 0x4747 PUSH2 0x170A DUP8 PUSH2 0x31BF JUMP JUMPDEST PUSH1 0x40 MLOAD PUSH4 0x23B872DD PUSH1 0xE0 SHL DUP2 MSTORE CALLER PUSH1 0x4 DUP3 ADD MSTORE ADDRESS PUSH1 0x24 DUP3 ADD MSTORE PUSH1 0x44 DUP2 ADD DUP9 SWAP1 MSTORE SWAP1 SWAP6 SWAP1 SWAP3 PUSH1 0x20 SWAP1 DUP5 SWAP1 PUSH1 0x64 SWAP1 DUP3 SWAP1 PUSH1 0x0 SWAP1 DUP10 AND GAS CALL SWAP5 DUP6 ISZERO PUSH2 0xE17 JUMPI PUSH2 0x4886 DUP9 PUSH2 0x4867 PUSH2 0x488B SWAP5 PUSH2 0x484D PUSH2 0x48B6 SWAP10 PUSH2 0x47CB PUSH32 0x53C508E52D8F5E261D87A8D93A78C6851A65CAFAD8C6D9793451B38B256015F3 SWAP13 PUSH2 0x489A SWAP12 PUSH1 0x0 SWAP2 PUSH2 0xDE9 JUMPI POP PUSH2 0x44F5 JUMP JUMPDEST PUSH1 0x5 SLOAD SWAP7 DUP8 SWAP6 PUSH2 0x47FF PUSH2 0x47DC PUSH2 0x57B JUMP JUMPDEST CALLER DUP2 MSTORE SWAP4 PUSH1 0x1 PUSH1 0x1 PUSH1 0xA0 SHL SUB DUP8 AND PUSH1 0x20 DUP7 ADD MSTORE PUSH1 0x1 PUSH1 0x1 PUSH1 0xA0 SHL SUB AND PUSH1 0x40 DUP6 ADD MSTORE JUMP JUMPDEST PUSH1 0x60 DUP4 ADD MSTORE TIMESTAMP PUSH1 0x80 DUP4 ADD MSTORE TIMESTAMP PUSH1 0xA0 DUP4 ADD MSTORE PUSH1 0x0 PUSH1 0xC0 DUP4 ADD MSTORE DUP14 PUSH1 0xE0 DUP4 ADD MSTORE DUP10 PUSH2 0x100 DUP4 ADD MSTORE PUSH2 0x120 DUP3 ADD MSTORE PUSH2 0x4838 PUSH2 0x140 DUP3 ADD PUSH1 0x1 SWAP1 MSTORE JUMP JUMPDEST PUSH1 0x1 PUSH2 0x160 DUP3 ADD MSTORE PUSH1 0x0 PUSH2 0x180 DUP3 ADD MSTORE PUSH2 0x454B JUMP JUMPDEST CALLER PUSH1 0x0 SWAP1 DUP2 MSTORE PUSH1 0x7 PUSH1 0x20 MSTORE PUSH1 0x40 SWAP1 KECCAK256 PUSH2 0x486C SWAP1 DUP5 SWAP1 PUSH2 0x46AC JUMP JUMPDEST PUSH2 0x46AC JUMP JUMPDEST PUSH1 0x1 PUSH1 0x1 PUSH1 0xA0 SHL SUB AND PUSH1 0x0 SWAP1 DUP2 MSTORE PUSH1 0x8 PUSH1 0x20 MSTORE PUSH1 0x40 SWAP1 KECCAK256 SWAP1 JUMP JUMPDEST PUSH2 0x308C JUMP JUMPDEST PUSH2 0x4894 DUP3 PUSH2 0x11F0 JUMP JUMPDEST SSTORE PUSH2 0x2918 JUMP JUMPDEST SWAP3 PUSH1 0x40 MLOAD SWAP2 DUP3 SWAP2 CALLER SWAP7 DUP4 PUSH1 0x20 SWAP1 SWAP4 SWAP3 SWAP2 SWAP4 PUSH1 0x40 DUP2 ADD SWAP5 DUP2 MSTORE ADD MSTORE JUMP JUMPDEST SUB SWAP1 LOG4 PUSH1 0x1 SWAP1 JUMP JUMPDEST PUSH1 0x2 PUSH1 0x0 SLOAD EQ PUSH2 0x48CF JUMPI PUSH1 0x2 PUSH1 0x0 SSTORE JUMP JUMPDEST PUSH1 0x40 MLOAD PUSH4 0x3EE5AEB5 PUSH1 0xE0 SHL DUP2 MSTORE PUSH1 0x4 SWAP1 REVERT JUMPDEST ISZERO PUSH2 0x48E8 JUMPI JUMP JUMPDEST PUSH1 0x40 MLOAD PUSH3 0x461BCD PUSH1 0xE5 SHL DUP2 MSTORE PUSH1 0x20 PUSH1 0x4 DUP3 ADD MSTORE PUSH1 0x15 PUSH1 0x24 DUP3 ADD MSTORE PUSH21 0x496E76616C696420746F6B656E2061646472657373 PUSH1 0x58 SHL PUSH1 0x44 DUP3 ADD MSTORE PUSH1 0x64 SWAP1 REVERT JUMPDEST PUSH2 0x608 SWAP2 PUSH1 0x1 PUSH1 0x1 PUSH1 0xA0 SHL SUB AND SWAP1 PUSH1 0x1 DUP2 ADD SWAP1 DUP3 PUSH1 0x0 MSTORE DUP2 PUSH1 0x20 MSTORE PUSH1 0x40 PUSH1 0x0 KECCAK256 SLOAD ISZERO PUSH1 0x0 EQ PUSH2 0x4985 JUMPI DUP1 SLOAD PUSH1 0x1 PUSH1 0x40 SHL DUP2 LT ISZERO PUSH2 0x53A JUMPI PUSH2 0x4970 PUSH2 0x46CE DUP3 PUSH1 0x1 DUP8 SWAP5 ADD DUP6 SSTORE DUP5 PUSH2 0x4694 JUMP JUMPDEST SWAP1 SSTORE SLOAD SWAP2 PUSH1 0x0 MSTORE PUSH1 0x20 MSTORE PUSH1 0x40 PUSH1 0x0 KECCAK256 SSTORE PUSH1 0x1 SWAP1 JUMP JUMPDEST POP POP POP PUSH1 0x0 SWAP1 JUMP JUMPDEST PUSH2 0x608 SWAP2 PUSH1 0x1 PUSH1 0x1 PUSH1 0xA0 SHL SUB AND SWAP1 PUSH2 0x49E0 JUMP JUMPDEST DUP1 SLOAD SWAP1 DUP2 ISZERO PUSH2 0x49CA JUMPI PUSH1 0x0 NOT SWAP2 DUP3 ADD SWAP2 PUSH2 0x49BA DUP4 DUP4 PUSH2 0x4694 JUMP JUMPDEST SWAP1 SWAP2 DUP3 SLOAD SWAP2 PUSH1 0x3 SHL SHL NOT AND SWAP1 SSTORE SSTORE JUMP JUMPDEST PUSH4 0x4E487B71 PUSH1 0xE0 SHL PUSH1 0x0 MSTORE PUSH1 0x31 PUSH1 0x4 MSTORE PUSH1 0x24 PUSH1 0x0 REVERT JUMPDEST PUSH1 0x1 DUP2 ADD SWAP2 DUP1 PUSH1 0x0 MSTORE DUP3 PUSH1 0x20 MSTORE PUSH1 0x40 PUSH1 0x0 KECCAK256 SLOAD SWAP3 DUP4 ISZERO ISZERO PUSH1 0x0 EQ PUSH2 0x4A8C JUMPI PUSH1 0x0 NOT SWAP3 DUP5 DUP5 ADD SWAP1 DUP6 DUP3 GT PUSH2 0x263D JUMPI DUP1 SLOAD SWAP5 DUP6 ADD SWAP5 DUP6 GT PUSH2 0x263D JUMPI PUSH1 0x0 SWAP6 DUP6 DUP4 PUSH2 0x4A43 SWAP8 PUSH2 0x4A34 SWAP6 SUB PUSH2 0x4A49 JUMPI JUMPDEST POP POP POP PUSH2 0x49A0 JUMP JUMPDEST SWAP1 PUSH1 0x0 MSTORE PUSH1 0x20 MSTORE PUSH1 0x40 PUSH1 0x0 KECCAK256 SWAP1 JUMP JUMPDEST SSTORE PUSH1 0x1 SWAP1 JUMP JUMPDEST PUSH2 0x4A73 PUSH2 0x4A6D SWAP2 PUSH2 0x4A5D PUSH2 0x4A83 SWAP5 DUP8 PUSH2 0x4694 JUMP JUMPDEST SWAP1 SLOAD SWAP1 PUSH1 0x3 SHL SHR SWAP3 DUP4 SWAP2 DUP8 PUSH2 0x4694 JUMP JUMPDEST SWAP1 PUSH2 0x241A JUMP JUMPDEST DUP6 SWAP1 PUSH1 0x0 MSTORE PUSH1 0x20 MSTORE PUSH1 0x40 PUSH1 0x0 KECCAK256 SWAP1 JUMP JUMPDEST SSTORE CODESIZE DUP1 DUP1 PUSH2 0x4A2C JUMP JUMPDEST POP POP POP POP PUSH1 0x0 SWAP1 JUMP JUMPDEST ISZERO PUSH2 0x4A9C JUMPI JUMP JUMPDEST PUSH1 0x40 MLOAD PUSH3 0x461BCD PUSH1 0xE5 SHL DUP2 MSTORE PUSH1 0x20 PUSH1 0x4 DUP3 ADD MSTORE PUSH1 0x15 PUSH1 0x24 DUP3 ADD MSTORE PUSH21 0x151C985B9CD9995C881D1BC813140819985A5B1959 PUSH1 0x5A SHL PUSH1 0x44 DUP3 ADD MSTORE PUSH1 0x64 SWAP1 REVERT JUMPDEST PUSH1 0x40 SWAP1 PUSH2 0x608 SWAP5 SWAP3 DUP2 MSTORE DUP2 PUSH1 0x20 DUP3 ADD MSTORE ADD SWAP2 PUSH2 0x2744 JUMP JUMPDEST ISZERO PUSH2 0x4AF7 JUMPI JUMP JUMPDEST PUSH1 0x40 MLOAD PUSH3 0x461BCD PUSH1 0xE5 SHL DUP2 MSTORE PUSH1 0x20 PUSH1 0x4 DUP3 ADD MSTORE PUSH1 0x15 PUSH1 0x24 DUP3 ADD MSTORE PUSH21 0x139BDD08185B88195CD8DC9BDDC81C185E5B595B9D PUSH1 0x5A SHL PUSH1 0x44 DUP3 ADD MSTORE PUSH1 0x64 SWAP1 REVERT JUMPDEST ISZERO PUSH2 0x4B3B JUMPI JUMP JUMPDEST PUSH1 0x40 MLOAD PUSH3 0x461BCD PUSH1 0xE5 SHL DUP2 MSTORE PUSH1 0x20 PUSH1 0x4 DUP3 ADD MSTORE PUSH1 0x12 PUSH1 0x24 DUP3 ADD MSTORE PUSH18 0x14185E5B595B9D081B9BDD081B1BD8DAD959 PUSH1 0x72 SHL PUSH1 0x44 DUP3 ADD MSTORE PUSH1 0x64 SWAP1 REVERT JUMPDEST ISZERO PUSH2 0x4B7C JUMPI JUMP JUMPDEST PUSH1 0x40 MLOAD PUSH3 0x461BCD PUSH1 0xE5 SHL DUP2 MSTORE PUSH1 0x20 PUSH1 0x4 DUP3 ADD MSTORE PUSH1 0xE PUSH1 0x24 DUP3 ADD MSTORE PUSH14 0x139BDD08185D5D1A1BDC9A5E9959 PUSH1 0x92 SHL PUSH1 0x44 DUP3 ADD MSTORE PUSH1 0x64 SWAP1 REVERT JUMPDEST ISZERO PUSH2 0x4BB9 JUMPI JUMP JUMPDEST PUSH1 0x40 MLOAD PUSH3 0x461BCD PUSH1 0xE5 SHL DUP2 MSTORE PUSH1 0x20 PUSH1 0x4 DUP3 ADD MSTORE PUSH1 0x12 PUSH1 0x24 DUP3 ADD MSTORE PUSH18 0x10D85B9B9BDD081C995B19585CD9481E595D PUSH1 0x72 SHL PUSH1 0x44 DUP3 ADD MSTORE PUSH1 0x64 SWAP1 REVERT JUMPDEST ISZERO PUSH2 0x4BFA JUMPI JUMP JUMPDEST PUSH1 0x40 MLOAD PUSH3 0x461BCD PUSH1 0xE5 SHL DUP2 MSTORE PUSH1 0x20 PUSH1 0x4 DUP3 ADD MSTORE PUSH1 0x13 PUSH1 0x24 DUP3 ADD MSTORE PUSH19 0x14185E5B595B9D081A5CC8191A5CDC1D5D1959 PUSH1 0x6A SHL PUSH1 0x44 DUP3 ADD MSTORE PUSH1 0x64 SWAP1 REVERT JUMPDEST ISZERO PUSH2 0x4C3C JUMPI JUMP JUMPDEST PUSH1 0x40 MLOAD PUSH3 0x461BCD PUSH1 0xE5 SHL DUP2 MSTORE PUSH1 0x20 PUSH1 0x4 DUP3 ADD MSTORE PUSH1 0xE PUSH1 0x24 DUP3 ADD MSTORE PUSH14 0x43616E6E6F742064697370757465 PUSH1 0x90 SHL PUSH1 0x44 DUP3 ADD MSTORE PUSH1 0x64 SWAP1 REVERT JUMPDEST ISZERO PUSH2 0x4C79 JUMPI JUMP JUMPDEST PUSH1 0x40 MLOAD PUSH3 0x461BCD PUSH1 0xE5 SHL DUP2 MSTORE PUSH1 0x20 PUSH1 0x4 DUP3 ADD MSTORE PUSH1 0x16 PUSH1 0x24 DUP3 ADD MSTORE PUSH22 0x111A5CDC1D5D19481DDA5B991BDDC8195E1C1A5C9959 PUSH1 0x52 SHL PUSH1 0x44 DUP3 ADD MSTORE PUSH1 0x64 SWAP1 REVERT JUMPDEST ISZERO PUSH2 0x4CBE JUMPI JUMP JUMPDEST PUSH1 0x40 MLOAD PUSH3 0x461BCD PUSH1 0xE5 SHL DUP2 MSTORE PUSH1 0x20 PUSH1 0x4 DUP3 ADD MSTORE PUSH1 0x10 PUSH1 0x24 DUP3 ADD MSTORE PUSH16 0x105B1C9958591E48191A5CDC1D5D1959 PUSH1 0x82 SHL PUSH1 0x44 DUP3 ADD MSTORE PUSH1 0x64 SWAP1 REVERT JUMPDEST ISZERO PUSH2 0x4CFD JUMPI JUMP JUMPDEST PUSH1 0x40 MLOAD PUSH3 0x461BCD PUSH1 0xE5 SHL DUP2 MSTORE PUSH1 0x20 PUSH1 0x4 DUP3 ADD MSTORE PUSH1 0xD PUSH1 0x24 DUP3 ADD MSTORE PUSH13 0x10D85B9B9BDD081C99599D5B99 PUSH1 0x9A SHL PUSH1 0x44 DUP3 ADD MSTORE PUSH1 0x64 SWAP1 REVERT JUMPDEST ISZERO PUSH2 0x4D39 JUMPI JUMP JUMPDEST PUSH1 0x40 MLOAD PUSH3 0x461BCD PUSH1 0xE5 SHL DUP2 MSTORE PUSH1 0x20 PUSH1 0x4 DUP3 ADD MSTORE PUSH1 0x13 PUSH1 0x24 DUP3 ADD MSTORE PUSH19 0x14185E5B595B9D081B9BDD08195E1C1A5C9959 PUSH1 0x6A SHL PUSH1 0x44 DUP3 ADD MSTORE PUSH1 0x64 SWAP1 REVERT INVALID 0x22 0xC6 DUP3 0xDE EXTCODEHASH 0xCD POP PUSH2 0x53C6 0xE1 SWAP14 0xDC SUB PUSH29 0x8EA009BAF9E1F7561CA71FC25A6316AD72A26469706673582212208433 0xD6 0xEB SWAP14 PUSH25 0xF359AFD108CBAEC05AF14833E6B2E9A496A4639812DFA72C72 0xE2 PUSH5 0x736F6C6343 STOP ADDMOD EQ STOP CALLER "},"methodIdentifiers":{"AUTO_RELEASE_TIME()":"9cf48d7d","DISPUTE_WINDOW()":"f585dc57","PAYMENT_EXPIRY_TIME()":"1a98dcb3","PLATFORM_FEE_RATE()":"2930fa49","T1_LOCK_TIME()":"83a41ff3","acceptOwnership()":"79ba5097","confirmPayment(string)":"912db0fb","createOrder(address,address,uint256,string,string)":"604f8979","defaultToken()":"74c13fda","disputePayment(string)":"225bc08a","expirePayment(string)":"d60bed9d","getFunctionsRouter()":"3395a79a","getLpPayments(address)":"2d9e4977","getNetworkTokens(string)":"860ba4c1","getPaymentByIndex(uint256)":"5922aeda","getPaymentByPaymentId(string)":"cd6c57c4","getSubscriptionId()":"de3d9fb7","getUserPayments(address)":"9d7dadeb","handleOracleFulfillment(bytes32,bytes,bytes)":"0ca76175","lockPayment(address,address,uint256,string,string)":"078081e6","lpPaypalEmail(address)":"2485d0f5","merchantEmails(string)":"666b9f4b","networkTokens(string,address)":"56c350e4","owner()":"8da5cb5b","paymentRecords(uint256)":"5691fe63","platformPendingFees()":"c2e8528c","refundPayment(string)":"28569d2b","registerLp(string)":"a1941949","releasePayment(string)":"a6b16096","settlePayment(address,address,uint256,string,string)":"7e896cc5","submitOrderId(string,string)":"0252d0ed","submittedOrderIds(string)":"977a2968","transferOwnership(address)":"f2fde38b","updateFunctionsRouter(address)":"b7948996","updateSourceAndSecrets(bytes32,bytes32)":"69f7e9b1","updateSubscriptionId(uint64)":"14b1dd1b","updateTokenConfig(string,address,uint8,bool)":"16e39dc2","verificationStatus(string)":"73e306e3","withdrawPlatformFees(address)":"ec3889b5"}}}}}