{"contracts/TestFunctions.sol":{"TestFunctions":{"abi":[{"inputs":[{"internalType":"address","name":"router","type":"address"},{"internalType":"uint64","name":"subscriptionId","type":"uint64"},{"internalType":"bytes32","name":"donId","type":"bytes32"}],"stateMutability":"nonpayable","type":"constructor"},{"inputs":[],"name":"EmptyArgs","type":"error"},{"inputs":[],"name":"EmptySource","type":"error"},{"inputs":[],"name":"NoInlineSecrets","type":"error"},{"inputs":[],"name":"OnlyRouterCanFulfill","type":"error"},{"anonymous":false,"inputs":[{"indexed":true,"internalType":"bytes32","name":"id","type":"bytes32"}],"name":"RequestFulfilled","type":"event"},{"anonymous":false,"inputs":[{"indexed":true,"internalType":"bytes32","name":"id","type":"bytes32"}],"name":"RequestSent","type":"event"},{"anonymous":false,"inputs":[{"indexed":false,"internalType":"string","name":"reason","type":"string"}],"name":"TestFailed","type":"event"},{"anonymous":false,"inputs":[{"indexed":true,"internalType":"bytes32","name":"requestId","type":"bytes32"}],"name":"TestRequestSent","type":"event"},{"anonymous":false,"inputs":[{"indexed":true,"internalType":"bytes32","name":"requestId","type":"bytes32"},{"indexed":false,"internalType":"bytes","name":"response","type":"bytes"},{"indexed":false,"internalType":"bytes","name":"err","type":"bytes"}],"name":"TestResponseReceived","type":"event"},{"anonymous":false,"inputs":[],"name":"TestSucceeded","type":"event"},{"inputs":[{"internalType":"bytes32","name":"requestId","type":"bytes32"},{"internalType":"bytes","name":"response","type":"bytes"},{"internalType":"bytes","name":"err","type":"bytes"}],"name":"handleOracleFulfillment","outputs":[],"stateMutability":"nonpayable","type":"function"},{"inputs":[],"name":"lastError","outputs":[{"internalType":"bytes","name":"","type":"bytes"}],"stateMutability":"view","type":"function"},{"inputs":[],"name":"lastResponse","outputs":[{"internalType":"bytes","name":"","type":"bytes"}],"stateMutability":"view","type":"function"},{"inputs":[],"name":"s_donId","outputs":[{"internalType":"bytes32","name":"","type":"bytes32"}],"stateMutability":"view","type":"function"},{"inputs":[],"name":"s_subscriptionId","outputs":[{"internalType":"uint64","name":"","type":"uint64"}],"stateMutability":"view","type":"function"},{"inputs":[],"name":"sendTestRequest","outputs":[{"internalType":"bytes32","name":"requestId","type":"bytes32"}],"stateMutability":"nonpayable","type":"function"},{"inputs":[],"name":"success","outputs":[{"internalType":"bool","name":"","type":"bool"}],"stateMutability":"view","type":"function"}],"evm":{"bytecode":{"linkReferences":{},"object":"60e0346100b7576001600160401b03601f611b2b38819003918201601f1916840191838311858410176100bc578085926060946040528339810103126100b75781516001600160a01b03811692908390036100b757602081015191821682036100b757604001519160805260ff196002541660025560a05260c052604051611a5890816100d3823960805181818161026f0152610c0b015260a05181818160f6015261068a015260c05181818160d401526106c60152f35b600080fd5b634e487b7160e01b600052604160045260246000fdfe6080604052600436101561001257600080fd5b6000803560e01c90816305b1efa01461008a575080630b93381b146100855780630ca761751461008057806329f0de3f1461007b57806362747e42146100765780638ac00021146100715763dfd6edd21461006c57600080fd5b6106ae565b61066a565b6105c5565b6104f1565b61021f565b61014a565b3461014757806003193601126101475760209061011b6100d26100ab6106e9565b6100bc6100b6610732565b82610b51565b6100cd6100c76107d2565b82610b7a565b61097e565b7f0000000000000000000000000000000000000000000000000000000000000000907f000000000000000000000000000000000000000000000000000000000000000090610bb4565b807ffafbbe20938ef3c09f278e0dbfe31c7be453e66fcd0ac313e24aef8387ab81306040519380a28152f35b80fd5b3461016d57600036600319011261016d57602060ff600254166040519015158152f35b600080fd5b634e487b7160e01b600052604160045260246000fd5b604081019081106001600160401b038211176101a357604052565b610172565b90601f801991011681019081106001600160401b038211176101a357604052565b81601f8201121561016d578035906001600160401b0382116101a357604051926101fd601f8401601f1916602001856101a8565b8284526020838301011161016d57816000926020809301838601378301015290565b3461016d57606036600319011261016d576004356001600160401b0360243581811161016d576102539036906004016101c9565b9060443590811161016d5761026c9036906004016101c9565b907f00000000000000000000000000000000000000000000000000000000000000006001600160a01b03163303610451576102a681611838565b6102af82611920565b827f4362d3bb35c11dee54d3f37b628277bc1c19f566c97aad81c5e4eb6fad56cf90604051806102e08686836119ed565b0390a2815115610356575061032b7fec3dd89a2232b0472e152c6218e795a6f13e2a09009c7e8fc9c031a950bdaf2c9161031f60ff1960025416600255565b604051918291826104dd565b0390a15b7f85e1543bf2f84fe80c6badbce3648c8539ad1df4d2b3d822938ca0538be727e6600080a2005b805160201491508161041d575b50156103a55761037b600160ff196002541617600255565b7f130883a15e34665cd39c00a220f8b46467235c2470811f8322d2e8c0bc0a2e1f600080a161032f565b6103b460ff1960025416600255565b7fec3dd89a2232b0472e152c6218e795a6f13e2a09009c7e8fc9c031a950bdaf2c604051806104158160609060208152601a60208201527f556e657870656374656420726573706f6e736520666f726d617400000000000060408201520190565b0390a161032f565b600160f81b91506001600160f81b0319906104499061043b90611a12565b516001600160f81b03191690565b161438610363565b60405163c6829f8360e01b8152600490fd5b90600182811c92168015610493575b602083101461047d57565b634e487b7160e01b600052602260045260246000fd5b91607f1691610472565b919082519283825260005b8481106104c9575050826000602080949584010152601f8019910116010190565b6020818301810151848301820152016104a8565b9060206104ee92818152019061049d565b90565b3461016d57600080600319360112610147576040519080600180549161051683610463565b8086529282811690811561059b5750600114610541575b61053d8561031f818703826101a8565b0390f35b92508083527fb10e2d527612073b26eecdfd717e6a320cf44b4afac2b0732d9fcbe2b7fa0cf65b82841061058357505050810160200161031f8261053d61052d565b80546020858701810191909152909301928101610568565b86955061053d9693506020925061031f94915060ff191682840152151560051b820101929361052d565b3461016d5760008060031936011261014757604051908080546105e781610463565b8085529160019180831690811561059b57506001146106105761053d8561031f818703826101a8565b80809450527f290decd9548b62a8d60345a988386fc84ba6bc95484008f6362f93160ef3e5635b82841061065257505050810160200161031f8261053d61052d565b80546020858701810191909152909301928101610637565b3461016d57600036600319011261016d5760206040516001600160401b037f0000000000000000000000000000000000000000000000000000000000000000168152f35b3461016d57600036600319011261016d5760206040517f00000000000000000000000000000000000000000000000000000000000000008152f35b6040519060e082018281106001600160401b038211176101a357604052606060c08360008152600060208201526000604082015282808201528260808201528260a08201520152565b6040519060a082018281106001600160401b038211176101a35760405260628252613b7d60f01b6080837f66756e6374696f6e2068616e646c6572287265717565737429207b2020636f6e60208201527f737420627566666572203d204275666665722e616c6c6f632833322c2030293b60408201527f20206275666665725b33315d203d20313b202072657475726e2062756666657260608201520152565b604051602081018181106001600160401b038211176101a3576040526000815290565b6040519061080282610188565b600c82526b31b7b232a637b1b0ba34b7b760a11b6020830152565b634e487b7160e01b600052602160045260246000fd5b6003111561083d57565b61081d565b6040519061084f82610188565b60088252676c616e677561676560c01b6020830152565b6001111561083d57565b6040519061087d82610188565b6006825265736f7572636560d01b6020830152565b6040519061089f82610188565b60048252636172677360e01b6020830152565b634e487b7160e01b600052601160045260246000fd5b60001981146108d75760010190565b6108b2565b634e487b7160e01b600052603260045260246000fd5b80518210156109065760209160051b010190565b6108dc565b6040519061091882610188565b600f82526e39b2b1b932ba39a637b1b0ba34b7b760891b6020830152565b6040519061094382610188565b60078252667365637265747360c81b6020830152565b6040519061096682610188565b600982526862797465734172677360b81b6020830152565b610986610cbb565b906109986109926107f5565b83611415565b6109b581516109a681610833565b6109af81610833565b83610d87565b6109c0610992610842565b6109da60408201516109d181610866565b6109af81610866565b6109e5610992610870565b6109f3606082015183611415565b60a08101805151610af8575b506080810190815151610a78575b60c0915001805151610a20575b50515190565b91610a2c610992610959565b610a3582611499565b60005b83518051821015610a655790610a5b610a5482610a60946108f2565b5185611360565b6108c8565b610a38565b50509150610a7281611525565b38610a1a565b602081018051610a8781610833565b610a9081610833565b15610ae65760c092610ac9610ae192610ab0610aaa61090b565b88611415565b51610aba81610833565b610ac381610833565b86610d87565b610ada610ad4610936565b86611415565b5184611360565b610a0d565b60405163a80d31f760e01b8152600490fd5b92610b0a610b04610892565b84611415565b610b1383611499565b60005b84518051821015610b3e5790610a5b610b3282610b39946108f2565b5186611415565b610b16565b50509250610b4b82611525565b386109ff565b815115610b68576000808252604082015260600152565b6040516322ce3edd60e01b8152600490fd5b815115610b875760a00152565b60405163fe936cb760e01b8152600490fd5b9081602091031261016d575190565b6040513d6000823e3d90fd5b916020916001600160401b0391610bed604051958694859463230e93b160e11b865216600485015260a0602485015260a484019061049d565b60016044840152620493e060648401526084830191909152038160007f00000000000000000000000000000000000000000000000000000000000000006001600160a01b03165af1908115610c9c57600091610c6e575b50807f1131472297a800fee664d1d89cfa8f7676ff07189ecc53f80bbb5f4969099db8600080a290565b610c8f915060203d8111610c95575b610c8781836101a8565b810190610b99565b38610c44565b503d610c7d565b610ba8565b60405190610cae82610188565b6000602083606081520152565b604051610cc781610188565b610ccf610ca1565b8082526020820160008152610ce2610ca1565b50610100602083015260405180925260008252610120820191821061016d576000916040525290565b601f198101919082116108d757565b90602082018092116108d757565b919082018092116108d757565b90610d3e610ca1565b50601f811680610d6d575b508060208301526040519081835260008252810160200190811061016d5760405290565b602003602081116108d75781018091116108d75738610d49565b90815191610d93610ca1565b5082515160018101908181116108d7576020850151811015610dee575b60c26020610de49651928301015380518211610de6575b505060405191602083015260208252610ddf82610188565b611360565b565b523880610dc7565b8160011b94828604600214831517156108d757602081610e20610de498610e1960c295519184610d35565b50826112a8565b5096505050610db0565b908160011b91808304600214901517156108d757565b610e48610ca1565b5080515160018101908181116108d7576020830151811015610e81575b605b60208451928301015380518211610e7d57505090565b5290565b8160011b828104600214831517156108d757610eaa90610ea385519186610d35565b50846112a8565b50610e65565b610eb8610ca1565b5080515160018101908181116108d7576020830151811015610eed575b605a60208451928301015380518211610e7d57505090565b8160011b828104600214831517156108d757610f0f90610ea385519186610d35565b50610ed5565b610f1d610ca1565b5080515160018101908181116108d7576020830151811015610f52575b605960208451928301015380518211610e7d57505090565b8160011b828104600214831517156108d757610f7490610ea385519186610d35565b50610f3a565b610f82610ca1565b5080515160018101908181116108d7576020830151811015610fb7575b605860208451928301015380518211610e7d57505090565b8160011b828104600214831517156108d757610fd990610ea385519186610d35565b50610f9f565b610fe7610ca1565b5080515160018101908181116108d757602083015181101561101c575b607b60208451928301015380518211610e7d57505090565b8160011b828104600214831517156108d75761103e90610ea385519186610d35565b50611004565b61104c610ca1565b5080515160018101908181116108d7576020830151811015611081575b607a60208451928301015380518211610e7d57505090565b8160011b828104600214831517156108d7576110a390610ea385519186610d35565b50611069565b6110b1610ca1565b5080515160018101908181116108d75760208301518110156110e6575b607960208451928301015380518211610e7d57505090565b8160011b828104600214831517156108d75761110890610ea385519186610d35565b506110ce565b611116610ca1565b5080515160018101908181116108d757602083015181101561114b575b607860208451928301015380518211610e7d57505090565b8160011b828104600214831517156108d75761116d90610ea385519186610d35565b50611133565b9061117c610ca1565b5081515160018101918282116108d75760208401518210156111af575b60208451928301015380518211610e7d57505090565b8260011b838104600214841517156108d7576111d8906111d186519187610d35565b50856112a8565b50611199565b906111eb82519183610d35565b506111f4610ca1565b50805190611200610ca1565b5061120e8151831115611359565b8251519261121c8385610d28565b916020928284809401518211611291575b5183815197820101968211611289575b505001915b818110156112635760001991036101000a0190811990511690825116179052565b919261127e6112786112849286518152610d1a565b94610d1a565b92610d0b565b611242565b52388061123d565b6112a361129d83610e2a565b826111de565b61122d565b906112b1610ca1565b5080516112bc610ca1565b506112ca8251821115611359565b825151916112d88284610d28565b6020918291828701518111611342575b86518381519782010196821161133a575b505001915b818110156113205760001991036101000a019081199051169082511617905290565b919261127e6112786113359286518152610d1a565b6112fe565b5238806112f9565b61135461134e82610e2a565b886111de565b6112e8565b1561016d57565b81516113979291906001600160401b038116906017821161139a5761138f9150604060ff845192161790611173565b505b516112a8565b50565b5060ff81116113bf576113b9906113b18351610f7a565b5082516116ee565b50611391565b61ffff81116113de576113b9906113d68351610f15565b508251611687565b63ffffffff81116113ff576113b9906113f78351610eb0565b50825161161e565b6113b99061140d8351610e40565b5082516115b2565b81516113979291906001600160401b03811690601782116114445761138f9150606060ff845192161790611173565b5060ff811161145b576113b9906113b1835161110e565b61ffff8111611472576113b9906113d683516110a9565b63ffffffff811161148b576113b9906113f78351611044565b6113b99061140d8351610fdf565b8051906114a4610ca1565b5081515160018101908181116108d75760208401518110156114f2575b609f60208095519283010153805182116114ea575b505001805190600182018092116108d75752565b5238806114d6565b8160011b93828504600214831517156108d75760208161151b8297610e19609f95519184610d35565b50955050506114c1565b805190611530610ca1565b5081515160018101908181116108d757602084015181101561157f575b60ff6020809551928301015380518211611577575b50500180516000198101919082116108d75752565b523880611562565b8160011b93828504600214831517156108d7576020816115a88297610e1960ff95519184610d35565b509550505061154d565b906115bb610ca1565b508151518060080191826008116108d757602084015183116115fd575b6008845192830101906001600160401b031982511617905280518211610e7d57505090565b8260011b838104600214841517156108d75761161990856111de565b6115d8565b90611627610ca1565b508151518060040191826004116108d75760208401518311611666575b60048451928301019063ffffffff1982511617905280518211610e7d57505090565b8260011b838104600214841517156108d75761168290856111de565b611644565b90611690610ca1565b508151518060020191826002116108d757602084015183116116cd575b60028451928301019061ffff1982511617905280518211610e7d57505090565b8260011b838104600214841517156108d7576116e990856111de565b6116ad565b906116f7610ca1565b508151518060010191826001116108d75760208401518311611733575b60018451928301019060ff1982511617905280518211610e7d57505090565b8260011b838104600214841517156108d75761174f90856111de565b611714565b601f8111611760575050565b6000908180527f290decd9548b62a8d60345a988386fc84ba6bc95484008f6362f93160ef3e563906020601f850160051c830194106117ba575b601f0160051c01915b8281106117af57505050565b8181556001016117a3565b909250829061179a565b90601f82116117d1575050565b6001916000908382527fb10e2d527612073b26eecdfd717e6a320cf44b4afac2b0732d9fcbe2b7fa0cf6906020601f850160051c8301941061182e575b601f0160051c01915b8281106118245750505050565b8181558301611817565b909250829061180e565b9081516001600160401b0381116101a35760009061185f8161185a8454610463565b611754565b602080601f831160011461189a575082939482939261188f575b50508160011b916000199060031b1c1916179055565b015190503880611879565b90601f198316956118cc600080527f290decd9548b62a8d60345a988386fc84ba6bc95484008f6362f93160ef3e56390565b9285905b888210611908575050836001959697106118ef575b505050811b019055565b015160001960f88460031b161c191690553880806118e5565b806001859682949686015181550195019301906118d0565b9081516001600160401b0381116101a357600190611947816119428454610463565b6117c4565b602080601f8311600114611982575081929394600092611977575b5050600019600383901b1c191690821b179055565b015190503880611962565b90601f198316956119b560016000527fb10e2d527612073b26eecdfd717e6a320cf44b4afac2b0732d9fcbe2b7fa0cf690565b926000905b8882106119d657505083859697106118ef57505050811b019055565b8087859682949686015181550195019301906119ba565b9091611a046104ee9360408452604084019061049d565b91602081840391015261049d565b8051601f101561090657603f019056fea264697066735822122002559161e6457526477b8f55fae84ff4f6020880e84084df435c20b1daa8012764736f6c63430008140033","opcodes":"PUSH1 0xE0 CALLVALUE PUSH2 0xB7 JUMPI PUSH1 0x1 PUSH1 0x1 PUSH1 0x40 SHL SUB PUSH1 0x1F PUSH2 0x1B2B CODESIZE DUP2 SWAP1 SUB SWAP2 DUP3 ADD PUSH1 0x1F NOT AND DUP5 ADD SWAP2 DUP4 DUP4 GT DUP6 DUP5 LT OR PUSH2 0xBC JUMPI DUP1 DUP6 SWAP3 PUSH1 0x60 SWAP5 PUSH1 0x40 MSTORE DUP4 CODECOPY DUP2 ADD SUB SLT PUSH2 0xB7 JUMPI DUP2 MLOAD PUSH1 0x1 PUSH1 0x1 PUSH1 0xA0 SHL SUB DUP2 AND SWAP3 SWAP1 DUP4 SWAP1 SUB PUSH2 0xB7 JUMPI PUSH1 0x20 DUP2 ADD MLOAD SWAP2 DUP3 AND DUP3 SUB PUSH2 0xB7 JUMPI PUSH1 0x40 ADD MLOAD SWAP2 PUSH1 0x80 MSTORE PUSH1 0xFF NOT PUSH1 0x2 SLOAD AND PUSH1 0x2 SSTORE PUSH1 0xA0 MSTORE PUSH1 0xC0 MSTORE PUSH1 0x40 MLOAD PUSH2 0x1A58 SWAP1 DUP2 PUSH2 0xD3 DUP3 CODECOPY PUSH1 0x80 MLOAD DUP2 DUP2 DUP2 PUSH2 0x26F ADD MSTORE PUSH2 0xC0B ADD MSTORE PUSH1 0xA0 MLOAD DUP2 DUP2 DUP2 PUSH1 0xF6 ADD MSTORE PUSH2 0x68A ADD MSTORE PUSH1 0xC0 MLOAD DUP2 DUP2 DUP2 PUSH1 0xD4 ADD MSTORE PUSH2 0x6C6 ADD MSTORE RETURN JUMPDEST PUSH1 0x0 DUP1 REVERT JUMPDEST PUSH4 0x4E487B71 PUSH1 0xE0 SHL PUSH1 0x0 MSTORE PUSH1 0x41 PUSH1 0x4 MSTORE PUSH1 0x24 PUSH1 0x0 REVERT INVALID PUSH1 0x80 PUSH1 0x40 MSTORE PUSH1 0x4 CALLDATASIZE LT ISZERO PUSH2 0x12 JUMPI PUSH1 0x0 DUP1 REVERT JUMPDEST PUSH1 0x0 DUP1 CALLDATALOAD PUSH1 0xE0 SHR SWAP1 DUP2 PUSH4 0x5B1EFA0 EQ PUSH2 0x8A JUMPI POP DUP1 PUSH4 0xB93381B EQ PUSH2 0x85 JUMPI DUP1 PUSH4 0xCA76175 EQ PUSH2 0x80 JUMPI DUP1 PUSH4 0x29F0DE3F EQ PUSH2 0x7B JUMPI DUP1 PUSH4 0x62747E42 EQ PUSH2 0x76 JUMPI DUP1 PUSH4 0x8AC00021 EQ PUSH2 0x71 JUMPI PUSH4 0xDFD6EDD2 EQ PUSH2 0x6C JUMPI PUSH1 0x0 DUP1 REVERT JUMPDEST PUSH2 0x6AE JUMP JUMPDEST PUSH2 0x66A JUMP JUMPDEST PUSH2 0x5C5 JUMP JUMPDEST PUSH2 0x4F1 JUMP JUMPDEST PUSH2 0x21F JUMP JUMPDEST PUSH2 0x14A JUMP JUMPDEST CALLVALUE PUSH2 0x147 JUMPI DUP1 PUSH1 0x3 NOT CALLDATASIZE ADD SLT PUSH2 0x147 JUMPI PUSH1 0x20 SWAP1 PUSH2 0x11B PUSH2 0xD2 PUSH2 0xAB PUSH2 0x6E9 JUMP JUMPDEST PUSH2 0xBC PUSH2 0xB6 PUSH2 0x732 JUMP JUMPDEST DUP3 PUSH2 0xB51 JUMP JUMPDEST PUSH2 0xCD PUSH2 0xC7 PUSH2 0x7D2 JUMP JUMPDEST DUP3 PUSH2 0xB7A JUMP JUMPDEST PUSH2 0x97E JUMP JUMPDEST PUSH32 0x0 SWAP1 PUSH32 0x0 SWAP1 PUSH2 0xBB4 JUMP JUMPDEST DUP1 PUSH32 0xFAFBBE20938EF3C09F278E0DBFE31C7BE453E66FCD0AC313E24AEF8387AB8130 PUSH1 0x40 MLOAD SWAP4 DUP1 LOG2 DUP2 MSTORE RETURN JUMPDEST DUP1 REVERT JUMPDEST CALLVALUE PUSH2 0x16D JUMPI PUSH1 0x0 CALLDATASIZE PUSH1 0x3 NOT ADD SLT PUSH2 0x16D JUMPI PUSH1 0x20 PUSH1 0xFF PUSH1 0x2 SLOAD AND PUSH1 0x40 MLOAD SWAP1 ISZERO ISZERO DUP2 MSTORE RETURN JUMPDEST PUSH1 0x0 DUP1 REVERT JUMPDEST PUSH4 0x4E487B71 PUSH1 0xE0 SHL PUSH1 0x0 MSTORE PUSH1 0x41 PUSH1 0x4 MSTORE PUSH1 0x24 PUSH1 0x0 REVERT JUMPDEST PUSH1 0x40 DUP2 ADD SWAP1 DUP2 LT PUSH1 0x1 PUSH1 0x1 PUSH1 0x40 SHL SUB DUP3 GT OR PUSH2 0x1A3 JUMPI PUSH1 0x40 MSTORE JUMP JUMPDEST PUSH2 0x172 JUMP JUMPDEST SWAP1 PUSH1 0x1F DUP1 NOT SWAP2 ADD AND DUP2 ADD SWAP1 DUP2 LT PUSH1 0x1 PUSH1 0x1 PUSH1 0x40 SHL SUB DUP3 GT OR PUSH2 0x1A3 JUMPI PUSH1 0x40 MSTORE JUMP JUMPDEST DUP2 PUSH1 0x1F DUP3 ADD SLT ISZERO PUSH2 0x16D JUMPI DUP1 CALLDATALOAD SWAP1 PUSH1 0x1 PUSH1 0x1 PUSH1 0x40 SHL SUB DUP3 GT PUSH2 0x1A3 JUMPI PUSH1 0x40 MLOAD SWAP3 PUSH2 0x1FD PUSH1 0x1F DUP5 ADD PUSH1 0x1F NOT AND PUSH1 0x20 ADD DUP6 PUSH2 0x1A8 JUMP JUMPDEST DUP3 DUP5 MSTORE PUSH1 0x20 DUP4 DUP4 ADD ADD GT PUSH2 0x16D JUMPI DUP2 PUSH1 0x0 SWAP3 PUSH1 0x20 DUP1 SWAP4 ADD DUP4 DUP7 ADD CALLDATACOPY DUP4 ADD ADD MSTORE SWAP1 JUMP JUMPDEST CALLVALUE PUSH2 0x16D JUMPI PUSH1 0x60 CALLDATASIZE PUSH1 0x3 NOT ADD SLT PUSH2 0x16D JUMPI PUSH1 0x4 CALLDATALOAD PUSH1 0x1 PUSH1 0x1 PUSH1 0x40 SHL SUB PUSH1 0x24 CALLDATALOAD DUP2 DUP2 GT PUSH2 0x16D JUMPI PUSH2 0x253 SWAP1 CALLDATASIZE SWAP1 PUSH1 0x4 ADD PUSH2 0x1C9 JUMP JUMPDEST SWAP1 PUSH1 0x44 CALLDATALOAD SWAP1 DUP2 GT PUSH2 0x16D JUMPI PUSH2 0x26C SWAP1 CALLDATASIZE SWAP1 PUSH1 0x4 ADD PUSH2 0x1C9 JUMP JUMPDEST SWAP1 PUSH32 0x0 PUSH1 0x1 PUSH1 0x1 PUSH1 0xA0 SHL SUB AND CALLER SUB PUSH2 0x451 JUMPI PUSH2 0x2A6 DUP2 PUSH2 0x1838 JUMP JUMPDEST PUSH2 0x2AF DUP3 PUSH2 0x1920 JUMP JUMPDEST DUP3 PUSH32 0x4362D3BB35C11DEE54D3F37B628277BC1C19F566C97AAD81C5E4EB6FAD56CF90 PUSH1 0x40 MLOAD DUP1 PUSH2 0x2E0 DUP7 DUP7 DUP4 PUSH2 0x19ED JUMP JUMPDEST SUB SWAP1 LOG2 DUP2 MLOAD ISZERO PUSH2 0x356 JUMPI POP PUSH2 0x32B PUSH32 0xEC3DD89A2232B0472E152C6218E795A6F13E2A09009C7E8FC9C031A950BDAF2C SWAP2 PUSH2 0x31F PUSH1 0xFF NOT PUSH1 0x2 SLOAD AND PUSH1 0x2 SSTORE JUMP JUMPDEST PUSH1 0x40 MLOAD SWAP2 DUP3 SWAP2 DUP3 PUSH2 0x4DD JUMP JUMPDEST SUB SWAP1 LOG1 JUMPDEST PUSH32 0x85E1543BF2F84FE80C6BADBCE3648C8539AD1DF4D2B3D822938CA0538BE727E6 PUSH1 0x0 DUP1 LOG2 STOP JUMPDEST DUP1 MLOAD PUSH1 0x20 EQ SWAP2 POP DUP2 PUSH2 0x41D JUMPI JUMPDEST POP ISZERO PUSH2 0x3A5 JUMPI PUSH2 0x37B PUSH1 0x1 PUSH1 0xFF NOT PUSH1 0x2 SLOAD AND OR PUSH1 0x2 SSTORE JUMP JUMPDEST PUSH32 0x130883A15E34665CD39C00A220F8B46467235C2470811F8322D2E8C0BC0A2E1F PUSH1 0x0 DUP1 LOG1 PUSH2 0x32F JUMP JUMPDEST PUSH2 0x3B4 PUSH1 0xFF NOT PUSH1 0x2 SLOAD AND PUSH1 0x2 SSTORE JUMP JUMPDEST PUSH32 0xEC3DD89A2232B0472E152C6218E795A6F13E2A09009C7E8FC9C031A950BDAF2C PUSH1 0x40 MLOAD DUP1 PUSH2 0x415 DUP2 PUSH1 0x60 SWAP1 PUSH1 0x20 DUP2 MSTORE PUSH1 0x1A PUSH1 0x20 DUP3 ADD MSTORE PUSH32 0x556E657870656374656420726573706F6E736520666F726D6174000000000000 PUSH1 0x40 DUP3 ADD MSTORE ADD SWAP1 JUMP JUMPDEST SUB SWAP1 LOG1 PUSH2 0x32F JUMP JUMPDEST PUSH1 0x1 PUSH1 0xF8 SHL SWAP2 POP PUSH1 0x1 PUSH1 0x1 PUSH1 0xF8 SHL SUB NOT SWAP1 PUSH2 0x449 SWAP1 PUSH2 0x43B SWAP1 PUSH2 0x1A12 JUMP JUMPDEST MLOAD PUSH1 0x1 PUSH1 0x1 PUSH1 0xF8 SHL SUB NOT AND SWAP1 JUMP JUMPDEST AND EQ CODESIZE PUSH2 0x363 JUMP JUMPDEST PUSH1 0x40 MLOAD PUSH4 0xC6829F83 PUSH1 0xE0 SHL DUP2 MSTORE PUSH1 0x4 SWAP1 REVERT JUMPDEST SWAP1 PUSH1 0x1 DUP3 DUP2 SHR SWAP3 AND DUP1 ISZERO PUSH2 0x493 JUMPI JUMPDEST PUSH1 0x20 DUP4 LT EQ PUSH2 0x47D JUMPI JUMP JUMPDEST PUSH4 0x4E487B71 PUSH1 0xE0 SHL PUSH1 0x0 MSTORE PUSH1 0x22 PUSH1 0x4 MSTORE PUSH1 0x24 PUSH1 0x0 REVERT JUMPDEST SWAP2 PUSH1 0x7F AND SWAP2 PUSH2 0x472 JUMP JUMPDEST SWAP2 SWAP1 DUP3 MLOAD SWAP3 DUP4 DUP3 MSTORE PUSH1 0x0 JUMPDEST DUP5 DUP2 LT PUSH2 0x4C9 JUMPI POP POP DUP3 PUSH1 0x0 PUSH1 0x20 DUP1 SWAP5 SWAP6 DUP5 ADD ADD MSTORE PUSH1 0x1F DUP1 NOT SWAP2 ADD AND ADD ADD SWAP1 JUMP JUMPDEST PUSH1 0x20 DUP2 DUP4 ADD DUP2 ADD MLOAD DUP5 DUP4 ADD DUP3 ADD MSTORE ADD PUSH2 0x4A8 JUMP JUMPDEST SWAP1 PUSH1 0x20 PUSH2 0x4EE SWAP3 DUP2 DUP2 MSTORE ADD SWAP1 PUSH2 0x49D JUMP JUMPDEST SWAP1 JUMP JUMPDEST CALLVALUE PUSH2 0x16D JUMPI PUSH1 0x0 DUP1 PUSH1 0x3 NOT CALLDATASIZE ADD SLT PUSH2 0x147 JUMPI PUSH1 0x40 MLOAD SWAP1 DUP1 PUSH1 0x1 DUP1 SLOAD SWAP2 PUSH2 0x516 DUP4 PUSH2 0x463 JUMP JUMPDEST DUP1 DUP7 MSTORE SWAP3 DUP3 DUP2 AND SWAP1 DUP2 ISZERO PUSH2 0x59B JUMPI POP PUSH1 0x1 EQ PUSH2 0x541 JUMPI JUMPDEST PUSH2 0x53D DUP6 PUSH2 0x31F DUP2 DUP8 SUB DUP3 PUSH2 0x1A8 JUMP JUMPDEST SUB SWAP1 RETURN JUMPDEST SWAP3 POP DUP1 DUP4 MSTORE PUSH32 0xB10E2D527612073B26EECDFD717E6A320CF44B4AFAC2B0732D9FCBE2B7FA0CF6 JUMPDEST DUP3 DUP5 LT PUSH2 0x583 JUMPI POP POP POP DUP2 ADD PUSH1 0x20 ADD PUSH2 0x31F DUP3 PUSH2 0x53D PUSH2 0x52D JUMP JUMPDEST DUP1 SLOAD PUSH1 0x20 DUP6 DUP8 ADD DUP2 ADD SWAP2 SWAP1 SWAP2 MSTORE SWAP1 SWAP4 ADD SWAP3 DUP2 ADD PUSH2 0x568 JUMP JUMPDEST DUP7 SWAP6 POP PUSH2 0x53D SWAP7 SWAP4 POP PUSH1 0x20 SWAP3 POP PUSH2 0x31F SWAP5 SWAP2 POP PUSH1 0xFF NOT AND DUP3 DUP5 ADD MSTORE ISZERO ISZERO PUSH1 0x5 SHL DUP3 ADD ADD SWAP3 SWAP4 PUSH2 0x52D JUMP JUMPDEST CALLVALUE PUSH2 0x16D JUMPI PUSH1 0x0 DUP1 PUSH1 0x3 NOT CALLDATASIZE ADD SLT PUSH2 0x147 JUMPI PUSH1 0x40 MLOAD SWAP1 DUP1 DUP1 SLOAD PUSH2 0x5E7 DUP2 PUSH2 0x463 JUMP JUMPDEST DUP1 DUP6 MSTORE SWAP2 PUSH1 0x1 SWAP2 DUP1 DUP4 AND SWAP1 DUP2 ISZERO PUSH2 0x59B JUMPI POP PUSH1 0x1 EQ PUSH2 0x610 JUMPI PUSH2 0x53D DUP6 PUSH2 0x31F DUP2 DUP8 SUB DUP3 PUSH2 0x1A8 JUMP JUMPDEST DUP1 DUP1 SWAP5 POP MSTORE PUSH32 0x290DECD9548B62A8D60345A988386FC84BA6BC95484008F6362F93160EF3E563 JUMPDEST DUP3 DUP5 LT PUSH2 0x652 JUMPI POP POP POP DUP2 ADD PUSH1 0x20 ADD PUSH2 0x31F DUP3 PUSH2 0x53D PUSH2 0x52D JUMP JUMPDEST DUP1 SLOAD PUSH1 0x20 DUP6 DUP8 ADD DUP2 ADD SWAP2 SWAP1 SWAP2 MSTORE SWAP1 SWAP4 ADD SWAP3 DUP2 ADD PUSH2 0x637 JUMP JUMPDEST CALLVALUE PUSH2 0x16D JUMPI PUSH1 0x0 CALLDATASIZE PUSH1 0x3 NOT ADD SLT PUSH2 0x16D JUMPI PUSH1 0x20 PUSH1 0x40 MLOAD PUSH1 0x1 PUSH1 0x1 PUSH1 0x40 SHL SUB PUSH32 0x0 AND DUP2 MSTORE RETURN JUMPDEST CALLVALUE PUSH2 0x16D JUMPI PUSH1 0x0 CALLDATASIZE PUSH1 0x3 NOT ADD SLT PUSH2 0x16D JUMPI PUSH1 0x20 PUSH1 0x40 MLOAD PUSH32 0x0 DUP2 MSTORE RETURN JUMPDEST PUSH1 0x40 MLOAD SWAP1 PUSH1 0xE0 DUP3 ADD DUP3 DUP2 LT PUSH1 0x1 PUSH1 0x1 PUSH1 0x40 SHL SUB DUP3 GT OR PUSH2 0x1A3 JUMPI PUSH1 0x40 MSTORE PUSH1 0x60 PUSH1 0xC0 DUP4 PUSH1 0x0 DUP2 MSTORE PUSH1 0x0 PUSH1 0x20 DUP3 ADD MSTORE PUSH1 0x0 PUSH1 0x40 DUP3 ADD MSTORE DUP3 DUP1 DUP3 ADD MSTORE DUP3 PUSH1 0x80 DUP3 ADD MSTORE DUP3 PUSH1 0xA0 DUP3 ADD MSTORE ADD MSTORE JUMP JUMPDEST PUSH1 0x40 MLOAD SWAP1 PUSH1 0xA0 DUP3 ADD DUP3 DUP2 LT PUSH1 0x1 PUSH1 0x1 PUSH1 0x40 SHL SUB DUP3 GT OR PUSH2 0x1A3 JUMPI PUSH1 0x40 MSTORE PUSH1 0x62 DUP3 MSTORE PUSH2 0x3B7D PUSH1 0xF0 SHL PUSH1 0x80 DUP4 PUSH32 0x66756E6374696F6E2068616E646C6572287265717565737429207B2020636F6E PUSH1 0x20 DUP3 ADD MSTORE PUSH32 0x737420627566666572203D204275666665722E616C6C6F632833322C2030293B PUSH1 0x40 DUP3 ADD MSTORE PUSH32 0x20206275666665725B33315D203D20313B202072657475726E20627566666572 PUSH1 0x60 DUP3 ADD MSTORE ADD MSTORE JUMP JUMPDEST PUSH1 0x40 MLOAD PUSH1 0x20 DUP2 ADD DUP2 DUP2 LT PUSH1 0x1 PUSH1 0x1 PUSH1 0x40 SHL SUB DUP3 GT OR PUSH2 0x1A3 JUMPI PUSH1 0x40 MSTORE PUSH1 0x0 DUP2 MSTORE SWAP1 JUMP JUMPDEST PUSH1 0x40 MLOAD SWAP1 PUSH2 0x802 DUP3 PUSH2 0x188 JUMP JUMPDEST PUSH1 0xC DUP3 MSTORE PUSH12 0x31B7B232A637B1B0BA34B7B7 PUSH1 0xA1 SHL PUSH1 0x20 DUP4 ADD MSTORE JUMP JUMPDEST PUSH4 0x4E487B71 PUSH1 0xE0 SHL PUSH1 0x0 MSTORE PUSH1 0x21 PUSH1 0x4 MSTORE PUSH1 0x24 PUSH1 0x0 REVERT JUMPDEST PUSH1 0x3 GT ISZERO PUSH2 0x83D JUMPI JUMP JUMPDEST PUSH2 0x81D JUMP JUMPDEST PUSH1 0x40 MLOAD SWAP1 PUSH2 0x84F DUP3 PUSH2 0x188 JUMP JUMPDEST PUSH1 0x8 DUP3 MSTORE PUSH8 0x6C616E6775616765 PUSH1 0xC0 SHL PUSH1 0x20 DUP4 ADD MSTORE JUMP JUMPDEST PUSH1 0x1 GT ISZERO PUSH2 0x83D JUMPI JUMP JUMPDEST PUSH1 0x40 MLOAD SWAP1 PUSH2 0x87D DUP3 PUSH2 0x188 JUMP JUMPDEST PUSH1 0x6 DUP3 MSTORE PUSH6 0x736F75726365 PUSH1 0xD0 SHL PUSH1 0x20 DUP4 ADD MSTORE JUMP JUMPDEST PUSH1 0x40 MLOAD SWAP1 PUSH2 0x89F DUP3 PUSH2 0x188 JUMP JUMPDEST PUSH1 0x4 DUP3 MSTORE PUSH4 0x61726773 PUSH1 0xE0 SHL PUSH1 0x20 DUP4 ADD MSTORE JUMP JUMPDEST PUSH4 0x4E487B71 PUSH1 0xE0 SHL PUSH1 0x0 MSTORE PUSH1 0x11 PUSH1 0x4 MSTORE PUSH1 0x24 PUSH1 0x0 REVERT JUMPDEST PUSH1 0x0 NOT DUP2 EQ PUSH2 0x8D7 JUMPI PUSH1 0x1 ADD SWAP1 JUMP JUMPDEST PUSH2 0x8B2 JUMP JUMPDEST PUSH4 0x4E487B71 PUSH1 0xE0 SHL PUSH1 0x0 MSTORE PUSH1 0x32 PUSH1 0x4 MSTORE PUSH1 0x24 PUSH1 0x0 REVERT JUMPDEST DUP1 MLOAD DUP3 LT ISZERO PUSH2 0x906 JUMPI PUSH1 0x20 SWAP2 PUSH1 0x5 SHL ADD ADD SWAP1 JUMP JUMPDEST PUSH2 0x8DC JUMP JUMPDEST PUSH1 0x40 MLOAD SWAP1 PUSH2 0x918 DUP3 PUSH2 0x188 JUMP JUMPDEST PUSH1 0xF DUP3 MSTORE PUSH15 0x39B2B1B932BA39A637B1B0BA34B7B7 PUSH1 0x89 SHL PUSH1 0x20 DUP4 ADD MSTORE JUMP JUMPDEST PUSH1 0x40 MLOAD SWAP1 PUSH2 0x943 DUP3 PUSH2 0x188 JUMP JUMPDEST PUSH1 0x7 DUP3 MSTORE PUSH7 0x73656372657473 PUSH1 0xC8 SHL PUSH1 0x20 DUP4 ADD MSTORE JUMP JUMPDEST PUSH1 0x40 MLOAD SWAP1 PUSH2 0x966 DUP3 PUSH2 0x188 JUMP JUMPDEST PUSH1 0x9 DUP3 MSTORE PUSH9 0x627974657341726773 PUSH1 0xB8 SHL PUSH1 0x20 DUP4 ADD MSTORE JUMP JUMPDEST PUSH2 0x986 PUSH2 0xCBB JUMP JUMPDEST SWAP1 PUSH2 0x998 PUSH2 0x992 PUSH2 0x7F5 JUMP JUMPDEST DUP4 PUSH2 0x1415 JUMP JUMPDEST PUSH2 0x9B5 DUP2 MLOAD PUSH2 0x9A6 DUP2 PUSH2 0x833 JUMP JUMPDEST PUSH2 0x9AF DUP2 PUSH2 0x833 JUMP JUMPDEST DUP4 PUSH2 0xD87 JUMP JUMPDEST PUSH2 0x9C0 PUSH2 0x992 PUSH2 0x842 JUMP JUMPDEST PUSH2 0x9DA PUSH1 0x40 DUP3 ADD MLOAD PUSH2 0x9D1 DUP2 PUSH2 0x866 JUMP JUMPDEST PUSH2 0x9AF DUP2 PUSH2 0x866 JUMP JUMPDEST PUSH2 0x9E5 PUSH2 0x992 PUSH2 0x870 JUMP JUMPDEST PUSH2 0x9F3 PUSH1 0x60 DUP3 ADD MLOAD DUP4 PUSH2 0x1415 JUMP JUMPDEST PUSH1 0xA0 DUP2 ADD DUP1 MLOAD MLOAD PUSH2 0xAF8 JUMPI JUMPDEST POP PUSH1 0x80 DUP2 ADD SWAP1 DUP2 MLOAD MLOAD PUSH2 0xA78 JUMPI JUMPDEST PUSH1 0xC0 SWAP2 POP ADD DUP1 MLOAD MLOAD PUSH2 0xA20 JUMPI JUMPDEST POP MLOAD MLOAD SWAP1 JUMP JUMPDEST SWAP2 PUSH2 0xA2C PUSH2 0x992 PUSH2 0x959 JUMP JUMPDEST PUSH2 0xA35 DUP3 PUSH2 0x1499 JUMP JUMPDEST PUSH1 0x0 JUMPDEST DUP4 MLOAD DUP1 MLOAD DUP3 LT ISZERO PUSH2 0xA65 JUMPI SWAP1 PUSH2 0xA5B PUSH2 0xA54 DUP3 PUSH2 0xA60 SWAP5 PUSH2 0x8F2 JUMP JUMPDEST MLOAD DUP6 PUSH2 0x1360 JUMP JUMPDEST PUSH2 0x8C8 JUMP JUMPDEST PUSH2 0xA38 JUMP JUMPDEST POP POP SWAP2 POP PUSH2 0xA72 DUP2 PUSH2 0x1525 JUMP JUMPDEST CODESIZE PUSH2 0xA1A JUMP JUMPDEST PUSH1 0x20 DUP2 ADD DUP1 MLOAD PUSH2 0xA87 DUP2 PUSH2 0x833 JUMP JUMPDEST PUSH2 0xA90 DUP2 PUSH2 0x833 JUMP JUMPDEST ISZERO PUSH2 0xAE6 JUMPI PUSH1 0xC0 SWAP3 PUSH2 0xAC9 PUSH2 0xAE1 SWAP3 PUSH2 0xAB0 PUSH2 0xAAA PUSH2 0x90B JUMP JUMPDEST DUP9 PUSH2 0x1415 JUMP JUMPDEST MLOAD PUSH2 0xABA DUP2 PUSH2 0x833 JUMP JUMPDEST PUSH2 0xAC3 DUP2 PUSH2 0x833 JUMP JUMPDEST DUP7 PUSH2 0xD87 JUMP JUMPDEST PUSH2 0xADA PUSH2 0xAD4 PUSH2 0x936 JUMP JUMPDEST DUP7 PUSH2 0x1415 JUMP JUMPDEST MLOAD DUP5 PUSH2 0x1360 JUMP JUMPDEST PUSH2 0xA0D JUMP JUMPDEST PUSH1 0x40 MLOAD PUSH4 0xA80D31F7 PUSH1 0xE0 SHL DUP2 MSTORE PUSH1 0x4 SWAP1 REVERT JUMPDEST SWAP3 PUSH2 0xB0A PUSH2 0xB04 PUSH2 0x892 JUMP JUMPDEST DUP5 PUSH2 0x1415 JUMP JUMPDEST PUSH2 0xB13 DUP4 PUSH2 0x1499 JUMP JUMPDEST PUSH1 0x0 JUMPDEST DUP5 MLOAD DUP1 MLOAD DUP3 LT ISZERO PUSH2 0xB3E JUMPI SWAP1 PUSH2 0xA5B PUSH2 0xB32 DUP3 PUSH2 0xB39 SWAP5 PUSH2 0x8F2 JUMP JUMPDEST MLOAD DUP7 PUSH2 0x1415 JUMP JUMPDEST PUSH2 0xB16 JUMP JUMPDEST POP POP SWAP3 POP PUSH2 0xB4B DUP3 PUSH2 0x1525 JUMP JUMPDEST CODESIZE PUSH2 0x9FF JUMP JUMPDEST DUP2 MLOAD ISZERO PUSH2 0xB68 JUMPI PUSH1 0x0 DUP1 DUP3 MSTORE PUSH1 0x40 DUP3 ADD MSTORE PUSH1 0x60 ADD MSTORE JUMP JUMPDEST PUSH1 0x40 MLOAD PUSH4 0x22CE3EDD PUSH1 0xE0 SHL DUP2 MSTORE PUSH1 0x4 SWAP1 REVERT JUMPDEST DUP2 MLOAD ISZERO PUSH2 0xB87 JUMPI PUSH1 0xA0 ADD MSTORE JUMP JUMPDEST PUSH1 0x40 MLOAD PUSH4 0xFE936CB7 PUSH1 0xE0 SHL DUP2 MSTORE PUSH1 0x4 SWAP1 REVERT JUMPDEST SWAP1 DUP2 PUSH1 0x20 SWAP2 SUB SLT PUSH2 0x16D JUMPI MLOAD SWAP1 JUMP JUMPDEST PUSH1 0x40 MLOAD RETURNDATASIZE PUSH1 0x0 DUP3 RETURNDATACOPY RETURNDATASIZE SWAP1 REVERT JUMPDEST SWAP2 PUSH1 0x20 SWAP2 PUSH1 0x1 PUSH1 0x1 PUSH1 0x40 SHL SUB SWAP2 PUSH2 0xBED PUSH1 0x40 MLOAD SWAP6 DUP7 SWAP5 DUP6 SWAP5 PUSH4 0x230E93B1 PUSH1 0xE1 SHL DUP7 MSTORE AND PUSH1 0x4 DUP6 ADD MSTORE PUSH1 0xA0 PUSH1 0x24 DUP6 ADD MSTORE PUSH1 0xA4 DUP5 ADD SWAP1 PUSH2 0x49D JUMP JUMPDEST PUSH1 0x1 PUSH1 0x44 DUP5 ADD MSTORE PUSH3 0x493E0 PUSH1 0x64 DUP5 ADD MSTORE PUSH1 0x84 DUP4 ADD SWAP2 SWAP1 SWAP2 MSTORE SUB DUP2 PUSH1 0x0 PUSH32 0x0 PUSH1 0x1 PUSH1 0x1 PUSH1 0xA0 SHL SUB AND GAS CALL SWAP1 DUP2 ISZERO PUSH2 0xC9C JUMPI PUSH1 0x0 SWAP2 PUSH2 0xC6E JUMPI JUMPDEST POP DUP1 PUSH32 0x1131472297A800FEE664D1D89CFA8F7676FF07189ECC53F80BBB5F4969099DB8 PUSH1 0x0 DUP1 LOG2 SWAP1 JUMP JUMPDEST PUSH2 0xC8F SWAP2 POP PUSH1 0x20 RETURNDATASIZE DUP2 GT PUSH2 0xC95 JUMPI JUMPDEST PUSH2 0xC87 DUP2 DUP4 PUSH2 0x1A8 JUMP JUMPDEST DUP2 ADD SWAP1 PUSH2 0xB99 JUMP JUMPDEST CODESIZE PUSH2 0xC44 JUMP JUMPDEST POP RETURNDATASIZE PUSH2 0xC7D JUMP JUMPDEST PUSH2 0xBA8 JUMP JUMPDEST PUSH1 0x40 MLOAD SWAP1 PUSH2 0xCAE DUP3 PUSH2 0x188 JUMP JUMPDEST PUSH1 0x0 PUSH1 0x20 DUP4 PUSH1 0x60 DUP2 MSTORE ADD MSTORE JUMP JUMPDEST PUSH1 0x40 MLOAD PUSH2 0xCC7 DUP2 PUSH2 0x188 JUMP JUMPDEST PUSH2 0xCCF PUSH2 0xCA1 JUMP JUMPDEST DUP1 DUP3 MSTORE PUSH1 0x20 DUP3 ADD PUSH1 0x0 DUP2 MSTORE PUSH2 0xCE2 PUSH2 0xCA1 JUMP JUMPDEST POP PUSH2 0x100 PUSH1 0x20 DUP4 ADD MSTORE PUSH1 0x40 MLOAD DUP1 SWAP3 MSTORE PUSH1 0x0 DUP3 MSTORE PUSH2 0x120 DUP3 ADD SWAP2 DUP3 LT PUSH2 0x16D JUMPI PUSH1 0x0 SWAP2 PUSH1 0x40 MSTORE MSTORE SWAP1 JUMP JUMPDEST PUSH1 0x1F NOT DUP2 ADD SWAP2 SWAP1 DUP3 GT PUSH2 0x8D7 JUMPI JUMP JUMPDEST SWAP1 PUSH1 0x20 DUP3 ADD DUP1 SWAP3 GT PUSH2 0x8D7 JUMPI JUMP JUMPDEST SWAP2 SWAP1 DUP3 ADD DUP1 SWAP3 GT PUSH2 0x8D7 JUMPI JUMP JUMPDEST SWAP1 PUSH2 0xD3E PUSH2 0xCA1 JUMP JUMPDEST POP PUSH1 0x1F DUP2 AND DUP1 PUSH2 0xD6D JUMPI JUMPDEST POP DUP1 PUSH1 0x20 DUP4 ADD MSTORE PUSH1 0x40 MLOAD SWAP1 DUP2 DUP4 MSTORE PUSH1 0x0 DUP3 MSTORE DUP2 ADD PUSH1 0x20 ADD SWAP1 DUP2 LT PUSH2 0x16D JUMPI PUSH1 0x40 MSTORE SWAP1 JUMP JUMPDEST PUSH1 0x20 SUB PUSH1 0x20 DUP2 GT PUSH2 0x8D7 JUMPI DUP2 ADD DUP1 SWAP2 GT PUSH2 0x8D7 JUMPI CODESIZE PUSH2 0xD49 JUMP JUMPDEST SWAP1 DUP2 MLOAD SWAP2 PUSH2 0xD93 PUSH2 0xCA1 JUMP JUMPDEST POP DUP3 MLOAD MLOAD PUSH1 0x1 DUP2 ADD SWAP1 DUP2 DUP2 GT PUSH2 0x8D7 JUMPI PUSH1 0x20 DUP6 ADD MLOAD DUP2 LT ISZERO PUSH2 0xDEE JUMPI JUMPDEST PUSH1 0xC2 PUSH1 0x20 PUSH2 0xDE4 SWAP7 MLOAD SWAP3 DUP4 ADD ADD MSTORE8 DUP1 MLOAD DUP3 GT PUSH2 0xDE6 JUMPI JUMPDEST POP POP PUSH1 0x40 MLOAD SWAP2 PUSH1 0x20 DUP4 ADD MSTORE PUSH1 0x20 DUP3 MSTORE PUSH2 0xDDF DUP3 PUSH2 0x188 JUMP JUMPDEST PUSH2 0x1360 JUMP JUMPDEST JUMP JUMPDEST MSTORE CODESIZE DUP1 PUSH2 0xDC7 JUMP JUMPDEST DUP2 PUSH1 0x1 SHL SWAP5 DUP3 DUP7 DIV PUSH1 0x2 EQ DUP4 ISZERO OR ISZERO PUSH2 0x8D7 JUMPI PUSH1 0x20 DUP2 PUSH2 0xE20 PUSH2 0xDE4 SWAP9 PUSH2 0xE19 PUSH1 0xC2 SWAP6 MLOAD SWAP2 DUP5 PUSH2 0xD35 JUMP JUMPDEST POP DUP3 PUSH2 0x12A8 JUMP JUMPDEST POP SWAP7 POP POP POP PUSH2 0xDB0 JUMP JUMPDEST SWAP1 DUP2 PUSH1 0x1 SHL SWAP2 DUP1 DUP4 DIV PUSH1 0x2 EQ SWAP1 ISZERO OR ISZERO PUSH2 0x8D7 JUMPI JUMP JUMPDEST PUSH2 0xE48 PUSH2 0xCA1 JUMP JUMPDEST POP DUP1 MLOAD MLOAD PUSH1 0x1 DUP2 ADD SWAP1 DUP2 DUP2 GT PUSH2 0x8D7 JUMPI PUSH1 0x20 DUP4 ADD MLOAD DUP2 LT ISZERO PUSH2 0xE81 JUMPI JUMPDEST PUSH1 0x5B PUSH1 0x20 DUP5 MLOAD SWAP3 DUP4 ADD ADD MSTORE8 DUP1 MLOAD DUP3 GT PUSH2 0xE7D JUMPI POP POP SWAP1 JUMP JUMPDEST MSTORE SWAP1 JUMP JUMPDEST DUP2 PUSH1 0x1 SHL DUP3 DUP2 DIV PUSH1 0x2 EQ DUP4 ISZERO OR ISZERO PUSH2 0x8D7 JUMPI PUSH2 0xEAA SWAP1 PUSH2 0xEA3 DUP6 MLOAD SWAP2 DUP7 PUSH2 0xD35 JUMP JUMPDEST POP DUP5 PUSH2 0x12A8 JUMP JUMPDEST POP PUSH2 0xE65 JUMP JUMPDEST PUSH2 0xEB8 PUSH2 0xCA1 JUMP JUMPDEST POP DUP1 MLOAD MLOAD PUSH1 0x1 DUP2 ADD SWAP1 DUP2 DUP2 GT PUSH2 0x8D7 JUMPI PUSH1 0x20 DUP4 ADD MLOAD DUP2 LT ISZERO PUSH2 0xEED JUMPI JUMPDEST PUSH1 0x5A PUSH1 0x20 DUP5 MLOAD SWAP3 DUP4 ADD ADD MSTORE8 DUP1 MLOAD DUP3 GT PUSH2 0xE7D JUMPI POP POP SWAP1 JUMP JUMPDEST DUP2 PUSH1 0x1 SHL DUP3 DUP2 DIV PUSH1 0x2 EQ DUP4 ISZERO OR ISZERO PUSH2 0x8D7 JUMPI PUSH2 0xF0F SWAP1 PUSH2 0xEA3 DUP6 MLOAD SWAP2 DUP7 PUSH2 0xD35 JUMP JUMPDEST POP PUSH2 0xED5 JUMP JUMPDEST PUSH2 0xF1D PUSH2 0xCA1 JUMP JUMPDEST POP DUP1 MLOAD MLOAD PUSH1 0x1 DUP2 ADD SWAP1 DUP2 DUP2 GT PUSH2 0x8D7 JUMPI PUSH1 0x20 DUP4 ADD MLOAD DUP2 LT ISZERO PUSH2 0xF52 JUMPI JUMPDEST PUSH1 0x59 PUSH1 0x20 DUP5 MLOAD SWAP3 DUP4 ADD ADD MSTORE8 DUP1 MLOAD DUP3 GT PUSH2 0xE7D JUMPI POP POP SWAP1 JUMP JUMPDEST DUP2 PUSH1 0x1 SHL DUP3 DUP2 DIV PUSH1 0x2 EQ DUP4 ISZERO OR ISZERO PUSH2 0x8D7 JUMPI PUSH2 0xF74 SWAP1 PUSH2 0xEA3 DUP6 MLOAD SWAP2 DUP7 PUSH2 0xD35 JUMP JUMPDEST POP PUSH2 0xF3A JUMP JUMPDEST PUSH2 0xF82 PUSH2 0xCA1 JUMP JUMPDEST POP DUP1 MLOAD MLOAD PUSH1 0x1 DUP2 ADD SWAP1 DUP2 DUP2 GT PUSH2 0x8D7 JUMPI PUSH1 0x20 DUP4 ADD MLOAD DUP2 LT ISZERO PUSH2 0xFB7 JUMPI JUMPDEST PUSH1 0x58 PUSH1 0x20 DUP5 MLOAD SWAP3 DUP4 ADD ADD MSTORE8 DUP1 MLOAD DUP3 GT PUSH2 0xE7D JUMPI POP POP SWAP1 JUMP JUMPDEST DUP2 PUSH1 0x1 SHL DUP3 DUP2 DIV PUSH1 0x2 EQ DUP4 ISZERO OR ISZERO PUSH2 0x8D7 JUMPI PUSH2 0xFD9 SWAP1 PUSH2 0xEA3 DUP6 MLOAD SWAP2 DUP7 PUSH2 0xD35 JUMP JUMPDEST POP PUSH2 0xF9F JUMP JUMPDEST PUSH2 0xFE7 PUSH2 0xCA1 JUMP JUMPDEST POP DUP1 MLOAD MLOAD PUSH1 0x1 DUP2 ADD SWAP1 DUP2 DUP2 GT PUSH2 0x8D7 JUMPI PUSH1 0x20 DUP4 ADD MLOAD DUP2 LT ISZERO PUSH2 0x101C JUMPI JUMPDEST PUSH1 0x7B PUSH1 0x20 DUP5 MLOAD SWAP3 DUP4 ADD ADD MSTORE8 DUP1 MLOAD DUP3 GT PUSH2 0xE7D JUMPI POP POP SWAP1 JUMP JUMPDEST DUP2 PUSH1 0x1 SHL DUP3 DUP2 DIV PUSH1 0x2 EQ DUP4 ISZERO OR ISZERO PUSH2 0x8D7 JUMPI PUSH2 0x103E SWAP1 PUSH2 0xEA3 DUP6 MLOAD SWAP2 DUP7 PUSH2 0xD35 JUMP JUMPDEST POP PUSH2 0x1004 JUMP JUMPDEST PUSH2 0x104C PUSH2 0xCA1 JUMP JUMPDEST POP DUP1 MLOAD MLOAD PUSH1 0x1 DUP2 ADD SWAP1 DUP2 DUP2 GT PUSH2 0x8D7 JUMPI PUSH1 0x20 DUP4 ADD MLOAD DUP2 LT ISZERO PUSH2 0x1081 JUMPI JUMPDEST PUSH1 0x7A PUSH1 0x20 DUP5 MLOAD SWAP3 DUP4 ADD ADD MSTORE8 DUP1 MLOAD DUP3 GT PUSH2 0xE7D JUMPI POP POP SWAP1 JUMP JUMPDEST DUP2 PUSH1 0x1 SHL DUP3 DUP2 DIV PUSH1 0x2 EQ DUP4 ISZERO OR ISZERO PUSH2 0x8D7 JUMPI PUSH2 0x10A3 SWAP1 PUSH2 0xEA3 DUP6 MLOAD SWAP2 DUP7 PUSH2 0xD35 JUMP JUMPDEST POP PUSH2 0x1069 JUMP JUMPDEST PUSH2 0x10B1 PUSH2 0xCA1 JUMP JUMPDEST POP DUP1 MLOAD MLOAD PUSH1 0x1 DUP2 ADD SWAP1 DUP2 DUP2 GT PUSH2 0x8D7 JUMPI PUSH1 0x20 DUP4 ADD MLOAD DUP2 LT ISZERO PUSH2 0x10E6 JUMPI JUMPDEST PUSH1 0x79 PUSH1 0x20 DUP5 MLOAD SWAP3 DUP4 ADD ADD MSTORE8 DUP1 MLOAD DUP3 GT PUSH2 0xE7D JUMPI POP POP SWAP1 JUMP JUMPDEST DUP2 PUSH1 0x1 SHL DUP3 DUP2 DIV PUSH1 0x2 EQ DUP4 ISZERO OR ISZERO PUSH2 0x8D7 JUMPI PUSH2 0x1108 SWAP1 PUSH2 0xEA3 DUP6 MLOAD SWAP2 DUP7 PUSH2 0xD35 JUMP JUMPDEST POP PUSH2 0x10CE JUMP JUMPDEST PUSH2 0x1116 PUSH2 0xCA1 JUMP JUMPDEST POP DUP1 MLOAD MLOAD PUSH1 0x1 DUP2 ADD SWAP1 DUP2 DUP2 GT PUSH2 0x8D7 JUMPI PUSH1 0x20 DUP4 ADD MLOAD DUP2 LT ISZERO PUSH2 0x114B JUMPI JUMPDEST PUSH1 0x78 PUSH1 0x20 DUP5 MLOAD SWAP3 DUP4 ADD ADD MSTORE8 DUP1 MLOAD DUP3 GT PUSH2 0xE7D JUMPI POP POP SWAP1 JUMP JUMPDEST DUP2 PUSH1 0x1 SHL DUP3 DUP2 DIV PUSH1 0x2 EQ DUP4 ISZERO OR ISZERO PUSH2 0x8D7 JUMPI PUSH2 0x116D SWAP1 PUSH2 0xEA3 DUP6 MLOAD SWAP2 DUP7 PUSH2 0xD35 JUMP JUMPDEST POP PUSH2 0x1133 JUMP JUMPDEST SWAP1 PUSH2 0x117C PUSH2 0xCA1 JUMP JUMPDEST POP DUP2 MLOAD MLOAD PUSH1 0x1 DUP2 ADD SWAP2 DUP3 DUP3 GT PUSH2 0x8D7 JUMPI PUSH1 0x20 DUP5 ADD MLOAD DUP3 LT ISZERO PUSH2 0x11AF JUMPI JUMPDEST PUSH1 0x20 DUP5 MLOAD SWAP3 DUP4 ADD ADD MSTORE8 DUP1 MLOAD DUP3 GT PUSH2 0xE7D JUMPI POP POP SWAP1 JUMP JUMPDEST DUP3 PUSH1 0x1 SHL DUP4 DUP2 DIV PUSH1 0x2 EQ DUP5 ISZERO OR ISZERO PUSH2 0x8D7 JUMPI PUSH2 0x11D8 SWAP1 PUSH2 0x11D1 DUP7 MLOAD SWAP2 DUP8 PUSH2 0xD35 JUMP JUMPDEST POP DUP6 PUSH2 0x12A8 JUMP JUMPDEST POP PUSH2 0x1199 JUMP JUMPDEST SWAP1 PUSH2 0x11EB DUP3 MLOAD SWAP2 DUP4 PUSH2 0xD35 JUMP JUMPDEST POP PUSH2 0x11F4 PUSH2 0xCA1 JUMP JUMPDEST POP DUP1 MLOAD SWAP1 PUSH2 0x1200 PUSH2 0xCA1 JUMP JUMPDEST POP PUSH2 0x120E DUP2 MLOAD DUP4 GT ISZERO PUSH2 0x1359 JUMP JUMPDEST DUP3 MLOAD MLOAD SWAP3 PUSH2 0x121C DUP4 DUP6 PUSH2 0xD28 JUMP JUMPDEST SWAP2 PUSH1 0x20 SWAP3 DUP3 DUP5 DUP1 SWAP5 ADD MLOAD DUP3 GT PUSH2 0x1291 JUMPI JUMPDEST MLOAD DUP4 DUP2 MLOAD SWAP8 DUP3 ADD ADD SWAP7 DUP3 GT PUSH2 0x1289 JUMPI JUMPDEST POP POP ADD SWAP2 JUMPDEST DUP2 DUP2 LT ISZERO PUSH2 0x1263 JUMPI PUSH1 0x0 NOT SWAP2 SUB PUSH2 0x100 EXP ADD SWAP1 DUP2 NOT SWAP1 MLOAD AND SWAP1 DUP3 MLOAD AND OR SWAP1 MSTORE JUMP JUMPDEST SWAP2 SWAP3 PUSH2 0x127E PUSH2 0x1278 PUSH2 0x1284 SWAP3 DUP7 MLOAD DUP2 MSTORE PUSH2 0xD1A JUMP JUMPDEST SWAP5 PUSH2 0xD1A JUMP JUMPDEST SWAP3 PUSH2 0xD0B JUMP JUMPDEST PUSH2 0x1242 JUMP JUMPDEST MSTORE CODESIZE DUP1 PUSH2 0x123D JUMP JUMPDEST PUSH2 0x12A3 PUSH2 0x129D DUP4 PUSH2 0xE2A JUMP JUMPDEST DUP3 PUSH2 0x11DE JUMP JUMPDEST PUSH2 0x122D JUMP JUMPDEST SWAP1 PUSH2 0x12B1 PUSH2 0xCA1 JUMP JUMPDEST POP DUP1 MLOAD PUSH2 0x12BC PUSH2 0xCA1 JUMP JUMPDEST POP PUSH2 0x12CA DUP3 MLOAD DUP3 GT ISZERO PUSH2 0x1359 JUMP JUMPDEST DUP3 MLOAD MLOAD SWAP2 PUSH2 0x12D8 DUP3 DUP5 PUSH2 0xD28 JUMP JUMPDEST PUSH1 0x20 SWAP2 DUP3 SWAP2 DUP3 DUP8 ADD MLOAD DUP2 GT PUSH2 0x1342 JUMPI JUMPDEST DUP7 MLOAD DUP4 DUP2 MLOAD SWAP8 DUP3 ADD ADD SWAP7 DUP3 GT PUSH2 0x133A JUMPI JUMPDEST POP POP ADD SWAP2 JUMPDEST DUP2 DUP2 LT ISZERO PUSH2 0x1320 JUMPI PUSH1 0x0 NOT SWAP2 SUB PUSH2 0x100 EXP ADD SWAP1 DUP2 NOT SWAP1 MLOAD AND SWAP1 DUP3 MLOAD AND OR SWAP1 MSTORE SWAP1 JUMP JUMPDEST SWAP2 SWAP3 PUSH2 0x127E PUSH2 0x1278 PUSH2 0x1335 SWAP3 DUP7 MLOAD DUP2 MSTORE PUSH2 0xD1A JUMP JUMPDEST PUSH2 0x12FE JUMP JUMPDEST MSTORE CODESIZE DUP1 PUSH2 0x12F9 JUMP JUMPDEST PUSH2 0x1354 PUSH2 0x134E DUP3 PUSH2 0xE2A JUMP JUMPDEST DUP9 PUSH2 0x11DE JUMP JUMPDEST PUSH2 0x12E8 JUMP JUMPDEST ISZERO PUSH2 0x16D JUMPI JUMP JUMPDEST DUP2 MLOAD PUSH2 0x1397 SWAP3 SWAP2 SWAP1 PUSH1 0x1 PUSH1 0x1 PUSH1 0x40 SHL SUB DUP2 AND SWAP1 PUSH1 0x17 DUP3 GT PUSH2 0x139A JUMPI PUSH2 0x138F SWAP2 POP PUSH1 0x40 PUSH1 0xFF DUP5 MLOAD SWAP3 AND OR SWAP1 PUSH2 0x1173 JUMP JUMPDEST POP JUMPDEST MLOAD PUSH2 0x12A8 JUMP JUMPDEST POP JUMP JUMPDEST POP PUSH1 0xFF DUP2 GT PUSH2 0x13BF JUMPI PUSH2 0x13B9 SWAP1 PUSH2 0x13B1 DUP4 MLOAD PUSH2 0xF7A JUMP JUMPDEST POP DUP3 MLOAD PUSH2 0x16EE JUMP JUMPDEST POP PUSH2 0x1391 JUMP JUMPDEST PUSH2 0xFFFF DUP2 GT PUSH2 0x13DE JUMPI PUSH2 0x13B9 SWAP1 PUSH2 0x13D6 DUP4 MLOAD PUSH2 0xF15 JUMP JUMPDEST POP DUP3 MLOAD PUSH2 0x1687 JUMP JUMPDEST PUSH4 0xFFFFFFFF DUP2 GT PUSH2 0x13FF JUMPI PUSH2 0x13B9 SWAP1 PUSH2 0x13F7 DUP4 MLOAD PUSH2 0xEB0 JUMP JUMPDEST POP DUP3 MLOAD PUSH2 0x161E JUMP JUMPDEST PUSH2 0x13B9 SWAP1 PUSH2 0x140D DUP4 MLOAD PUSH2 0xE40 JUMP JUMPDEST POP DUP3 MLOAD PUSH2 0x15B2 JUMP JUMPDEST DUP2 MLOAD PUSH2 0x1397 SWAP3 SWAP2 SWAP1 PUSH1 0x1 PUSH1 0x1 PUSH1 0x40 SHL SUB DUP2 AND SWAP1 PUSH1 0x17 DUP3 GT PUSH2 0x1444 JUMPI PUSH2 0x138F SWAP2 POP PUSH1 0x60 PUSH1 0xFF DUP5 MLOAD SWAP3 AND OR SWAP1 PUSH2 0x1173 JUMP JUMPDEST POP PUSH1 0xFF DUP2 GT PUSH2 0x145B JUMPI PUSH2 0x13B9 SWAP1 PUSH2 0x13B1 DUP4 MLOAD PUSH2 0x110E JUMP JUMPDEST PUSH2 0xFFFF DUP2 GT PUSH2 0x1472 JUMPI PUSH2 0x13B9 SWAP1 PUSH2 0x13D6 DUP4 MLOAD PUSH2 0x10A9 JUMP JUMPDEST PUSH4 0xFFFFFFFF DUP2 GT PUSH2 0x148B JUMPI PUSH2 0x13B9 SWAP1 PUSH2 0x13F7 DUP4 MLOAD PUSH2 0x1044 JUMP JUMPDEST PUSH2 0x13B9 SWAP1 PUSH2 0x140D DUP4 MLOAD PUSH2 0xFDF JUMP JUMPDEST DUP1 MLOAD SWAP1 PUSH2 0x14A4 PUSH2 0xCA1 JUMP JUMPDEST POP DUP2 MLOAD MLOAD PUSH1 0x1 DUP2 ADD SWAP1 DUP2 DUP2 GT PUSH2 0x8D7 JUMPI PUSH1 0x20 DUP5 ADD MLOAD DUP2 LT ISZERO PUSH2 0x14F2 JUMPI JUMPDEST PUSH1 0x9F PUSH1 0x20 DUP1 SWAP6 MLOAD SWAP3 DUP4 ADD ADD MSTORE8 DUP1 MLOAD DUP3 GT PUSH2 0x14EA JUMPI JUMPDEST POP POP ADD DUP1 MLOAD SWAP1 PUSH1 0x1 DUP3 ADD DUP1 SWAP3 GT PUSH2 0x8D7 JUMPI MSTORE JUMP JUMPDEST MSTORE CODESIZE DUP1 PUSH2 0x14D6 JUMP JUMPDEST DUP2 PUSH1 0x1 SHL SWAP4 DUP3 DUP6 DIV PUSH1 0x2 EQ DUP4 ISZERO OR ISZERO PUSH2 0x8D7 JUMPI PUSH1 0x20 DUP2 PUSH2 0x151B DUP3 SWAP8 PUSH2 0xE19 PUSH1 0x9F SWAP6 MLOAD SWAP2 DUP5 PUSH2 0xD35 JUMP JUMPDEST POP SWAP6 POP POP POP PUSH2 0x14C1 JUMP JUMPDEST DUP1 MLOAD SWAP1 PUSH2 0x1530 PUSH2 0xCA1 JUMP JUMPDEST POP DUP2 MLOAD MLOAD PUSH1 0x1 DUP2 ADD SWAP1 DUP2 DUP2 GT PUSH2 0x8D7 JUMPI PUSH1 0x20 DUP5 ADD MLOAD DUP2 LT ISZERO PUSH2 0x157F JUMPI JUMPDEST PUSH1 0xFF PUSH1 0x20 DUP1 SWAP6 MLOAD SWAP3 DUP4 ADD ADD MSTORE8 DUP1 MLOAD DUP3 GT PUSH2 0x1577 JUMPI JUMPDEST POP POP ADD DUP1 MLOAD PUSH1 0x0 NOT DUP2 ADD SWAP2 SWAP1 DUP3 GT PUSH2 0x8D7 JUMPI MSTORE JUMP JUMPDEST MSTORE CODESIZE DUP1 PUSH2 0x1562 JUMP JUMPDEST DUP2 PUSH1 0x1 SHL SWAP4 DUP3 DUP6 DIV PUSH1 0x2 EQ DUP4 ISZERO OR ISZERO PUSH2 0x8D7 JUMPI PUSH1 0x20 DUP2 PUSH2 0x15A8 DUP3 SWAP8 PUSH2 0xE19 PUSH1 0xFF SWAP6 MLOAD SWAP2 DUP5 PUSH2 0xD35 JUMP JUMPDEST POP SWAP6 POP POP POP PUSH2 0x154D JUMP JUMPDEST SWAP1 PUSH2 0x15BB PUSH2 0xCA1 JUMP JUMPDEST POP DUP2 MLOAD MLOAD DUP1 PUSH1 0x8 ADD SWAP2 DUP3 PUSH1 0x8 GT PUSH2 0x8D7 JUMPI PUSH1 0x20 DUP5 ADD MLOAD DUP4 GT PUSH2 0x15FD JUMPI JUMPDEST PUSH1 0x8 DUP5 MLOAD SWAP3 DUP4 ADD ADD SWAP1 PUSH1 0x1 PUSH1 0x1 PUSH1 0x40 SHL SUB NOT DUP3 MLOAD AND OR SWAP1 MSTORE DUP1 MLOAD DUP3 GT PUSH2 0xE7D JUMPI POP POP SWAP1 JUMP JUMPDEST DUP3 PUSH1 0x1 SHL DUP4 DUP2 DIV PUSH1 0x2 EQ DUP5 ISZERO OR ISZERO PUSH2 0x8D7 JUMPI PUSH2 0x1619 SWAP1 DUP6 PUSH2 0x11DE JUMP JUMPDEST PUSH2 0x15D8 JUMP JUMPDEST SWAP1 PUSH2 0x1627 PUSH2 0xCA1 JUMP JUMPDEST POP DUP2 MLOAD MLOAD DUP1 PUSH1 0x4 ADD SWAP2 DUP3 PUSH1 0x4 GT PUSH2 0x8D7 JUMPI PUSH1 0x20 DUP5 ADD MLOAD DUP4 GT PUSH2 0x1666 JUMPI JUMPDEST PUSH1 0x4 DUP5 MLOAD SWAP3 DUP4 ADD ADD SWAP1 PUSH4 0xFFFFFFFF NOT DUP3 MLOAD AND OR SWAP1 MSTORE DUP1 MLOAD DUP3 GT PUSH2 0xE7D JUMPI POP POP SWAP1 JUMP JUMPDEST DUP3 PUSH1 0x1 SHL DUP4 DUP2 DIV PUSH1 0x2 EQ DUP5 ISZERO OR ISZERO PUSH2 0x8D7 JUMPI PUSH2 0x1682 SWAP1 DUP6 PUSH2 0x11DE JUMP JUMPDEST PUSH2 0x1644 JUMP JUMPDEST SWAP1 PUSH2 0x1690 PUSH2 0xCA1 JUMP JUMPDEST POP DUP2 MLOAD MLOAD DUP1 PUSH1 0x2 ADD SWAP2 DUP3 PUSH1 0x2 GT PUSH2 0x8D7 JUMPI PUSH1 0x20 DUP5 ADD MLOAD DUP4 GT PUSH2 0x16CD JUMPI JUMPDEST PUSH1 0x2 DUP5 MLOAD SWAP3 DUP4 ADD ADD SWAP1 PUSH2 0xFFFF NOT DUP3 MLOAD AND OR SWAP1 MSTORE DUP1 MLOAD DUP3 GT PUSH2 0xE7D JUMPI POP POP SWAP1 JUMP JUMPDEST DUP3 PUSH1 0x1 SHL DUP4 DUP2 DIV PUSH1 0x2 EQ DUP5 ISZERO OR ISZERO PUSH2 0x8D7 JUMPI PUSH2 0x16E9 SWAP1 DUP6 PUSH2 0x11DE JUMP JUMPDEST PUSH2 0x16AD JUMP JUMPDEST SWAP1 PUSH2 0x16F7 PUSH2 0xCA1 JUMP JUMPDEST POP DUP2 MLOAD MLOAD DUP1 PUSH1 0x1 ADD SWAP2 DUP3 PUSH1 0x1 GT PUSH2 0x8D7 JUMPI PUSH1 0x20 DUP5 ADD MLOAD DUP4 GT PUSH2 0x1733 JUMPI JUMPDEST PUSH1 0x1 DUP5 MLOAD SWAP3 DUP4 ADD ADD SWAP1 PUSH1 0xFF NOT DUP3 MLOAD AND OR SWAP1 MSTORE DUP1 MLOAD DUP3 GT PUSH2 0xE7D JUMPI POP POP SWAP1 JUMP JUMPDEST DUP3 PUSH1 0x1 SHL DUP4 DUP2 DIV PUSH1 0x2 EQ DUP5 ISZERO OR ISZERO PUSH2 0x8D7 JUMPI PUSH2 0x174F SWAP1 DUP6 PUSH2 0x11DE JUMP JUMPDEST PUSH2 0x1714 JUMP JUMPDEST PUSH1 0x1F DUP2 GT PUSH2 0x1760 JUMPI POP POP JUMP JUMPDEST PUSH1 0x0 SWAP1 DUP2 DUP1 MSTORE PUSH32 0x290DECD9548B62A8D60345A988386FC84BA6BC95484008F6362F93160EF3E563 SWAP1 PUSH1 0x20 PUSH1 0x1F DUP6 ADD PUSH1 0x5 SHR DUP4 ADD SWAP5 LT PUSH2 0x17BA JUMPI JUMPDEST PUSH1 0x1F ADD PUSH1 0x5 SHR ADD SWAP2 JUMPDEST DUP3 DUP2 LT PUSH2 0x17AF JUMPI POP POP POP JUMP JUMPDEST DUP2 DUP2 SSTORE PUSH1 0x1 ADD PUSH2 0x17A3 JUMP JUMPDEST SWAP1 SWAP3 POP DUP3 SWAP1 PUSH2 0x179A JUMP JUMPDEST SWAP1 PUSH1 0x1F DUP3 GT PUSH2 0x17D1 JUMPI POP POP JUMP JUMPDEST PUSH1 0x1 SWAP2 PUSH1 0x0 SWAP1 DUP4 DUP3 MSTORE PUSH32 0xB10E2D527612073B26EECDFD717E6A320CF44B4AFAC2B0732D9FCBE2B7FA0CF6 SWAP1 PUSH1 0x20 PUSH1 0x1F DUP6 ADD PUSH1 0x5 SHR DUP4 ADD SWAP5 LT PUSH2 0x182E JUMPI JUMPDEST PUSH1 0x1F ADD PUSH1 0x5 SHR ADD SWAP2 JUMPDEST DUP3 DUP2 LT PUSH2 0x1824 JUMPI POP POP POP POP JUMP JUMPDEST DUP2 DUP2 SSTORE DUP4 ADD PUSH2 0x1817 JUMP JUMPDEST SWAP1 SWAP3 POP DUP3 SWAP1 PUSH2 0x180E JUMP JUMPDEST SWAP1 DUP2 MLOAD PUSH1 0x1 PUSH1 0x1 PUSH1 0x40 SHL SUB DUP2 GT PUSH2 0x1A3 JUMPI PUSH1 0x0 SWAP1 PUSH2 0x185F DUP2 PUSH2 0x185A DUP5 SLOAD PUSH2 0x463 JUMP JUMPDEST PUSH2 0x1754 JUMP JUMPDEST PUSH1 0x20 DUP1 PUSH1 0x1F DUP4 GT PUSH1 0x1 EQ PUSH2 0x189A JUMPI POP DUP3 SWAP4 SWAP5 DUP3 SWAP4 SWAP3 PUSH2 0x188F JUMPI JUMPDEST POP POP DUP2 PUSH1 0x1 SHL SWAP2 PUSH1 0x0 NOT SWAP1 PUSH1 0x3 SHL SHR NOT AND OR SWAP1 SSTORE JUMP JUMPDEST ADD MLOAD SWAP1 POP CODESIZE DUP1 PUSH2 0x1879 JUMP JUMPDEST SWAP1 PUSH1 0x1F NOT DUP4 AND SWAP6 PUSH2 0x18CC PUSH1 0x0 DUP1 MSTORE PUSH32 0x290DECD9548B62A8D60345A988386FC84BA6BC95484008F6362F93160EF3E563 SWAP1 JUMP JUMPDEST SWAP3 DUP6 SWAP1 JUMPDEST DUP9 DUP3 LT PUSH2 0x1908 JUMPI POP POP DUP4 PUSH1 0x1 SWAP6 SWAP7 SWAP8 LT PUSH2 0x18EF JUMPI JUMPDEST POP POP POP DUP2 SHL ADD SWAP1 SSTORE JUMP JUMPDEST ADD MLOAD PUSH1 0x0 NOT PUSH1 0xF8 DUP5 PUSH1 0x3 SHL AND SHR NOT AND SWAP1 SSTORE CODESIZE DUP1 DUP1 PUSH2 0x18E5 JUMP JUMPDEST DUP1 PUSH1 0x1 DUP6 SWAP7 DUP3 SWAP5 SWAP7 DUP7 ADD MLOAD DUP2 SSTORE ADD SWAP6 ADD SWAP4 ADD SWAP1 PUSH2 0x18D0 JUMP JUMPDEST SWAP1 DUP2 MLOAD PUSH1 0x1 PUSH1 0x1 PUSH1 0x40 SHL SUB DUP2 GT PUSH2 0x1A3 JUMPI PUSH1 0x1 SWAP1 PUSH2 0x1947 DUP2 PUSH2 0x1942 DUP5 SLOAD PUSH2 0x463 JUMP JUMPDEST PUSH2 0x17C4 JUMP JUMPDEST PUSH1 0x20 DUP1 PUSH1 0x1F DUP4 GT PUSH1 0x1 EQ PUSH2 0x1982 JUMPI POP DUP2 SWAP3 SWAP4 SWAP5 PUSH1 0x0 SWAP3 PUSH2 0x1977 JUMPI JUMPDEST POP POP PUSH1 0x0 NOT PUSH1 0x3 DUP4 SWAP1 SHL SHR NOT AND SWAP1 DUP3 SHL OR SWAP1 SSTORE JUMP JUMPDEST ADD MLOAD SWAP1 POP CODESIZE DUP1 PUSH2 0x1962 JUMP JUMPDEST SWAP1 PUSH1 0x1F NOT DUP4 AND SWAP6 PUSH2 0x19B5 PUSH1 0x1 PUSH1 0x0 MSTORE PUSH32 0xB10E2D527612073B26EECDFD717E6A320CF44B4AFAC2B0732D9FCBE2B7FA0CF6 SWAP1 JUMP JUMPDEST SWAP3 PUSH1 0x0 SWAP1 JUMPDEST DUP9 DUP3 LT PUSH2 0x19D6 JUMPI POP POP DUP4 DUP6 SWAP7 SWAP8 LT PUSH2 0x18EF JUMPI POP POP POP DUP2 SHL ADD SWAP1 SSTORE JUMP JUMPDEST DUP1 DUP8 DUP6 SWAP7 DUP3 SWAP5 SWAP7 DUP7 ADD MLOAD DUP2 SSTORE ADD SWAP6 ADD SWAP4 ADD SWAP1 PUSH2 0x19BA JUMP JUMPDEST SWAP1 SWAP2 PUSH2 0x1A04 PUSH2 0x4EE SWAP4 PUSH1 0x40 DUP5 MSTORE PUSH1 0x40 DUP5 ADD SWAP1 PUSH2 0x49D JUMP JUMPDEST SWAP2 PUSH1 0x20 DUP2 DUP5 SUB SWAP2 ADD MSTORE PUSH2 0x49D JUMP JUMPDEST DUP1 MLOAD PUSH1 0x1F LT ISZERO PUSH2 0x906 JUMPI PUSH1 0x3F ADD SWAP1 JUMP INVALID LOG2 PUSH5 0x6970667358 0x22 SLT KECCAK256 MUL SSTORE SWAP2 PUSH2 0xE645 PUSH22 0x26477B8F55FAE84FF4F6020880E84084DF435C20B1DA 0xA8 ADD 0x27 PUSH5 0x736F6C6343 STOP ADDMOD EQ STOP CALLER "},"methodIdentifiers":{"handleOracleFulfillment(bytes32,bytes,bytes)":"0ca76175","lastError()":"29f0de3f","lastResponse()":"62747e42","s_donId()":"dfd6edd2","s_subscriptionId()":"8ac00021","sendTestRequest()":"05b1efa0","success()":"0b93381b"}}}}}