{
  "_format": "hh-sol-artifact-1",
  "contractName": "UnitpayFull",
  "sourceName": "contracts/Unitpay.sol",
  "abi": [
    {
      "inputs": [
        {
          "internalType": "address",
          "name": "_defaultToken",
          "type": "address"
        },
        {
          "internalType": "address",
          "name": "_functionsRouter",
          "type": "address"
        },
        {
          "internalType": "bytes32",
          "name": "_source",
          "type": "bytes32"
        },
        {
          "internalType": "bytes32",
          "name": "_secrets",
          "type": "bytes32"
        },
        {
          "internalType": "uint64",
          "name": "_subscriptionId",
          "type": "uint64"
        },
        {
          "internalType": "bytes32",
          "name": "_donId",
          "type": "bytes32"
        }
      ],
      "stateMutability": "nonpayable",
      "type": "constructor"
    },
    {
      "inputs": [],
      "name": "EmptyArgs",
      "type": "error"
    },
    {
      "inputs": [],
      "name": "EmptySource",
      "type": "error"
    },
    {
      "inputs": [],
      "name": "NoInlineSecrets",
      "type": "error"
    },
    {
      "inputs": [],
      "name": "OnlyRouterCanFulfill",
      "type": "error"
    },
    {
      "inputs": [],
      "name": "ReentrancyGuardReentrantCall",
      "type": "error"
    },
    {
      "anonymous": false,
      "inputs": [
        {
          "indexed": true,
          "internalType": "string",
          "name": "paymentId",
          "type": "string"
        },
        {
          "indexed": false,
          "internalType": "string",
          "name": "orderIdStr",
          "type": "string"
        }
      ],
      "name": "OrderSubmitted",
      "type": "event"
    },
    {
      "anonymous": false,
      "inputs": [
        {
          "indexed": true,
          "internalType": "string",
          "name": "paymentId",
          "type": "string"
        }
      ],
      "name": "OrderVerified",
      "type": "event"
    },
    {
      "anonymous": false,
      "inputs": [
        {
          "indexed": true,
          "internalType": "address",
          "name": "from",
          "type": "address"
        },
        {
          "indexed": true,
          "internalType": "address",
          "name": "to",
          "type": "address"
        }
      ],
      "name": "OwnershipTransferRequested",
      "type": "event"
    },
    {
      "anonymous": false,
      "inputs": [
        {
          "indexed": true,
          "internalType": "address",
          "name": "from",
          "type": "address"
        },
        {
          "indexed": true,
          "internalType": "address",
          "name": "to",
          "type": "address"
        }
      ],
      "name": "OwnershipTransferred",
      "type": "event"
    },
    {
      "anonymous": false,
      "inputs": [
        {
          "indexed": true,
          "internalType": "string",
          "name": "paymentId",
          "type": "string"
        },
        {
          "indexed": false,
          "internalType": "bool",
          "name": "isAuto",
          "type": "bool"
        }
      ],
      "name": "PaymentConfirmed",
      "type": "event"
    },
    {
      "anonymous": false,
      "inputs": [
        {
          "indexed": true,
          "internalType": "string",
          "name": "paymentId",
          "type": "string"
        }
      ],
      "name": "PaymentDisputed",
      "type": "event"
    },
    {
      "anonymous": false,
      "inputs": [
        {
          "indexed": true,
          "internalType": "string",
          "name": "paymentId",
          "type": "string"
        },
        {
          "indexed": true,
          "internalType": "address",
          "name": "user",
          "type": "address"
        },
        {
          "indexed": false,
          "internalType": "uint256",
          "name": "amount",
          "type": "uint256"
        }
      ],
      "name": "PaymentExpired",
      "type": "event"
    },
    {
      "anonymous": false,
      "inputs": [
        {
          "indexed": true,
          "internalType": "string",
          "name": "paymentId",
          "type": "string"
        },
        {
          "indexed": true,
          "internalType": "address",
          "name": "user",
          "type": "address"
        },
        {
          "indexed": true,
          "internalType": "address",
          "name": "lp",
          "type": "address"
        },
        {
          "indexed": false,
          "internalType": "uint256",
          "name": "amount",
          "type": "uint256"
        },
        {
          "indexed": false,
          "internalType": "uint256",
          "name": "platformFee",
          "type": "uint256"
        }
      ],
      "name": "PaymentLocked",
      "type": "event"
    },
    {
      "anonymous": false,
      "inputs": [
        {
          "indexed": true,
          "internalType": "string",
          "name": "paymentId",
          "type": "string"
        },
        {
          "indexed": true,
          "internalType": "address",
          "name": "user",
          "type": "address"
        },
        {
          "indexed": false,
          "internalType": "uint256",
          "name": "amount",
          "type": "uint256"
        }
      ],
      "name": "PaymentRefunded",
      "type": "event"
    },
    {
      "anonymous": false,
      "inputs": [
        {
          "indexed": true,
          "internalType": "string",
          "name": "paymentId",
          "type": "string"
        },
        {
          "indexed": true,
          "internalType": "address",
          "name": "lp",
          "type": "address"
        },
        {
          "indexed": false,
          "internalType": "uint256",
          "name": "amount",
          "type": "uint256"
        },
        {
          "indexed": false,
          "internalType": "uint256",
          "name": "platformFee",
          "type": "uint256"
        }
      ],
      "name": "PaymentReleased",
      "type": "event"
    },
    {
      "anonymous": false,
      "inputs": [
        {
          "indexed": true,
          "internalType": "string",
          "name": "paymentId",
          "type": "string"
        },
        {
          "indexed": true,
          "internalType": "address",
          "name": "user",
          "type": "address"
        },
        {
          "indexed": true,
          "internalType": "address",
          "name": "lp",
          "type": "address"
        },
        {
          "indexed": false,
          "internalType": "uint256",
          "name": "amount",
          "type": "uint256"
        },
        {
          "indexed": false,
          "internalType": "string",
          "name": "network",
          "type": "string"
        }
      ],
      "name": "PaymentSettled",
      "type": "event"
    },
    {
      "anonymous": false,
      "inputs": [
        {
          "indexed": true,
          "internalType": "string",
          "name": "paymentId",
          "type": "string"
        },
        {
          "indexed": false,
          "internalType": "uint8",
          "name": "oldStatus",
          "type": "uint8"
        },
        {
          "indexed": false,
          "internalType": "uint8",
          "name": "newStatus",
          "type": "uint8"
        },
        {
          "indexed": false,
          "internalType": "address",
          "name": "triggeredBy",
          "type": "address"
        },
        {
          "indexed": false,
          "internalType": "uint256",
          "name": "timestamp",
          "type": "uint256"
        }
      ],
      "name": "PaymentStatusChanged",
      "type": "event"
    },
    {
      "anonymous": false,
      "inputs": [
        {
          "indexed": false,
          "internalType": "uint256",
          "name": "amount",
          "type": "uint256"
        }
      ],
      "name": "PlatformFeesWithdrawn",
      "type": "event"
    },
    {
      "anonymous": false,
      "inputs": [
        {
          "indexed": true,
          "internalType": "bytes32",
          "name": "id",
          "type": "bytes32"
        }
      ],
      "name": "RequestFulfilled",
      "type": "event"
    },
    {
      "anonymous": false,
      "inputs": [
        {
          "indexed": true,
          "internalType": "bytes32",
          "name": "id",
          "type": "bytes32"
        }
      ],
      "name": "RequestSent",
      "type": "event"
    },
    {
      "anonymous": false,
      "inputs": [
        {
          "indexed": true,
          "internalType": "string",
          "name": "network",
          "type": "string"
        },
        {
          "indexed": true,
          "internalType": "address",
          "name": "token",
          "type": "address"
        },
        {
          "indexed": false,
          "internalType": "bool",
          "name": "isEnabled",
          "type": "bool"
        }
      ],
      "name": "TokenConfigUpdated",
      "type": "event"
    },
    {
      "anonymous": false,
      "inputs": [
        {
          "indexed": true,
          "internalType": "string",
          "name": "paymentId",
          "type": "string"
        },
        {
          "indexed": false,
          "internalType": "string",
          "name": "reason",
          "type": "string"
        }
      ],
      "name": "VerificationFailed",
      "type": "event"
    },
    {
      "anonymous": false,
      "inputs": [
        {
          "indexed": true,
          "internalType": "string",
          "name": "paymentId",
          "type": "string"
        },
        {
          "indexed": false,
          "internalType": "bytes32",
          "name": "requestId",
          "type": "bytes32"
        }
      ],
      "name": "VerificationRequested",
      "type": "event"
    },
    {
      "inputs": [],
      "name": "AUTO_RELEASE_TIME",
      "outputs": [
        {
          "internalType": "uint256",
          "name": "",
          "type": "uint256"
        }
      ],
      "stateMutability": "view",
      "type": "function"
    },
    {
      "inputs": [],
      "name": "DISPUTE_WINDOW",
      "outputs": [
        {
          "internalType": "uint256",
          "name": "",
          "type": "uint256"
        }
      ],
      "stateMutability": "view",
      "type": "function"
    },
    {
      "inputs": [],
      "name": "PAYMENT_EXPIRY_TIME",
      "outputs": [
        {
          "internalType": "uint256",
          "name": "",
          "type": "uint256"
        }
      ],
      "stateMutability": "view",
      "type": "function"
    },
    {
      "inputs": [],
      "name": "PLATFORM_FEE_RATE",
      "outputs": [
        {
          "internalType": "uint256",
          "name": "",
          "type": "uint256"
        }
      ],
      "stateMutability": "view",
      "type": "function"
    },
    {
      "inputs": [],
      "name": "T1_LOCK_TIME",
      "outputs": [
        {
          "internalType": "uint256",
          "name": "",
          "type": "uint256"
        }
      ],
      "stateMutability": "view",
      "type": "function"
    },
    {
      "inputs": [],
      "name": "acceptOwnership",
      "outputs": [],
      "stateMutability": "nonpayable",
      "type": "function"
    },
    {
      "inputs": [
        {
          "internalType": "string",
          "name": "paymentId",
          "type": "string"
        }
      ],
      "name": "autoReleasePayment",
      "outputs": [
        {
          "internalType": "bool",
          "name": "",
          "type": "bool"
        }
      ],
      "stateMutability": "nonpayable",
      "type": "function"
    },
    {
      "inputs": [
        {
          "internalType": "string[]",
          "name": "paymentIds",
          "type": "string[]"
        }
      ],
      "name": "batchGetPaymentStatus",
      "outputs": [
        {
          "internalType": "uint8[]",
          "name": "statuses",
          "type": "uint8[]"
        },
        {
          "internalType": "bool[]",
          "name": "isDisputed",
          "type": "bool[]"
        }
      ],
      "stateMutability": "view",
      "type": "function"
    },
    {
      "inputs": [
        {
          "internalType": "string",
          "name": "paymentId",
          "type": "string"
        }
      ],
      "name": "cancelExpiredPayment",
      "outputs": [
        {
          "internalType": "bool",
          "name": "",
          "type": "bool"
        }
      ],
      "stateMutability": "nonpayable",
      "type": "function"
    },
    {
      "inputs": [
        {
          "internalType": "string",
          "name": "paymentId",
          "type": "string"
        }
      ],
      "name": "confirmPayment",
      "outputs": [
        {
          "internalType": "bool",
          "name": "",
          "type": "bool"
        }
      ],
      "stateMutability": "nonpayable",
      "type": "function"
    },
    {
      "inputs": [
        {
          "internalType": "address",
          "name": "lp",
          "type": "address"
        },
        {
          "internalType": "address",
          "name": "token",
          "type": "address"
        },
        {
          "internalType": "uint256",
          "name": "amount",
          "type": "uint256"
        },
        {
          "internalType": "string",
          "name": "network",
          "type": "string"
        },
        {
          "internalType": "string",
          "name": "merchantEmail",
          "type": "string"
        }
      ],
      "name": "createOrder",
      "outputs": [
        {
          "internalType": "string",
          "name": "",
          "type": "string"
        }
      ],
      "stateMutability": "nonpayable",
      "type": "function"
    },
    {
      "inputs": [],
      "name": "defaultToken",
      "outputs": [
        {
          "internalType": "contract IERC20",
          "name": "",
          "type": "address"
        }
      ],
      "stateMutability": "view",
      "type": "function"
    },
    {
      "inputs": [
        {
          "internalType": "string",
          "name": "paymentId",
          "type": "string"
        }
      ],
      "name": "disputePayment",
      "outputs": [
        {
          "internalType": "bool",
          "name": "",
          "type": "bool"
        }
      ],
      "stateMutability": "nonpayable",
      "type": "function"
    },
    {
      "inputs": [
        {
          "internalType": "address",
          "name": "token",
          "type": "address"
        },
        {
          "internalType": "uint256",
          "name": "amount",
          "type": "uint256"
        }
      ],
      "name": "emergencyWithdraw",
      "outputs": [],
      "stateMutability": "nonpayable",
      "type": "function"
    },
    {
      "inputs": [
        {
          "internalType": "address",
          "name": "lp",
          "type": "address"
        }
      ],
      "name": "getLPPaymentCount",
      "outputs": [
        {
          "internalType": "uint256",
          "name": "",
          "type": "uint256"
        }
      ],
      "stateMutability": "view",
      "type": "function"
    },
    {
      "inputs": [
        {
          "internalType": "address",
          "name": "lp",
          "type": "address"
        }
      ],
      "name": "getLPPaymentIds",
      "outputs": [
        {
          "internalType": "uint256[]",
          "name": "",
          "type": "uint256[]"
        }
      ],
      "stateMutability": "view",
      "type": "function"
    },
    {
      "inputs": [
        {
          "internalType": "string",
          "name": "network",
          "type": "string"
        }
      ],
      "name": "getNetworkTokens",
      "outputs": [
        {
          "internalType": "address[]",
          "name": "",
          "type": "address[]"
        }
      ],
      "stateMutability": "view",
      "type": "function"
    },
    {
      "inputs": [
        {
          "internalType": "string",
          "name": "paymentId",
          "type": "string"
        }
      ],
      "name": "getPaymentDetails",
      "outputs": [
        {
          "internalType": "address",
          "name": "user",
          "type": "address"
        },
        {
          "internalType": "address",
          "name": "lp",
          "type": "address"
        },
        {
          "internalType": "address",
          "name": "token",
          "type": "address"
        },
        {
          "internalType": "uint256",
          "name": "amount",
          "type": "uint256"
        },
        {
          "internalType": "uint256",
          "name": "timestamp",
          "type": "uint256"
        },
        {
          "internalType": "uint256",
          "name": "lockTime",
          "type": "uint256"
        },
        {
          "internalType": "uint256",
          "name": "releaseTime",
          "type": "uint256"
        },
        {
          "internalType": "uint256",
          "name": "platformFee",
          "type": "uint256"
        },
        {
          "internalType": "string",
          "name": "network",
          "type": "string"
        },
        {
          "internalType": "uint8",
          "name": "paymentType",
          "type": "uint8"
        },
        {
          "internalType": "uint8",
          "name": "escrowStatus",
          "type": "uint8"
        },
        {
          "internalType": "bool",
          "name": "isDisputed",
          "type": "bool"
        }
      ],
      "stateMutability": "view",
      "type": "function"
    },
    {
      "inputs": [],
      "name": "getPaymentRecordsCount",
      "outputs": [
        {
          "internalType": "uint256",
          "name": "",
          "type": "uint256"
        }
      ],
      "stateMutability": "view",
      "type": "function"
    },
    {
      "inputs": [
        {
          "internalType": "string",
          "name": "paymentId",
          "type": "string"
        }
      ],
      "name": "getPaymentStatus",
      "outputs": [
        {
          "internalType": "uint8",
          "name": "status",
          "type": "uint8"
        },
        {
          "internalType": "bool",
          "name": "isDisputed",
          "type": "bool"
        },
        {
          "internalType": "address",
          "name": "user",
          "type": "address"
        },
        {
          "internalType": "address",
          "name": "lp",
          "type": "address"
        },
        {
          "internalType": "uint256",
          "name": "amount",
          "type": "uint256"
        },
        {
          "internalType": "uint256",
          "name": "timestamp",
          "type": "uint256"
        },
        {
          "internalType": "uint256",
          "name": "lockTime",
          "type": "uint256"
        },
        {
          "internalType": "uint256",
          "name": "releaseTime",
          "type": "uint256"
        }
      ],
      "stateMutability": "view",
      "type": "function"
    },
    {
      "inputs": [
        {
          "internalType": "address",
          "name": "user",
          "type": "address"
        }
      ],
      "name": "getUserPaymentCount",
      "outputs": [
        {
          "internalType": "uint256",
          "name": "",
          "type": "uint256"
        }
      ],
      "stateMutability": "view",
      "type": "function"
    },
    {
      "inputs": [
        {
          "internalType": "address",
          "name": "user",
          "type": "address"
        }
      ],
      "name": "getUserPaymentIds",
      "outputs": [
        {
          "internalType": "uint256[]",
          "name": "",
          "type": "uint256[]"
        }
      ],
      "stateMutability": "view",
      "type": "function"
    },
    {
      "inputs": [
        {
          "internalType": "bytes32",
          "name": "requestId",
          "type": "bytes32"
        },
        {
          "internalType": "bytes",
          "name": "response",
          "type": "bytes"
        },
        {
          "internalType": "bytes",
          "name": "err",
          "type": "bytes"
        }
      ],
      "name": "handleOracleFulfillment",
      "outputs": [],
      "stateMutability": "nonpayable",
      "type": "function"
    },
    {
      "inputs": [
        {
          "internalType": "string",
          "name": "paymentId",
          "type": "string"
        }
      ],
      "name": "isPaymentIdUsed",
      "outputs": [
        {
          "internalType": "bool",
          "name": "",
          "type": "bool"
        }
      ],
      "stateMutability": "view",
      "type": "function"
    },
    {
      "inputs": [
        {
          "internalType": "string",
          "name": "paymentId",
          "type": "string"
        }
      ],
      "name": "isPaymentIdValid",
      "outputs": [
        {
          "internalType": "bool",
          "name": "",
          "type": "bool"
        }
      ],
      "stateMutability": "pure",
      "type": "function"
    },
    {
      "inputs": [
        {
          "internalType": "string",
          "name": "paymentId",
          "type": "string"
        },
        {
          "internalType": "address",
          "name": "user",
          "type": "address"
        }
      ],
      "name": "isPaymentOwner",
      "outputs": [
        {
          "internalType": "bool",
          "name": "",
          "type": "bool"
        }
      ],
      "stateMutability": "view",
      "type": "function"
    },
    {
      "inputs": [
        {
          "internalType": "string",
          "name": "paymentId",
          "type": "string"
        },
        {
          "internalType": "address",
          "name": "lp",
          "type": "address"
        }
      ],
      "name": "isPaymentRecipient",
      "outputs": [
        {
          "internalType": "bool",
          "name": "",
          "type": "bool"
        }
      ],
      "stateMutability": "view",
      "type": "function"
    },
    {
      "inputs": [
        {
          "internalType": "address",
          "name": "lp",
          "type": "address"
        },
        {
          "internalType": "address",
          "name": "token",
          "type": "address"
        },
        {
          "internalType": "uint256",
          "name": "amount",
          "type": "uint256"
        },
        {
          "internalType": "string",
          "name": "network",
          "type": "string"
        },
        {
          "internalType": "string",
          "name": "paymentId",
          "type": "string"
        }
      ],
      "name": "lockPayment",
      "outputs": [
        {
          "internalType": "bool",
          "name": "",
          "type": "bool"
        }
      ],
      "stateMutability": "nonpayable",
      "type": "function"
    },
    {
      "inputs": [
        {
          "internalType": "address",
          "name": "",
          "type": "address"
        }
      ],
      "name": "lpPaypalEmail",
      "outputs": [
        {
          "internalType": "string",
          "name": "",
          "type": "string"
        }
      ],
      "stateMutability": "view",
      "type": "function"
    },
    {
      "inputs": [
        {
          "internalType": "string",
          "name": "",
          "type": "string"
        }
      ],
      "name": "merchantEmails",
      "outputs": [
        {
          "internalType": "string",
          "name": "",
          "type": "string"
        }
      ],
      "stateMutability": "view",
      "type": "function"
    },
    {
      "inputs": [
        {
          "internalType": "string",
          "name": "",
          "type": "string"
        },
        {
          "internalType": "address",
          "name": "",
          "type": "address"
        }
      ],
      "name": "networkTokens",
      "outputs": [
        {
          "internalType": "address",
          "name": "tokenAddress",
          "type": "address"
        },
        {
          "internalType": "uint8",
          "name": "decimals",
          "type": "uint8"
        },
        {
          "internalType": "bool",
          "name": "isEnabled",
          "type": "bool"
        }
      ],
      "stateMutability": "view",
      "type": "function"
    },
    {
      "inputs": [],
      "name": "owner",
      "outputs": [
        {
          "internalType": "address",
          "name": "",
          "type": "address"
        }
      ],
      "stateMutability": "view",
      "type": "function"
    },
    {
      "inputs": [
        {
          "internalType": "uint256",
          "name": "",
          "type": "uint256"
        }
      ],
      "name": "paymentRecords",
      "outputs": [
        {
          "internalType": "address",
          "name": "user",
          "type": "address"
        },
        {
          "internalType": "address",
          "name": "lp",
          "type": "address"
        },
        {
          "internalType": "address",
          "name": "token",
          "type": "address"
        },
        {
          "internalType": "uint256",
          "name": "amount",
          "type": "uint256"
        },
        {
          "internalType": "uint256",
          "name": "timestamp",
          "type": "uint256"
        },
        {
          "internalType": "uint256",
          "name": "lockTime",
          "type": "uint256"
        },
        {
          "internalType": "uint256",
          "name": "releaseTime",
          "type": "uint256"
        },
        {
          "internalType": "uint256",
          "name": "platformFee",
          "type": "uint256"
        },
        {
          "internalType": "string",
          "name": "paymentId",
          "type": "string"
        },
        {
          "internalType": "string",
          "name": "network",
          "type": "string"
        },
        {
          "internalType": "enum UnitpayFull.PaymentType",
          "name": "paymentType",
          "type": "uint8"
        },
        {
          "internalType": "enum UnitpayFull.EscrowStatus",
          "name": "escrowStatus",
          "type": "uint8"
        },
        {
          "internalType": "bool",
          "name": "isDisputed",
          "type": "bool"
        }
      ],
      "stateMutability": "view",
      "type": "function"
    },
    {
      "inputs": [],
      "name": "platformPendingFees",
      "outputs": [
        {
          "internalType": "uint256",
          "name": "",
          "type": "uint256"
        }
      ],
      "stateMutability": "view",
      "type": "function"
    },
    {
      "inputs": [
        {
          "internalType": "string",
          "name": "paymentId",
          "type": "string"
        }
      ],
      "name": "refundPayment",
      "outputs": [
        {
          "internalType": "bool",
          "name": "",
          "type": "bool"
        }
      ],
      "stateMutability": "nonpayable",
      "type": "function"
    },
    {
      "inputs": [
        {
          "internalType": "string",
          "name": "email",
          "type": "string"
        }
      ],
      "name": "registerLp",
      "outputs": [],
      "stateMutability": "nonpayable",
      "type": "function"
    },
    {
      "inputs": [
        {
          "internalType": "address",
          "name": "lp",
          "type": "address"
        },
        {
          "internalType": "address",
          "name": "token",
          "type": "address"
        },
        {
          "internalType": "uint256",
          "name": "amount",
          "type": "uint256"
        },
        {
          "internalType": "string",
          "name": "network",
          "type": "string"
        },
        {
          "internalType": "string",
          "name": "paymentId",
          "type": "string"
        }
      ],
      "name": "settlePayment",
      "outputs": [
        {
          "internalType": "bool",
          "name": "",
          "type": "bool"
        }
      ],
      "stateMutability": "nonpayable",
      "type": "function"
    },
    {
      "inputs": [
        {
          "internalType": "string",
          "name": "paymentId",
          "type": "string"
        },
        {
          "internalType": "string",
          "name": "orderIdStr",
          "type": "string"
        }
      ],
      "name": "submitOrderId",
      "outputs": [],
      "stateMutability": "nonpayable",
      "type": "function"
    },
    {
      "inputs": [
        {
          "internalType": "string",
          "name": "",
          "type": "string"
        }
      ],
      "name": "submittedOrderIds",
      "outputs": [
        {
          "internalType": "string",
          "name": "",
          "type": "string"
        }
      ],
      "stateMutability": "view",
      "type": "function"
    },
    {
      "inputs": [
        {
          "internalType": "address",
          "name": "to",
          "type": "address"
        }
      ],
      "name": "transferOwnership",
      "outputs": [],
      "stateMutability": "nonpayable",
      "type": "function"
    },
    {
      "inputs": [
        {
          "internalType": "string",
          "name": "network",
          "type": "string"
        },
        {
          "internalType": "address",
          "name": "tokenAddress",
          "type": "address"
        },
        {
          "internalType": "uint8",
          "name": "decimals",
          "type": "uint8"
        },
        {
          "internalType": "bool",
          "name": "isEnabled",
          "type": "bool"
        }
      ],
      "name": "updateTokenConfig",
      "outputs": [],
      "stateMutability": "nonpayable",
      "type": "function"
    },
    {
      "inputs": [
        {
          "internalType": "string",
          "name": "",
          "type": "string"
        }
      ],
      "name": "verificationStatus",
      "outputs": [
        {
          "internalType": "enum UnitpayFull.VerificationStatus",
          "name": "",
          "type": "uint8"
        }
      ],
      "stateMutability": "view",
      "type": "function"
    },
    {
      "inputs": [
        {
          "internalType": "string",
          "name": "paymentId",
          "type": "string"
        }
      ],
      "name": "withdrawPayment",
      "outputs": [
        {
          "internalType": "bool",
          "name": "",
          "type": "bool"
        }
      ],
      "stateMutability": "nonpayable",
      "type": "function"
    },
    {
      "inputs": [],
      "name": "withdrawPlatformFees",
      "outputs": [
        {
          "internalType": "bool",
          "name": "",
          "type": "bool"
        }
      ],
      "stateMutability": "nonpayable",
      "type": "function"
    }
  ],
  "bytecode": "0x610120346200019c576001600160401b0390601f620052f238819003918201601f191683019184831184841017620001a15780849260c0946040528339810103126200019c576200005081620001b7565b906200005f60208201620001b7565b91604082015190606083015192608081015195861686036200019c5760a0015160016000556001600160a01b039485166080529333156200015757600180546001600160a01b0319908116331790915591169081156200011257600354161760035560a05260c05261010091825260e0526040516151259182620001cd8339608051828181610a1e0152613111015260a05182612b0a015260c05182612b4c015260e05182612bdd01525181612bff0152f35b60405162461bcd60e51b815260206004820152601860248201527f5a65726f2061646472657373206e6f7420616c6c6f77656400000000000000006044820152606490fd5b60405162461bcd60e51b815260206004820152601860248201527f43616e6e6f7420736574206f776e657220746f207a65726f00000000000000006044820152606490fd5b600080fd5b634e487b7160e01b600052604160045260246000fd5b51906001600160a01b03821682036200019c5756fe6080604052600436101561001257600080fd5b60003560e01c80630252d0ed146102d757806304a56462146102d2578063059113eb146102cd578063078081e6146102c85780630b59a581146102c35780630ca76175146102be57806313947832146102b957806316e39dc2146102b45780631a98dcb3146102af578063225bc08a146102aa5780632485d0f5146102a557806328569d2b146102a05780632930fa491461029b57806338a13287146102965780633bdc9c551461029157806346544ea81461028c5780635691fe631461028757806356c350e4146102825780635fc25f6f1461027d578063604f897914610278578063666b9f4b1461027357806373e306e31461026e57806374c13fda1461026957806377b967911461026457806379ba50971461025f5780637e896cc51461025a5780638362492f1461025557806383a41ff314610250578063860ba4c11461024b5780638da5cb5b14610246578063912db0fb1461024157806395ccea671461023c578063977a2968146102375780639cf48d7d14610232578063a00623331461022d578063a194194914610228578063a38fbd8614610223578063c2b4298e1461021e578063c2e8528c14610219578063d0b7830b14610214578063d21c27821461020f578063f2fde38b1461020a578063f585dc57146102055763fd2240d31461020057600080fd5b612473565b612455565b612391565b612378565b612248565b61222a565b61220c565b612194565b612066565b61202c565b61200f565b611ff0565b611f73565b611e9a565b611e71565b611dc9565b611dab565b611d71565b611b69565b611aa9565b611a90565b611a67565b611a3a565b611a05565b6118d1565b6116e2565b611672565b6114ef565b611396565b6112d0565b611178565b61115c565b61103b565b610fdc565b610ddd565b610dc0565b610c19565b610b4a565b6109cf565b610868565b6107a4565b6106d9565b61049c565b61030e565b9181601f84011215610309578235916001600160401b038311610309576020838186019501011161030957565b600080fd5b34610309576040366003190112610309576001600160401b036004358181116103095761033f9036906004016102dc565b91906024359182116103095761046c927ff3897b43b82055dbcce0f9011f85a239a69153e8b3c03aa8fc17dabd642787e26103816104679436906004016102dc565b6103ef60016103e0600a6103b46103af61039e8a8c9a999a612661565b546103aa8115156126de565b612734565b6113cf565b50808401546103d5906001600160a01b03163390868060a01b031614612764565b015460081c60ff1690565b6103e981611441565b146127b0565b6104156104066103ff868861267a565b5460ff1690565b61040f81611a30565b156127f5565b61042981846104248789612693565b61259a565b610443610436858761267a565b805460ff19166001179055565b61044d8486612835565b9261045d6040519283928361286b565b0390a2369161097a565b612a55565b005b602060031982011261030957600435906001600160401b03821161030957610498916004016102dc565b9091565b34610309576104aa3661046e565b906104b361487a565b6104c36103af61039e8484612661565b506105c8600a82019361056c8554956104ea600160ff89166104e481611425565b14614a70565b61053c60ff808960081c16986104ff8a611441565b61050b60018b146127b0565b87546105329061052b906001600160a01b03165b6001600160a01b031690565b3314614ab4565b60101c1615614af4565b61055461054c600587015461320c565b421015614d06565b61055d87611441565b805461ff001916610500179055565b60028301546105859061051f906001600160a01b031681565b835460038501805460405163a9059cbb60e01b81526001600160a01b03909316600484015260248301529590939091602091859190829060009082906044820190565b03925af19485156106d45761060c610689956105ff6000805160206150d083398151915298610661976000916106a6575b506144ee565b546001600160a01b031690565b9054907f28afe715dbd83795e640b15a8e7a443f6bcc98def0089c4fe40e6c0841de914561065961063d8686612835565b6040519485526001600160a01b03909316939081906020820190565b0390a3612835565b6040805160ff9095168552600560208601523390850152426060850152929081906080820190565b0390a26106966001600055565b60405160018152602090f35b0390f35b6106c7915060203d81116106cd575b6106bf818361091e565b8101906144d9565b386105f9565b503d6106b5565b6130ae565b34610309576020806106ea3661046e565b919082604051938492833781016006815203019020541515604051908152f35b602435906001600160a01b038216820361030957565b600435906001600160a01b038216820361030957565b9060a0600319830112610309576001600160a01b03916004358381168103610309579260243590811681036103095791604435916001600160401b0391606435838111610309578261078a916004016102dc565b9390939260843591821161030957610498916004016102dc565b346103095760206107e26107d46107dc6107bd36610736565b96939597916107cd93919361487a565b369161097a565b94369161097a565b936146de565b60016000556040519015158152f35b6040810190604081528251809252606081019160208094019060005b818110610851575050508281830391015281808451928381520193019160005b82811061083b575050505090565b835115158552938101939281019260010161082d565b825160ff168552938501939185019160010161080d565b34610309576020366003190112610309576004356001600160401b038082116103095736602383011215610309578160040135908111610309573660248260051b840101116103095760246108bd9201614e52565b906106a2604051928392836107f1565b634e487b7160e01b600052604160045260246000fd5b604081019081106001600160401b038211176108fe57604052565b6108cd565b608081019081106001600160401b038211176108fe57604052565b90601f801991011681019081106001600160401b038211176108fe57604052565b604051906101a082018281106001600160401b038211176108fe57604052565b6001600160401b0381116108fe57601f01601f191660200190565b9291926109868261095f565b91610994604051938461091e565b829481845281830111610309578281602093846000960137010152565b9080601f83011215610309578160206109cc9335910161097a565b90565b34610309576060366003190112610309576004356001600160401b0360243581811161030957610a039036906004016109b1565b9060443590811161030957610a1c9036906004016109b1565b7f00000000000000000000000000000000000000000000000000000000000000006001600160a01b03163303610a7d57610a569183613fe6565b7f85e1543bf2f84fe80c6badbce3648c8539ad1df4d2b3d822938ca0538be727e6600080a2005b60405163c6829f8360e01b8152600490fd5b60005b838110610aa25750506000910152565b8181015183820152602001610a92565b90602091610acb81518092818552858086019101610a8f565b601f01601f1916010190565b9a9691946101609a9d9c99948c6040610b349860ff9c978d9b9660018060a01b03928380921686521660208501521691015260608d015260808c015260a08b015260c08a015260e0890152610180806101008a0152880190610ab2565b9716610120860152166101408401521515910152565b346103095760ff610b836103af6020610b623661046e565b919082604051938492833781016006815203019020546103aa8115156126de565b5080546106a2906001600160a01b031660018301546001600160a01b031660028401549093906001600160a01b031660038201549460048301546005840154600685015490600786015492600a870154998a96610bfd60098e808b169a610be98c611425565b60081c169a610bf78c611441565b01610fae565b966040519d8e9d60101c169a8d610ad7565b8015150361030957565b34610309576080366003190112610309576004356001600160401b03811161030957610c499036906004016102dc565b90610c5261070a565b906044359160ff831683036103095760643592610c6e84610c0f565b610c766124ce565b6001600160a01b038216948515610d83577f5b98a0b8d95466d30425b78df6c383f9e0e0ceb178abd7068bbf3d501d94dc2d93610d6b93610d3987610d5895610cc086151561489d565b610d1c610ce885610cd189896126ac565b9060018060a01b0316600052602052604060002090565b80546001600160a01b0319166001600160a01b03871617815591825460ff60a01b191660a09190911b60ff60a01b16178255565b805460ff60a81b191691151560a81b60ff60a81b16919091179055565b8615610d7057610d5290610d4d84846126c5565b6148e9565b50612835565b6040519315158452929081906020820190565b0390a3005b610d5290610d7e84846126c5565b614951565b60405162461bcd60e51b8152602060048201526015602482015274496e76616c696420746f6b656e206164647265737360581b6044820152606490fd5b346103095760003660031901126103095760206040516107088152f35b3461030957610e8c610dee3661046e565b90610df761487a565b610e87610e0a6103af61039e8585612661565b50610e7660ff600a830192610e6c610e646006865493610e3160018787166104e481611425565b610e456002878760081c166103e981611441565b8054610e5d9061052b906001600160a01b031661051f565b015461321b565b421115614c47565b60101c1615614c8c565b805462ff0000191662010000179055565b612835565b604051907f91c26a99a0a4d117c4d67f42c08c4c42d13094fbef4b6a53a9dd88e5c2256386600080a2610ebf6001600055565b60018152602090f35b634e487b7160e01b600052600060045260246000fd5b90600182811c92168015610f0e575b6020831014610ef857565b634e487b7160e01b600052602260045260246000fd5b91607f1691610eed565b9060009291805491610f2983610ede565b918282526001938481169081600014610f8b5750600114610f4b575b50505050565b90919394506000526020928360002092846000945b838610610f77575050505001019038808080610f45565b805485870183015294019385908201610f60565b9294505050602093945060ff191683830152151560051b01019038808080610f45565b90610fc9610fc29260405193848092610f18565b038361091e565b565b9060206109cc928181520190610ab2565b34610309576020366003190112610309576001600160a01b03610ffd610720565b16600052600b6020526106a2611020611027604060002060405192838092610f18565b038261091e565b604051918291602083526020830190610ab2565b34610309576110493661046e565b906110526124ce565b61105a61487a565b61106a6103af61039e8484612661565b506110cd600a82019361056c85549561108b600160ff89166104e481611425565b6110b560ff808960081c16986110a08a611441565b6110ac60018b146127b0565b60101c16614ccb565b6110be87611441565b805461ff001916610400179055565b03925af19485156106d457611103610689956105ff6000805160206150d083398151915298611134976000916106a657506144ee565b9054907f4f4233d8b608dab7ae8be019715573700f481096c3c0695cc3f8ff3bdc436bdd61065961063d8686612835565b6040805160ff9095168552600460208601523390850152426060850152929081906080820190565b3461030957600036600319011261030957602060405160058152f35b346103095761126d6000805160206150d083398151915261068961119b3661046e565b6111a694919461487a565b6111b66103af61039e8388612661565b5094600a8601956112268754976111d5600160ff8b166104e481611425565b61120e60ff808b60081c169a6111ea8c611441565b6111f660018d146127b0565b610532611206600588015461322b565b421015614b36565b61121789611441565b805461ff001916610200179055565b6006429101556112368282612835565b604051600181527f0338bd150f7922769ad6d998d3a6b2fc3668a74ac52c70c13136927bd1c197899080602081015b0390a2612835565b6040805160ff9095168552600260208601523390850152426060850152929081906080820190565b6020908160408183019282815285518094520193019160005b8281106112bc575050505090565b8351855293810193928101926001016112ae565b3461030957602080600319360112610309576001600160a01b036112f2610720565b1660005260088152604060002090604051908181845491828152019360005281600020916000905b82821061133d576106a2856113318189038261091e565b60405191829182611295565b83548652948501946001938401939091019061131a565b604060031982011261030957600435906001600160401b0382116103095761137e916004016102dc565b90916024356001600160a01b03811681036103095790565b346103095760206113af6113a936611354565b91615043565b6040519015158152f35b634e487b7160e01b600052603260045260246000fd5b60055481101561140a57600b906005600052027f036b6384b5eca791c62761152d0c79bb0604c104a5fb6f4eb0703f3154bb3db00190600090565b6113b9565b634e487b7160e01b600052602160045260246000fd5b6002111561142f57565b61140f565b90600282101561142f5752565b6006111561142f57565b90600682101561142f5752565b9891966114dc969b9e9d9b6114d0966101809c96610fc99f9a60408e916114c1996114e79f9860018060a01b03928380921686521660208501521691015260608d015260808c015260a08b015260c08a015260e08901526101a0806101008a0152880190610ab2565b90868203610120880152610ab2565b98610140850190611434565b61016083019061144b565b019015159052565b346103095760203660031901126103095760043560055481101561030957611516906113cf565b50805460018201546001600160a01b0391821692916106a2911660028301549093906001600160a01b0316926003810154946004820154916005810154600682015460078301549061156a60088501610fae565b92600a61157960098701610fae565b950154966040519b8c9b8c9860ff8b60101c169b60ff808d60081c169c169a611458565b906115b060209282815194859201610a8f565b0190565b60206115cd918160405193828580945193849201610a8f565b8101600981520301902090565b60206115f3918160405193828580945193849201610a8f565b8101600c81520301902090565b6020611619918160405193828580945193849201610a8f565b8101600e81520301902090565b602061163f918160405193828580945193849201610a8f565b8101600d81520301902090565b6020611665918160405193828580945193849201610a8f565b8101600681520301902090565b34610309576040366003190112610309576004356001600160401b038111610309576116b86116a760609236906004016109b1565b610cd16116b261070a565b916115b4565b5460ff6040519160018060a01b0381168352818160a01c16602084015260a81c1615156040820152f35b34610309576118216116f33661046e565b91906116fd61487a565b61170d6103af61039e8584612661565b5090600a820193845491611729600160ff85166104e481611425565b6117a060ff8460081c169661173d88611441565b61174960028914614b82565b61178860ff600188019661177061176961051f8a5460018060a01b031690565b3314614bc6565b61053261178060068b015461323a565b421015614bfb565b61179188611441565b805461ff001916610300179055565b6117d4602060038601546117e761051f61051f600260078b019a6117d96117c98d548098612757565b988997600454613266565b600455565b01546001600160a01b031690565b865460405163a9059cbb60e01b81526001600160a01b03909116600482015260248101929092529097889190829060009082906044820190565b03925af19485156106d4577fa4b9aff2e7bd4815fd0c77044b1652a3cdc9d61c082a9a75510dd9d30d1c10096118786118a9966105ff610689996000805160206150d08339815191529b6000916106a657506144ee565b91546118848686612835565b6040805195865260208601929092526001600160a01b03909316939081908101610659565b6040805160ff9095168552600360208601523390850152426060850152929081906080820190565b34610309576118df36610736565b959193909294861561199657611983611956966119899661196d6106a29a611934620f424060405160208101904282523360601b60408201524460548201526054815261192b81610903565b519020066142d8565b98611964604051809d819c637061795f60e01b6020840152602483019061159d565b03601f1981018c528b61091e565b6104248a6115da565b6107cd61197988611600565b805460ff19169055565b926146de565b5060405191829182610fcb565b60405162461bcd60e51b815260206004820152601e60248201527f4d65726368616e7420656d61696c2063616e6e6f7420626520656d70747900006044820152606490fd5b602060031982011261030957600435906001600160401b038211610309576109cc916004016109b1565b34610309576106a2611020611027611a24611a1f366119db565b6115da565b60405192838092610f18565b6004111561142f57565b346103095760ff611a52611a4d366119db565b611600565b5416604051600482101561142f576020918152f35b34610309576000366003190112610309576003546040516001600160a01b039091168152602090f35b346103095760206113af611aa336611354565b91615088565b3461030957600080600319360112611b66576002546001600160a01b039081163303611b28576001546001600160a01b0316600180546001600160a01b0319163317905590600280546001600160a01b03191690553391167f8be0079c531659141344cd1fd0a4f28419497f9722a3daafe3b4186f6b6457e08380a380f35b60405162461bcd60e51b815260206004820152601660248201527526bab9ba10313290383937b837b9b2b21037bbb732b960511b6044820152606490fd5b80fd5b3461030957611b7736610736565b611b84959193949561487a565b6001600160a01b0387811697909490611b9e891515614372565b611ba98815156143b3565b611bb48315156143ff565b611bc8611bc18484612661565b541561444b565b611beb611be6611bdc86610cd1898c6126ac565b5460a81c60ff1690565b614497565b6040516323b872dd60e01b81523360048201526001600160a01b03821660248201526044810189905293602085806064810103816000809b86165af19081156106d45789611d1e611d4294611d04611d3d948c611ce58f7fce1770ab7d1a256d012b7c071d6629036759ad11c5cffd2e6cd7d8b2dffc7e7c9f8f90611d529f9b8f9c611c7c92916106a657506144ee565b611cd88d6005549c8d9b611cb4611c9161093f565b338152996001600160a01b038d1660208c01526001600160a01b031660408b0152565b60608901524260808901528660a08901528660c08901528660e0890152369161097a565b610100860152369161097a565b6101208301528061014083015280610160830152610180820152614544565b336000908152600760205260409020611d239084906146a5565b6146a5565b6001600160a01b0316600090815260086020526040902090565b61324a565b611d4c8383612661565b55612835565b92611d64604051928392339784614a59565b0390a46106966001600055565b34610309576020366003190112610309576001600160a01b03611d92610720565b1660005260076020526020604060002054604051908152f35b34610309576000366003190112610309576020604051620151808152f35b3461030957611de0611dda3661046e565b906126c5565b60405190819080548084526020809401908192600052846000209060005b86828210611e5d578686611e148288038361091e565b604051928392818401908285525180915260408401929160005b828110611e3d57505050500390f35b83516001600160a01b031685528695509381019392810192600101611e2e565b835485529093019260019283019201611dfe565b34610309576000366003190112610309576001546040516001600160a01b039091168152602090f35b346103095761126d6000805160206150d0833981519152610689611ebd3661046e565b611ec894919461487a565b611ed86103af61039e8388612661565b5094600a860195611f30875497611ef7600160ff8b166104e481611425565b61120e60ff808b60081c169a611f0c8c611441565b611f1860018d146127b0565b85546105329061052b906001600160a01b031661051f565b600642910155611f408282612835565b604051600081527f0338bd150f7922769ad6d998d3a6b2fc3668a74ac52c70c13136927bd1c19789908060208101611265565b3461030957604036600319011261030957611f8c610720565b611f946124ce565b60015460405163a9059cbb60e01b81526001600160a01b03918216600482015260248035908201529160209183916044918391600091165af180156106d457611fd957005b61046c9060203d81116106cd576106bf818361091e565b34610309576106a2611020611027611a2461200a366119db565b611626565b34610309576000366003190112610309576020604051612a308152f35b34610309576020366003190112610309576001600160a01b0361204d610720565b1660005260086020526020604060002054604051908152f35b34610309576120743661046e565b90811561215757600090338252602092600b845260408320916001600160401b0382116108fe576120af826120a98554610ede565b85612555565b8394601f83116001146120eb5750938394829394926120e0575b50508160011b916000199060031b1c191617905580f35b0135905038806120c9565b90601f1983169561210185600052602060002090565b9286905b88821061213f57505083600195969710612125575b505050811b01905580f35b0135600019600384901b60f8161c1916905538808061211a565b80600184968294958701358155019501920190612105565b60405162461bcd60e51b8152602060048201526015602482015274456d61696c2063616e6e6f7420626520656d70747960581b6044820152606490fd5b3461030957602080600319360112610309576001600160a01b036121b6610720565b1660005260078152604060002090604051908181845491828152019360005281600020916000905b8282106121f5576106a2856113318189038261091e565b8354865294850194600193840193909101906121de565b34610309576000366003190112610309576020600554604051908152f35b34610309576000366003190112610309576020600454604051908152f35b34610309576000366003190112610309576122616124ce565b61226961487a565b6004548015612333576122d5906122806000600455565b600354602090829061229a906001600160a01b031661051f565b60015460405163a9059cbb60e01b81526001600160a01b03909116600482015260248101929092529093849190829060009082906044820190565b03925af19081156106d457612316612326927f9870c8023baa016ac002ddfa7cdad341155acddddee3032c07d4baa4947ae643946000916106a657506144ee565b6040519081529081906020820190565b0390a16106966001600055565b60405162461bcd60e51b815260206004820152601c60248201527f4e6f20706c6174666f726d206665657320746f207769746864726177000000006044820152606490fd5b346103095760206113af61238b3661046e565b90614f31565b34610309576020366003190112610309576123aa610720565b6123b26124ce565b6001600160a01b031633811461241057600280546001600160a01b031916821790556001546123e9906001600160a01b031661051f565b7fed8889f560326eb138920d842192f0eb3dd22b4f139c87a2c57538e05bae1278600080a3005b60405162461bcd60e51b815260206004820152601760248201527f43616e6e6f74207472616e7366657220746f2073656c660000000000000000006044820152606490fd5b346103095760003660031901126103095760206040516203f4808152f35b346103095761010061248d6124873661046e565b90614d52565b9560ff6040969395929651981688521515602088015260018060a01b038092166040880152166060860152608085015260a084015260c083015260e0820152f35b6001546001600160a01b031633036124e257565b60405162461bcd60e51b815260206004820152601660248201527527b7363c9031b0b63630b1363290313c9037bbb732b960511b6044820152606490fd5b9161253a9183549060031b91821b91600019901b19161790565b9055565b818110612549575050565b6000815560010161253e565b9190601f811161256457505050565b610fc9926000526020600020906020601f840160051c83019310612590575b601f0160051c019061253e565b9091508190612583565b9092916001600160401b0381116108fe576125bf816125b98454610ede565b84612555565b6000601f82116001146125f957819293946000926125ee575b50508160011b916000199060031b1c1916179055565b0135905038806125d8565b601f1982169461260e84600052602060002090565b91805b87811061264957508360019596971061262f575b505050811b019055565b0135600019600384901b60f8161c19169055388080612625565b90926020600181928686013581550194019101612611565b6020908260405193849283378101600681520301902090565b6020908260405193849283378101600e81520301902090565b6020908260405193849283378101600d81520301902090565b6020908260405193849283378101600981520301902090565b6020908260405193849283378101600a81520301902090565b156126e557565b60405162461bcd60e51b815260206004820152601160248201527014185e5b595b9d081b9bdd08199bdd5b99607a1b6044820152606490fd5b634e487b7160e01b600052601160045260246000fd5b60001981019190821161274357565b61271e565b601f1981019190821161274357565b9190820391821161274357565b1561276b57565b60405162461bcd60e51b815260206004820152601d60248201527f4f6e6c792064657369676e61746564204c502063616e207375626d69740000006044820152606490fd5b156127b757565b60405162461bcd60e51b8152602060048201526016602482015275496e76616c6964207061796d656e742073746174757360501b6044820152606490fd5b156127fc57565b60405162461bcd60e51b8152602060048201526011602482015270105b1c9958591e481cdd589b5a5d1d1959607a1b6044820152606490fd5b81604051928392833781016000815203902090565b908060209392818452848401376000828201840152601f01601f1916010190565b9160206109cc93818152019161284a565b6040519060e082018281106001600160401b038211176108fe57604052606060c08360008152600060208201526000604082015282808201528260808201528260a08201520152565b6001600160401b0381116108fe5760051b60200190565b6040519060a082018281106001600160401b038211176108fe57604052600482528160005b6080811061290d575050565b806060602080938501015201612901565b80511561140a5760200190565b80516001101561140a5760400190565b80516002101561140a5760600190565b80516003101561140a5760800190565b805182101561140a5760209160051b010190565b91909182516001600160401b0381116108fe57612990816125b98454610ede565b602080601f83116001146129cb5750819293946000926129c05750508160011b916000199060031b1c1916179055565b0151905038806125d8565b90601f198316956129e185600052602060002090565b926000905b888210612a1d57505083600195969710612a0457505050811b019055565b015160001960f88460031b161c19169055388080612625565b806001859682949686015181550195019301906129e6565b612a4d90602060405192828480945193849201610a8f565b810103902090565b7fcb4efc405b00543d057b47dbeaf4292cbb3b07be86fbeaa9d4afd6080ec711da612c58612c47612c24612bdb612a976103af612a918861164c565b54612734565b50612bd6612aac612aa789611626565b610fae565b612ab8612aa78a6115da565b92612ba86003612af1612aa7612ad7600186015460018060a01b031690565b6001600160a01b03166000908152600b6020526040902090565b92612afa61287c565b96612b4a604051612b4481612b367f00000000000000000000000000000000000000000000000000000000000000006020830160209181520190565b03601f19810183528261091e565b89612f62565b7f0000000000000000000000000000000000000000000000000000000000000000612c5d575b612b786128dc565b95612b828761291e565b52612b8c8661291e565b50612b968661292b565b52612ba08561292b565b500154613d36565b612bb18361293b565b52612bbb8261293b565b50612bc58261294b565b52612bcf8161294b565b5082613080565b612d8f565b7f0000000000000000000000000000000000000000000000000000000000000000907f0000000000000000000000000000000000000000000000000000000000000000906130ba565b93612c4281612c3d87600052600f602052604060002090565b61296f565b612a35565b604051938452929081906020820190565b0390a2565b612c6688612f8b565b612b70565b60405190612c78826108e3565b600c82526b31b7b232a637b1b0ba34b7b760a11b6020830152565b6003111561142f57565b60405190612caa826108e3565b60088252676c616e677561676560c01b6020830152565b6001111561142f57565b60405190612cd8826108e3565b6006825265736f7572636560d01b6020830152565b60405190612cfa826108e3565b60048252636172677360e01b6020830152565b60001981146127435760010190565b60405190612d29826108e3565b600f82526e39b2b1b932ba39a637b1b0ba34b7b760891b6020830152565b60405190612d54826108e3565b60078252667365637265747360c81b6020830152565b60405190612d77826108e3565b600982526862797465734172677360b81b6020830152565b612d976131bc565b90612da9612da3612c6b565b836139c5565b612dc68151612db781612c93565b612dc081612c93565b836132c5565b612dd1612da3612c9d565b612deb6040820151612de281612cc1565b612dc081612cc1565b612df6612da3612ccb565b612e046060820151836139c5565b60a08101805151612f09575b506080810190815151612e89575b60c0915001805151612e31575b50515190565b91612e3d612da3612d6a565b612e4682613a49565b60005b83518051821015612e765790612e6c612e6582612e719461295b565b5185613910565b612d0d565b612e49565b50509150612e8381613ad5565b38612e2b565b602081018051612e9881612c93565b612ea181612c93565b15612ef75760c092612eda612ef292612ec1612ebb612d1c565b886139c5565b51612ecb81612c93565b612ed481612c93565b866132c5565b612eeb612ee5612d47565b866139c5565b5184613910565b612e1e565b60405163a80d31f760e01b8152600490fd5b92612f1b612f15612ced565b846139c5565b612f2483613a49565b60005b84518051821015612f4f5790612e6c612f4382612f4a9461295b565b51866139c5565b612f27565b50509250612f5c82613ad5565b38612e10565b815115612f79576000808252604082015260600152565b6040516322ce3edd60e01b8152600490fd5b612f936131bc565b612fbb604051612fa2816108e3565b60068152651cdb1bdd125160d21b6020820152826139c5565b805190612fc66131a2565b508151516001810190818111612743576020840151811015613045575b600060206080955192830101538051821161303d575b505061302460405161300a816108e3565b60078152663b32b939b4b7b760c91b6020820152826139c5565b61302e81516136be565b50600260208401525151910152565b523880612ff9565b8160011b93828504600214831517156127435760208161307660809761306f600095519184613273565b5082613858565b5095505050612fe3565b81511561308d5760a00152565b60405163fe936cb760e01b8152600490fd5b90816020910312610309575190565b6040513d6000823e3d90fd5b916020916001600160401b03916130f3604051958694859463230e93b160e11b865216600485015260a0602485015260a4840190610ab2565b60016044840152620493e060648401526084830191909152038160007f00000000000000000000000000000000000000000000000000000000000000006001600160a01b03165af19081156106d457600091613174575b50807f1131472297a800fee664d1d89cfa8f7676ff07189ecc53f80bbb5f4969099db8600080a290565b613195915060203d811161319b575b61318d818361091e565b81019061309f565b3861314a565b503d613183565b604051906131af826108e3565b6000602083606081520152565b6040516131c8816108e3565b6131d06131a2565b80825260208201600081526131e36131a2565b506101006020830152604051809252600082526101208201918210610309576000916040525290565b90610708820180921161274357565b9062014370820180921161274357565b90612a30820180921161274357565b9062015180820180921161274357565b906001820180921161274357565b906020820180921161274357565b9190820180921161274357565b9061327c6131a2565b50601f8116806132ab575b50806020830152604051908183526000825281016020019081106103095760405290565b602003602081116127435781018091116127435738613287565b908151916132d16131a2565b50825151600181019081811161274357602085015181101561332a575b60c26020610fc99651928301015380518211613322575b50506040519160208301526020825261331d826108e3565b613910565b523880613305565b8160011b948286046002148315171561274357602081613355610fc99861306f60c295519184613273565b50965050506132ee565b908160011b918083046002149015171561274357565b9060058202918083046005149015171561274357565b6133936131a2565b5080515160018101908181116127435760208301518110156133cc575b605b602084519283010153805182116133c857505090565b5290565b8160011b82810460021483151715612743576133f5906133ee85519186613273565b5084613858565b506133b0565b6134036131a2565b508051516001810190818111612743576020830151811015613438575b605a602084519283010153805182116133c857505090565b8160011b828104600214831517156127435761345a906133ee85519186613273565b50613420565b6134686131a2565b50805151600181019081811161274357602083015181101561349d575b6059602084519283010153805182116133c857505090565b8160011b82810460021483151715612743576134bf906133ee85519186613273565b50613485565b6134cd6131a2565b508051516001810190818111612743576020830151811015613502575b6058602084519283010153805182116133c857505090565b8160011b8281046002148315171561274357613524906133ee85519186613273565b506134ea565b6135326131a2565b508051516001810190818111612743576020830151811015613567575b607b602084519283010153805182116133c857505090565b8160011b8281046002148315171561274357613589906133ee85519186613273565b5061354f565b6135976131a2565b5080515160018101908181116127435760208301518110156135cc575b607a602084519283010153805182116133c857505090565b8160011b82810460021483151715612743576135ee906133ee85519186613273565b506135b4565b6135fc6131a2565b508051516001810190818111612743576020830151811015613631575b6079602084519283010153805182116133c857505090565b8160011b8281046002148315171561274357613653906133ee85519186613273565b50613619565b6136616131a2565b508051516001810190818111612743576020830151811015613696575b6078602084519283010153805182116133c857505090565b8160011b82810460021483151715612743576136b8906133ee85519186613273565b5061367e565b6136c66131a2565b5080515160018101908181116127435760208301518110156136fb575b6001602084519283010153805182116133c857505090565b8160011b828104600214831517156127435761371d906133ee85519186613273565b506136e3565b9061372c6131a2565b50815151600181019182821161274357602084015182101561375f575b602084519283010153805182116133c857505090565b8260011b83810460021484151715612743576137889061378186519187613273565b5085613858565b50613749565b9061379b82519183613273565b506137a46131a2565b508051906137b06131a2565b506137be8151831115613909565b825151926137cc8385613266565b916020928284809401518211613841575b5183815197820101968211613839575b505001915b818110156138135760001991036101000a0190811990511690825116179052565b919261382e6138286138349286518152613258565b94613258565b92612748565b6137f2565b5238806137ed565b61385361384d8361335f565b8261378e565b6137dd565b906138616131a2565b50805161386c6131a2565b5061387a8251821115613909565b825151916138888284613266565b60209182918287015181116138f2575b8651838151978201019682116138ea575b505001915b818110156138d05760001991036101000a019081199051169082511617905290565b919261382e6138286138e59286518152613258565b6138ae565b5238806138a9565b6139046138fe8261335f565b8861378e565b613898565b1561030957565b81516139479291906001600160401b038116906017821161394a5761393f9150604060ff845192161790613723565b505b51613858565b50565b5060ff811161396f576139699061396183516134c5565b508251613c9e565b50613941565b61ffff811161398e57613969906139868351613460565b508251613c37565b63ffffffff81116139af57613969906139a783516133fb565b508251613bce565b613969906139bd835161338b565b508251613b62565b81516139479291906001600160401b03811690601782116139f45761393f9150606060ff845192161790613723565b5060ff8111613a0b57613969906139618351613659565b61ffff8111613a22576139699061398683516135f4565b63ffffffff8111613a3b57613969906139a7835161358f565b613969906139bd835161352a565b805190613a546131a2565b508151516001810190818111612743576020840151811015613aa2575b609f6020809551928301015380518211613a9a575b505001805190600182018092116127435752565b523880613a86565b8160011b938285046002148315171561274357602081613acb829761306f609f95519184613273565b5095505050613a71565b805190613ae06131a2565b508151516001810190818111612743576020840151811015613b2f575b60ff6020809551928301015380518211613b27575b50500180516000198101919082116127435752565b523880613b12565b8160011b938285046002148315171561274357602081613b58829761306f60ff95519184613273565b5095505050613afd565b90613b6b6131a2565b508151518060080191826008116127435760208401518311613bad575b6008845192830101906001600160401b0319825116179052805182116133c857505090565b8260011b8381046002148415171561274357613bc9908561378e565b613b88565b90613bd76131a2565b508151518060040191826004116127435760208401518311613c16575b60048451928301019063ffffffff19825116179052805182116133c857505090565b8260011b8381046002148415171561274357613c32908561378e565b613bf4565b90613c406131a2565b508151518060020191826002116127435760208401518311613c7d575b60028451928301019061ffff19825116179052805182116133c857505090565b8260011b8381046002148415171561274357613c99908561378e565b613c5d565b90613ca76131a2565b508151518060010191826001116127435760208401518311613ce3575b60018451928301019060ff19825116179052805182116133c857505090565b8260011b8381046002148415171561274357613cff908561378e565b613cc4565b90613d0e8261095f565b613d1b604051918261091e565b8281528092613d2c601f199161095f565b0190602036910137565b806000917a184f03e93ff9f4daa797ed6e38ed64bf6a1f01000000000000000080821015613e6b575b506d04ee2d6d415b85acef810000000080831015613e5c575b50662386f26fc1000080831015613e4d575b506305f5e10080831015613e3e575b5061271080831015613e2f575b506064821015613e1f575b600a80921015613e15575b600190816021613dcd828701613d04565b95860101905b613ddf575b5050505090565b600019019083906f181899199a1a9b1b9c1cb0b131b232b360811b8282061a835304918215613e1057919082613dd3565b613dd8565b9160010191613dbc565b9190606460029104910191613db1565b60049193920491019138613da6565b60089193920491019138613d99565b60109193920491019138613d8a565b60209193920491019138613d78565b604093508104915038613d5f565b15613e8057565b60405162461bcd60e51b815260206004820152600f60248201526e155b9adb9bdddb881c995c5d595cdd608a1b6044820152606490fd5b613ec18154610ede565b9081613ecb575050565b81601f60009311600114613edd575055565b908083918252613efc601f60208420940160051c84016001850161253e565b5555565b81601f82011215610309578051613f168161095f565b92613f24604051948561091e565b81845260208284010111610309576109cc9160208085019101610a8f565b91608083830312610309578251906001600160401b03918281116103095783613f6c918601613f00565b9360208101518381116103095784613f85918301613f00565b936040820151936060830151908111610309576109cc9201613f00565b60405190613faf826108e3565b600982526810d3d354131155115160ba1b6020830152565b90600681101561142f5761ff0082549160081b169061ff001916179055565b90614026614021614004612aa785600052600f602052604060002090565b9361401185511515613e79565b600052600f602052604060002090565b613eb7565b6140356103af61039e8461164c565b50925161424957614050602091828082518301019101613f42565b919392838151910120614072612aa7612ad760018a015460018060a01b031690565b848151910120149384614226575b5083614218575b50826141fb575b50501561417c57612c58614154826140c46140b76000805160206150d083398151915295611600565b805460ff19166002179055565b600a8501946140e56140db875460ff9060081c1690565b9661121788611441565b6006429101556140f481612a35565b7fa9666caa7f73e1d8695413f0d01a9d1a35790236aef99afea9a330c933260ec1600080a261412281612a35565b604051600081527f0338bd150f7922769ad6d998d3a6b2fc3668a74ac52c70c13136927bd1c1978990602090a2612a35565b6040805160ff9095168552600260208601523090850152426060850152929081906080820190565b61419a9150612c4261418d82611600565b805460ff19166003179055565b7f7c25a4602a93bbf53e4a774f7358258af8f55caf75fc6b294ac8bb2f056d8bea60405180612c588160609060208152601a60208201527f566572696669636174696f6e2064617461206d69736d6174636800000000000060408201520190565b805190820120915061420b613fa2565b805191012014388061408e565b600386015414925038614087565b90935082815191012061423b612aa7866115da565b838151910120149238614080565b5061425b9150612c4261418d82611600565b7f7c25a4602a93bbf53e4a774f7358258af8f55caf75fc6b294ac8bb2f056d8bea60405180612c588160809060208152602260208201527f45787465726e616c206572726f7220647572696e67207665726966696361746960408201526137b760f11b60608201520190565b90815181101561140a570160200190565b8015614354576000818181805b61433c57506142f381613d04565b935b6142ff5750505090565b61430890612734565b90600a90603082820681018091116127435760f81b6001600160f81b031916841a61433384876142c7565b530490816142f5565b9150614349600a91612d0d565b9104808492916142e5565b50604051614361816108e3565b60018152600360fc1b602082015290565b1561437957565b60405162461bcd60e51b8152602060048201526012602482015271496e76616c6964204c50206164647265737360701b6044820152606490fd5b156143ba57565b60405162461bcd60e51b815260206004820152601d60248201527f416d6f756e74206d7573742062652067726561746572207468616e20300000006044820152606490fd5b1561440657565b60405162461bcd60e51b815260206004820152601a60248201527f5061796d656e742049442063616e6e6f7420626520656d7074790000000000006044820152606490fd5b1561445257565b60405162461bcd60e51b815260206004820152601760248201527f5061796d656e7420494420616c726561647920757365640000000000000000006044820152606490fd5b1561449e57565b60405162461bcd60e51b8152602060048201526013602482015272151bdad95b881b9bdd081cdd5c1c1bdc9d1959606a1b6044820152606490fd5b9081602091031261030957516109cc81610c0f565b156144f557565b60405162461bcd60e51b815260206004820152600f60248201526e151c985b9cd9995c8819985a5b1959608a1b6044820152606490fd5b90600281101561142f5760ff80198354169116179055565b600554600160401b8110156108fe5780600161456392016005556113cf565b91909161468857805182546001600160a01b0319166001600160a01b03909116178255610fc9916146709061018090600a9060208501516001820180546001600160a01b0319166001600160a01b0390921691909117905560408501516002820180546001600160a01b0319166001600160a01b03909216919091179055606085015160038201556080850151600482015560a0850151600582015560c0850151600682015560e085015160078201556146256101008601516008830161296f565b6146376101208601516009830161296f565b019261465161014082015161464b81611425565b8561452c565b61466961016082015161466381611441565b85613fc7565b0151151590565b815462ff0000191690151560101b62ff000016179055565b610ec8565b805482101561140a5760005260206000200190600090565b805490600160401b8210156108fe57816146c791600161253a9401815561468d565b819391549060031b91821b91600019901b19161790565b91929060018060a01b03808416956146f7871515614372565b6147028615156143b3565b61470e815115156143ff565b61471a611bc18261164c565b61472d611be6611bdc85610cd1886115b4565b61474161473987613375565b6103e8900490565b6040516323b872dd60e01b815233600482015230602482015260448101889052909590926020908490606490829060009089165af19485156106d457611d3d88611d1e61484794611d04614872996147c57f53c508e52d8f5e261d87a8d93a78c6851a65cafad8c6d9793451b38b256015f39c6148569b6000916106a657506144ee565b6005549687956147f96147d661093f565b338152936001600160a01b03871660208601526001600160a01b03166040850152565b60608301524260808301524260a0830152600060c08301528d60e083015289610100830152610120820152614832610140820160019052565b60016101608201526000610180820152614544565b6148508261164c565b55612a35565b9260405191829133968360209093929193604081019481520152565b0390a4600190565b60026000541461488b576002600055565b604051633ee5aeb560e01b8152600490fd5b156148a457565b60405162461bcd60e51b815260206004820152601760248201527f4e6574776f726b2063616e6e6f7420626520656d7074790000000000000000006044820152606490fd5b6109cc916001600160a01b0316906001810190826000528160205260406000205415600014614949578054600160401b8110156108fe576149346146c782600187940185558461468d565b90555491600052602052604060002055600190565b505050600090565b6109cc916001600160a01b0316906149a4565b805490811561498e576000199182019161497e838361468d565b909182549160031b1b1916905555565b634e487b7160e01b600052603160045260246000fd5b6001810191806000528260205260406000205492831515600014614a50576000199284840190858211612743578054948501948511612743576000958583614a07976149f89503614a0d575b505050614964565b90600052602052604060002090565b55600190565b614a37614a3191614a21614a47948761468d565b90549060031b1c9283918761468d565b90612520565b8590600052602052604060002090565b553880806149f0565b50505050600090565b6040906109cc94928152816020820152019161284a565b15614a7757565b60405162461bcd60e51b8152602060048201526015602482015274139bdd08185b88195cd8dc9bddc81c185e5b595b9d605a1b6044820152606490fd5b15614abb57565b60405162461bcd60e51b81526020600482015260116024820152702737ba103830bcb6b2b73a1037bbb732b960791b6044820152606490fd5b15614afb57565b60405162461bcd60e51b815260206004820152601360248201527214185e5b595b9d081a5cc8191a5cdc1d5d1959606a1b6044820152606490fd5b15614b3d57565b60405162461bcd60e51b815260206004820152601d60248201527f4175746f2072656c656173652074696d65206e6f7420726561636865640000006044820152606490fd5b15614b8957565b60405162461bcd60e51b815260206004820152601560248201527414185e5b595b9d081b9bdd0818dbdb999a5c9b5959605a1b6044820152606490fd5b15614bcd57565b60405162461bcd60e51b815260206004820152600660248201526504e6f74204c560d41b6044820152606490fd5b15614c0257565b60405162461bcd60e51b815260206004820152601960248201527f542b31206c6f636b2074696d65206e6f742072656163686564000000000000006044820152606490fd5b15614c4e57565b60405162461bcd60e51b8152602060048201526016602482015275111a5cdc1d5d19481dda5b991bddc8195e1c1a5c995960521b6044820152606490fd5b15614c9357565b60405162461bcd60e51b815260206004820152601060248201526f105b1c9958591e48191a5cdc1d5d195960821b6044820152606490fd5b15614cd257565b60405162461bcd60e51b815260206004820152600c60248201526b139bdd08191a5cdc1d5d195960a21b6044820152606490fd5b15614d0d57565b60405162461bcd60e51b815260206004820152601760248201527f5061796d656e74206e6f742079657420657870697265640000000000000000006044820152606490fd5b60209082604051938492833781016006815203019020548015614dd7576103af614d7b91612734565b5090600a8201549160ff8360081c16614d9381611441565b81546001600160a01b031660018301549093906001600160a01b03169260038101549260048201549260ff60066005850154940154929860101c1696959493929190565b50600090600080918180918180918190565b90614df3826128c5565b614e00604051918261091e565b8281528092613d2c601f19916128c5565b919081101561140a5760051b81013590601e19813603018212156103095701908135916001600160401b038311610309576020018236038113610309579190565b919091614e5e836128c5565b90614e6c604051928361091e565b838252601f19614e7b856128c5565b01366020840137614e8b84614de9565b93600090815b818110614ea057505050509190565b80614eb8614eb2614edc938588614e11565b90612661565b5480614ee1575083614eca828861295b565b5283614ed6828a61295b565b52612d0d565b614e91565b600a614ef26103af612e6c93612734565b50015460ff90614f1c828260081c16614f0a81611441565b614f14868c61295b565b9060ff169052565b60101c16614f2a838b61295b565b9015159052565b614f3c91369161097a565b805190600382108015615039575b61503257600090815b838110614f635750505050600190565b614f8e614f81614f7383856142c7565b516001600160f81b03191690565b6001600160f81b03191690565b600360fc1b8110159081615023575b8115614fff575b8115614fdb575b8115614fcd575b5015614fc657614fc190612d0d565b614f53565b5050905090565b605f60f81b14905038614fb2565b9050606160f81b81101580614ff1575b90614fab565b50603d60f91b811115614feb565b9050604160f81b81101580615015575b90614fa4565b50602d60f91b81111561500f565b603960f81b8111159150614f9d565b5050600090565b5060408211614f4a565b6020908260405193849283378101600681520301902054801561503257600019810190811161274357615075906113cf565b50546001600160a01b0391821691161490565b60209082604051938492833781016006815203019020548015615032576000198101908111612743576150bc6001916113cf565b50818060a01b039182910154169116149056fe22c682de3fcd506153c6e19ddc037c8ea009baf9e1f7561ca71fc25a6316ad72a2646970667358221220bec38c30a272a50382d0a880f9dc5989eeeb44b7d2621946edc14509fbd5571464736f6c63430008140033",
  "linkReferences": {},
  "deployedLinkReferences": {}
}