{
  "_format": "hh-sol-artifact-1",
  "contractName": "TestFunctions",
  "sourceName": "contracts/TestFunctions.sol",
  "abi": [
    {
      "inputs": [
        {
          "internalType": "address",
          "name": "router",
          "type": "address"
        },
        {
          "internalType": "uint64",
          "name": "subscriptionId",
          "type": "uint64"
        },
        {
          "internalType": "bytes32",
          "name": "donId",
          "type": "bytes32"
        }
      ],
      "stateMutability": "nonpayable",
      "type": "constructor"
    },
    {
      "inputs": [],
      "name": "EmptyArgs",
      "type": "error"
    },
    {
      "inputs": [],
      "name": "EmptySource",
      "type": "error"
    },
    {
      "inputs": [],
      "name": "NoInlineSecrets",
      "type": "error"
    },
    {
      "inputs": [],
      "name": "OnlyRouterCanFulfill",
      "type": "error"
    },
    {
      "anonymous": false,
      "inputs": [
        {
          "indexed": true,
          "internalType": "bytes32",
          "name": "id",
          "type": "bytes32"
        }
      ],
      "name": "RequestFulfilled",
      "type": "event"
    },
    {
      "anonymous": false,
      "inputs": [
        {
          "indexed": true,
          "internalType": "bytes32",
          "name": "id",
          "type": "bytes32"
        }
      ],
      "name": "RequestSent",
      "type": "event"
    },
    {
      "anonymous": false,
      "inputs": [
        {
          "indexed": false,
          "internalType": "string",
          "name": "reason",
          "type": "string"
        }
      ],
      "name": "TestFailed",
      "type": "event"
    },
    {
      "anonymous": false,
      "inputs": [
        {
          "indexed": true,
          "internalType": "bytes32",
          "name": "requestId",
          "type": "bytes32"
        }
      ],
      "name": "TestRequestSent",
      "type": "event"
    },
    {
      "anonymous": false,
      "inputs": [
        {
          "indexed": true,
          "internalType": "bytes32",
          "name": "requestId",
          "type": "bytes32"
        },
        {
          "indexed": false,
          "internalType": "bytes",
          "name": "response",
          "type": "bytes"
        },
        {
          "indexed": false,
          "internalType": "bytes",
          "name": "err",
          "type": "bytes"
        }
      ],
      "name": "TestResponseReceived",
      "type": "event"
    },
    {
      "anonymous": false,
      "inputs": [],
      "name": "TestSucceeded",
      "type": "event"
    },
    {
      "inputs": [
        {
          "internalType": "bytes32",
          "name": "requestId",
          "type": "bytes32"
        },
        {
          "internalType": "bytes",
          "name": "response",
          "type": "bytes"
        },
        {
          "internalType": "bytes",
          "name": "err",
          "type": "bytes"
        }
      ],
      "name": "handleOracleFulfillment",
      "outputs": [],
      "stateMutability": "nonpayable",
      "type": "function"
    },
    {
      "inputs": [],
      "name": "lastError",
      "outputs": [
        {
          "internalType": "bytes",
          "name": "",
          "type": "bytes"
        }
      ],
      "stateMutability": "view",
      "type": "function"
    },
    {
      "inputs": [],
      "name": "lastResponse",
      "outputs": [
        {
          "internalType": "bytes",
          "name": "",
          "type": "bytes"
        }
      ],
      "stateMutability": "view",
      "type": "function"
    },
    {
      "inputs": [],
      "name": "s_donId",
      "outputs": [
        {
          "internalType": "bytes32",
          "name": "",
          "type": "bytes32"
        }
      ],
      "stateMutability": "view",
      "type": "function"
    },
    {
      "inputs": [],
      "name": "s_subscriptionId",
      "outputs": [
        {
          "internalType": "uint64",
          "name": "",
          "type": "uint64"
        }
      ],
      "stateMutability": "view",
      "type": "function"
    },
    {
      "inputs": [],
      "name": "sendTestRequest",
      "outputs": [
        {
          "internalType": "bytes32",
          "name": "requestId",
          "type": "bytes32"
        }
      ],
      "stateMutability": "nonpayable",
      "type": "function"
    },
    {
      "inputs": [],
      "name": "success",
      "outputs": [
        {
          "internalType": "bool",
          "name": "",
          "type": "bool"
        }
      ],
      "stateMutability": "view",
      "type": "function"
    }
  ],
  "bytecode": "0x60e0346100b7576001600160401b03601f611b2b38819003918201601f1916840191838311858410176100bc578085926060946040528339810103126100b75781516001600160a01b03811692908390036100b757602081015191821682036100b757604001519160805260ff196002541660025560a05260c052604051611a5890816100d3823960805181818161026f0152610c0b015260a05181818160f6015261068a015260c05181818160d401526106c60152f35b600080fd5b634e487b7160e01b600052604160045260246000fdfe6080604052600436101561001257600080fd5b6000803560e01c90816305b1efa01461008a575080630b93381b146100855780630ca761751461008057806329f0de3f1461007b57806362747e42146100765780638ac00021146100715763dfd6edd21461006c57600080fd5b6106ae565b61066a565b6105c5565b6104f1565b61021f565b61014a565b3461014757806003193601126101475760209061011b6100d26100ab6106e9565b6100bc6100b6610732565b82610b51565b6100cd6100c76107d2565b82610b7a565b61097e565b7f0000000000000000000000000000000000000000000000000000000000000000907f000000000000000000000000000000000000000000000000000000000000000090610bb4565b807ffafbbe20938ef3c09f278e0dbfe31c7be453e66fcd0ac313e24aef8387ab81306040519380a28152f35b80fd5b3461016d57600036600319011261016d57602060ff600254166040519015158152f35b600080fd5b634e487b7160e01b600052604160045260246000fd5b604081019081106001600160401b038211176101a357604052565b610172565b90601f801991011681019081106001600160401b038211176101a357604052565b81601f8201121561016d578035906001600160401b0382116101a357604051926101fd601f8401601f1916602001856101a8565b8284526020838301011161016d57816000926020809301838601378301015290565b3461016d57606036600319011261016d576004356001600160401b0360243581811161016d576102539036906004016101c9565b9060443590811161016d5761026c9036906004016101c9565b907f00000000000000000000000000000000000000000000000000000000000000006001600160a01b03163303610451576102a681611838565b6102af82611920565b827f4362d3bb35c11dee54d3f37b628277bc1c19f566c97aad81c5e4eb6fad56cf90604051806102e08686836119ed565b0390a2815115610356575061032b7fec3dd89a2232b0472e152c6218e795a6f13e2a09009c7e8fc9c031a950bdaf2c9161031f60ff1960025416600255565b604051918291826104dd565b0390a15b7f85e1543bf2f84fe80c6badbce3648c8539ad1df4d2b3d822938ca0538be727e6600080a2005b805160201491508161041d575b50156103a55761037b600160ff196002541617600255565b7f130883a15e34665cd39c00a220f8b46467235c2470811f8322d2e8c0bc0a2e1f600080a161032f565b6103b460ff1960025416600255565b7fec3dd89a2232b0472e152c6218e795a6f13e2a09009c7e8fc9c031a950bdaf2c604051806104158160609060208152601a60208201527f556e657870656374656420726573706f6e736520666f726d617400000000000060408201520190565b0390a161032f565b600160f81b91506001600160f81b0319906104499061043b90611a12565b516001600160f81b03191690565b161438610363565b60405163c6829f8360e01b8152600490fd5b90600182811c92168015610493575b602083101461047d57565b634e487b7160e01b600052602260045260246000fd5b91607f1691610472565b919082519283825260005b8481106104c9575050826000602080949584010152601f8019910116010190565b6020818301810151848301820152016104a8565b9060206104ee92818152019061049d565b90565b3461016d57600080600319360112610147576040519080600180549161051683610463565b8086529282811690811561059b5750600114610541575b61053d8561031f818703826101a8565b0390f35b92508083527fb10e2d527612073b26eecdfd717e6a320cf44b4afac2b0732d9fcbe2b7fa0cf65b82841061058357505050810160200161031f8261053d61052d565b80546020858701810191909152909301928101610568565b86955061053d9693506020925061031f94915060ff191682840152151560051b820101929361052d565b3461016d5760008060031936011261014757604051908080546105e781610463565b8085529160019180831690811561059b57506001146106105761053d8561031f818703826101a8565b80809450527f290decd9548b62a8d60345a988386fc84ba6bc95484008f6362f93160ef3e5635b82841061065257505050810160200161031f8261053d61052d565b80546020858701810191909152909301928101610637565b3461016d57600036600319011261016d5760206040516001600160401b037f0000000000000000000000000000000000000000000000000000000000000000168152f35b3461016d57600036600319011261016d5760206040517f00000000000000000000000000000000000000000000000000000000000000008152f35b6040519060e082018281106001600160401b038211176101a357604052606060c08360008152600060208201526000604082015282808201528260808201528260a08201520152565b6040519060a082018281106001600160401b038211176101a35760405260628252613b7d60f01b6080837f66756e6374696f6e2068616e646c6572287265717565737429207b2020636f6e60208201527f737420627566666572203d204275666665722e616c6c6f632833322c2030293b60408201527f20206275666665725b33315d203d20313b202072657475726e2062756666657260608201520152565b604051602081018181106001600160401b038211176101a3576040526000815290565b6040519061080282610188565b600c82526b31b7b232a637b1b0ba34b7b760a11b6020830152565b634e487b7160e01b600052602160045260246000fd5b6003111561083d57565b61081d565b6040519061084f82610188565b60088252676c616e677561676560c01b6020830152565b6001111561083d57565b6040519061087d82610188565b6006825265736f7572636560d01b6020830152565b6040519061089f82610188565b60048252636172677360e01b6020830152565b634e487b7160e01b600052601160045260246000fd5b60001981146108d75760010190565b6108b2565b634e487b7160e01b600052603260045260246000fd5b80518210156109065760209160051b010190565b6108dc565b6040519061091882610188565b600f82526e39b2b1b932ba39a637b1b0ba34b7b760891b6020830152565b6040519061094382610188565b60078252667365637265747360c81b6020830152565b6040519061096682610188565b600982526862797465734172677360b81b6020830152565b610986610cbb565b906109986109926107f5565b83611415565b6109b581516109a681610833565b6109af81610833565b83610d87565b6109c0610992610842565b6109da60408201516109d181610866565b6109af81610866565b6109e5610992610870565b6109f3606082015183611415565b60a08101805151610af8575b506080810190815151610a78575b60c0915001805151610a20575b50515190565b91610a2c610992610959565b610a3582611499565b60005b83518051821015610a655790610a5b610a5482610a60946108f2565b5185611360565b6108c8565b610a38565b50509150610a7281611525565b38610a1a565b602081018051610a8781610833565b610a9081610833565b15610ae65760c092610ac9610ae192610ab0610aaa61090b565b88611415565b51610aba81610833565b610ac381610833565b86610d87565b610ada610ad4610936565b86611415565b5184611360565b610a0d565b60405163a80d31f760e01b8152600490fd5b92610b0a610b04610892565b84611415565b610b1383611499565b60005b84518051821015610b3e5790610a5b610b3282610b39946108f2565b5186611415565b610b16565b50509250610b4b82611525565b386109ff565b815115610b68576000808252604082015260600152565b6040516322ce3edd60e01b8152600490fd5b815115610b875760a00152565b60405163fe936cb760e01b8152600490fd5b9081602091031261016d575190565b6040513d6000823e3d90fd5b916020916001600160401b0391610bed604051958694859463230e93b160e11b865216600485015260a0602485015260a484019061049d565b60016044840152620493e060648401526084830191909152038160007f00000000000000000000000000000000000000000000000000000000000000006001600160a01b03165af1908115610c9c57600091610c6e575b50807f1131472297a800fee664d1d89cfa8f7676ff07189ecc53f80bbb5f4969099db8600080a290565b610c8f915060203d8111610c95575b610c8781836101a8565b810190610b99565b38610c44565b503d610c7d565b610ba8565b60405190610cae82610188565b6000602083606081520152565b604051610cc781610188565b610ccf610ca1565b8082526020820160008152610ce2610ca1565b50610100602083015260405180925260008252610120820191821061016d576000916040525290565b601f198101919082116108d757565b90602082018092116108d757565b919082018092116108d757565b90610d3e610ca1565b50601f811680610d6d575b508060208301526040519081835260008252810160200190811061016d5760405290565b602003602081116108d75781018091116108d75738610d49565b90815191610d93610ca1565b5082515160018101908181116108d7576020850151811015610dee575b60c26020610de49651928301015380518211610de6575b505060405191602083015260208252610ddf82610188565b611360565b565b523880610dc7565b8160011b94828604600214831517156108d757602081610e20610de498610e1960c295519184610d35565b50826112a8565b5096505050610db0565b908160011b91808304600214901517156108d757565b610e48610ca1565b5080515160018101908181116108d7576020830151811015610e81575b605b60208451928301015380518211610e7d57505090565b5290565b8160011b828104600214831517156108d757610eaa90610ea385519186610d35565b50846112a8565b50610e65565b610eb8610ca1565b5080515160018101908181116108d7576020830151811015610eed575b605a60208451928301015380518211610e7d57505090565b8160011b828104600214831517156108d757610f0f90610ea385519186610d35565b50610ed5565b610f1d610ca1565b5080515160018101908181116108d7576020830151811015610f52575b605960208451928301015380518211610e7d57505090565b8160011b828104600214831517156108d757610f7490610ea385519186610d35565b50610f3a565b610f82610ca1565b5080515160018101908181116108d7576020830151811015610fb7575b605860208451928301015380518211610e7d57505090565b8160011b828104600214831517156108d757610fd990610ea385519186610d35565b50610f9f565b610fe7610ca1565b5080515160018101908181116108d757602083015181101561101c575b607b60208451928301015380518211610e7d57505090565b8160011b828104600214831517156108d75761103e90610ea385519186610d35565b50611004565b61104c610ca1565b5080515160018101908181116108d7576020830151811015611081575b607a60208451928301015380518211610e7d57505090565b8160011b828104600214831517156108d7576110a390610ea385519186610d35565b50611069565b6110b1610ca1565b5080515160018101908181116108d75760208301518110156110e6575b607960208451928301015380518211610e7d57505090565b8160011b828104600214831517156108d75761110890610ea385519186610d35565b506110ce565b611116610ca1565b5080515160018101908181116108d757602083015181101561114b575b607860208451928301015380518211610e7d57505090565b8160011b828104600214831517156108d75761116d90610ea385519186610d35565b50611133565b9061117c610ca1565b5081515160018101918282116108d75760208401518210156111af575b60208451928301015380518211610e7d57505090565b8260011b838104600214841517156108d7576111d8906111d186519187610d35565b50856112a8565b50611199565b906111eb82519183610d35565b506111f4610ca1565b50805190611200610ca1565b5061120e8151831115611359565b8251519261121c8385610d28565b916020928284809401518211611291575b5183815197820101968211611289575b505001915b818110156112635760001991036101000a0190811990511690825116179052565b919261127e6112786112849286518152610d1a565b94610d1a565b92610d0b565b611242565b52388061123d565b6112a361129d83610e2a565b826111de565b61122d565b906112b1610ca1565b5080516112bc610ca1565b506112ca8251821115611359565b825151916112d88284610d28565b6020918291828701518111611342575b86518381519782010196821161133a575b505001915b818110156113205760001991036101000a019081199051169082511617905290565b919261127e6112786113359286518152610d1a565b6112fe565b5238806112f9565b61135461134e82610e2a565b886111de565b6112e8565b1561016d57565b81516113979291906001600160401b038116906017821161139a5761138f9150604060ff845192161790611173565b505b516112a8565b50565b5060ff81116113bf576113b9906113b18351610f7a565b5082516116ee565b50611391565b61ffff81116113de576113b9906113d68351610f15565b508251611687565b63ffffffff81116113ff576113b9906113f78351610eb0565b50825161161e565b6113b99061140d8351610e40565b5082516115b2565b81516113979291906001600160401b03811690601782116114445761138f9150606060ff845192161790611173565b5060ff811161145b576113b9906113b1835161110e565b61ffff8111611472576113b9906113d683516110a9565b63ffffffff811161148b576113b9906113f78351611044565b6113b99061140d8351610fdf565b8051906114a4610ca1565b5081515160018101908181116108d75760208401518110156114f2575b609f60208095519283010153805182116114ea575b505001805190600182018092116108d75752565b5238806114d6565b8160011b93828504600214831517156108d75760208161151b8297610e19609f95519184610d35565b50955050506114c1565b805190611530610ca1565b5081515160018101908181116108d757602084015181101561157f575b60ff6020809551928301015380518211611577575b50500180516000198101919082116108d75752565b523880611562565b8160011b93828504600214831517156108d7576020816115a88297610e1960ff95519184610d35565b509550505061154d565b906115bb610ca1565b508151518060080191826008116108d757602084015183116115fd575b6008845192830101906001600160401b031982511617905280518211610e7d57505090565b8260011b838104600214841517156108d75761161990856111de565b6115d8565b90611627610ca1565b508151518060040191826004116108d75760208401518311611666575b60048451928301019063ffffffff1982511617905280518211610e7d57505090565b8260011b838104600214841517156108d75761168290856111de565b611644565b90611690610ca1565b508151518060020191826002116108d757602084015183116116cd575b60028451928301019061ffff1982511617905280518211610e7d57505090565b8260011b838104600214841517156108d7576116e990856111de565b6116ad565b906116f7610ca1565b508151518060010191826001116108d75760208401518311611733575b60018451928301019060ff1982511617905280518211610e7d57505090565b8260011b838104600214841517156108d75761174f90856111de565b611714565b601f8111611760575050565b6000908180527f290decd9548b62a8d60345a988386fc84ba6bc95484008f6362f93160ef3e563906020601f850160051c830194106117ba575b601f0160051c01915b8281106117af57505050565b8181556001016117a3565b909250829061179a565b90601f82116117d1575050565b6001916000908382527fb10e2d527612073b26eecdfd717e6a320cf44b4afac2b0732d9fcbe2b7fa0cf6906020601f850160051c8301941061182e575b601f0160051c01915b8281106118245750505050565b8181558301611817565b909250829061180e565b9081516001600160401b0381116101a35760009061185f8161185a8454610463565b611754565b602080601f831160011461189a575082939482939261188f575b50508160011b916000199060031b1c1916179055565b015190503880611879565b90601f198316956118cc600080527f290decd9548b62a8d60345a988386fc84ba6bc95484008f6362f93160ef3e56390565b9285905b888210611908575050836001959697106118ef575b505050811b019055565b015160001960f88460031b161c191690553880806118e5565b806001859682949686015181550195019301906118d0565b9081516001600160401b0381116101a357600190611947816119428454610463565b6117c4565b602080601f8311600114611982575081929394600092611977575b5050600019600383901b1c191690821b179055565b015190503880611962565b90601f198316956119b560016000527fb10e2d527612073b26eecdfd717e6a320cf44b4afac2b0732d9fcbe2b7fa0cf690565b926000905b8882106119d657505083859697106118ef57505050811b019055565b8087859682949686015181550195019301906119ba565b9091611a046104ee9360408452604084019061049d565b91602081840391015261049d565b8051601f101561090657603f019056fea264697066735822122002559161e6457526477b8f55fae84ff4f6020880e84084df435c20b1daa8012764736f6c63430008140033",
  "linkReferences": {},
  "deployedLinkReferences": {}
}