{
  "_format": "hh-sol-artifact-1",
  "contractName": "UnitPaySettlement",
  "sourceName": "contracts/UnitPaySettlementV2.sol",
  "abi": [
    {
      "inputs": [
        {
          "internalType": "address",
          "name": "_defaultToken",
          "type": "address"
        },
        {
          "internalType": "address",
          "name": "initialOwner",
          "type": "address"
        }
      ],
      "stateMutability": "nonpayable",
      "type": "constructor"
    },
    {
      "inputs": [
        {
          "internalType": "address",
          "name": "owner",
          "type": "address"
        }
      ],
      "name": "OwnableInvalidOwner",
      "type": "error"
    },
    {
      "inputs": [
        {
          "internalType": "address",
          "name": "account",
          "type": "address"
        }
      ],
      "name": "OwnableUnauthorizedAccount",
      "type": "error"
    },
    {
      "inputs": [],
      "name": "ReentrancyGuardReentrantCall",
      "type": "error"
    },
    {
      "anonymous": false,
      "inputs": [
        {
          "indexed": true,
          "internalType": "address",
          "name": "previousOwner",
          "type": "address"
        },
        {
          "indexed": true,
          "internalType": "address",
          "name": "newOwner",
          "type": "address"
        }
      ],
      "name": "OwnershipTransferred",
      "type": "event"
    },
    {
      "anonymous": false,
      "inputs": [
        {
          "indexed": true,
          "internalType": "string",
          "name": "paymentId",
          "type": "string"
        },
        {
          "indexed": false,
          "internalType": "bool",
          "name": "isAuto",
          "type": "bool"
        }
      ],
      "name": "PaymentConfirmed",
      "type": "event"
    },
    {
      "anonymous": false,
      "inputs": [
        {
          "indexed": true,
          "internalType": "string",
          "name": "paymentId",
          "type": "string"
        }
      ],
      "name": "PaymentDisputed",
      "type": "event"
    },
    {
      "anonymous": false,
      "inputs": [
        {
          "indexed": true,
          "internalType": "string",
          "name": "paymentId",
          "type": "string"
        },
        {
          "indexed": true,
          "internalType": "address",
          "name": "user",
          "type": "address"
        },
        {
          "indexed": false,
          "internalType": "uint256",
          "name": "amount",
          "type": "uint256"
        }
      ],
      "name": "PaymentExpired",
      "type": "event"
    },
    {
      "anonymous": false,
      "inputs": [
        {
          "indexed": true,
          "internalType": "string",
          "name": "paymentId",
          "type": "string"
        },
        {
          "indexed": true,
          "internalType": "address",
          "name": "user",
          "type": "address"
        },
        {
          "indexed": true,
          "internalType": "address",
          "name": "lp",
          "type": "address"
        },
        {
          "indexed": false,
          "internalType": "uint256",
          "name": "amount",
          "type": "uint256"
        },
        {
          "indexed": false,
          "internalType": "uint256",
          "name": "platformFee",
          "type": "uint256"
        }
      ],
      "name": "PaymentLocked",
      "type": "event"
    },
    {
      "anonymous": false,
      "inputs": [
        {
          "indexed": true,
          "internalType": "string",
          "name": "paymentId",
          "type": "string"
        },
        {
          "indexed": true,
          "internalType": "address",
          "name": "user",
          "type": "address"
        },
        {
          "indexed": false,
          "internalType": "uint256",
          "name": "amount",
          "type": "uint256"
        }
      ],
      "name": "PaymentRefunded",
      "type": "event"
    },
    {
      "anonymous": false,
      "inputs": [
        {
          "indexed": true,
          "internalType": "string",
          "name": "paymentId",
          "type": "string"
        },
        {
          "indexed": true,
          "internalType": "address",
          "name": "lp",
          "type": "address"
        },
        {
          "indexed": false,
          "internalType": "uint256",
          "name": "amount",
          "type": "uint256"
        },
        {
          "indexed": false,
          "internalType": "uint256",
          "name": "platformFee",
          "type": "uint256"
        }
      ],
      "name": "PaymentReleased",
      "type": "event"
    },
    {
      "anonymous": false,
      "inputs": [
        {
          "indexed": true,
          "internalType": "string",
          "name": "paymentId",
          "type": "string"
        },
        {
          "indexed": true,
          "internalType": "address",
          "name": "user",
          "type": "address"
        },
        {
          "indexed": true,
          "internalType": "address",
          "name": "lp",
          "type": "address"
        },
        {
          "indexed": false,
          "internalType": "uint256",
          "name": "amount",
          "type": "uint256"
        },
        {
          "indexed": false,
          "internalType": "string",
          "name": "network",
          "type": "string"
        }
      ],
      "name": "PaymentSettled",
      "type": "event"
    },
    {
      "anonymous": false,
      "inputs": [
        {
          "indexed": true,
          "internalType": "string",
          "name": "paymentId",
          "type": "string"
        },
        {
          "indexed": false,
          "internalType": "uint8",
          "name": "oldStatus",
          "type": "uint8"
        },
        {
          "indexed": false,
          "internalType": "uint8",
          "name": "newStatus",
          "type": "uint8"
        },
        {
          "indexed": false,
          "internalType": "address",
          "name": "triggeredBy",
          "type": "address"
        },
        {
          "indexed": false,
          "internalType": "uint256",
          "name": "timestamp",
          "type": "uint256"
        }
      ],
      "name": "PaymentStatusChanged",
      "type": "event"
    },
    {
      "anonymous": false,
      "inputs": [
        {
          "indexed": false,
          "internalType": "uint256",
          "name": "amount",
          "type": "uint256"
        }
      ],
      "name": "PlatformFeesWithdrawn",
      "type": "event"
    },
    {
      "anonymous": false,
      "inputs": [
        {
          "indexed": true,
          "internalType": "string",
          "name": "network",
          "type": "string"
        },
        {
          "indexed": true,
          "internalType": "address",
          "name": "token",
          "type": "address"
        },
        {
          "indexed": false,
          "internalType": "bool",
          "name": "isEnabled",
          "type": "bool"
        }
      ],
      "name": "TokenConfigUpdated",
      "type": "event"
    },
    {
      "inputs": [],
      "name": "AUTO_RELEASE_TIME",
      "outputs": [
        {
          "internalType": "uint256",
          "name": "",
          "type": "uint256"
        }
      ],
      "stateMutability": "view",
      "type": "function"
    },
    {
      "inputs": [],
      "name": "DISPUTE_WINDOW",
      "outputs": [
        {
          "internalType": "uint256",
          "name": "",
          "type": "uint256"
        }
      ],
      "stateMutability": "view",
      "type": "function"
    },
    {
      "inputs": [],
      "name": "PAYMENT_EXPIRY_TIME",
      "outputs": [
        {
          "internalType": "uint256",
          "name": "",
          "type": "uint256"
        }
      ],
      "stateMutability": "view",
      "type": "function"
    },
    {
      "inputs": [],
      "name": "PLATFORM_FEE_RATE",
      "outputs": [
        {
          "internalType": "uint256",
          "name": "",
          "type": "uint256"
        }
      ],
      "stateMutability": "view",
      "type": "function"
    },
    {
      "inputs": [],
      "name": "T1_LOCK_TIME",
      "outputs": [
        {
          "internalType": "uint256",
          "name": "",
          "type": "uint256"
        }
      ],
      "stateMutability": "view",
      "type": "function"
    },
    {
      "inputs": [
        {
          "internalType": "string",
          "name": "paymentId",
          "type": "string"
        }
      ],
      "name": "autoReleasePayment",
      "outputs": [
        {
          "internalType": "bool",
          "name": "",
          "type": "bool"
        }
      ],
      "stateMutability": "nonpayable",
      "type": "function"
    },
    {
      "inputs": [
        {
          "internalType": "string[]",
          "name": "paymentIds",
          "type": "string[]"
        }
      ],
      "name": "batchGetPaymentStatus",
      "outputs": [
        {
          "internalType": "uint8[]",
          "name": "statuses",
          "type": "uint8[]"
        },
        {
          "internalType": "bool[]",
          "name": "isDisputed",
          "type": "bool[]"
        }
      ],
      "stateMutability": "view",
      "type": "function"
    },
    {
      "inputs": [
        {
          "internalType": "string",
          "name": "paymentId",
          "type": "string"
        }
      ],
      "name": "cancelExpiredPayment",
      "outputs": [
        {
          "internalType": "bool",
          "name": "",
          "type": "bool"
        }
      ],
      "stateMutability": "nonpayable",
      "type": "function"
    },
    {
      "inputs": [
        {
          "internalType": "string",
          "name": "paymentId",
          "type": "string"
        }
      ],
      "name": "confirmPayment",
      "outputs": [
        {
          "internalType": "bool",
          "name": "",
          "type": "bool"
        }
      ],
      "stateMutability": "nonpayable",
      "type": "function"
    },
    {
      "inputs": [],
      "name": "defaultToken",
      "outputs": [
        {
          "internalType": "contract IERC20",
          "name": "",
          "type": "address"
        }
      ],
      "stateMutability": "view",
      "type": "function"
    },
    {
      "inputs": [
        {
          "internalType": "string",
          "name": "paymentId",
          "type": "string"
        }
      ],
      "name": "disputePayment",
      "outputs": [
        {
          "internalType": "bool",
          "name": "",
          "type": "bool"
        }
      ],
      "stateMutability": "nonpayable",
      "type": "function"
    },
    {
      "inputs": [
        {
          "internalType": "address",
          "name": "token",
          "type": "address"
        },
        {
          "internalType": "uint256",
          "name": "amount",
          "type": "uint256"
        }
      ],
      "name": "emergencyWithdraw",
      "outputs": [],
      "stateMutability": "nonpayable",
      "type": "function"
    },
    {
      "inputs": [
        {
          "internalType": "address",
          "name": "lp",
          "type": "address"
        }
      ],
      "name": "getLPPaymentCount",
      "outputs": [
        {
          "internalType": "uint256",
          "name": "",
          "type": "uint256"
        }
      ],
      "stateMutability": "view",
      "type": "function"
    },
    {
      "inputs": [
        {
          "internalType": "address",
          "name": "lp",
          "type": "address"
        }
      ],
      "name": "getLPPaymentIds",
      "outputs": [
        {
          "internalType": "uint256[]",
          "name": "",
          "type": "uint256[]"
        }
      ],
      "stateMutability": "view",
      "type": "function"
    },
    {
      "inputs": [
        {
          "internalType": "string",
          "name": "network",
          "type": "string"
        }
      ],
      "name": "getNetworkTokens",
      "outputs": [
        {
          "internalType": "address[]",
          "name": "",
          "type": "address[]"
        }
      ],
      "stateMutability": "view",
      "type": "function"
    },
    {
      "inputs": [
        {
          "internalType": "string",
          "name": "paymentId",
          "type": "string"
        }
      ],
      "name": "getPaymentDetails",
      "outputs": [
        {
          "internalType": "address",
          "name": "user",
          "type": "address"
        },
        {
          "internalType": "address",
          "name": "lp",
          "type": "address"
        },
        {
          "internalType": "address",
          "name": "token",
          "type": "address"
        },
        {
          "internalType": "uint256",
          "name": "amount",
          "type": "uint256"
        },
        {
          "internalType": "uint256",
          "name": "timestamp",
          "type": "uint256"
        },
        {
          "internalType": "uint256",
          "name": "lockTime",
          "type": "uint256"
        },
        {
          "internalType": "uint256",
          "name": "releaseTime",
          "type": "uint256"
        },
        {
          "internalType": "uint256",
          "name": "platformFee",
          "type": "uint256"
        },
        {
          "internalType": "string",
          "name": "network",
          "type": "string"
        },
        {
          "internalType": "uint8",
          "name": "paymentType",
          "type": "uint8"
        },
        {
          "internalType": "uint8",
          "name": "escrowStatus",
          "type": "uint8"
        },
        {
          "internalType": "bool",
          "name": "isDisputed",
          "type": "bool"
        }
      ],
      "stateMutability": "view",
      "type": "function"
    },
    {
      "inputs": [],
      "name": "getPaymentRecordsCount",
      "outputs": [
        {
          "internalType": "uint256",
          "name": "",
          "type": "uint256"
        }
      ],
      "stateMutability": "view",
      "type": "function"
    },
    {
      "inputs": [
        {
          "internalType": "string",
          "name": "paymentId",
          "type": "string"
        }
      ],
      "name": "getPaymentStatus",
      "outputs": [
        {
          "internalType": "uint8",
          "name": "status",
          "type": "uint8"
        },
        {
          "internalType": "bool",
          "name": "isDisputed",
          "type": "bool"
        },
        {
          "internalType": "address",
          "name": "owner",
          "type": "address"
        },
        {
          "internalType": "address",
          "name": "recipient",
          "type": "address"
        },
        {
          "internalType": "uint256",
          "name": "amount",
          "type": "uint256"
        },
        {
          "internalType": "uint256",
          "name": "timestamp",
          "type": "uint256"
        },
        {
          "internalType": "uint256",
          "name": "lockTime",
          "type": "uint256"
        },
        {
          "internalType": "uint256",
          "name": "releaseTime",
          "type": "uint256"
        }
      ],
      "stateMutability": "view",
      "type": "function"
    },
    {
      "inputs": [
        {
          "internalType": "address",
          "name": "user",
          "type": "address"
        }
      ],
      "name": "getUserPaymentCount",
      "outputs": [
        {
          "internalType": "uint256",
          "name": "",
          "type": "uint256"
        }
      ],
      "stateMutability": "view",
      "type": "function"
    },
    {
      "inputs": [
        {
          "internalType": "address",
          "name": "user",
          "type": "address"
        }
      ],
      "name": "getUserPaymentIds",
      "outputs": [
        {
          "internalType": "uint256[]",
          "name": "",
          "type": "uint256[]"
        }
      ],
      "stateMutability": "view",
      "type": "function"
    },
    {
      "inputs": [
        {
          "internalType": "string",
          "name": "paymentId",
          "type": "string"
        }
      ],
      "name": "isPaymentIdUsed",
      "outputs": [
        {
          "internalType": "bool",
          "name": "",
          "type": "bool"
        }
      ],
      "stateMutability": "view",
      "type": "function"
    },
    {
      "inputs": [
        {
          "internalType": "string",
          "name": "paymentId",
          "type": "string"
        }
      ],
      "name": "isPaymentIdValid",
      "outputs": [
        {
          "internalType": "bool",
          "name": "",
          "type": "bool"
        }
      ],
      "stateMutability": "pure",
      "type": "function"
    },
    {
      "inputs": [
        {
          "internalType": "string",
          "name": "paymentId",
          "type": "string"
        },
        {
          "internalType": "address",
          "name": "user",
          "type": "address"
        }
      ],
      "name": "isPaymentOwner",
      "outputs": [
        {
          "internalType": "bool",
          "name": "",
          "type": "bool"
        }
      ],
      "stateMutability": "view",
      "type": "function"
    },
    {
      "inputs": [
        {
          "internalType": "string",
          "name": "paymentId",
          "type": "string"
        },
        {
          "internalType": "address",
          "name": "lp",
          "type": "address"
        }
      ],
      "name": "isPaymentRecipient",
      "outputs": [
        {
          "internalType": "bool",
          "name": "",
          "type": "bool"
        }
      ],
      "stateMutability": "view",
      "type": "function"
    },
    {
      "inputs": [
        {
          "internalType": "address",
          "name": "lp",
          "type": "address"
        },
        {
          "internalType": "address",
          "name": "token",
          "type": "address"
        },
        {
          "internalType": "uint256",
          "name": "amount",
          "type": "uint256"
        },
        {
          "internalType": "string",
          "name": "network",
          "type": "string"
        },
        {
          "internalType": "string",
          "name": "paymentId",
          "type": "string"
        }
      ],
      "name": "lockPayment",
      "outputs": [
        {
          "internalType": "bool",
          "name": "",
          "type": "bool"
        }
      ],
      "stateMutability": "nonpayable",
      "type": "function"
    },
    {
      "inputs": [
        {
          "internalType": "string",
          "name": "",
          "type": "string"
        },
        {
          "internalType": "address",
          "name": "",
          "type": "address"
        }
      ],
      "name": "networkTokens",
      "outputs": [
        {
          "internalType": "address",
          "name": "tokenAddress",
          "type": "address"
        },
        {
          "internalType": "uint8",
          "name": "decimals",
          "type": "uint8"
        },
        {
          "internalType": "bool",
          "name": "isEnabled",
          "type": "bool"
        }
      ],
      "stateMutability": "view",
      "type": "function"
    },
    {
      "inputs": [],
      "name": "owner",
      "outputs": [
        {
          "internalType": "address",
          "name": "",
          "type": "address"
        }
      ],
      "stateMutability": "view",
      "type": "function"
    },
    {
      "inputs": [
        {
          "internalType": "uint256",
          "name": "",
          "type": "uint256"
        }
      ],
      "name": "paymentRecords",
      "outputs": [
        {
          "internalType": "address",
          "name": "user",
          "type": "address"
        },
        {
          "internalType": "address",
          "name": "lp",
          "type": "address"
        },
        {
          "internalType": "address",
          "name": "token",
          "type": "address"
        },
        {
          "internalType": "uint256",
          "name": "amount",
          "type": "uint256"
        },
        {
          "internalType": "uint256",
          "name": "timestamp",
          "type": "uint256"
        },
        {
          "internalType": "uint256",
          "name": "lockTime",
          "type": "uint256"
        },
        {
          "internalType": "uint256",
          "name": "releaseTime",
          "type": "uint256"
        },
        {
          "internalType": "uint256",
          "name": "platformFee",
          "type": "uint256"
        },
        {
          "internalType": "string",
          "name": "paymentId",
          "type": "string"
        },
        {
          "internalType": "string",
          "name": "network",
          "type": "string"
        },
        {
          "internalType": "enum UnitPaySettlement.PaymentType",
          "name": "paymentType",
          "type": "uint8"
        },
        {
          "internalType": "enum UnitPaySettlement.EscrowStatus",
          "name": "escrowStatus",
          "type": "uint8"
        },
        {
          "internalType": "bool",
          "name": "isDisputed",
          "type": "bool"
        }
      ],
      "stateMutability": "view",
      "type": "function"
    },
    {
      "inputs": [],
      "name": "platformPendingFees",
      "outputs": [
        {
          "internalType": "uint256",
          "name": "",
          "type": "uint256"
        }
      ],
      "stateMutability": "view",
      "type": "function"
    },
    {
      "inputs": [
        {
          "internalType": "string",
          "name": "paymentId",
          "type": "string"
        }
      ],
      "name": "refundPayment",
      "outputs": [
        {
          "internalType": "bool",
          "name": "",
          "type": "bool"
        }
      ],
      "stateMutability": "nonpayable",
      "type": "function"
    },
    {
      "inputs": [],
      "name": "renounceOwnership",
      "outputs": [],
      "stateMutability": "nonpayable",
      "type": "function"
    },
    {
      "inputs": [
        {
          "internalType": "address",
          "name": "lp",
          "type": "address"
        },
        {
          "internalType": "address",
          "name": "token",
          "type": "address"
        },
        {
          "internalType": "uint256",
          "name": "amount",
          "type": "uint256"
        },
        {
          "internalType": "string",
          "name": "network",
          "type": "string"
        },
        {
          "internalType": "string",
          "name": "paymentId",
          "type": "string"
        }
      ],
      "name": "settlePayment",
      "outputs": [
        {
          "internalType": "bool",
          "name": "",
          "type": "bool"
        }
      ],
      "stateMutability": "nonpayable",
      "type": "function"
    },
    {
      "inputs": [
        {
          "internalType": "address",
          "name": "newOwner",
          "type": "address"
        }
      ],
      "name": "transferOwnership",
      "outputs": [],
      "stateMutability": "nonpayable",
      "type": "function"
    },
    {
      "inputs": [
        {
          "internalType": "string",
          "name": "network",
          "type": "string"
        },
        {
          "internalType": "address",
          "name": "tokenAddress",
          "type": "address"
        },
        {
          "internalType": "uint8",
          "name": "decimals",
          "type": "uint8"
        },
        {
          "internalType": "bool",
          "name": "isEnabled",
          "type": "bool"
        }
      ],
      "name": "updateTokenConfig",
      "outputs": [],
      "stateMutability": "nonpayable",
      "type": "function"
    },
    {
      "inputs": [
        {
          "internalType": "string",
          "name": "paymentId",
          "type": "string"
        }
      ],
      "name": "withdrawPayment",
      "outputs": [
        {
          "internalType": "bool",
          "name": "",
          "type": "bool"
        }
      ],
      "stateMutability": "nonpayable",
      "type": "function"
    },
    {
      "inputs": [],
      "name": "withdrawPlatformFees",
      "outputs": [
        {
          "internalType": "bool",
          "name": "",
          "type": "bool"
        }
      ],
      "stateMutability": "nonpayable",
      "type": "function"
    }
  ],
  "bytecode": "0x6080346200013057601f6200346738819003918201601f19168301916001600160401b0383118484101762000135578084926040948552833981010312620001305760206200004e826200014b565b916001600160a01b039182916200006691016200014b565b1690811562000117576000549260018060a01b03199280848616176000558260405195167f8be0079c531659141344cd1fd0a4f28419497f9722a3daafe3b4186f6b6457e0600080a36001805516918215620000d5575060025416176002556040516133069081620001618239f35b62461bcd60e51b815260206004820152601860248201527f5a65726f2061646472657373206e6f7420616c6c6f77656400000000000000006044820152606490fd5b604051631e4fbdf760e01b815260006004820152602490fd5b600080fd5b634e487b7160e01b600052604160045260246000fd5b51906001600160a01b0382168203620001305756fe6080604052600436101561001257600080fd5b60003560e01c806304a56462146125bc578063059113eb14612569578063078081e614611fbe5780630b59a58114611d6c5780631394783214611c3857806316e39dc214611a6c5780631a98dcb314611a4f578063225bc08a146118a157806328569d2b1461168e5780632930fa491461167257806338a13287146114ac5780633bdc9c551461143457806346544ea81461141b5780635691fe631461131157806356c350e41461126b5780635fc25f6f14610f91578063715018a614610f3857806374c13fda14610f0f57806377b9679114610ef65780637e896cc5146108f45780638362492f146108ba57806383a41ff31461089c578063860ba4c1146107c75780638da5cb5b1461079e578063912db0fb146105f057806395ccea67146105725780639cf48d7d14610555578063a00623331461051b578063a38fbd8614610493578063c2b4298e14610475578063c2e8528c14610457578063d0b7830b1461031b578063d21c2782146102d6578063f2fde38b14610248578063f585dc571461022a5763fd2240d3146101a857600080fd5b34610225576020366003190112610225576004356001600160401b038111610225576101e46101de6101009236906004016127e8565b90613055565b9560ff6040969395929651981688521515602088015260018060a01b038092166040880152166060860152608085015260a084015260c083015260e0820152f35b600080fd5b346102255760003660031901126102255760206040516203f4808152f35b346102255760203660031901126102255761026161282b565b610269612b2c565b6001600160a01b039081169081156102bd57600054826bffffffffffffffffffffffff60a01b821617600055167f8be0079c531659141344cd1fd0a4f28419497f9722a3daafe3b4186f6b6457e0600080a3005b604051631e4fbdf760e01b815260006004820152602490fd5b34610225576020366003190112610225576004356001600160401b0381116102255761031161030b60209236906004016127e8565b90613129565b6040519015158152f35b3461022557600036600319011261022557610334612b2c565b61033c612ee7565b60035480156104125760006003819055600254815460405163a9059cbb60e01b81526001600160a01b039182166004820152602481018590529392602092859260449284929091165af1908115610406576103c36020927f9870c8023baa016ac002ddfa7cdad341155acddddee3032c07d4baa4947ae643946000916103d9575b50612e64565b604051908152a160018055602060405160018152f35b6103f99150843d81116103ff575b6103f18183612a1f565b810190612e4c565b856103bd565b503d6103e7565b6040513d6000823e3d90fd5b60405162461bcd60e51b815260206004820152601c60248201527f4e6f20706c6174666f726d206665657320746f207769746864726177000000006044820152606490fd5b34610225576000366003190112610225576020600354604051908152f35b34610225576000366003190112610225576020600454604051908152f35b3461022557602080600319360112610225576001600160a01b036104b561282b565b1660005260068152604060002090604051908181845491828152019360005281600020916000905b82821061050457610500856104f481890382612a1f565b604051918291826128fb565b0390f35b8354865294850194600193840193909101906104dd565b34610225576020366003190112610225576001600160a01b0361053c61282b565b1660005260076020526020604060002054604051908152f35b34610225576000366003190112610225576020604051612a308152f35b346102255760403660031901126102255761058b61282b565b610593612b2c565b6000805460405163a9059cbb60e01b81526001600160a01b0391821660048201526024803590820152926020928492604492849291165af18015610406576105d757005b6105ee9060203d81116103ff576103f18183612a1f565b005b34610225576020366003190112610225576004356001600160401b038111610225576106209036906004016127e8565b610628612ee7565b60405181838237602081838101600581520301902054610649811515612f0a565b60001981019081116107885761065e90612978565b5091600a83019182549160ff831660028110156107725760016106819114612f4a565b60ff8360081c16946006861015610772576000805160206132b183398151915294610200610760956106b560018a14612f8e565b6106c960018060a01b038554163314612fd3565b6106d960ff8260101c1615613013565b61ff0019161790556006429101556040518282823780838101600081520390207f0338bd150f7922769ad6d998d3a6b2fc3668a74ac52c70c13136927bd1c19789602060405160008152a281604051928392833760009082019081520390206040805160ff9095168552600260208601523390850152426060850152929081906080820190565b0390a260018055602060405160018152f35b634e487b7160e01b600052602160045260246000fd5b634e487b7160e01b600052601160045260246000fd5b34610225576000366003190112610225576000546040516001600160a01b039091168152602090f35b3461022557602080600319360112610225576004356001600160401b038111610225576107f9829136906004016127e8565b91908260405193849283378101600981520301902060405190818382549182815201908192600052846000209060005b8682821061088857868661083f82880383612a1f565b604051928392818401908285525180915260408401929160005b82811061086857505050500390f35b83516001600160a01b031685528695509381019392810192600101610859565b835485529093019260019283019201610829565b34610225576000366003190112610225576020604051620151808152f35b34610225576020366003190112610225576001600160a01b036108db61282b565b1660005260066020526020604060002054604051908152f35b346102255761090236612841565b61091196929591939496612ee7565b6109256001600160a01b0384161515612ce5565b610930871515612d26565b61093b811515612d72565b61095c60405182868237600583820152602081848101030190205415612dbe565b60405186868237602081888101600881520301902060018060a01b03831660005260205261099460ff60406000205460a81c16612e0a565b6040516323b872dd60e01b81523360048201526001600160a01b0384166024820152604481018890526020818060648101038160006001600160a01b0388165af18015610406576109ec91600091610ed75750612e64565b60045491604051906109fd82612a03565b3382526001600160a01b03858116602084015216604082015260608101889052426080820152600060a0820181905260c0820181905260e0820152610a43368387612ae6565b610100820152610a54368888612ae6565b610120820152600061014082015260006101608201526000610180820152600160401b831015610ddb5760018301600455610a8e83612978565b610ec157815181546001600160a01b039182166001600160a01b031991821617835560208401516001840180549184169183169190911790556040840151600284018054919093169116179055606082015160038201556080820151600482015560a0820151600582015560c0820151600682015560e082015160078201556101008201518051906001600160401b038211610ddb578190610b3360088501546129c9565b601f8111610e6e575b50602090601f8311600114610dfc57600092610df1575b50508160011b916000199060031b1c19161760088201555b6101208201518051906001600160401b038211610ddb578190610b9160098501546129c9565b601f8111610d88575b50602090601f8311600114610d1657600092610d0b575b50508160011b916000199060031b1c19161760098201555b61014082015160028110156107725760ff8019600a84015416911617600a82015561016082015191600683101561077257610180600a91610c0f610c2e95848601612ea2565b01519101805462ff0000191691151560101b62ff000016919091179055565b336000526006602052610c45826040600020612ec1565b60018060a01b0383166000526007602052610c64826040600020612ec1565b600182018211610788577fce1770ab7d1a256d012b7c071d6629036759ad11c5cffd2e6cd7d8b2dffc7e7c9386926040518383823760208160018682019460058652019303019020558160405192839283378101600081520390209360405196875260406020880152816040880152606087013760006060858701015260018060a01b0316936060813395601f80199101168101030190a460018055602060405160018152f35b015190508b80610bb1565b9250600984016000526020600020906000935b601f1984168510610d6d576001945083601f19811610610d54575b505050811b016009820155610bc9565b015160001960f88460031b161c191690558b8080610d44565b81810151835560209485019460019093019290910190610d29565b909150600984016000526020600020601f840160051c810160208510610dd4575b90849392915b601f830160051c82018110610dc5575050610b9a565b60008155859450600101610daf565b5080610da9565b634e487b7160e01b600052604160045260246000fd5b015190508b80610b53565b9250600884016000526020600020906000935b601f1984168510610e53576001945083601f19811610610e3a575b505050811b016008820155610b6b565b015160001960f88460031b161c191690558b8080610e2a565b81810151835560209485019460019093019290910190610e0f565b909150600884016000526020600020601f840160051c810160208510610eba575b90849392915b601f830160051c82018110610eab575050610b3c565b60008155859450600101610e95565b5080610e8f565b634e487b7160e01b600052600060045260246000fd5b610ef0915060203d6020116103ff576103f18183612a1f565b896103bd565b34610225576020610311610f0936612936565b91613269565b34610225576000366003190112610225576002546040516001600160a01b039091168152602090f35b3461022557600036600319011261022557610f51612b2c565b600080546001600160a01b0319811682556001600160a01b03167f8be0079c531659141344cd1fd0a4f28419497f9722a3daafe3b4186f6b6457e08280a3005b3461022557602080600319360112610225576004356001600160401b03811161022557610fc29036906004016127e8565b90610fcb612ee7565b604051828282378381848101600581520301902054610feb811515612f0a565b60001981019081116107885761100090612978565b5091600a83019081549260ff841660028110156107725760016110239114612f4a565b60ff8460081c16946006861015610772576002860361122e576001810180546001600160a01b039691959190871633036112005760068301546201518081018091116107885742106111bb578061108360ff6103009360101c1615613013565b61ff00191617905560038101546007820180549092818303928311610788576003549182018092116107885760039190915560020154855460405163a9059cbb60e01b81529088166001600160a01b031660048201526024810183905290899082908916816000816044810103925af18015610406576000805160206132b1833981519152976080976111446040937fa4b9aff2e7bd4815fd0c77044b1652a3cdc9d61c082a9a75510dd9d30d1c1009958e60009261119e575b5050612e64565b541693549281518787823780888101600081520390209382519182528b820152a381604051928392833781016000815203902092604051908152600385820152336040820152426060820152a26001805560405160018152f35b6111b49250803d106103ff576103f18183612a1f565b8e8e61113d565b60405162461bcd60e51b8152600481018a9052601960248201527f542b31206c6f636b2074696d65206e6f742072656163686564000000000000006044820152606490fd5b60405162461bcd60e51b8152600481018a9052600660248201526504e6f74204c560d41b6044820152606490fd5b60405162461bcd60e51b815260048101889052601560248201527414185e5b595b9d081b9bdd0818dbdb999a5c9b5959605a1b6044820152606490fd5b34610225576040366003190112610225576004356001600160401b0381116102255736602382011215610225576112ae6060913690602481600401359101612ae6565b6112cf60206112bb612815565b9281604051938285809451938492016128b3565b8101600881520301902060018060a01b0380921660005260205260ff6040600020546040519281168352818160a01c16602084015260a81c1615156040820152f35b34610225576020366003190112610225576004356004548110156102255761133890612978565b5060018060a01b036113dd81835416926113ce836001830154169360028301541660038301546004840154600585015460068601549160078701549361138060088901612a40565b95600a61138f60098b01612a40565b9901549a6040519c8d5260208d015260408c015260608b015260808a015260a089015260c088015260e08701526101a0806101008801528601906128d6565b908482036101208601526128d6565b60ff821660028110156107725761014084015260ff8260081c16600681101561077257839260ff9161016085015260101c1615156101808301520390f35b3461022557602061031161142e36612936565b91613224565b3461022557602080600319360112610225576001600160a01b0361145661282b565b1660005260078152604060002090604051908181845491828152019360005281600020916000905b82821061149557610500856104f481890382612a1f565b83548652948501946001938401939091019061147e565b34610225576020366003190112610225576004356001600160401b038111610225576114dc9036906004016127e8565b6114e4612ee7565b60405181838237602081838101600581520301902054611505811515612f0a565b60001981019081116107885761151a90612978565b5091600a8301805460ff81169360028510156107725761153d6001809614612f4a565b60ff8260081c1693600685101561077257611559868614612f8e565b6005870154612a30810180911161078857421061162d576020966000805160206132b1833981519152946102008561159a60ff61161f9860101c1615613013565b61ff0019161790556006429101556040518282823780838101600081520390207f0338bd150f7922769ad6d998d3a6b2fc3668a74ac52c70c13136927bd1c1978988604051898152a281604051928392833760009082019081520390206040805160ff9095168552600260208601523390850152426060850152929081906080820190565b0390a2808055604051908152f35b60405162461bcd60e51b815260206004820152601d60248201527f4175746f2072656c656173652074696d65206e6f7420726561636865640000006044820152606490fd5b3461022557600036600319011261022557602060405160058152f35b3461022557602080600319360112610225576004356001600160401b038111610225576116bf9036906004016127e8565b6116ca929192612b2c565b6116d2612ee7565b6040518184823782818381016005815203019020546116f2811515612f0a565b60001981019081116107885761170790612978565b50600a81019182549460ff861660028110156107725760016117299114612f4a565b60ff8660081c169360068510156107725761174660018614612f8e565b60ff8760101c161561186d5761ff0019909616610400179095556002820154825460038401805460405163a9059cbb60e01b81526001600160a01b0393841660048201526024810191909152969795969592909190889087908316816000816044810103925af1948515610406576117d76080966000805160206132b1833981519152986000916118505750612e64565b541690547f4f4233d8b608dab7ae8be019715573700f481096c3c0695cc3f8ff3bdc436bdd8860405186868237808781016000815203902092604051908152a381604051928392833781016000815203902092604051908152600485820152336040820152426060820152a26001805560405160018152f35b61186791508b3d8d116103ff576103f18183612a1f565b8b6103bd565b60405162461bcd60e51b815260048101879052600c60248201526b139bdd08191a5cdc1d5d195960a21b6044820152606490fd5b34610225576020366003190112610225576004356001600160401b038111610225576118d19036906004016127e8565b6118d9612ee7565b604051818382376020818381016005815203019020546118fa811515612f0a565b60001981019081116107885761190f90612978565b5091600a830180549360ff851660028110156107725760016119319114612f4a565b60ff8560081c1690600682101561077257611950600260069314612f8e565b61196460018060a01b038254163314612fd3565b0154620143708101809111610788574211611a115760ff8460101c166119d9576201000060209462ff00001916179055816040519283928337810160008152039020604051907f91c26a99a0a4d117c4d67f42c08c4c42d13094fbef4b6a53a9dd88e5c2256386600080a26001805560018152f35b60405162461bcd60e51b815260206004820152601060248201526f105b1c9958591e48191a5cdc1d5d195960821b6044820152606490fd5b60405162461bcd60e51b8152602060048201526016602482015275111a5cdc1d5d19481dda5b991bddc8195e1c1a5c995960521b6044820152606490fd5b346102255760003660031901126102255760206040516107088152f35b34610225576080366003190112610225576004356001600160401b03811161022557611a9c9036906004016127e8565b611aa4612815565b9060443560ff8116810361022557606435918215159384840361022557611ac9612b2c565b6001600160a01b0316948515611bfb578115611bb6577f5b98a0b8d95466d30425b78df6c383f9e0e0ceb178abd7068bbf3d501d94dc2d93602093604051848482378581868101600881520301902088600052855260406000209081548960ff60a81b8a60a81b169260ff60a01b9060a01b169169ffffffffffffffffffff60b01b161717179055600014611b9357611b75866040518484823785818681016009815203019020612b70565b505b81604051928392833781016000815203902092604051908152a3005b611bb0866040518484823785818681016009815203019020612bf5565b50611b77565b60405162461bcd60e51b815260206004820152601760248201527f4e6574776f726b2063616e6e6f7420626520656d7074790000000000000000006044820152606490fd5b60405162461bcd60e51b8152602060048201526015602482015274496e76616c696420746f6b656e206164647265737360581b6044820152606490fd5b34610225576020366003190112610225576004356001600160401b03811161022557611c6a60209136906004016127e8565b91908260405193849283378101600581520301902054611c8b811515612f0a565b600019810190811161078857611ca090612978565b5060018060a01b03908181541690826001820154169260028201541660038201549360048301546005840154936006810154926007820154600a8301549460ff86169760028910156107725760ff8760081c169560068710156107725760209b60ff99611d126009611d4f9901612a40565b966040519e8f9e8f908152015260408d015260608c015260808b015260a08a015260c089015260e0880152610180806101008901528701906128d6565b9361012086015261014085015260101c1615156101608301520390f35b34610225576020366003190112610225576001600160401b036004351161022557366023600435011215610225576001600160401b036004356004013511610225573660246004356004013560051b60043501011161022557611dd4600435600401356130ef565b611de16040519182612a1f565b600480350135808252601f19908190611df9906130ef565b01366020840137611e0f600435600401356130ef565b90611e1d6040519283612a1f565b600480350135808352611e2f906130ef565b0136602083013760005b600435600401358110611ece5750906040519182916040830160408452815180915260206060850192019060005b818110611eb25750505082810360208401526020808351928381520192019060005b818110611e97575050500390f35b82511515845285945060209384019390920191600101611e89565b825160ff16845286955060209384019390920191600101611e67565b60248160051b60043501013560421960043536030181121561022557600435016001600160401b036024820135116102255760248101353603604482011361022557602060249160405192818185930135604482018437013581016005815203019020548015600014611f645750806000611f4c611f5f9386613115565b526000611f598285613115565b52613106565b611e39565b600019810190811161078857611f7b600a91612978565b50015490600660ff8360081c161015610772578160ff611f5f9360081c16611fa38387613115565b5260ff611fb08386613115565b9160101c1615159052613106565b3461022557611fcc36612841565b93949092611fd8612ee7565b611fec6001600160a01b0388161515612ce5565b611ff7861515612d26565b612002851515612d72565b61202360405186868237600587820152602081888101030190205415612dbe565b60405183828237602081858101600881520301902060018060a01b03831660005260205261205b60ff60406000205460a81c16612e0a565b85600581020460051486151715610788576040516323b872dd60e01b8152336004820152306024820152604481018790529060208260648160006001600160a01b0388165af191821561040657612127926120bd9160009161254a5750612e64565b60045493604051936120ce85612a03565b3385526001600160a01b038a8116602087015216604085015260608401889052426080850181905260a0850152600060c08501526103e8600589020460e085015261211a368888612ae6565b6101008501523691612ae6565b610120820152600161014082015260016101608201526000610180820152600160401b821015610ddb576001820160045561216182612978565b610ec157815181546001600160a01b039182166001600160a01b031991821617835560208401516001840180549184169183169190911790556040840151600284018054919093169116179055606082015160038201556080820151600482015560a0820151600582015560c0820151600682015560e082015160078201556101008201518051906001600160401b038211610ddb57819061220660088501546129c9565b601f81116124f7575b50602090601f83116001146124855760009261247a575b50508160011b916000199060031b1c19161760088201555b6101208201518051906001600160401b038211610ddb5761226260098401546129c9565b601f8111612433575b50602090601f83116001146123c057600a939291600091836123b5575b50508160011b916000199060031b1c19161760098201555b0161014082015160028110156107725760ff801983541691161781556101608201516006811015610772576122f6926122dc6101809284612ea2565b0151815462ff0000191690151560101b62ff000016179055565b33600052600660205261230d816040600020612ec1565b60018060a01b038516600052600760205261232c816040600020612ec1565b60018101811161078857604051838382376020816001868201946005865201930301902055816040519283928337810160008152039020916103e86005604051938085520204602083015260018060a01b0316917f53c508e52d8f5e261d87a8d93a78c6851a65cafad8c6d9793451b38b256015f360403393a460018055602060405160018152f35b015190508a80612288565b906009840160005260206000209160005b601f198516811061241b5750918391600193600a9695601f19811610612402575b505050811b0160098201556122a0565b015160001960f88460031b161c191690558a80806123f2565b919260206001819286850151815501940192016123d1565b600984016000526020600020601f840160051c810160208510612473575b601f830160051c8201811061246757505061226b565b60008155600101612451565b5080612451565b015190508980612226565b9250600884016000526020600020906000935b601f19841685106124dc576001945083601f198116106124c3575b505050811b01600882015561223e565b015160001960f88460031b161c191690558980806124b3565b81810151835560209485019460019093019290910190612498565b909150600884016000526020600020601f840160051c810160208510612543575b90849392915b601f830160051c8201811061253457505061220f565b6000815585945060010161251e565b5080612518565b612563915060203d6020116103ff576103f18183612a1f565b8a6103bd565b34610225576020366003190112610225576004356001600160401b03811161022557602061259c819236906004016127e8565b919082604051938492833781016005815203019020541515604051908152f35b3461022557602080600319360112610225576004356001600160401b038111610225576125ed9036906004016127e8565b6125f8929192612ee7565b604051818482378281838101600581520301902054612618811515612f0a565b60001981019081116107885761262d90612978565b50600a81019182549460ff8616600281101561077257600161264f9114612f4a565b60ff8660081c169360068510156107725761266c60018614612f8e565b83546001600160a01b0390811691612685338414612fd3565b61269560ff8a60101c1615613013565b600586015461070881018091116107885742106127a35761ff001990981661050017909755600284015460038501805460405163a9059cbb60e01b81526001600160a01b039094166004850152602484015296979596919590889087908316816000816044810103925af19485156104065761272a6080966000805160206132b1833981519152986000916118505750612e64565b541690547f28afe715dbd83795e640b15a8e7a443f6bcc98def0089c4fe40e6c0841de91458860405186868237808781016000815203902092604051908152a381604051928392833781016000815203902092604051908152600585820152336040820152426060820152a26001805560405160018152f35b60405162461bcd60e51b815260048101899052601760248201527f5061796d656e74206e6f742079657420657870697265640000000000000000006044820152606490fd5b9181601f84011215610225578235916001600160401b038311610225576020838186019501011161022557565b602435906001600160a01b038216820361022557565b600435906001600160a01b038216820361022557565b9060a0600319830112610225576001600160a01b03916004358381168103610225579260243590811681036102255791604435916001600160401b03916064358381116102255782612895916004016127e8565b93909392608435918211610225576128af916004016127e8565b9091565b60005b8381106128c65750506000910152565b81810151838201526020016128b6565b906020916128ef815180928185528580860191016128b3565b601f01601f1916010190565b6020908160408183019282815285518094520193019160005b828110612922575050505090565b835185529381019392810192600101612914565b604060031982011261022557600435906001600160401b03821161022557612960916004016127e8565b90916024356001600160a01b03811681036102255790565b6004548110156129b357600b906004600052027f8a35acfbc15ff81a39ae7d344fd709f28e8600b4aa8c65c6b64bfe7fe36bd19b0190600090565b634e487b7160e01b600052603260045260246000fd5b90600182811c921680156129f9575b60208310146129e357565b634e487b7160e01b600052602260045260246000fd5b91607f16916129d8565b6101a081019081106001600160401b03821117610ddb57604052565b90601f801991011681019081106001600160401b03821117610ddb57604052565b9060405191826000825492612a54846129c9565b908184526001948581169081600014612ac35750600114612a80575b5050612a7e92500383612a1f565b565b9093915060005260209081600020936000915b818310612aab575050612a7e93508201013880612a70565b85548884018501529485019487945091830191612a93565b915050612a7e94506020925060ff191682840152151560051b8201013880612a70565b9291926001600160401b038211610ddb5760405191612b0f601f8201601f191660200184612a1f565b829481845281830111610225578281602093846000960137010152565b6000546001600160a01b03163303612b4057565b60405163118cdaa760e01b8152336004820152602490fd5b80548210156129b35760005260206000200190600090565b91906001830160009082825280602052604082205415600014612bef57845494600160401b861015612bdb5783612bcb612bb4886001604098999a01855584612b58565b819391549060031b91821b91600019901b19161790565b9055549382526020522055600190565b634e487b7160e01b83526041600452602483fd5b50925050565b90600182019060009281845282602052604084205490811515600014612cde5760001991808301818111612cca57825490848201918211612cb657818103612c81575b50505080548015612c6d57820191612c508383612b58565b909182549160031b1b191690555582526020526040812055600190565b634e487b7160e01b86526031600452602486fd5b612ca1612c91612bb49386612b58565b90549060031b1c92839286612b58565b90558652846020526040862055388080612c38565b634e487b7160e01b88526011600452602488fd5b634e487b7160e01b87526011600452602487fd5b5050505090565b15612cec57565b60405162461bcd60e51b8152602060048201526012602482015271496e76616c6964204c50206164647265737360701b6044820152606490fd5b15612d2d57565b60405162461bcd60e51b815260206004820152601d60248201527f416d6f756e74206d7573742062652067726561746572207468616e20300000006044820152606490fd5b15612d7957565b60405162461bcd60e51b815260206004820152601a60248201527f5061796d656e742049442063616e6e6f7420626520656d7074790000000000006044820152606490fd5b15612dc557565b60405162461bcd60e51b815260206004820152601760248201527f5061796d656e7420494420616c726561647920757365640000000000000000006044820152606490fd5b15612e1157565b60405162461bcd60e51b8152602060048201526013602482015272151bdad95b881b9bdd081cdd5c1c1bdc9d1959606a1b6044820152606490fd5b90816020910312610225575180151581036102255790565b15612e6b57565b60405162461bcd60e51b815260206004820152600f60248201526e151c985b9cd9995c8819985a5b1959608a1b6044820152606490fd5b9060068110156107725761ff0082549160081b169061ff001916179055565b805490600160401b821015610ddb5781612bb4916001612ee394018155612b58565b9055565b600260015414612ef8576002600155565b604051633ee5aeb560e01b8152600490fd5b15612f1157565b60405162461bcd60e51b815260206004820152601160248201527014185e5b595b9d081b9bdd08199bdd5b99607a1b6044820152606490fd5b15612f5157565b60405162461bcd60e51b8152602060048201526015602482015274139bdd08185b88195cd8dc9bddc81c185e5b595b9d605a1b6044820152606490fd5b15612f9557565b60405162461bcd60e51b8152602060048201526016602482015275496e76616c6964207061796d656e742073746174757360501b6044820152606490fd5b15612fda57565b60405162461bcd60e51b81526020600482015260116024820152702737ba103830bcb6b2b73a1037bbb732b960791b6044820152606490fd5b1561301a57565b60405162461bcd60e51b815260206004820152601360248201527214185e5b595b9d081a5cc8191a5cdc1d5d1959606a1b6044820152606490fd5b602090826040519384928337810160058152030190205480156130dd5760001981019081116107885761308790612978565b5090600a8201549160ff8360081c1660068110156107725781546001830154600384015460048501546005860154600690960154949760101c60ff16966001600160a01b03948516969390941694919390929190565b50600090600080918180918180918190565b6001600160401b038111610ddb5760051b60200190565b60001981146107885760010190565b80518210156129b35760209160051b010190565b613134913691612ae6565b80519060038210801561321a575b6132135760005b82811061315857505050600190565b81518110156129b35760ff60f81b6020828401015116600360fc1b8110159081613204575b81156131e0575b81156131bc575b81156131ae575b50156131a6576131a190613106565b613149565b505050600090565b605f60f81b14905038613192565b9050606160f81b811015806131d2575b9061318b565b50603d60f91b8111156131cc565b9050604160f81b811015806131f6575b90613184565b50602d60f91b8111156131f0565b603960f81b811115915061317d565b5050600090565b5060408211613142565b602090826040519384928337810160058152030190205480156132135760001981019081116107885761325690612978565b50546001600160a01b0391821691161490565b602090826040519384928337810160058152030190205480156132135760001981019081116107885761329d600191612978565b50818060a01b039182910154169116149056fe22c682de3fcd506153c6e19ddc037c8ea009baf9e1f7561ca71fc25a6316ad72a2646970667358221220bc7cc87ce8931f8a5a2b9adb305c7fa6f8537c22fa030cc0a5dbf6fbbadb7c5c64736f6c63430008140033",
  "linkReferences": {},
  "deployedLinkReferences": {}
}