{
  "_format": "hh-sol-artifact-1",
  "contractName": "UnitPayEscrow",
  "sourceName": "contracts/UnitPayEscrow.sol",
  "abi": [
    {
      "inputs": [
        {
          "internalType": "address",
          "name": "_usdt",
          "type": "address"
        }
      ],
      "stateMutability": "nonpayable",
      "type": "constructor"
    },
    {
      "inputs": [
        {
          "internalType": "address",
          "name": "owner",
          "type": "address"
        }
      ],
      "name": "OwnableInvalidOwner",
      "type": "error"
    },
    {
      "inputs": [
        {
          "internalType": "address",
          "name": "account",
          "type": "address"
        }
      ],
      "name": "OwnableUnauthorizedAccount",
      "type": "error"
    },
    {
      "inputs": [],
      "name": "ReentrancyGuardReentrantCall",
      "type": "error"
    },
    {
      "anonymous": false,
      "inputs": [
        {
          "indexed": true,
          "internalType": "address",
          "name": "lp",
          "type": "address"
        },
        {
          "indexed": false,
          "internalType": "uint256",
          "name": "amount",
          "type": "uint256"
        }
      ],
      "name": "LPWithdrawn",
      "type": "event"
    },
    {
      "anonymous": false,
      "inputs": [
        {
          "indexed": true,
          "internalType": "address",
          "name": "previousOwner",
          "type": "address"
        },
        {
          "indexed": true,
          "internalType": "address",
          "name": "newOwner",
          "type": "address"
        }
      ],
      "name": "OwnershipTransferred",
      "type": "event"
    },
    {
      "anonymous": false,
      "inputs": [
        {
          "indexed": true,
          "internalType": "bytes32",
          "name": "paymentId",
          "type": "bytes32"
        }
      ],
      "name": "PaymentDisputed",
      "type": "event"
    },
    {
      "anonymous": false,
      "inputs": [
        {
          "indexed": true,
          "internalType": "bytes32",
          "name": "paymentId",
          "type": "bytes32"
        },
        {
          "indexed": true,
          "internalType": "address",
          "name": "merchant",
          "type": "address"
        },
        {
          "indexed": true,
          "internalType": "address",
          "name": "lp",
          "type": "address"
        },
        {
          "indexed": false,
          "internalType": "uint256",
          "name": "amount",
          "type": "uint256"
        }
      ],
      "name": "PaymentLocked",
      "type": "event"
    },
    {
      "anonymous": false,
      "inputs": [
        {
          "indexed": true,
          "internalType": "bytes32",
          "name": "paymentId",
          "type": "bytes32"
        },
        {
          "indexed": true,
          "internalType": "address",
          "name": "lp",
          "type": "address"
        },
        {
          "indexed": false,
          "internalType": "uint256",
          "name": "amount",
          "type": "uint256"
        }
      ],
      "name": "PaymentRefunded",
      "type": "event"
    },
    {
      "anonymous": false,
      "inputs": [
        {
          "indexed": true,
          "internalType": "bytes32",
          "name": "paymentId",
          "type": "bytes32"
        },
        {
          "indexed": true,
          "internalType": "address",
          "name": "merchant",
          "type": "address"
        },
        {
          "indexed": false,
          "internalType": "uint256",
          "name": "amount",
          "type": "uint256"
        }
      ],
      "name": "PaymentReleased",
      "type": "event"
    },
    {
      "inputs": [],
      "name": "DISPUTE_WINDOW",
      "outputs": [
        {
          "internalType": "uint256",
          "name": "",
          "type": "uint256"
        }
      ],
      "stateMutability": "view",
      "type": "function"
    },
    {
      "inputs": [],
      "name": "RELEASE_DELAY",
      "outputs": [
        {
          "internalType": "uint256",
          "name": "",
          "type": "uint256"
        }
      ],
      "stateMutability": "view",
      "type": "function"
    },
    {
      "inputs": [
        {
          "internalType": "bytes32",
          "name": "paymentId",
          "type": "bytes32"
        }
      ],
      "name": "disputePayment",
      "outputs": [],
      "stateMutability": "nonpayable",
      "type": "function"
    },
    {
      "inputs": [
        {
          "internalType": "bytes32",
          "name": "paymentId",
          "type": "bytes32"
        }
      ],
      "name": "getPayment",
      "outputs": [
        {
          "internalType": "address",
          "name": "merchant",
          "type": "address"
        },
        {
          "internalType": "address",
          "name": "lp",
          "type": "address"
        },
        {
          "internalType": "uint256",
          "name": "amount",
          "type": "uint256"
        },
        {
          "internalType": "uint256",
          "name": "lockTime",
          "type": "uint256"
        },
        {
          "internalType": "bool",
          "name": "isReleased",
          "type": "bool"
        },
        {
          "internalType": "bool",
          "name": "isDisputed",
          "type": "bool"
        },
        {
          "internalType": "bool",
          "name": "isRefunded",
          "type": "bool"
        }
      ],
      "stateMutability": "view",
      "type": "function"
    },
    {
      "inputs": [
        {
          "internalType": "bytes32",
          "name": "paymentId",
          "type": "bytes32"
        },
        {
          "internalType": "address",
          "name": "merchant",
          "type": "address"
        },
        {
          "internalType": "uint256",
          "name": "amount",
          "type": "uint256"
        }
      ],
      "name": "lockPayment",
      "outputs": [],
      "stateMutability": "nonpayable",
      "type": "function"
    },
    {
      "inputs": [
        {
          "internalType": "address",
          "name": "",
          "type": "address"
        }
      ],
      "name": "lpBalances",
      "outputs": [
        {
          "internalType": "uint256",
          "name": "",
          "type": "uint256"
        }
      ],
      "stateMutability": "view",
      "type": "function"
    },
    {
      "inputs": [],
      "name": "owner",
      "outputs": [
        {
          "internalType": "address",
          "name": "",
          "type": "address"
        }
      ],
      "stateMutability": "view",
      "type": "function"
    },
    {
      "inputs": [
        {
          "internalType": "bytes32",
          "name": "",
          "type": "bytes32"
        }
      ],
      "name": "payments",
      "outputs": [
        {
          "internalType": "address",
          "name": "merchant",
          "type": "address"
        },
        {
          "internalType": "address",
          "name": "lp",
          "type": "address"
        },
        {
          "internalType": "uint256",
          "name": "amount",
          "type": "uint256"
        },
        {
          "internalType": "uint256",
          "name": "lockTime",
          "type": "uint256"
        },
        {
          "internalType": "bool",
          "name": "isReleased",
          "type": "bool"
        },
        {
          "internalType": "bool",
          "name": "isDisputed",
          "type": "bool"
        },
        {
          "internalType": "bool",
          "name": "isRefunded",
          "type": "bool"
        },
        {
          "internalType": "bool",
          "name": "exists",
          "type": "bool"
        }
      ],
      "stateMutability": "view",
      "type": "function"
    },
    {
      "inputs": [
        {
          "internalType": "bytes32",
          "name": "paymentId",
          "type": "bytes32"
        }
      ],
      "name": "refundPayment",
      "outputs": [],
      "stateMutability": "nonpayable",
      "type": "function"
    },
    {
      "inputs": [
        {
          "internalType": "bytes32",
          "name": "paymentId",
          "type": "bytes32"
        }
      ],
      "name": "releasePayment",
      "outputs": [],
      "stateMutability": "nonpayable",
      "type": "function"
    },
    {
      "inputs": [],
      "name": "renounceOwnership",
      "outputs": [],
      "stateMutability": "nonpayable",
      "type": "function"
    },
    {
      "inputs": [
        {
          "internalType": "address",
          "name": "newOwner",
          "type": "address"
        }
      ],
      "name": "transferOwnership",
      "outputs": [],
      "stateMutability": "nonpayable",
      "type": "function"
    },
    {
      "inputs": [],
      "name": "usdt",
      "outputs": [
        {
          "internalType": "contract IERC20",
          "name": "",
          "type": "address"
        }
      ],
      "stateMutability": "view",
      "type": "function"
    },
    {
      "inputs": [],
      "name": "withdrawLP",
      "outputs": [],
      "stateMutability": "nonpayable",
      "type": "function"
    }
  ],
  "bytecode": "0x60803461011657601f610eef38819003918201601f19168301916001600160401b0383118484101761011b5780849260209460405283398101031261011657516001600160a01b03808216918290036101165733156100fd576000549060018060a01b0319913383821617600055604051913391167f8be0079c531659141344cd1fd0a4f28419497f9722a3daafe3b4186f6b6457e0600080a36001805582156100bb57506002541617600255604051610dbd90816101328239f35b62461bcd60e51b815260206004820152601460248201527f496e76616c6964205553445420616464726573730000000000000000000000006044820152606490fd5b604051631e4fbdf760e01b815260006004820152602490fd5b600080fd5b634e487b7160e01b600052604160045260246000fdfe608060408181526004918236101561001657600080fd5b600092833560e01c9182630716326d14610b53575081630b65092d14610b1d5781632f48ab7d14610af4578163715018a614610a975781637aa1ed581461088a57816385dc4865146106075781638da5cb5b146105df5781639c4dd6a214610487578163a1a64a1e1461035b578163a302e2321461033d578163de8f8b3f1461024a578163e66eefc81461016a578163f2fde38b146100df575063f585dc57146100bf57600080fd5b346100db57816003193601126100db57602090516203f4808152f35b5080fd5b905034610166576020366003190112610166576100fa610be1565b90610103610bfc565b6001600160a01b0391821692831561015057505082546001600160a01b0319811683178455167f8be0079c531659141344cd1fd0a4f28419497f9722a3daafe3b4186f6b6457e08380a380f35b51631e4fbdf760e01b8152908101849052602490fd5b8280fd5b905034610166576020366003190112610166578160e0938235815260036020522091805161019781610c28565b60018060a01b0380855416825280600186015416946020830195865260028101549484840195865260038201549160608501928352015493608084019260ff8616151584528060a086019560ff8860081c161515875261021160ff60c0830199818160101c1615158b5260181c161515808d840152610cf6565b51169751169551915192511515935115159451151595815197885260208801528601526060850152608084015260a083015260c0820152f35b9190503461016657602036600319011261016657813590610269610bfc565b610271610cd3565b81845260036020528084209280840162010000815461029560ff8260181c16610cf6565b60ff8116158061032e575b6102a990610d3b565b62ff0000191617905560028401936001855491019060018060a01b03928383541688528060205284882090815492830180931161031b575091602093917f3b28817a65441bed1ac3a5496c6b71346aa302e80c7418c12e1c49eaa1721176959355541694549051908152a36001805580f35b634e487b7160e01b895260119052602488fd5b50601081901c60ff16156102a0565b5050346100db57816003193601126100db5760209051620151808152f35b905034610166578260031936011261016657610375610cd3565b33835260208181528284205491821561044d5733808652818352848620869055600254855163a9059cbb60e01b815292830191825260208201859052839183916001600160a01b03169082908990829060400103925af1908115610443577f64cb0086f290860df1fcb0475016504f0a4173aa707bece334ebe959ccf3ef37939491610408918791610416575b50610c95565b519283523392a26001805580f35b6104369150843d861161043c575b61042e8183610c5b565b810190610c7d565b38610402565b503d610424565b84513d87823e3d90fd5b60649184519162461bcd60e51b835282015260166024820152754e6f2062616c616e636520746f20776974686472617760501b6044820152fd5b9190503461016657602036600319011261016657813591828452600360205281842090808201928354926104c060ff8560181c16610cf6565b60ff841615806105d0575b6104d490610d3b565b8054336001600160a01b03918216149081156105c0575b501561058c57600301546203f48081018091116105795742101561053d57505061ff0019166101001790557f3066aabbf85311b34c8bf40514e59631b9c8d848c6aecc422490d139336b785e8280a280f35b906020606492519162461bcd60e51b83528201526016602482015275111a5cdc1d5d19481dda5b991bddc8195e1c1a5c995960521b6044820152fd5b634e487b7160e01b875260118352602487fd5b815162461bcd60e51b8152602081850152600e60248201526d139bdd08185d5d1a1bdc9a5e995960921b6044820152606490fd5b90506001820154163314386104eb565b50601084901c60ff16156104cb565b5050346100db57816003193601126100db57905490516001600160a01b039091168152602090f35b91905034610166576060366003190112610166576024356001600160a01b03818116928435928490036108865760443594610640610cd3565b8387526020926003845260ff82848a20015460181c1661084b5785156108095786156107c7579081888581946002541660648b885194859384926323b872dd60e01b8452338a85015230602485015260448401525af19081156107bd57849384936106d86001948b947f221e03ddf78b7811d5256260c2c271082b8ce2dc66122e82c6f79c4b0d46251b9b9a99916107a65750610c95565b878c8851926106e684610c28565b8d8452828401903382528a8501928352808b8a6003606089019742895260808a019e8f5260a08a019d8e5260c08a019b838d5260e08b019d8e5283525220955116906bffffffffffffffffffffffff60a01b9182875416178655600186019251169082541617905551600283015551600382015501935115159260ff63ff00000062ff000061ff0088549451151560081b169451151560101b169451151560181b1694169063ffffffff1916171717179055519485523394a46001805580f35b61043691508a3d8c1161043c5761042e8183610c5b565b85513d86823e3d90fd5b5082606492519162461bcd60e51b8352820152601d60248201527f416d6f756e74206d7573742062652067726561746572207468616e20300000006044820152fd5b5082606492519162461bcd60e51b8352820152601860248201527f496e76616c6964206d65726368616e74206164647265737300000000000000006044820152fd5b5082606492519162461bcd60e51b835282015260166024820152755061796d656e7420616c72656164792065786973747360501b6044820152fd5b8580fd5b839150346100db57602080600319360112610166578135906108aa610cd3565b8184526003815284842094838601958654966108cb60ff8960181c16610cf6565b60ff88161580610a88575b6108df90610d3b565b6003820154620151808101808211610a75574210610a3a5760ff8960081c1615908115610a0f575b50156109d65760ff199097166001179096556002805487549188018054845163a9059cbb60e01b81526001600160a01b0394851698810198895260208901919091529798909690918591899185169082908c90829060400103925af19687156109cc577f1e170c3b430cc6fdcdaa453c42619ac587e13793aa81a489fab9ebd7019c2efb95969761099e918a916109af5750610c95565b541694549051908152a36001805580f35b6109c69150863d881161043c5761042e8183610c5b565b8a610402565b83513d8a823e3d90fd5b825162461bcd60e51b8152808701859052601360248201527214185e5b595b9d081a5cc8191a5cdc1d5d1959606a1b6044820152606490fd5b90506203f4808101809111610a275742101589610907565b634e487b7160e01b885260118752602488fd5b835162461bcd60e51b8152808801869052601560248201527414995b19585cd94819195b185e481b9bdd081b595d605a1b6044820152606490fd5b634e487b7160e01b895260118852602489fd5b50601088901c60ff16156108d6565b8334610af15780600319360112610af157610ab0610bfc565b80546001600160a01b03198116825581906001600160a01b03167f8be0079c531659141344cd1fd0a4f28419497f9722a3daafe3b4186f6b6457e08280a380f35b80fd5b5050346100db57816003193601126100db5760025490516001600160a01b039091168152602090f35b9050346101665760203660031901126101665760209282916001600160a01b03610b45610be1565b168252845220549051908152f35b92915034610bdd576020366003190112610bdd579081816101009560ff943581526003602052209060018060a01b0392838354169360018401541660028401549260038501549401549487526020870152850152606084015281811615156080840152818160081c16151560a0840152818160101c16151560c084015260181c16151560e0820152f35b8380fd5b600435906001600160a01b0382168203610bf757565b600080fd5b6000546001600160a01b03163303610c1057565b60405163118cdaa760e01b8152336004820152602490fd5b610100810190811067ffffffffffffffff821117610c4557604052565b634e487b7160e01b600052604160045260246000fd5b90601f8019910116810190811067ffffffffffffffff821117610c4557604052565b90816020910312610bf757518015158103610bf75790565b15610c9c57565b60405162461bcd60e51b815260206004820152600f60248201526e151c985b9cd9995c8819985a5b1959608a1b6044820152606490fd5b600260015414610ce4576002600155565b604051633ee5aeb560e01b8152600490fd5b15610cfd57565b60405162461bcd60e51b815260206004820152601660248201527514185e5b595b9d08191bd95cc81b9bdd08195e1a5cdd60521b6044820152606490fd5b15610d4257565b60405162461bcd60e51b815260206004820152601960248201527f5061796d656e7420616c72656164792070726f636573736564000000000000006044820152606490fdfea26469706673582212206ff68b599cbfac719dbaa34dc98b57a12c89e1c897819b218bb0f1b3e82e9f6864736f6c63430008140033",
  "linkReferences": {},
  "deployedLinkReferences": {}
}