{
  "_format": "hh-sol-artifact-1",
  "contractName": "UnitpayEnhanced",
  "sourceName": "contracts/UnitpayEnhanced.sol",
  "abi": [
    {
      "inputs": [
        {
          "internalType": "address",
          "name": "_defaultToken",
          "type": "address"
        },
        {
          "internalType": "address",
          "name": "_functionsRouter",
          "type": "address"
        },
        {
          "internalType": "bytes32",
          "name": "_source",
          "type": "bytes32"
        },
        {
          "internalType": "bytes32",
          "name": "_secrets",
          "type": "bytes32"
        },
        {
          "internalType": "uint64",
          "name": "_subscriptionId",
          "type": "uint64"
        },
        {
          "internalType": "bytes32",
          "name": "_donId",
          "type": "bytes32"
        }
      ],
      "stateMutability": "nonpayable",
      "type": "constructor"
    },
    {
      "inputs": [],
      "name": "EmptyArgs",
      "type": "error"
    },
    {
      "inputs": [],
      "name": "EmptySource",
      "type": "error"
    },
    {
      "inputs": [],
      "name": "NoInlineSecrets",
      "type": "error"
    },
    {
      "inputs": [],
      "name": "OnlyRouterCanFulfill",
      "type": "error"
    },
    {
      "inputs": [],
      "name": "ReentrancyGuardReentrantCall",
      "type": "error"
    },
    {
      "anonymous": false,
      "inputs": [
        {
          "indexed": false,
          "internalType": "address",
          "name": "functionsRouter",
          "type": "address"
        },
        {
          "indexed": false,
          "internalType": "uint64",
          "name": "subscriptionId",
          "type": "uint64"
        }
      ],
      "name": "ChainlinkConfigUpdated",
      "type": "event"
    },
    {
      "anonymous": false,
      "inputs": [
        {
          "indexed": true,
          "internalType": "string",
          "name": "paymentId",
          "type": "string"
        },
        {
          "indexed": false,
          "internalType": "string",
          "name": "orderIdStr",
          "type": "string"
        }
      ],
      "name": "OrderSubmitted",
      "type": "event"
    },
    {
      "anonymous": false,
      "inputs": [
        {
          "indexed": true,
          "internalType": "string",
          "name": "paymentId",
          "type": "string"
        }
      ],
      "name": "OrderVerified",
      "type": "event"
    },
    {
      "anonymous": false,
      "inputs": [
        {
          "indexed": true,
          "internalType": "address",
          "name": "from",
          "type": "address"
        },
        {
          "indexed": true,
          "internalType": "address",
          "name": "to",
          "type": "address"
        }
      ],
      "name": "OwnershipTransferRequested",
      "type": "event"
    },
    {
      "anonymous": false,
      "inputs": [
        {
          "indexed": true,
          "internalType": "address",
          "name": "from",
          "type": "address"
        },
        {
          "indexed": true,
          "internalType": "address",
          "name": "to",
          "type": "address"
        }
      ],
      "name": "OwnershipTransferred",
      "type": "event"
    },
    {
      "anonymous": false,
      "inputs": [
        {
          "indexed": true,
          "internalType": "string",
          "name": "paymentId",
          "type": "string"
        },
        {
          "indexed": false,
          "internalType": "bool",
          "name": "isAuto",
          "type": "bool"
        }
      ],
      "name": "PaymentConfirmed",
      "type": "event"
    },
    {
      "anonymous": false,
      "inputs": [
        {
          "indexed": true,
          "internalType": "string",
          "name": "paymentId",
          "type": "string"
        }
      ],
      "name": "PaymentDisputed",
      "type": "event"
    },
    {
      "anonymous": false,
      "inputs": [
        {
          "indexed": true,
          "internalType": "string",
          "name": "paymentId",
          "type": "string"
        },
        {
          "indexed": true,
          "internalType": "address",
          "name": "user",
          "type": "address"
        },
        {
          "indexed": false,
          "internalType": "uint256",
          "name": "amount",
          "type": "uint256"
        }
      ],
      "name": "PaymentExpired",
      "type": "event"
    },
    {
      "anonymous": false,
      "inputs": [
        {
          "indexed": false,
          "internalType": "string",
          "name": "paymentId",
          "type": "string"
        },
        {
          "indexed": true,
          "internalType": "address",
          "name": "user",
          "type": "address"
        },
        {
          "indexed": true,
          "internalType": "address",
          "name": "lp",
          "type": "address"
        },
        {
          "indexed": false,
          "internalType": "uint256",
          "name": "amount",
          "type": "uint256"
        },
        {
          "indexed": false,
          "internalType": "uint256",
          "name": "platformFee",
          "type": "uint256"
        }
      ],
      "name": "PaymentLocked",
      "type": "event"
    },
    {
      "anonymous": false,
      "inputs": [
        {
          "indexed": true,
          "internalType": "string",
          "name": "paymentId",
          "type": "string"
        },
        {
          "indexed": true,
          "internalType": "address",
          "name": "user",
          "type": "address"
        },
        {
          "indexed": false,
          "internalType": "uint256",
          "name": "amount",
          "type": "uint256"
        }
      ],
      "name": "PaymentRefunded",
      "type": "event"
    },
    {
      "anonymous": false,
      "inputs": [
        {
          "indexed": true,
          "internalType": "string",
          "name": "paymentId",
          "type": "string"
        },
        {
          "indexed": true,
          "internalType": "address",
          "name": "lp",
          "type": "address"
        },
        {
          "indexed": false,
          "internalType": "uint256",
          "name": "amount",
          "type": "uint256"
        },
        {
          "indexed": false,
          "internalType": "uint256",
          "name": "platformFee",
          "type": "uint256"
        }
      ],
      "name": "PaymentReleased",
      "type": "event"
    },
    {
      "anonymous": false,
      "inputs": [
        {
          "indexed": true,
          "internalType": "string",
          "name": "paymentId",
          "type": "string"
        },
        {
          "indexed": true,
          "internalType": "address",
          "name": "user",
          "type": "address"
        },
        {
          "indexed": true,
          "internalType": "address",
          "name": "lp",
          "type": "address"
        },
        {
          "indexed": false,
          "internalType": "uint256",
          "name": "amount",
          "type": "uint256"
        },
        {
          "indexed": false,
          "internalType": "string",
          "name": "network",
          "type": "string"
        }
      ],
      "name": "PaymentSettled",
      "type": "event"
    },
    {
      "anonymous": false,
      "inputs": [
        {
          "indexed": true,
          "internalType": "string",
          "name": "paymentId",
          "type": "string"
        },
        {
          "indexed": false,
          "internalType": "uint8",
          "name": "oldStatus",
          "type": "uint8"
        },
        {
          "indexed": false,
          "internalType": "uint8",
          "name": "newStatus",
          "type": "uint8"
        },
        {
          "indexed": false,
          "internalType": "address",
          "name": "triggeredBy",
          "type": "address"
        },
        {
          "indexed": false,
          "internalType": "uint256",
          "name": "timestamp",
          "type": "uint256"
        }
      ],
      "name": "PaymentStatusChanged",
      "type": "event"
    },
    {
      "anonymous": false,
      "inputs": [
        {
          "indexed": false,
          "internalType": "uint256",
          "name": "amount",
          "type": "uint256"
        }
      ],
      "name": "PlatformFeesWithdrawn",
      "type": "event"
    },
    {
      "anonymous": false,
      "inputs": [
        {
          "indexed": true,
          "internalType": "bytes32",
          "name": "id",
          "type": "bytes32"
        }
      ],
      "name": "RequestFulfilled",
      "type": "event"
    },
    {
      "anonymous": false,
      "inputs": [
        {
          "indexed": true,
          "internalType": "bytes32",
          "name": "id",
          "type": "bytes32"
        }
      ],
      "name": "RequestSent",
      "type": "event"
    },
    {
      "anonymous": false,
      "inputs": [
        {
          "indexed": false,
          "internalType": "bytes32",
          "name": "source",
          "type": "bytes32"
        },
        {
          "indexed": false,
          "internalType": "bytes32",
          "name": "secrets",
          "type": "bytes32"
        }
      ],
      "name": "SourceAndSecretsUpdated",
      "type": "event"
    },
    {
      "anonymous": false,
      "inputs": [
        {
          "indexed": true,
          "internalType": "string",
          "name": "network",
          "type": "string"
        },
        {
          "indexed": true,
          "internalType": "address",
          "name": "token",
          "type": "address"
        },
        {
          "indexed": false,
          "internalType": "bool",
          "name": "isEnabled",
          "type": "bool"
        }
      ],
      "name": "TokenConfigUpdated",
      "type": "event"
    },
    {
      "anonymous": false,
      "inputs": [
        {
          "indexed": true,
          "internalType": "string",
          "name": "paymentId",
          "type": "string"
        },
        {
          "indexed": false,
          "internalType": "string",
          "name": "reason",
          "type": "string"
        }
      ],
      "name": "VerificationFailed",
      "type": "event"
    },
    {
      "anonymous": false,
      "inputs": [
        {
          "indexed": true,
          "internalType": "string",
          "name": "paymentId",
          "type": "string"
        },
        {
          "indexed": false,
          "internalType": "bytes32",
          "name": "requestId",
          "type": "bytes32"
        }
      ],
      "name": "VerificationRequested",
      "type": "event"
    },
    {
      "inputs": [],
      "name": "AUTO_RELEASE_TIME",
      "outputs": [
        {
          "internalType": "uint256",
          "name": "",
          "type": "uint256"
        }
      ],
      "stateMutability": "view",
      "type": "function"
    },
    {
      "inputs": [],
      "name": "DISPUTE_WINDOW",
      "outputs": [
        {
          "internalType": "uint256",
          "name": "",
          "type": "uint256"
        }
      ],
      "stateMutability": "view",
      "type": "function"
    },
    {
      "inputs": [],
      "name": "PAYMENT_EXPIRY_TIME",
      "outputs": [
        {
          "internalType": "uint256",
          "name": "",
          "type": "uint256"
        }
      ],
      "stateMutability": "view",
      "type": "function"
    },
    {
      "inputs": [],
      "name": "PLATFORM_FEE_RATE",
      "outputs": [
        {
          "internalType": "uint256",
          "name": "",
          "type": "uint256"
        }
      ],
      "stateMutability": "view",
      "type": "function"
    },
    {
      "inputs": [],
      "name": "T1_LOCK_TIME",
      "outputs": [
        {
          "internalType": "uint256",
          "name": "",
          "type": "uint256"
        }
      ],
      "stateMutability": "view",
      "type": "function"
    },
    {
      "inputs": [],
      "name": "acceptOwnership",
      "outputs": [],
      "stateMutability": "nonpayable",
      "type": "function"
    },
    {
      "inputs": [
        {
          "internalType": "string",
          "name": "paymentId",
          "type": "string"
        }
      ],
      "name": "confirmPayment",
      "outputs": [],
      "stateMutability": "nonpayable",
      "type": "function"
    },
    {
      "inputs": [
        {
          "internalType": "address",
          "name": "lp",
          "type": "address"
        },
        {
          "internalType": "address",
          "name": "token",
          "type": "address"
        },
        {
          "internalType": "uint256",
          "name": "amount",
          "type": "uint256"
        },
        {
          "internalType": "string",
          "name": "network",
          "type": "string"
        },
        {
          "internalType": "string",
          "name": "merchantEmail",
          "type": "string"
        }
      ],
      "name": "createOrder",
      "outputs": [
        {
          "internalType": "string",
          "name": "",
          "type": "string"
        }
      ],
      "stateMutability": "nonpayable",
      "type": "function"
    },
    {
      "inputs": [],
      "name": "defaultToken",
      "outputs": [
        {
          "internalType": "contract IERC20",
          "name": "",
          "type": "address"
        }
      ],
      "stateMutability": "view",
      "type": "function"
    },
    {
      "inputs": [
        {
          "internalType": "string",
          "name": "paymentId",
          "type": "string"
        }
      ],
      "name": "disputePayment",
      "outputs": [],
      "stateMutability": "nonpayable",
      "type": "function"
    },
    {
      "inputs": [
        {
          "internalType": "string",
          "name": "paymentId",
          "type": "string"
        }
      ],
      "name": "expirePayment",
      "outputs": [],
      "stateMutability": "nonpayable",
      "type": "function"
    },
    {
      "inputs": [],
      "name": "getFunctionsRouter",
      "outputs": [
        {
          "internalType": "address",
          "name": "",
          "type": "address"
        }
      ],
      "stateMutability": "view",
      "type": "function"
    },
    {
      "inputs": [
        {
          "internalType": "address",
          "name": "lp",
          "type": "address"
        }
      ],
      "name": "getLpPayments",
      "outputs": [
        {
          "internalType": "uint256[]",
          "name": "",
          "type": "uint256[]"
        }
      ],
      "stateMutability": "view",
      "type": "function"
    },
    {
      "inputs": [
        {
          "internalType": "string",
          "name": "network",
          "type": "string"
        }
      ],
      "name": "getNetworkTokens",
      "outputs": [
        {
          "internalType": "address[]",
          "name": "",
          "type": "address[]"
        }
      ],
      "stateMutability": "view",
      "type": "function"
    },
    {
      "inputs": [
        {
          "internalType": "uint256",
          "name": "index",
          "type": "uint256"
        }
      ],
      "name": "getPaymentByIndex",
      "outputs": [
        {
          "internalType": "address",
          "name": "user",
          "type": "address"
        },
        {
          "internalType": "address",
          "name": "lp",
          "type": "address"
        },
        {
          "internalType": "address",
          "name": "token",
          "type": "address"
        },
        {
          "internalType": "uint256",
          "name": "amount",
          "type": "uint256"
        },
        {
          "internalType": "uint256",
          "name": "timestamp",
          "type": "uint256"
        },
        {
          "internalType": "uint256",
          "name": "lockTime",
          "type": "uint256"
        },
        {
          "internalType": "uint256",
          "name": "releaseTime",
          "type": "uint256"
        },
        {
          "internalType": "uint256",
          "name": "platformFee",
          "type": "uint256"
        },
        {
          "internalType": "string",
          "name": "paymentId",
          "type": "string"
        },
        {
          "internalType": "string",
          "name": "network",
          "type": "string"
        },
        {
          "internalType": "enum UnitpayEnhanced.PaymentType",
          "name": "paymentType",
          "type": "uint8"
        },
        {
          "internalType": "enum UnitpayEnhanced.EscrowStatus",
          "name": "escrowStatus",
          "type": "uint8"
        },
        {
          "internalType": "bool",
          "name": "isDisputed",
          "type": "bool"
        }
      ],
      "stateMutability": "view",
      "type": "function"
    },
    {
      "inputs": [
        {
          "internalType": "string",
          "name": "paymentId",
          "type": "string"
        }
      ],
      "name": "getPaymentByPaymentId",
      "outputs": [
        {
          "internalType": "address",
          "name": "user",
          "type": "address"
        },
        {
          "internalType": "address",
          "name": "lp",
          "type": "address"
        },
        {
          "internalType": "address",
          "name": "token",
          "type": "address"
        },
        {
          "internalType": "uint256",
          "name": "amount",
          "type": "uint256"
        },
        {
          "internalType": "uint256",
          "name": "timestamp",
          "type": "uint256"
        },
        {
          "internalType": "uint256",
          "name": "lockTime",
          "type": "uint256"
        },
        {
          "internalType": "uint256",
          "name": "releaseTime",
          "type": "uint256"
        },
        {
          "internalType": "uint256",
          "name": "platformFee",
          "type": "uint256"
        },
        {
          "internalType": "string",
          "name": "_paymentId",
          "type": "string"
        },
        {
          "internalType": "string",
          "name": "network",
          "type": "string"
        },
        {
          "internalType": "enum UnitpayEnhanced.PaymentType",
          "name": "paymentType",
          "type": "uint8"
        },
        {
          "internalType": "enum UnitpayEnhanced.EscrowStatus",
          "name": "escrowStatus",
          "type": "uint8"
        },
        {
          "internalType": "bool",
          "name": "isDisputed",
          "type": "bool"
        }
      ],
      "stateMutability": "view",
      "type": "function"
    },
    {
      "inputs": [],
      "name": "getSubscriptionId",
      "outputs": [
        {
          "internalType": "uint64",
          "name": "",
          "type": "uint64"
        }
      ],
      "stateMutability": "view",
      "type": "function"
    },
    {
      "inputs": [
        {
          "internalType": "address",
          "name": "user",
          "type": "address"
        }
      ],
      "name": "getUserPayments",
      "outputs": [
        {
          "internalType": "uint256[]",
          "name": "",
          "type": "uint256[]"
        }
      ],
      "stateMutability": "view",
      "type": "function"
    },
    {
      "inputs": [
        {
          "internalType": "bytes32",
          "name": "requestId",
          "type": "bytes32"
        },
        {
          "internalType": "bytes",
          "name": "response",
          "type": "bytes"
        },
        {
          "internalType": "bytes",
          "name": "err",
          "type": "bytes"
        }
      ],
      "name": "handleOracleFulfillment",
      "outputs": [],
      "stateMutability": "nonpayable",
      "type": "function"
    },
    {
      "inputs": [
        {
          "internalType": "address",
          "name": "lp",
          "type": "address"
        },
        {
          "internalType": "address",
          "name": "token",
          "type": "address"
        },
        {
          "internalType": "uint256",
          "name": "amount",
          "type": "uint256"
        },
        {
          "internalType": "string",
          "name": "network",
          "type": "string"
        },
        {
          "internalType": "string",
          "name": "paymentId",
          "type": "string"
        }
      ],
      "name": "lockPayment",
      "outputs": [
        {
          "internalType": "bool",
          "name": "",
          "type": "bool"
        }
      ],
      "stateMutability": "nonpayable",
      "type": "function"
    },
    {
      "inputs": [
        {
          "internalType": "address",
          "name": "",
          "type": "address"
        }
      ],
      "name": "lpPaypalEmail",
      "outputs": [
        {
          "internalType": "string",
          "name": "",
          "type": "string"
        }
      ],
      "stateMutability": "view",
      "type": "function"
    },
    {
      "inputs": [
        {
          "internalType": "string",
          "name": "",
          "type": "string"
        }
      ],
      "name": "merchantEmails",
      "outputs": [
        {
          "internalType": "string",
          "name": "",
          "type": "string"
        }
      ],
      "stateMutability": "view",
      "type": "function"
    },
    {
      "inputs": [
        {
          "internalType": "string",
          "name": "",
          "type": "string"
        },
        {
          "internalType": "address",
          "name": "",
          "type": "address"
        }
      ],
      "name": "networkTokens",
      "outputs": [
        {
          "internalType": "address",
          "name": "tokenAddress",
          "type": "address"
        },
        {
          "internalType": "uint8",
          "name": "decimals",
          "type": "uint8"
        },
        {
          "internalType": "bool",
          "name": "isEnabled",
          "type": "bool"
        }
      ],
      "stateMutability": "view",
      "type": "function"
    },
    {
      "inputs": [],
      "name": "owner",
      "outputs": [
        {
          "internalType": "address",
          "name": "",
          "type": "address"
        }
      ],
      "stateMutability": "view",
      "type": "function"
    },
    {
      "inputs": [
        {
          "internalType": "uint256",
          "name": "",
          "type": "uint256"
        }
      ],
      "name": "paymentRecords",
      "outputs": [
        {
          "internalType": "address",
          "name": "user",
          "type": "address"
        },
        {
          "internalType": "address",
          "name": "lp",
          "type": "address"
        },
        {
          "internalType": "address",
          "name": "token",
          "type": "address"
        },
        {
          "internalType": "uint256",
          "name": "amount",
          "type": "uint256"
        },
        {
          "internalType": "uint256",
          "name": "timestamp",
          "type": "uint256"
        },
        {
          "internalType": "uint256",
          "name": "lockTime",
          "type": "uint256"
        },
        {
          "internalType": "uint256",
          "name": "releaseTime",
          "type": "uint256"
        },
        {
          "internalType": "uint256",
          "name": "platformFee",
          "type": "uint256"
        },
        {
          "internalType": "string",
          "name": "paymentId",
          "type": "string"
        },
        {
          "internalType": "string",
          "name": "network",
          "type": "string"
        },
        {
          "internalType": "enum UnitpayEnhanced.PaymentType",
          "name": "paymentType",
          "type": "uint8"
        },
        {
          "internalType": "enum UnitpayEnhanced.EscrowStatus",
          "name": "escrowStatus",
          "type": "uint8"
        },
        {
          "internalType": "bool",
          "name": "isDisputed",
          "type": "bool"
        }
      ],
      "stateMutability": "view",
      "type": "function"
    },
    {
      "inputs": [],
      "name": "platformPendingFees",
      "outputs": [
        {
          "internalType": "uint256",
          "name": "",
          "type": "uint256"
        }
      ],
      "stateMutability": "view",
      "type": "function"
    },
    {
      "inputs": [
        {
          "internalType": "string",
          "name": "paymentId",
          "type": "string"
        }
      ],
      "name": "refundPayment",
      "outputs": [],
      "stateMutability": "nonpayable",
      "type": "function"
    },
    {
      "inputs": [
        {
          "internalType": "string",
          "name": "email",
          "type": "string"
        }
      ],
      "name": "registerLp",
      "outputs": [],
      "stateMutability": "nonpayable",
      "type": "function"
    },
    {
      "inputs": [
        {
          "internalType": "string",
          "name": "paymentId",
          "type": "string"
        }
      ],
      "name": "releasePayment",
      "outputs": [],
      "stateMutability": "nonpayable",
      "type": "function"
    },
    {
      "inputs": [
        {
          "internalType": "address",
          "name": "lp",
          "type": "address"
        },
        {
          "internalType": "address",
          "name": "token",
          "type": "address"
        },
        {
          "internalType": "uint256",
          "name": "amount",
          "type": "uint256"
        },
        {
          "internalType": "string",
          "name": "network",
          "type": "string"
        },
        {
          "internalType": "string",
          "name": "paymentId",
          "type": "string"
        }
      ],
      "name": "settlePayment",
      "outputs": [
        {
          "internalType": "bool",
          "name": "",
          "type": "bool"
        }
      ],
      "stateMutability": "nonpayable",
      "type": "function"
    },
    {
      "inputs": [
        {
          "internalType": "string",
          "name": "paymentId",
          "type": "string"
        },
        {
          "internalType": "string",
          "name": "orderIdStr",
          "type": "string"
        }
      ],
      "name": "submitOrderId",
      "outputs": [],
      "stateMutability": "nonpayable",
      "type": "function"
    },
    {
      "inputs": [
        {
          "internalType": "string",
          "name": "",
          "type": "string"
        }
      ],
      "name": "submittedOrderIds",
      "outputs": [
        {
          "internalType": "string",
          "name": "",
          "type": "string"
        }
      ],
      "stateMutability": "view",
      "type": "function"
    },
    {
      "inputs": [
        {
          "internalType": "address",
          "name": "to",
          "type": "address"
        }
      ],
      "name": "transferOwnership",
      "outputs": [],
      "stateMutability": "nonpayable",
      "type": "function"
    },
    {
      "inputs": [
        {
          "internalType": "address",
          "name": "_functionsRouter",
          "type": "address"
        }
      ],
      "name": "updateFunctionsRouter",
      "outputs": [],
      "stateMutability": "nonpayable",
      "type": "function"
    },
    {
      "inputs": [
        {
          "internalType": "bytes32",
          "name": "_source",
          "type": "bytes32"
        },
        {
          "internalType": "bytes32",
          "name": "_secrets",
          "type": "bytes32"
        }
      ],
      "name": "updateSourceAndSecrets",
      "outputs": [],
      "stateMutability": "nonpayable",
      "type": "function"
    },
    {
      "inputs": [
        {
          "internalType": "uint64",
          "name": "_subscriptionId",
          "type": "uint64"
        }
      ],
      "name": "updateSubscriptionId",
      "outputs": [],
      "stateMutability": "nonpayable",
      "type": "function"
    },
    {
      "inputs": [
        {
          "internalType": "string",
          "name": "network",
          "type": "string"
        },
        {
          "internalType": "address",
          "name": "tokenAddress",
          "type": "address"
        },
        {
          "internalType": "uint8",
          "name": "decimals",
          "type": "uint8"
        },
        {
          "internalType": "bool",
          "name": "isEnabled",
          "type": "bool"
        }
      ],
      "name": "updateTokenConfig",
      "outputs": [],
      "stateMutability": "nonpayable",
      "type": "function"
    },
    {
      "inputs": [
        {
          "internalType": "string",
          "name": "",
          "type": "string"
        }
      ],
      "name": "verificationStatus",
      "outputs": [
        {
          "internalType": "enum UnitpayEnhanced.VerificationStatus",
          "name": "",
          "type": "uint8"
        }
      ],
      "stateMutability": "view",
      "type": "function"
    },
    {
      "inputs": [
        {
          "internalType": "address",
          "name": "token",
          "type": "address"
        }
      ],
      "name": "withdrawPlatformFees",
      "outputs": [],
      "stateMutability": "nonpayable",
      "type": "function"
    }
  ],
  "bytecode": "0x60a03462000191576001600160401b03601f62004f9a38819003918201601f191684019183831185841017620001965780859260c09460405283398101031262000191576200004e82620001ac565b916200005d60208201620001ac565b926040820151906060830151926080810151948516809503620001915760a0015160016000556001600160a01b039586166080529433156200014c57600180546001600160a01b03199081163317909155911690811562000107576003541617600355600f5560105560018060401b03196012541617601255601155604051614dd89081620001c2823960805181818161065a0152818161073301528181610f2e0152612f810152f35b60405162461bcd60e51b815260206004820152601860248201527f5a65726f2061646472657373206e6f7420616c6c6f77656400000000000000006044820152606490fd5b60405162461bcd60e51b815260206004820152601860248201527f43616e6e6f7420736574206f776e657220746f207a65726f00000000000000006044820152606490fd5b600080fd5b634e487b7160e01b600052604160045260246000fd5b51906001600160a01b0382168203620001915756fe6080604052600436101561001257600080fd5b60003560e01c80630252d0ed14610287578063078081e6146102825780630ca761751461027d57806314b1dd1b1461027857806316e39dc2146102735780631a98dcb31461026e578063225bc08a146102695780632485d0f51461026457806328569d2b1461025f5780632930fa491461025a5780632d9e4977146102555780633395a79a146102505780635691fe631461024b57806356c350e4146102465780635922aeda14610241578063604f89791461023c578063666b9f4b1461023757806369f7e9b11461023257806373e306e31461022d57806374c13fda1461022857806379ba5097146102235780637e896cc51461021e57806383a41ff314610219578063860ba4c1146102145780638da5cb5b1461020f578063912db0fb1461020a578063977a2968146102055780639cf48d7d146102005780639d7dadeb146101fb578063a1941949146101f6578063a6b16096146101f1578063b7948996146101ec578063c2e8528c146101e7578063cd6c57c4146101e2578063d60bed9d146101dd578063de3d9fb7146101d8578063ec3889b5146101d3578063f2fde38b146101ce5763f585dc57146101c957600080fd5b6123aa565b6122e6565b61220c565b6121e5565b61204d565b612016565b611ff8565b611f19565b611cbf565b611b91565b611b19565b611afc565b611ae0565b6119d3565b6119aa565b611902565b6118e4565b611642565b611582565b611559565b61152c565b6114cb565b6114aa565b611376565b611286565b611216565b611093565b610f18565b610e94565b610e3d565b610c19565b610bc7565b610968565b610921565b610772565b6106cb565b61060b565b6104bc565b6102be565b9181601f840112156102b9578235916001600160401b0383116102b957602083818601950101116102b957565b600080fd5b346102b95760403660031901126102b9576001600160401b036004358181116102b9576102ef90369060040161028c565b91906024359182116102b95761041c927ff3897b43b82055dbcce0f9011f85a239a69153e8b3c03aa8fc17dabd642787e261033161041794369060040161028c565b61039f6001610390600a61036461035f61034e8a8c9a999a61255b565b5461035a8115156125d8565b61262e565b610f73565b5080840154610385906001600160a01b03163390868060a01b03161461265e565b015460081c60ff1690565b61039981610fe5565b146126aa565b6103c56103b66103af8688612574565b5460ff1690565b6103bf81611522565b156126ef565b6103d981846103d4878961258d565b612494565b6103f36103e68587612574565b805460ff19166001179055565b6103fd848661272f565b9261040d60405192839283612765565b0390a236916105b6565b612938565b005b602435906001600160a01b03821682036102b957565b600435906001600160a01b03821682036102b957565b9060a06003198301126102b9576001600160a01b039160043583811681036102b9579260243590811681036102b95791604435916001600160401b03916064358381116102b9578261049e9160040161028c565b939093926084359182116102b9576104b89160040161028c565b9091565b346102b95760206104fa6104ec6104f46104d53661044a565b96939597916104e59391936148cc565b36916105b6565b9436916105b6565b93614707565b60016000556040519015158152f35b634e487b7160e01b600052604160045260246000fd5b604081019081106001600160401b0382111761053a57604052565b610509565b608081019081106001600160401b0382111761053a57604052565b90601f801991011681019081106001600160401b0382111761053a57604052565b604051906101a082018281106001600160401b0382111761053a57604052565b6001600160401b03811161053a57601f01601f191660200190565b9291926105c28261059b565b916105d0604051938461055a565b8294818452818301116102b9578281602093846000960137010152565b9080601f830112156102b957816020610608933591016105b6565b90565b346102b95760603660031901126102b9576004356001600160401b036024358181116102b95761063f9036906004016105ed565b906044359081116102b9576106589036906004016105ed565b7f00000000000000000000000000000000000000000000000000000000000000006001600160a01b031633036106b9576106929183613ea7565b7f85e1543bf2f84fe80c6badbce3648c8539ad1df4d2b3d822938ca0538be727e6600080a2005b60405163c6829f8360e01b8152600490fd5b346102b95760203660031901126102b9576004356001600160401b0381168091036102b95760407f216f7020a29aa48a5cd85533a935f918c19d3c37e64e723350a6eb69881441679161071c6123c8565b6012805467ffffffffffffffff19168217905581517f00000000000000000000000000000000000000000000000000000000000000006001600160a01b031681526020810191909152a1005b801515036102b957565b346102b95760803660031901126102b9576004356001600160401b0381116102b9576107a290369060040161028c565b906107ab61041e565b906044359160ff831683036102b957606435926107c784610768565b6107cf6123c8565b6001600160a01b038216946107e58615156148ef565b80156108dc578383610892876108b1956108756108416108c49961082a897f5b98a0b8d95466d30425b78df6c383f9e0e0ceb178abd7068bbf3d501d94dc2d9d6125a6565b9060018060a01b0316600052602052604060002090565b80546001600160a01b0319166001600160a01b03871617815591825460ff60a01b191660a09190911b60ff60a01b16178255565b805460ff60a81b191691151560a81b60ff60a81b16919091179055565b86156108c9576108ab906108a684846125bf565b614933565b5061272f565b6040519315158452929081906020820190565b0390a3005b6108ab906108d784846125bf565b61499b565b60405162461bcd60e51b815260206004820152601760248201527f4e6574776f726b2063616e6e6f7420626520656d7074790000000000000000006044820152606490fd5b346102b95760003660031901126102b95760206040516107088152f35b60206003198201126102b957600435906001600160401b0382116102b9576104b89160040161028c565b346102b957610a356109793661093e565b906109826148cc565b610a3061099561035f61034e858561255b565b50610a1f60ff600a830192610a15610a0d60058654936109c260018787166109bc81610fc9565b14614afe565b6109e6868660081c166109d481610fe5565b60018114908115610a64575b50614c43565b8054610a06906001600160a01b03165b6001600160a01b03163314614b83565b015461307c565b421115614c80565b60101c1615614cc5565b805462ff0000191662010000179055565b61272f565b7f91c26a99a0a4d117c4d67f42c08c4c42d13094fbef4b6a53a9dd88e5c2256386600080a261041c6001600055565b60029150610a7181610fe5565b14386109e0565b634e487b7160e01b600052600060045260246000fd5b90600182811c92168015610abe575b6020831014610aa857565b634e487b7160e01b600052602260045260246000fd5b91607f1691610a9d565b9060405191826000825492610adc84610a8e565b908184526001948581169081600014610b4b5750600114610b08575b5050610b069250038361055a565b565b9093915060005260209081600020936000915b818310610b33575050610b0693508201013880610af8565b85548884018501529485019487945091830191610b1b565b915050610b0694506020925060ff191682840152151560051b8201013880610af8565b60005b838110610b815750506000910152565b8181015183820152602001610b71565b90602091610baa81518092818552858086019101610b6e565b601f01601f1916010190565b906020610608928181520190610b91565b346102b95760203660031901126102b9576001600160a01b03610be8610434565b16600052600b602052610c15610c016040600020610ac8565b604051918291602083526020830190610b91565b0390f35b346102b957610d2b610c2a3661093e565b9190610c346148cc565b610c4461035f61034e858461255b565b50600a810193845492610c5f600160ff86166109bc81610fc9565b610cc360ff8560081c1696610c7388610fe5565b600188148015610e2a575b610c8790614d04565b60018501546001600160a01b0396610cab9188163314908115610e1c575b50614b83565b610cb488610fe5565b805461ff001916610400179055565b6002830154610ce890610cdc906001600160a01b031681565b6001600160a01b031690565b835460038501805460405163a9059cbb60e01b81526001600160a01b03909316600484015260248301529096909591602091889190829060009082906044820190565b03925af1948515610e17577f4f4233d8b608dab7ae8be019715573700f481096c3c0695cc3f8ff3bdc436bdd610d90610db496610d83610ddc99600080516020614d838339815191529b600091610de9575b506144f5565b546001600160a01b031690565b915492610d9d868661272f565b60405194855292169280602081015b0390a361272f565b6040805160ff9095168552600460208601523390850152426060850152929081906080820190565b0390a261041c6001600055565b610e0a915060203d8111610e10575b610e02818361055a565b810190613e46565b38610d7d565b503d610df8565b612f1e565b60ff915060101c1638610ca5565b50610e3488610fe5565b60028814610c7e565b346102b95760003660031901126102b957602060405160058152f35b6020908160408183019282815285518094520193019160005b828110610e80575050505090565b835185529381019392810192600101610e72565b346102b9576020806003193601126102b9576001600160a01b03610eb6610434565b1660005260088152604060002090604051908181845491828152019360005281600020916000905b828210610f0157610c1585610ef58189038261055a565b60405191829182610e59565b835486529485019460019384019390910190610ede565b346102b95760003660031901126102b9576040517f00000000000000000000000000000000000000000000000000000000000000006001600160a01b03168152602090f35b634e487b7160e01b600052603260045260246000fd5b600554811015610fae57600b906005600052027f036b6384b5eca791c62761152d0c79bb0604c104a5fb6f4eb0703f3154bb3db00190600090565b610f5d565b634e487b7160e01b600052602160045260246000fd5b60021115610fd357565b610fb3565b906002821015610fd35752565b60061115610fd357565b906006821015610fd35752565b989196611080969b9e9d9b611074966101809c96610b069f9a60408e916110659961108b9f9860018060a01b03928380921686521660208501521691015260608d015260808c015260a08b015260c08a015260e08901526101a0806101008a0152880190610b91565b90868203610120880152610b91565b98610140850190610fd8565b610160830190610fef565b019015159052565b346102b95760203660031901126102b9576004356005548110156102b9576110ba90610f73565b50805460018201546001600160a01b039182169291610c15911660028301549093906001600160a01b0316926003810154946004820154916005810154600682015460078301549061110e60088501610ac8565b92600a61111d60098701610ac8565b950154966040519b8c9b8c9860ff8b60101c169b60ff808d60081c169c169a610ffc565b9061115460209282815194859201610b6e565b0190565b6020611171918160405193828580945193849201610b6e565b8101600981520301902090565b6020611197918160405193828580945193849201610b6e565b8101600c81520301902090565b60206111bd918160405193828580945193849201610b6e565b8101600e81520301902090565b60206111e3918160405193828580945193849201610b6e565b8101600d81520301902090565b6020611209918160405193828580945193849201610b6e565b8101600681520301902090565b346102b95760403660031901126102b9576004356001600160401b0381116102b95761125c61124b60609236906004016105ed565b61082a61125661041e565b91611158565b5460ff6040519160018060a01b0381168352818160a01c16602084015260a81c1615156040820152f35b346102b95760203660031901126102b95760043560055481101561133b576112ad90610f73565b5080546001600160a01b03166001820154909190610c15906001600160a01b031660028301549093906001600160a01b03169260038101549460048201546005830154926006810154600782015490600a8301549561131a600961131360088701610ac8565b9501610ac8565b946040519b8c9b8c9860ff8b60101c169b60ff808d60081c169c169a610ffc565b60405162461bcd60e51b8152602060048201526013602482015272496e646578206f7574206f6620626f756e647360681b6044820152606490fd5b346102b9576113843661044a565b959193909294861561143b576114286113fb9661142e96611412610c159a6113d9620f424060405160208101904282523360601b6040820152446054820152605481526113d08161053f565b519020066142ef565b98611409604051809d819c637061795f60e01b60208401526024830190611141565b03601f1981018c528b61055a565b6103d48a61117e565b6104e561141e886111a4565b805460ff19169055565b92614707565b5060405191829182610bb6565b60405162461bcd60e51b815260206004820152601e60248201527f4d65726368616e7420656d61696c2063616e6e6f7420626520656d70747900006044820152606490fd5b60206003198201126102b957600435906001600160401b0382116102b957610608916004016105ed565b346102b957610c15610c016114c66114c136611480565b61117e565b610ac8565b346102b95760403660031901126102b9577f7c7fc64fb8e9eab789082a884abdac75659103a8b5ba08d25925d6610e74996d604060043560243561150d6123c8565b81600f558060105582519182526020820152a1005b60041115610fd357565b346102b95760ff61154461153f36611480565b6111a4565b54166040516004821015610fd3576020918152f35b346102b95760003660031901126102b9576003546040516001600160a01b039091168152602090f35b346102b95760008060031936011261163f576002546001600160a01b039081163303611601576001546001600160a01b0316600180546001600160a01b0319163317905590600280546001600160a01b03191690553391167f8be0079c531659141344cd1fd0a4f28419497f9722a3daafe3b4186f6b6457e08380a380f35b60405162461bcd60e51b815260206004820152601660248201527526bab9ba10313290383937b837b9b2b21037bbb732b960511b6044820152606490fd5b80fd5b346102b9576116503661044a565b90919392949561165e6148cc565b6001600160a01b03818116979061167689151561438e565b6116818615156143cf565b61168c84151561441b565b6116af6116aa6116a08461082a8b8d6125a6565b5460a81c60ff1690565b6144b3565b6040516323b872dd60e01b81523360048201523060248201526044810187905290821692906020906000908281606481858a5af18015610e17576116f99183916118cd57506144f5565b808261176461171261170a8c6131bf565b6103e8900490565b9761171d898d612651565b61173161172c8b6004546130c6565b600455565b60405163a9059cbb60e01b81526001600160a01b0389166004820152602481019190915293849283919082906044820190565b03925af18015610e175761177f9183916118b0575b50614aa3565b6005549485948461178e61057b565b338152946001600160a01b03909116908501526001600160a01b031660408401528860608401524260808401528160a08401528160c084015260e0830152366117d89087896105b6565b6101008301526117e9368a8c6105b6565b610120830152806101408301528061016083015261018082015261180c9061454b565b33600090815260076020526040902082611825916146ac565b6001600160a01b0316600090815260086020526040902090611846916146ac565b61184f9061308c565b611859828461255b565b556118639161272f565b9160405191829133956118769284614ae7565b037fce1770ab7d1a256d012b7c071d6629036759ad11c5cffd2e6cd7d8b2dffc7e7c91a46118a46001600055565b60405160018152602090f35b6118c79150843d8611610e1057610e02818361055a565b38611779565b610e0a9150843d8611610e1057610e02818361055a565b346102b95760003660031901126102b9576020604051620151808152f35b346102b9576119196119133661093e565b906125bf565b60405190819080548084526020809401908192600052846000209060005b8682821061199657868661194d8288038361055a565b604051928392818401908285525180915260408401929160005b82811061197657505050500390f35b83516001600160a01b031685528695509381019392810192600101611967565b835485529093019260019283019201611937565b346102b95760003660031901126102b9576001546040516001600160a01b039091168152602090f35b346102b957611ab8600080516020614d83833981519152610ddc6119f63661093e565b611a019491946148cc565b611a1161035f61034e838861255b565b5094600a860195611a7660ff8854611a3060018383166109bc81610fc9565b60081c1697611a3e89610fe5565b611a4a60018a14614b42565b8254611a5e906001600160a01b03166109f6565b611a6789610fe5565b805461ff001916610200179055565b600642910155611a86828261272f565b604051600081527f0338bd150f7922769ad6d998d3a6b2fc3668a74ac52c70c13136927bd1c1978990602090a261272f565b6040805160ff9095168552600260208601523390850152426060850152929081906080820190565b346102b957610c15610c016114c6611af736611480565b6111ca565b346102b95760003660031901126102b9576020604051612a308152f35b346102b9576020806003193601126102b9576001600160a01b03611b3b610434565b1660005260078152604060002090604051908181845491828152019360005281600020916000905b828210611b7a57610c1585610ef58189038261055a565b835486529485019460019384019390910190611b63565b346102b957611b9f3661093e565b908115611c8257600090338252602092600b845260408320916001600160401b03821161053a57611bda82611bd48554610a8e565b8561244f565b8394601f8311600114611c16575093839482939492611c0b575b50508160011b916000199060031b1c191617905580f35b013590503880611bf4565b90601f19831695611c2c85600052602060002090565b9286905b888210611c6a57505083600195969710611c50575b505050811b01905580f35b0135600019600384901b60f8161c19169055388080611c45565b80600184968294958701358155019501920190611c30565b60405162461bcd60e51b8152602060048201526015602482015274456d61696c2063616e6e6f7420626520656d70747960581b6044820152606490fd5b346102b957611de6611cd03661093e565b9190611cda6148cc565b611cea61035f61034e858461255b565b50600a810193611d65855495611d08600160ff89166109bc81610fc9565b611d3b60ff808960081c1698611d1d8a610fe5565b60028a148015611eea575b611d3190614bc0565b60101c1615614c01565b611d4487610fe5565b60018714611eae575b611d5687610fe5565b805461ff001916610300179055565b6003820154926007830193611d8b61172c611d8287548094612651565b926004546130c6565b6020816001611da9610cdc610cdc60028a015460018060a01b031690565b9601805460405163a9059cbb60e01b81526001600160a01b0390911660048201526024810192909252909790958891829060009082906044820190565b03925af1948515610e17577fa4b9aff2e7bd4815fd0c77044b1652a3cdc9d61c082a9a75510dd9d30d1c1009611e3d611e6e96610d83610ddc99600080516020614d838339815191529b600091611e965750614aa3565b9154611e49868661272f565b6040805195865260208601929092526001600160a01b03909316939081908101610dac565b6040805160ff9095168552600360208601523390850152426060850152929081906080820190565b6118c7915060203d8111610e1057610e02818361055a565b611eb8838661272f565b604051600181527f0338bd150f7922769ad6d998d3a6b2fc3668a74ac52c70c13136927bd1c1978990602090a2611d4d565b50611ef48a610fe5565b60018a148015611d285750611d31611f0f600589015461309a565b4210159050611d28565b346102b95760203660031901126102b957611f32610434565b611f3a6123c8565b6001600160a01b031615611fb35760405162461bcd60e51b815260206004820152603960248201527f526f7574657220757064617465206e6f7420737570706f72746564202d206e6560448201527f656420746f206465706c6f79206e657720636f6e7472616374000000000000006064820152608490fd5b60405162461bcd60e51b815260206004820152601860248201527f5a65726f2061646472657373206e6f7420616c6c6f77656400000000000000006044820152606490fd5b346102b95760003660031901126102b9576020600454604051908152f35b346102b9576112ad61035f602061202c3661093e565b9190826040519384928337810160068152030190205461035a8115156125d8565b346102b95761205b3661093e565b906120646148cc565b61207461035f61034e848461255b565b5061213a600a8201936120de60ff865461209560018383166109bc81610fc9565b60081c16956120a387610fe5565b6120af60018814614b42565b6120c66120bf60058701546130a9565b4211614d40565b6120cf87610fe5565b805461ff001916610500179055565b60028301546120f790610cdc906001600160a01b031681565b835460038501805460405163a9059cbb60e01b81526001600160a01b03909316600484015260248301529590939091602091859190829060009082906044820190565b03925af1948515610e1757612170610ddc95610d83600080516020614d83833981519152986121bd97600091610de957506144f5565b9054907f28afe715dbd83795e640b15a8e7a443f6bcc98def0089c4fe40e6c0841de9145610dac6121a1868661272f565b6040519485526001600160a01b03909316939081906020820190565b6040805160ff9095168552600560208601523390850152426060850152929081906080820190565b346102b95760003660031901126102b95760206001600160401b0360125416604051908152f35b346102b95760203660031901126102b957612290612228610434565b6122306123c8565b6001600160a01b03166122448115156148ef565b602060045480926122556000600455565b60015460405163a9059cbb60e01b81526001600160a01b03909116600482015260248101929092529093849190829060009082906044820190565b03925af1908115610e17576122d16122e1927f9870c8023baa016ac002ddfa7cdad341155acddddee3032c07d4baa4947ae64394600091610de957506144f5565b6040519081529081906020820190565b0390a1005b346102b95760203660031901126102b9576122ff610434565b6123076123c8565b6001600160a01b031633811461236557600280546001600160a01b0319168217905560015461233e906001600160a01b0316610cdc565b7fed8889f560326eb138920d842192f0eb3dd22b4f139c87a2c57538e05bae1278600080a3005b60405162461bcd60e51b815260206004820152601760248201527f43616e6e6f74207472616e7366657220746f2073656c660000000000000000006044820152606490fd5b346102b95760003660031901126102b95760206040516203f4808152f35b6001546001600160a01b031633036123dc57565b60405162461bcd60e51b815260206004820152601660248201527527b7363c9031b0b63630b1363290313c9037bbb732b960511b6044820152606490fd5b916124349183549060031b91821b91600019901b19161790565b9055565b818110612443575050565b60008155600101612438565b9190601f811161245e57505050565b610b06926000526020600020906020601f840160051c8301931061248a575b601f0160051c0190612438565b909150819061247d565b9092916001600160401b03811161053a576124b9816124b38454610a8e565b8461244f565b6000601f82116001146124f357819293946000926124e8575b50508160011b916000199060031b1c1916179055565b0135905038806124d2565b601f1982169461250884600052602060002090565b91805b878110612543575083600195969710612529575b505050811b019055565b0135600019600384901b60f8161c1916905538808061251f565b9092602060018192868601358155019401910161250b565b6020908260405193849283378101600681520301902090565b6020908260405193849283378101600e81520301902090565b6020908260405193849283378101600d81520301902090565b6020908260405193849283378101600981520301902090565b6020908260405193849283378101600a81520301902090565b156125df57565b60405162461bcd60e51b815260206004820152601160248201527014185e5b595b9d081b9bdd08199bdd5b99607a1b6044820152606490fd5b634e487b7160e01b600052601160045260246000fd5b60001981019190821161263d57565b612618565b601f1981019190821161263d57565b9190820391821161263d57565b1561266557565b60405162461bcd60e51b815260206004820152601d60248201527f4f6e6c792064657369676e61746564204c502063616e207375626d69740000006044820152606490fd5b156126b157565b60405162461bcd60e51b8152602060048201526016602482015275496e76616c6964207061796d656e742073746174757360501b6044820152606490fd5b156126f657565b60405162461bcd60e51b8152602060048201526011602482015270105b1c9958591e481cdd589b5a5d1d1959607a1b6044820152606490fd5b81604051928392833781016000815203902090565b908060209392818452848401376000828201840152601f01601f1916010190565b916020610608938181520191612744565b6040519060e082018281106001600160401b0382111761053a57604052606060c08360008152600060208201526000604082015282808201528260808201528260a08201520152565b6040519060a082018281106001600160401b0382111761053a57604052600482528160005b608081106127f0575050565b8060606020809385010152016127e4565b805115610fae5760200190565b805160011015610fae5760400190565b805160021015610fae5760600190565b805160031015610fae5760800190565b8051821015610fae5760209160051b010190565b91909182516001600160401b03811161053a57612873816124b38454610a8e565b602080601f83116001146128ae5750819293946000926128a35750508160011b916000199060031b1c1916179055565b0151905038806124d2565b90601f198316956128c485600052602060002090565b926000905b888210612900575050836001959697106128e757505050811b019055565b015160001960f88460031b161c1916905538808061251f565b806001859682949686015181550195019301906128c9565b61293090602060405192828480945193849201610b6e565b810103902090565b7fcb4efc405b00543d057b47dbeaf4292cbb3b07be86fbeaa9d4afd6080ec711da612ac8612ab7612a94612a7f61297a61035f612974886111f0565b5461262e565b50612a7a61298a6114c6896111ca565b6129966114c68a61117e565b92612a4c60036129cf6114c66129b5600186015460018060a01b031690565b6001600160a01b03166000908152600b6020526040902090565b926129d8612776565b96612a0c6129f8612a06600f546040519283916020830160209181520190565b03601f19810183528261055a565b89612dd2565b601054612acd575b612a1c6127bf565b95612a2687612801565b52612a3086612801565b50612a3a8661280e565b52612a448561280e565b500154613b96565b612a558361281e565b52612a5f8261281e565b50612a698261282e565b52612a738161282e565b5082612ef0565b612bff565b6012546001600160401b031660115491612f2a565b93612ab281612aad876000526013602052604060002090565b612852565b612918565b604051938452929081906020820190565b0390a2565b612ad688612dfb565b612a14565b60405190612ae88261051f565b600c82526b31b7b232a637b1b0ba34b7b760a11b6020830152565b60031115610fd357565b60405190612b1a8261051f565b60088252676c616e677561676560c01b6020830152565b60011115610fd357565b60405190612b488261051f565b6006825265736f7572636560d01b6020830152565b60405190612b6a8261051f565b60048252636172677360e01b6020830152565b600019811461263d5760010190565b60405190612b998261051f565b600f82526e39b2b1b932ba39a637b1b0ba34b7b760891b6020830152565b60405190612bc48261051f565b60078252667365637265747360c81b6020830152565b60405190612be78261051f565b600982526862797465734172677360b81b6020830152565b612c0761302c565b90612c19612c13612adb565b83613825565b612c368151612c2781612b03565b612c3081612b03565b83613125565b612c41612c13612b0d565b612c5b6040820151612c5281612b31565b612c3081612b31565b612c66612c13612b3b565b612c74606082015183613825565b60a08101805151612d79575b506080810190815151612cf9575b60c0915001805151612ca1575b50515190565b91612cad612c13612bda565b612cb6826138a9565b60005b83518051821015612ce65790612cdc612cd582612ce19461283e565b5185613770565b612b7d565b612cb9565b50509150612cf381613935565b38612c9b565b602081018051612d0881612b03565b612d1181612b03565b15612d675760c092612d4a612d6292612d31612d2b612b8c565b88613825565b51612d3b81612b03565b612d4481612b03565b86613125565b612d5b612d55612bb7565b86613825565b5184613770565b612c8e565b60405163a80d31f760e01b8152600490fd5b92612d8b612d85612b5d565b84613825565b612d94836138a9565b60005b84518051821015612dbf5790612cdc612db382612dba9461283e565b5186613825565b612d97565b50509250612dcc82613935565b38612c80565b815115612de9576000808252604082015260600152565b6040516322ce3edd60e01b8152600490fd5b612e0361302c565b612e2b604051612e128161051f565b60068152651cdb1bdd125160d21b602082015282613825565b805190612e36613012565b50815151600181019081811161263d576020840151811015612eb5575b6000602060809551928301015380518211612ead575b5050612e94604051612e7a8161051f565b60078152663b32b939b4b7b760c91b602082015282613825565b612e9e815161351e565b50600260208401525151910152565b523880612e69565b8160011b938285046002148315171561263d57602081612ee6608097612edf6000955191846130d3565b50826136b8565b5095505050612e53565b815115612efd5760a00152565b60405163fe936cb760e01b8152600490fd5b908160209103126102b9575190565b6040513d6000823e3d90fd5b916020916001600160401b0391612f63604051958694859463230e93b160e11b865216600485015260a0602485015260a4840190610b91565b60016044840152620493e060648401526084830191909152038160007f00000000000000000000000000000000000000000000000000000000000000006001600160a01b03165af1908115610e1757600091612fe4575b50807f1131472297a800fee664d1d89cfa8f7676ff07189ecc53f80bbb5f4969099db8600080a290565b613005915060203d811161300b575b612ffd818361055a565b810190612f0f565b38612fba565b503d612ff3565b6040519061301f8261051f565b6000602083606081520152565b6040516130388161051f565b613040613012565b8082526020820160008152613053613012565b5061010060208301526040518092526000825261012082019182106102b9576000916040525290565b906203f480820180921161263d57565b906001820180921161263d57565b90612a30820180921161263d57565b90610708820180921161263d57565b906020820180921161263d57565b9190820180921161263d57565b906130dc613012565b50601f81168061310b575b50806020830152604051908183526000825281016020019081106102b95760405290565b6020036020811161263d57810180911161263d57386130e7565b90815191613131613012565b50825151600181019081811161263d57602085015181101561318a575b60c26020610b069651928301015380518211613182575b50506040519160208301526020825261317d8261051f565b613770565b523880613165565b8160011b948286046002148315171561263d576020816131b5610b0698612edf60c2955191846130d3565b509650505061314e565b9060058202918083046005149015171561263d57565b908160011b918083046002149015171561263d57565b6131f3613012565b50805151600181019081811161263d57602083015181101561322c575b605b6020845192830101538051821161322857505090565b5290565b8160011b8281046002148315171561263d576132559061324e855191866130d3565b50846136b8565b50613210565b613263613012565b50805151600181019081811161263d576020830151811015613298575b605a6020845192830101538051821161322857505090565b8160011b8281046002148315171561263d576132ba9061324e855191866130d3565b50613280565b6132c8613012565b50805151600181019081811161263d5760208301518110156132fd575b60596020845192830101538051821161322857505090565b8160011b8281046002148315171561263d5761331f9061324e855191866130d3565b506132e5565b61332d613012565b50805151600181019081811161263d576020830151811015613362575b60586020845192830101538051821161322857505090565b8160011b8281046002148315171561263d576133849061324e855191866130d3565b5061334a565b613392613012565b50805151600181019081811161263d5760208301518110156133c7575b607b6020845192830101538051821161322857505090565b8160011b8281046002148315171561263d576133e99061324e855191866130d3565b506133af565b6133f7613012565b50805151600181019081811161263d57602083015181101561342c575b607a6020845192830101538051821161322857505090565b8160011b8281046002148315171561263d5761344e9061324e855191866130d3565b50613414565b61345c613012565b50805151600181019081811161263d576020830151811015613491575b60796020845192830101538051821161322857505090565b8160011b8281046002148315171561263d576134b39061324e855191866130d3565b50613479565b6134c1613012565b50805151600181019081811161263d5760208301518110156134f6575b60786020845192830101538051821161322857505090565b8160011b8281046002148315171561263d576135189061324e855191866130d3565b506134de565b613526613012565b50805151600181019081811161263d57602083015181101561355b575b60016020845192830101538051821161322857505090565b8160011b8281046002148315171561263d5761357d9061324e855191866130d3565b50613543565b9061358c613012565b50815151600181019182821161263d5760208401518210156135bf575b6020845192830101538051821161322857505090565b8260011b8381046002148415171561263d576135e8906135e1865191876130d3565b50856136b8565b506135a9565b906135fb825191836130d3565b50613604613012565b50805190613610613012565b5061361e8151831115613769565b8251519261362c83856130c6565b9160209282848094015182116136a1575b5183815197820101968211613699575b505001915b818110156136735760001991036101000a0190811990511690825116179052565b919261368e61368861369492865181526130b8565b946130b8565b92612642565b613652565b52388061364d565b6136b36136ad836131d5565b826135ee565b61363d565b906136c1613012565b5080516136cc613012565b506136da8251821115613769565b825151916136e882846130c6565b6020918291828701518111613752575b86518381519782010196821161374a575b505001915b818110156137305760001991036101000a019081199051169082511617905290565b919261368e61368861374592865181526130b8565b61370e565b523880613709565b61376461375e826131d5565b886135ee565b6136f8565b156102b957565b81516137a79291906001600160401b03811690601782116137aa5761379f9150604060ff845192161790613583565b505b516136b8565b50565b5060ff81116137cf576137c9906137c18351613325565b508251613afe565b506137a1565b61ffff81116137ee576137c9906137e683516132c0565b508251613a97565b63ffffffff811161380f576137c990613807835161325b565b508251613a2e565b6137c99061381d83516131eb565b5082516139c2565b81516137a79291906001600160401b03811690601782116138545761379f9150606060ff845192161790613583565b5060ff811161386b576137c9906137c183516134b9565b61ffff8111613882576137c9906137e68351613454565b63ffffffff811161389b576137c99061380783516133ef565b6137c99061381d835161338a565b8051906138b4613012565b50815151600181019081811161263d576020840151811015613902575b609f60208095519283010153805182116138fa575b5050018051906001820180921161263d5752565b5238806138e6565b8160011b938285046002148315171561263d5760208161392b8297612edf609f955191846130d3565b50955050506138d1565b805190613940613012565b50815151600181019081811161263d57602084015181101561398f575b60ff6020809551928301015380518211613987575b505001805160001981019190821161263d5752565b523880613972565b8160011b938285046002148315171561263d576020816139b88297612edf60ff955191846130d3565b509550505061395d565b906139cb613012565b5081515180600801918260081161263d5760208401518311613a0d575b6008845192830101906001600160401b03198251161790528051821161322857505090565b8260011b8381046002148415171561263d57613a2990856135ee565b6139e8565b90613a37613012565b5081515180600401918260041161263d5760208401518311613a76575b60048451928301019063ffffffff198251161790528051821161322857505090565b8260011b8381046002148415171561263d57613a9290856135ee565b613a54565b90613aa0613012565b5081515180600201918260021161263d5760208401518311613add575b60028451928301019061ffff198251161790528051821161322857505090565b8260011b8381046002148415171561263d57613af990856135ee565b613abd565b90613b07613012565b5081515180600101918260011161263d5760208401518311613b43575b60018451928301019060ff198251161790528051821161322857505090565b8260011b8381046002148415171561263d57613b5f90856135ee565b613b24565b90613b6e8261059b565b613b7b604051918261055a565b8281528092613b8c601f199161059b565b0190602036910137565b806000917a184f03e93ff9f4daa797ed6e38ed64bf6a1f01000000000000000080821015613ccb575b506d04ee2d6d415b85acef810000000080831015613cbc575b50662386f26fc1000080831015613cad575b506305f5e10080831015613c9e575b5061271080831015613c8f575b506064821015613c7f575b600a80921015613c75575b600190816021613c2d828701613b64565b95860101905b613c3f575b5050505090565b600019019083906f181899199a1a9b1b9c1cb0b131b232b360811b8282061a835304918215613c7057919082613c33565b613c38565b9160010191613c1c565b9190606460029104910191613c11565b60049193920491019138613c06565b60089193920491019138613bf9565b60109193920491019138613bea565b60209193920491019138613bd8565b604093508104915038613bbf565b15613ce057565b60405162461bcd60e51b815260206004820152600f60248201526e155b9adb9bdddb881c995c5d595cdd608a1b6044820152606490fd5b613d218154610a8e565b9081613d2b575050565b81601f60009311600114613d3d575055565b908083918252613d5c601f60208420940160051c840160018501612438565b5555565b81601f820112156102b9578051613d768161059b565b92613d84604051948561055a565b818452602082840101116102b9576106089160208085019101610b6e565b916080838303126102b9578251906001600160401b03918281116102b95783613dcc918601613d60565b9360208101518381116102b95784613de5918301613d60565b9360408201519360608301519081116102b9576106089201613d60565b60405190613e0f8261051f565b600982526810d3d354131155115160ba1b6020830152565b906006811015610fd35761ff0082549160081b169061ff001916179055565b908160209103126102b9575161060881610768565b15613e6257565b60405162461bcd60e51b815260206004820152601c60248201527f4175746f2072656c65617365207472616e73666572206661696c6564000000006044820152606490fd5b9190613ee8613ee3613ec66114c6866000526013602052604060002090565b94613ed386511515613cd9565b6000526013602052604060002090565b613d17565b613ef761035f61034e856111f0565b50915161427157613f12602091828082518301019101613da2565b909392838151910120936001860194613f376114c66129b5885460018060a01b031690565b85815191012014928361424e575b5082614240575b5081614223575b50156141a25783613f77613f6a61405195966111a4565b805460ff19166002179055565b61172c600a860195613f8e875460ff9060081c1690565b613f9781610fe5565b875461ff001916610200178855426006830155613fb384612918565b7fa9666caa7f73e1d8695413f0d01a9d1a35790236aef99afea9a330c933260ec1600080a2613fe184612918565b604051600081527f0338bd150f7922769ad6d998d3a6b2fc3668a74ac52c70c13136927bd1c1978990602090a261401784612918565b6040805160ff9093168352600260208401523090830152426060830152600080516020614d83833981519152979091889181906080820190565b0390a2865461406a9060081c60ff1697611d5689610fe5565b6140e58460038301546140ab610cdc610cdc6002600788019761409d6140928a548098612651565b9a8b976004546130c6565b01546001600160a01b031690565b885460405163a9059cbb60e01b81526001600160a01b03909116600482015260248101929092529092839190829060009082906044820190565b03925af1908115610e1757612ac896610d837fa4b9aff2e7bd4815fd0c77044b1652a3cdc9d61c082a9a75510dd9d30d1c1009936141309361415d99600092614185575b5050613e5b565b915461413b85612918565b6040805195865260208601929092526001600160a01b039390931693a3612918565b6040805160ff9095168552600360208601523090850152426060850152929081906080820190565b61419b9250803d10610e1057610e02818361055a565b3880614129565b50505080612ab26141b56141c2936111a4565b805460ff19166003179055565b7f7c25a4602a93bbf53e4a774f7358258af8f55caf75fc6b294ac8bb2f056d8bea60405180612ac88160609060208152601a60208201527f566572696669636174696f6e2064617461206d69736d6174636800000000000060408201520190565b9050818151910120614233613e02565b8281519101201438613f53565b600386015414915038613f4c565b9092508381519101206142636114c68861117e565b848151910120149138613f45565b505080612ab26141b5614283936111a4565b7f7c25a4602a93bbf53e4a774f7358258af8f55caf75fc6b294ac8bb2f056d8bea60405180612ac88160809060208152602260208201527f45787465726e616c206572726f7220647572696e67207665726966696361746960408201526137b760f11b60608201520190565b8015614370576000818181805b614358575061430a81613b64565b935b6143165750505090565b61431f9061262e565b90600a906030828206810180911161263d578551841015610fae5760f81b6001600160f81b031916841a8584016020015304908161430c565b9150614365600a91612b7d565b9104808492916142fc565b5060405161437d8161051f565b60018152600360fc1b602082015290565b1561439557565b60405162461bcd60e51b8152602060048201526012602482015271496e76616c6964204c50206164647265737360701b6044820152606490fd5b156143d657565b60405162461bcd60e51b815260206004820152601d60248201527f416d6f756e74206d7573742062652067726561746572207468616e20300000006044820152606490fd5b1561442257565b60405162461bcd60e51b815260206004820152601a60248201527f5061796d656e742049442063616e6e6f7420626520656d7074790000000000006044820152606490fd5b1561446e57565b60405162461bcd60e51b815260206004820152601760248201527f5061796d656e7420494420616c726561647920757365640000000000000000006044820152606490fd5b156144ba57565b60405162461bcd60e51b8152602060048201526013602482015272151bdad95b881b9bdd081cdd5c1c1bdc9d1959606a1b6044820152606490fd5b156144fc57565b60405162461bcd60e51b815260206004820152600f60248201526e151c985b9cd9995c8819985a5b1959608a1b6044820152606490fd5b906002811015610fd35760ff80198354169116179055565b600554600160401b81101561053a5780600161456a9201600555610f73565b91909161468f57805182546001600160a01b0319166001600160a01b03909116178255610b06916146779061018090600a9060208501516001820180546001600160a01b0319166001600160a01b0390921691909117905560408501516002820180546001600160a01b0319166001600160a01b03909216919091179055606085015160038201556080850151600482015560a0850151600582015560c0850151600682015560e0850151600782015561462c61010086015160088301612852565b61463e61012086015160098301612852565b019261465861014082015161465281610fc9565b85614533565b61467061016082015161466a81610fe5565b85613e27565b0151151590565b815462ff0000191690151560101b62ff000016179055565b610a78565b8054821015610fae5760005260206000200190600090565b805490600160401b82101561053a57816146ce91600161243494018155614694565b819391549060031b91821b91600019901b19161790565b6146fd60409295949395606083526060830190610b91565b9460208201520152565b6001600160a01b03808216959493909290919061472587151561438e565b6147308315156143cf565b61473c8651151561441b565b61474f614748876111f0565b5415614467565b6147626116aa6116a08361082a89611158565b61476e61170a846131bf565b6040516323b872dd60e01b81523360048201523060248201526044810185905290946020908290606490829060009087165af1958615610e17576148856148a9946147e57f53c508e52d8f5e261d87a8d93a78c6851a65cafad8c6d9793451b38b256015f3996148a495600091610de957506144f5565b61486b60055495869461481c6147f961057b565b338152926001600160a01b03861660208501526001600160a01b03166040840152565b8960608301524260808301524260a0830152600060c08301528a60e08301528c610100830152610120820152614856610140820160019052565b6001610160820152600061018082015261454b565b33600090815260076020526040902061488a9084906146ac565b6146ac565b6001600160a01b0316600090815260086020526040902090565b61308c565b6148b2856111f0565b556148c46040519283923396846146e5565b0390a3600190565b6002600054146148dd576002600055565b604051633ee5aeb560e01b8152600490fd5b156148f657565b60405162461bcd60e51b8152602060048201526015602482015274496e76616c696420746f6b656e206164647265737360581b6044820152606490fd5b610608916001600160a01b0316906001810190826000528160205260406000205415600014614993578054600160401b81101561053a5761497e6146ce826001879401855584614694565b90555491600052602052604060002055600190565b505050600090565b610608916001600160a01b0316906149ee565b80549081156149d857600019918201916149c88383614694565b909182549160031b1b1916905555565b634e487b7160e01b600052603160045260246000fd5b6001810191806000528260205260406000205492831515600014614a9a57600019928484019085821161263d57805494850194851161263d576000958583614a5197614a429503614a57575b5050506149ae565b90600052602052604060002090565b55600190565b614a81614a7b91614a6b614a919487614694565b90549060031b1c92839187614694565b9061241a565b8590600052602052604060002090565b55388080614a3a565b50505050600090565b15614aaa57565b60405162461bcd60e51b8152602060048201526015602482015274151c985b9cd9995c881d1bc813140819985a5b1959605a1b6044820152606490fd5b604090610608949281528160208201520191612744565b15614b0557565b60405162461bcd60e51b8152602060048201526015602482015274139bdd08185b88195cd8dc9bddc81c185e5b595b9d605a1b6044820152606490fd5b15614b4957565b60405162461bcd60e51b815260206004820152601260248201527114185e5b595b9d081b9bdd081b1bd8dad95960721b6044820152606490fd5b15614b8a57565b60405162461bcd60e51b815260206004820152600e60248201526d139bdd08185d5d1a1bdc9a5e995960921b6044820152606490fd5b15614bc757565b60405162461bcd60e51b815260206004820152601260248201527110d85b9b9bdd081c995b19585cd9481e595d60721b6044820152606490fd5b15614c0857565b60405162461bcd60e51b815260206004820152601360248201527214185e5b595b9d081a5cc8191a5cdc1d5d1959606a1b6044820152606490fd5b15614c4a57565b60405162461bcd60e51b815260206004820152600e60248201526d43616e6e6f74206469737075746560901b6044820152606490fd5b15614c8757565b60405162461bcd60e51b8152602060048201526016602482015275111a5cdc1d5d19481dda5b991bddc8195e1c1a5c995960521b6044820152606490fd5b15614ccc57565b60405162461bcd60e51b815260206004820152601060248201526f105b1c9958591e48191a5cdc1d5d195960821b6044820152606490fd5b15614d0b57565b60405162461bcd60e51b815260206004820152600d60248201526c10d85b9b9bdd081c99599d5b99609a1b6044820152606490fd5b15614d4757565b60405162461bcd60e51b815260206004820152601360248201527214185e5b595b9d081b9bdd08195e1c1a5c9959606a1b6044820152606490fdfe22c682de3fcd506153c6e19ddc037c8ea009baf9e1f7561ca71fc25a6316ad72a2646970667358221220ba1b35cfbad9fe30027552eea8959289dbce6d3f3363bee47c536c814a0c9b6564736f6c63430008140033",
  "linkReferences": {},
  "deployedLinkReferences": {}
}