{
  "_format": "hh-sol-artifact-1",
  "contractName": "UnitpayGetters",
  "sourceName": "contracts/UnitpayGetters.sol",
  "abi": [
    {
      "inputs": [
        {
          "internalType": "address",
          "name": "_functionsRouter",
          "type": "address"
        },
        {
          "internalType": "uint64",
          "name": "_subscriptionId",
          "type": "uint64"
        }
      ],
      "stateMutability": "nonpayable",
      "type": "constructor"
    },
    {
      "inputs": [],
      "name": "OnlyRouterCanFulfill",
      "type": "error"
    },
    {
      "anonymous": false,
      "inputs": [
        {
          "indexed": true,
          "internalType": "bytes32",
          "name": "id",
          "type": "bytes32"
        }
      ],
      "name": "RequestFulfilled",
      "type": "event"
    },
    {
      "anonymous": false,
      "inputs": [
        {
          "indexed": true,
          "internalType": "bytes32",
          "name": "id",
          "type": "bytes32"
        }
      ],
      "name": "RequestSent",
      "type": "event"
    },
    {
      "inputs": [],
      "name": "getFunctionsRouter",
      "outputs": [
        {
          "internalType": "address",
          "name": "",
          "type": "address"
        }
      ],
      "stateMutability": "view",
      "type": "function"
    },
    {
      "inputs": [],
      "name": "getSubscriptionId",
      "outputs": [
        {
          "internalType": "uint64",
          "name": "",
          "type": "uint64"
        }
      ],
      "stateMutability": "view",
      "type": "function"
    },
    {
      "inputs": [
        {
          "internalType": "bytes32",
          "name": "requestId",
          "type": "bytes32"
        },
        {
          "internalType": "bytes",
          "name": "response",
          "type": "bytes"
        },
        {
          "internalType": "bytes",
          "name": "err",
          "type": "bytes"
        }
      ],
      "name": "handleOracleFulfillment",
      "outputs": [],
      "stateMutability": "nonpayable",
      "type": "function"
    }
  ],
  "bytecode": "0x60c03461008d576001600160401b0390601f6102e838819003918201601f19168301918483118484101761009257808492604094855283398101031261008d5780516001600160a01b038116919082900361008d5760200151918216820361008d5760805260a05260405161023f90816100a98239608051818181609b0152610119015260a05181605e0152f35b600080fd5b634e487b7160e01b600052604160045260246000fdfe6080604052600436101561001257600080fd5b6000803560e01c80630ca76175146100ca5780633395a79a146100855763de3d9fb71461003e57600080fd5b34610082578060031936011261008257602060405167ffffffffffffffff7f0000000000000000000000000000000000000000000000000000000000000000168152f35b80fd5b50346100825780600319360112610082576040517f00000000000000000000000000000000000000000000000000000000000000006001600160a01b03168152602090f35b50346100825760603660031901126100825767ffffffffffffffff602435818111610187576100fd90369060040161018b565b506044359081116101835761011690369060040161018b565b507f00000000000000000000000000000000000000000000000000000000000000006001600160a01b03163303610171576004357f85e1543bf2f84fe80c6badbce3648c8539ad1df4d2b3d822938ca0538be727e68280a280f35b60405163c6829f8360e01b8152600490fd5b5080fd5b8280fd5b81601f820112156101ee5780359067ffffffffffffffff928383116101f35760405193601f8401601f19908116603f01168501908111858210176101f357604052828452602083830101116101ee57816000926020809301838601378301015290565b600080fd5b634e487b7160e01b600052604160045260246000fdfea26469706673582212202f34691c0f7d20ce615249fd85b3faea8817e1136a9d532ff21b3ad9ca1c1d3e64736f6c63430008140033",
  "linkReferences": {},
  "deployedLinkReferences": {}
}