{
  "_format": "hh-sol-artifact-1",
  "contractName": "UnitpayEnhanced",
  "sourceName": "contracts/UnitpayEnhanced.sol",
  "abi": [
    {
      "inputs": [
        {
          "internalType": "address",
          "name": "_defaultToken",
          "type": "address"
        },
        {
          "internalType": "address",
          "name": "_functionsRouter",
          "type": "address"
        },
        {
          "internalType": "bytes32",
          "name": "_source",
          "type": "bytes32"
        },
        {
          "internalType": "bytes32",
          "name": "_secrets",
          "type": "bytes32"
        },
        {
          "internalType": "uint64",
          "name": "_subscriptionId",
          "type": "uint64"
        },
        {
          "internalType": "bytes32",
          "name": "_donId",
          "type": "bytes32"
        }
      ],
      "stateMutability": "nonpayable",
      "type": "constructor"
    },
    {
      "inputs": [],
      "name": "EmptyArgs",
      "type": "error"
    },
    {
      "inputs": [],
      "name": "EmptySource",
      "type": "error"
    },
    {
      "inputs": [],
      "name": "NoInlineSecrets",
      "type": "error"
    },
    {
      "inputs": [],
      "name": "OnlyRouterCanFulfill",
      "type": "error"
    },
    {
      "inputs": [],
      "name": "ReentrancyGuardReentrantCall",
      "type": "error"
    },
    {
      "anonymous": false,
      "inputs": [
        {
          "indexed": false,
          "internalType": "address",
          "name": "functionsRouter",
          "type": "address"
        },
        {
          "indexed": false,
          "internalType": "uint64",
          "name": "subscriptionId",
          "type": "uint64"
        }
      ],
      "name": "ChainlinkConfigUpdated",
      "type": "event"
    },
    {
      "anonymous": false,
      "inputs": [
        {
          "indexed": true,
          "internalType": "string",
          "name": "paymentId",
          "type": "string"
        },
        {
          "indexed": false,
          "internalType": "string",
          "name": "orderIdStr",
          "type": "string"
        }
      ],
      "name": "OrderSubmitted",
      "type": "event"
    },
    {
      "anonymous": false,
      "inputs": [
        {
          "indexed": true,
          "internalType": "string",
          "name": "paymentId",
          "type": "string"
        }
      ],
      "name": "OrderVerified",
      "type": "event"
    },
    {
      "anonymous": false,
      "inputs": [
        {
          "indexed": true,
          "internalType": "address",
          "name": "from",
          "type": "address"
        },
        {
          "indexed": true,
          "internalType": "address",
          "name": "to",
          "type": "address"
        }
      ],
      "name": "OwnershipTransferRequested",
      "type": "event"
    },
    {
      "anonymous": false,
      "inputs": [
        {
          "indexed": true,
          "internalType": "address",
          "name": "from",
          "type": "address"
        },
        {
          "indexed": true,
          "internalType": "address",
          "name": "to",
          "type": "address"
        }
      ],
      "name": "OwnershipTransferred",
      "type": "event"
    },
    {
      "anonymous": false,
      "inputs": [
        {
          "indexed": true,
          "internalType": "string",
          "name": "paymentId",
          "type": "string"
        },
        {
          "indexed": false,
          "internalType": "bool",
          "name": "isAuto",
          "type": "bool"
        }
      ],
      "name": "PaymentConfirmed",
      "type": "event"
    },
    {
      "anonymous": false,
      "inputs": [
        {
          "indexed": true,
          "internalType": "string",
          "name": "paymentId",
          "type": "string"
        }
      ],
      "name": "PaymentDisputed",
      "type": "event"
    },
    {
      "anonymous": false,
      "inputs": [
        {
          "indexed": true,
          "internalType": "string",
          "name": "paymentId",
          "type": "string"
        },
        {
          "indexed": true,
          "internalType": "address",
          "name": "user",
          "type": "address"
        },
        {
          "indexed": false,
          "internalType": "uint256",
          "name": "amount",
          "type": "uint256"
        }
      ],
      "name": "PaymentExpired",
      "type": "event"
    },
    {
      "anonymous": false,
      "inputs": [
        {
          "indexed": false,
          "internalType": "string",
          "name": "paymentId",
          "type": "string"
        },
        {
          "indexed": true,
          "internalType": "address",
          "name": "user",
          "type": "address"
        },
        {
          "indexed": true,
          "internalType": "address",
          "name": "lp",
          "type": "address"
        },
        {
          "indexed": false,
          "internalType": "uint256",
          "name": "amount",
          "type": "uint256"
        },
        {
          "indexed": false,
          "internalType": "uint256",
          "name": "platformFee",
          "type": "uint256"
        }
      ],
      "name": "PaymentLocked",
      "type": "event"
    },
    {
      "anonymous": false,
      "inputs": [
        {
          "indexed": true,
          "internalType": "string",
          "name": "paymentId",
          "type": "string"
        },
        {
          "indexed": true,
          "internalType": "address",
          "name": "user",
          "type": "address"
        },
        {
          "indexed": false,
          "internalType": "uint256",
          "name": "amount",
          "type": "uint256"
        }
      ],
      "name": "PaymentRefunded",
      "type": "event"
    },
    {
      "anonymous": false,
      "inputs": [
        {
          "indexed": true,
          "internalType": "string",
          "name": "paymentId",
          "type": "string"
        },
        {
          "indexed": true,
          "internalType": "address",
          "name": "lp",
          "type": "address"
        },
        {
          "indexed": false,
          "internalType": "uint256",
          "name": "amount",
          "type": "uint256"
        },
        {
          "indexed": false,
          "internalType": "uint256",
          "name": "platformFee",
          "type": "uint256"
        }
      ],
      "name": "PaymentReleased",
      "type": "event"
    },
    {
      "anonymous": false,
      "inputs": [
        {
          "indexed": true,
          "internalType": "string",
          "name": "paymentId",
          "type": "string"
        },
        {
          "indexed": true,
          "internalType": "address",
          "name": "user",
          "type": "address"
        },
        {
          "indexed": true,
          "internalType": "address",
          "name": "lp",
          "type": "address"
        },
        {
          "indexed": false,
          "internalType": "uint256",
          "name": "amount",
          "type": "uint256"
        },
        {
          "indexed": false,
          "internalType": "string",
          "name": "network",
          "type": "string"
        }
      ],
      "name": "PaymentSettled",
      "type": "event"
    },
    {
      "anonymous": false,
      "inputs": [
        {
          "indexed": true,
          "internalType": "string",
          "name": "paymentId",
          "type": "string"
        },
        {
          "indexed": false,
          "internalType": "uint8",
          "name": "oldStatus",
          "type": "uint8"
        },
        {
          "indexed": false,
          "internalType": "uint8",
          "name": "newStatus",
          "type": "uint8"
        },
        {
          "indexed": false,
          "internalType": "address",
          "name": "triggeredBy",
          "type": "address"
        },
        {
          "indexed": false,
          "internalType": "uint256",
          "name": "timestamp",
          "type": "uint256"
        }
      ],
      "name": "PaymentStatusChanged",
      "type": "event"
    },
    {
      "anonymous": false,
      "inputs": [
        {
          "indexed": false,
          "internalType": "uint256",
          "name": "amount",
          "type": "uint256"
        }
      ],
      "name": "PlatformFeesWithdrawn",
      "type": "event"
    },
    {
      "anonymous": false,
      "inputs": [
        {
          "indexed": true,
          "internalType": "bytes32",
          "name": "id",
          "type": "bytes32"
        }
      ],
      "name": "RequestFulfilled",
      "type": "event"
    },
    {
      "anonymous": false,
      "inputs": [
        {
          "indexed": true,
          "internalType": "bytes32",
          "name": "id",
          "type": "bytes32"
        }
      ],
      "name": "RequestSent",
      "type": "event"
    },
    {
      "anonymous": false,
      "inputs": [
        {
          "indexed": false,
          "internalType": "bytes32",
          "name": "source",
          "type": "bytes32"
        },
        {
          "indexed": false,
          "internalType": "bytes32",
          "name": "secrets",
          "type": "bytes32"
        }
      ],
      "name": "SourceAndSecretsUpdated",
      "type": "event"
    },
    {
      "anonymous": false,
      "inputs": [
        {
          "indexed": true,
          "internalType": "string",
          "name": "network",
          "type": "string"
        },
        {
          "indexed": true,
          "internalType": "address",
          "name": "token",
          "type": "address"
        },
        {
          "indexed": false,
          "internalType": "bool",
          "name": "isEnabled",
          "type": "bool"
        }
      ],
      "name": "TokenConfigUpdated",
      "type": "event"
    },
    {
      "anonymous": false,
      "inputs": [
        {
          "indexed": true,
          "internalType": "string",
          "name": "paymentId",
          "type": "string"
        },
        {
          "indexed": false,
          "internalType": "string",
          "name": "reason",
          "type": "string"
        }
      ],
      "name": "VerificationFailed",
      "type": "event"
    },
    {
      "anonymous": false,
      "inputs": [
        {
          "indexed": true,
          "internalType": "string",
          "name": "paymentId",
          "type": "string"
        },
        {
          "indexed": false,
          "internalType": "bytes32",
          "name": "requestId",
          "type": "bytes32"
        }
      ],
      "name": "VerificationRequested",
      "type": "event"
    },
    {
      "inputs": [],
      "name": "AUTO_RELEASE_TIME",
      "outputs": [
        {
          "internalType": "uint256",
          "name": "",
          "type": "uint256"
        }
      ],
      "stateMutability": "view",
      "type": "function"
    },
    {
      "inputs": [],
      "name": "DISPUTE_WINDOW",
      "outputs": [
        {
          "internalType": "uint256",
          "name": "",
          "type": "uint256"
        }
      ],
      "stateMutability": "view",
      "type": "function"
    },
    {
      "inputs": [],
      "name": "PAYMENT_EXPIRY_TIME",
      "outputs": [
        {
          "internalType": "uint256",
          "name": "",
          "type": "uint256"
        }
      ],
      "stateMutability": "view",
      "type": "function"
    },
    {
      "inputs": [],
      "name": "PLATFORM_FEE_RATE",
      "outputs": [
        {
          "internalType": "uint256",
          "name": "",
          "type": "uint256"
        }
      ],
      "stateMutability": "view",
      "type": "function"
    },
    {
      "inputs": [],
      "name": "T1_LOCK_TIME",
      "outputs": [
        {
          "internalType": "uint256",
          "name": "",
          "type": "uint256"
        }
      ],
      "stateMutability": "view",
      "type": "function"
    },
    {
      "inputs": [],
      "name": "acceptOwnership",
      "outputs": [],
      "stateMutability": "nonpayable",
      "type": "function"
    },
    {
      "inputs": [
        {
          "internalType": "string",
          "name": "paymentId",
          "type": "string"
        }
      ],
      "name": "confirmPayment",
      "outputs": [],
      "stateMutability": "nonpayable",
      "type": "function"
    },
    {
      "inputs": [
        {
          "internalType": "address",
          "name": "lp",
          "type": "address"
        },
        {
          "internalType": "address",
          "name": "token",
          "type": "address"
        },
        {
          "internalType": "uint256",
          "name": "amount",
          "type": "uint256"
        },
        {
          "internalType": "string",
          "name": "network",
          "type": "string"
        },
        {
          "internalType": "string",
          "name": "merchantEmail",
          "type": "string"
        }
      ],
      "name": "createOrder",
      "outputs": [
        {
          "internalType": "string",
          "name": "",
          "type": "string"
        }
      ],
      "stateMutability": "nonpayable",
      "type": "function"
    },
    {
      "inputs": [
        {
          "internalType": "bytes",
          "name": "response",
          "type": "bytes"
        }
      ],
      "name": "decodeVerificationResponse",
      "outputs": [
        {
          "internalType": "string",
          "name": "payerEmail",
          "type": "string"
        },
        {
          "internalType": "string",
          "name": "merchantEmail",
          "type": "string"
        },
        {
          "internalType": "uint256",
          "name": "respAmount",
          "type": "uint256"
        },
        {
          "internalType": "string",
          "name": "status",
          "type": "string"
        }
      ],
      "stateMutability": "view",
      "type": "function"
    },
    {
      "inputs": [
        {
          "internalType": "bytes",
          "name": "response",
          "type": "bytes"
        }
      ],
      "name": "decodeWithABI",
      "outputs": [
        {
          "internalType": "string",
          "name": "payerEmail",
          "type": "string"
        },
        {
          "internalType": "string",
          "name": "merchantEmail",
          "type": "string"
        },
        {
          "internalType": "uint256",
          "name": "respAmount",
          "type": "uint256"
        },
        {
          "internalType": "string",
          "name": "status",
          "type": "string"
        }
      ],
      "stateMutability": "pure",
      "type": "function"
    },
    {
      "inputs": [],
      "name": "defaultToken",
      "outputs": [
        {
          "internalType": "contract IERC20",
          "name": "",
          "type": "address"
        }
      ],
      "stateMutability": "view",
      "type": "function"
    },
    {
      "inputs": [
        {
          "internalType": "string",
          "name": "paymentId",
          "type": "string"
        }
      ],
      "name": "disputePayment",
      "outputs": [],
      "stateMutability": "nonpayable",
      "type": "function"
    },
    {
      "inputs": [
        {
          "internalType": "string",
          "name": "paymentId",
          "type": "string"
        }
      ],
      "name": "expirePayment",
      "outputs": [],
      "stateMutability": "nonpayable",
      "type": "function"
    },
    {
      "inputs": [],
      "name": "getFunctionsRouter",
      "outputs": [
        {
          "internalType": "address",
          "name": "",
          "type": "address"
        }
      ],
      "stateMutability": "view",
      "type": "function"
    },
    {
      "inputs": [
        {
          "internalType": "address",
          "name": "lp",
          "type": "address"
        }
      ],
      "name": "getLpPayments",
      "outputs": [
        {
          "internalType": "uint256[]",
          "name": "",
          "type": "uint256[]"
        }
      ],
      "stateMutability": "view",
      "type": "function"
    },
    {
      "inputs": [
        {
          "internalType": "string",
          "name": "network",
          "type": "string"
        }
      ],
      "name": "getNetworkTokens",
      "outputs": [
        {
          "internalType": "address[]",
          "name": "",
          "type": "address[]"
        }
      ],
      "stateMutability": "view",
      "type": "function"
    },
    {
      "inputs": [
        {
          "internalType": "uint256",
          "name": "index",
          "type": "uint256"
        }
      ],
      "name": "getPaymentByIndex",
      "outputs": [
        {
          "internalType": "address",
          "name": "user",
          "type": "address"
        },
        {
          "internalType": "address",
          "name": "lp",
          "type": "address"
        },
        {
          "internalType": "address",
          "name": "token",
          "type": "address"
        },
        {
          "internalType": "uint256",
          "name": "amount",
          "type": "uint256"
        },
        {
          "internalType": "uint256",
          "name": "timestamp",
          "type": "uint256"
        },
        {
          "internalType": "uint256",
          "name": "lockTime",
          "type": "uint256"
        },
        {
          "internalType": "uint256",
          "name": "releaseTime",
          "type": "uint256"
        },
        {
          "internalType": "uint256",
          "name": "platformFee",
          "type": "uint256"
        },
        {
          "internalType": "string",
          "name": "paymentId",
          "type": "string"
        },
        {
          "internalType": "string",
          "name": "network",
          "type": "string"
        },
        {
          "internalType": "enum UnitpayEnhanced.PaymentType",
          "name": "paymentType",
          "type": "uint8"
        },
        {
          "internalType": "enum UnitpayEnhanced.EscrowStatus",
          "name": "escrowStatus",
          "type": "uint8"
        },
        {
          "internalType": "bool",
          "name": "isDisputed",
          "type": "bool"
        }
      ],
      "stateMutability": "view",
      "type": "function"
    },
    {
      "inputs": [
        {
          "internalType": "string",
          "name": "paymentId",
          "type": "string"
        }
      ],
      "name": "getPaymentByPaymentId",
      "outputs": [
        {
          "internalType": "address",
          "name": "user",
          "type": "address"
        },
        {
          "internalType": "address",
          "name": "lp",
          "type": "address"
        },
        {
          "internalType": "address",
          "name": "token",
          "type": "address"
        },
        {
          "internalType": "uint256",
          "name": "amount",
          "type": "uint256"
        },
        {
          "internalType": "uint256",
          "name": "timestamp",
          "type": "uint256"
        },
        {
          "internalType": "uint256",
          "name": "lockTime",
          "type": "uint256"
        },
        {
          "internalType": "uint256",
          "name": "releaseTime",
          "type": "uint256"
        },
        {
          "internalType": "uint256",
          "name": "platformFee",
          "type": "uint256"
        },
        {
          "internalType": "string",
          "name": "_paymentId",
          "type": "string"
        },
        {
          "internalType": "string",
          "name": "network",
          "type": "string"
        },
        {
          "internalType": "enum UnitpayEnhanced.PaymentType",
          "name": "paymentType",
          "type": "uint8"
        },
        {
          "internalType": "enum UnitpayEnhanced.EscrowStatus",
          "name": "escrowStatus",
          "type": "uint8"
        },
        {
          "internalType": "bool",
          "name": "isDisputed",
          "type": "bool"
        }
      ],
      "stateMutability": "view",
      "type": "function"
    },
    {
      "inputs": [],
      "name": "getSubscriptionId",
      "outputs": [
        {
          "internalType": "uint64",
          "name": "",
          "type": "uint64"
        }
      ],
      "stateMutability": "view",
      "type": "function"
    },
    {
      "inputs": [
        {
          "internalType": "address",
          "name": "user",
          "type": "address"
        }
      ],
      "name": "getUserPayments",
      "outputs": [
        {
          "internalType": "uint256[]",
          "name": "",
          "type": "uint256[]"
        }
      ],
      "stateMutability": "view",
      "type": "function"
    },
    {
      "inputs": [
        {
          "internalType": "bytes32",
          "name": "requestId",
          "type": "bytes32"
        },
        {
          "internalType": "bytes",
          "name": "response",
          "type": "bytes"
        },
        {
          "internalType": "bytes",
          "name": "err",
          "type": "bytes"
        }
      ],
      "name": "handleOracleFulfillment",
      "outputs": [],
      "stateMutability": "nonpayable",
      "type": "function"
    },
    {
      "inputs": [
        {
          "internalType": "address",
          "name": "lp",
          "type": "address"
        },
        {
          "internalType": "address",
          "name": "token",
          "type": "address"
        },
        {
          "internalType": "uint256",
          "name": "amount",
          "type": "uint256"
        },
        {
          "internalType": "string",
          "name": "network",
          "type": "string"
        },
        {
          "internalType": "string",
          "name": "paymentId",
          "type": "string"
        }
      ],
      "name": "lockPayment",
      "outputs": [
        {
          "internalType": "bool",
          "name": "",
          "type": "bool"
        }
      ],
      "stateMutability": "nonpayable",
      "type": "function"
    },
    {
      "inputs": [
        {
          "internalType": "address",
          "name": "",
          "type": "address"
        }
      ],
      "name": "lpPaypalEmail",
      "outputs": [
        {
          "internalType": "string",
          "name": "",
          "type": "string"
        }
      ],
      "stateMutability": "view",
      "type": "function"
    },
    {
      "inputs": [
        {
          "internalType": "string",
          "name": "",
          "type": "string"
        }
      ],
      "name": "merchantEmails",
      "outputs": [
        {
          "internalType": "string",
          "name": "",
          "type": "string"
        }
      ],
      "stateMutability": "view",
      "type": "function"
    },
    {
      "inputs": [
        {
          "internalType": "string",
          "name": "",
          "type": "string"
        },
        {
          "internalType": "address",
          "name": "",
          "type": "address"
        }
      ],
      "name": "networkTokens",
      "outputs": [
        {
          "internalType": "address",
          "name": "tokenAddress",
          "type": "address"
        },
        {
          "internalType": "uint8",
          "name": "decimals",
          "type": "uint8"
        },
        {
          "internalType": "bool",
          "name": "isEnabled",
          "type": "bool"
        }
      ],
      "stateMutability": "view",
      "type": "function"
    },
    {
      "inputs": [],
      "name": "owner",
      "outputs": [
        {
          "internalType": "address",
          "name": "",
          "type": "address"
        }
      ],
      "stateMutability": "view",
      "type": "function"
    },
    {
      "inputs": [
        {
          "internalType": "uint256",
          "name": "",
          "type": "uint256"
        }
      ],
      "name": "paymentRecords",
      "outputs": [
        {
          "internalType": "address",
          "name": "user",
          "type": "address"
        },
        {
          "internalType": "address",
          "name": "lp",
          "type": "address"
        },
        {
          "internalType": "address",
          "name": "token",
          "type": "address"
        },
        {
          "internalType": "uint256",
          "name": "amount",
          "type": "uint256"
        },
        {
          "internalType": "uint256",
          "name": "timestamp",
          "type": "uint256"
        },
        {
          "internalType": "uint256",
          "name": "lockTime",
          "type": "uint256"
        },
        {
          "internalType": "uint256",
          "name": "releaseTime",
          "type": "uint256"
        },
        {
          "internalType": "uint256",
          "name": "platformFee",
          "type": "uint256"
        },
        {
          "internalType": "string",
          "name": "paymentId",
          "type": "string"
        },
        {
          "internalType": "string",
          "name": "network",
          "type": "string"
        },
        {
          "internalType": "enum UnitpayEnhanced.PaymentType",
          "name": "paymentType",
          "type": "uint8"
        },
        {
          "internalType": "enum UnitpayEnhanced.EscrowStatus",
          "name": "escrowStatus",
          "type": "uint8"
        },
        {
          "internalType": "bool",
          "name": "isDisputed",
          "type": "bool"
        }
      ],
      "stateMutability": "view",
      "type": "function"
    },
    {
      "inputs": [],
      "name": "platformPendingFees",
      "outputs": [
        {
          "internalType": "uint256",
          "name": "",
          "type": "uint256"
        }
      ],
      "stateMutability": "view",
      "type": "function"
    },
    {
      "inputs": [
        {
          "internalType": "string",
          "name": "paymentId",
          "type": "string"
        }
      ],
      "name": "refundPayment",
      "outputs": [],
      "stateMutability": "nonpayable",
      "type": "function"
    },
    {
      "inputs": [
        {
          "internalType": "string",
          "name": "email",
          "type": "string"
        }
      ],
      "name": "registerLp",
      "outputs": [],
      "stateMutability": "nonpayable",
      "type": "function"
    },
    {
      "inputs": [
        {
          "internalType": "string",
          "name": "paymentId",
          "type": "string"
        }
      ],
      "name": "releasePayment",
      "outputs": [],
      "stateMutability": "nonpayable",
      "type": "function"
    },
    {
      "inputs": [
        {
          "internalType": "address",
          "name": "lp",
          "type": "address"
        },
        {
          "internalType": "address",
          "name": "token",
          "type": "address"
        },
        {
          "internalType": "uint256",
          "name": "amount",
          "type": "uint256"
        },
        {
          "internalType": "string",
          "name": "network",
          "type": "string"
        },
        {
          "internalType": "string",
          "name": "paymentId",
          "type": "string"
        }
      ],
      "name": "settlePayment",
      "outputs": [
        {
          "internalType": "bool",
          "name": "",
          "type": "bool"
        }
      ],
      "stateMutability": "nonpayable",
      "type": "function"
    },
    {
      "inputs": [
        {
          "internalType": "string",
          "name": "paymentId",
          "type": "string"
        },
        {
          "internalType": "string",
          "name": "orderIdStr",
          "type": "string"
        }
      ],
      "name": "submitOrderId",
      "outputs": [],
      "stateMutability": "nonpayable",
      "type": "function"
    },
    {
      "inputs": [
        {
          "internalType": "string",
          "name": "",
          "type": "string"
        }
      ],
      "name": "submittedOrderIds",
      "outputs": [
        {
          "internalType": "string",
          "name": "",
          "type": "string"
        }
      ],
      "stateMutability": "view",
      "type": "function"
    },
    {
      "inputs": [
        {
          "internalType": "address",
          "name": "to",
          "type": "address"
        }
      ],
      "name": "transferOwnership",
      "outputs": [],
      "stateMutability": "nonpayable",
      "type": "function"
    },
    {
      "inputs": [
        {
          "internalType": "address",
          "name": "_functionsRouter",
          "type": "address"
        }
      ],
      "name": "updateFunctionsRouter",
      "outputs": [],
      "stateMutability": "nonpayable",
      "type": "function"
    },
    {
      "inputs": [
        {
          "internalType": "bytes32",
          "name": "_source",
          "type": "bytes32"
        },
        {
          "internalType": "bytes32",
          "name": "_secrets",
          "type": "bytes32"
        }
      ],
      "name": "updateSourceAndSecrets",
      "outputs": [],
      "stateMutability": "nonpayable",
      "type": "function"
    },
    {
      "inputs": [
        {
          "internalType": "uint64",
          "name": "_subscriptionId",
          "type": "uint64"
        }
      ],
      "name": "updateSubscriptionId",
      "outputs": [],
      "stateMutability": "nonpayable",
      "type": "function"
    },
    {
      "inputs": [
        {
          "internalType": "string",
          "name": "network",
          "type": "string"
        },
        {
          "internalType": "address",
          "name": "tokenAddress",
          "type": "address"
        },
        {
          "internalType": "uint8",
          "name": "decimals",
          "type": "uint8"
        },
        {
          "internalType": "bool",
          "name": "isEnabled",
          "type": "bool"
        }
      ],
      "name": "updateTokenConfig",
      "outputs": [],
      "stateMutability": "nonpayable",
      "type": "function"
    },
    {
      "inputs": [
        {
          "internalType": "string",
          "name": "",
          "type": "string"
        }
      ],
      "name": "verificationStatus",
      "outputs": [
        {
          "internalType": "enum UnitpayEnhanced.VerificationStatus",
          "name": "",
          "type": "uint8"
        }
      ],
      "stateMutability": "view",
      "type": "function"
    },
    {
      "inputs": [
        {
          "internalType": "address",
          "name": "token",
          "type": "address"
        }
      ],
      "name": "withdrawPlatformFees",
      "outputs": [],
      "stateMutability": "nonpayable",
      "type": "function"
    }
  ],
  "bytecode": "0x60a03462000191576001600160401b03601f6200569038819003918201601f191684019183831185841017620001965780859260c09460405283398101031262000191576200004e82620001ac565b916200005d60208201620001ac565b926040820151906060830151926080810151948516809503620001915760a0015160016000556001600160a01b039586166080529433156200014c57600180546001600160a01b03199081163317909155911690811562000107576003541617600355600f5560105560018060401b031960125416176012556011556040516154ce9081620001c2823960805181818161067a0152818161075301528181610f4e0152612f820152f35b60405162461bcd60e51b815260206004820152601860248201527f5a65726f2061646472657373206e6f7420616c6c6f77656400000000000000006044820152606490fd5b60405162461bcd60e51b815260206004820152601860248201527f43616e6e6f7420736574206f776e657220746f207a65726f00000000000000006044820152606490fd5b600080fd5b634e487b7160e01b600052604160045260246000fd5b51906001600160a01b0382168203620001915756fe6080604052600436101561001257600080fd5b60003560e01c80630252d0ed146102a7578063078081e6146102a25780630ca761751461029d57806314b1dd1b1461029857806316e39dc2146102935780631a98dcb31461028e578063225bc08a146102895780632485d0f51461028457806328569d2b1461027f5780632930fa491461027a5780632d9e4977146102755780633395a79a146102705780635691fe631461026b57806356c350e4146102665780635922aeda14610261578063604f89791461025c578063666b9f4b1461025757806369f7e9b11461025257806373e306e31461024d57806374c13fda1461024857806379ba5097146102435780637e896cc51461023e57806383a41ff314610239578063860ba4c1146102345780638da5cb5b1461022f578063912db0fb1461022a578063977a2968146102255780639cf48d7d146102205780639d7dadeb1461021b578063a194194914610216578063a6b1609614610211578063b79489961461020c578063c2e8528c14610207578063cd6c57c414610202578063d60bed9d146101fd578063d6d06047146101f8578063de3d9fb7146101f3578063eb758d95146101ee578063ec3889b5146101e9578063f2fde38b146101e45763f585dc57146101df57600080fd5b612452565b61238e565b6122b4565b61229b565b612274565b612241565b61206d565b612036565b612018565b611f39565b611cdf565b611bb1565b611b39565b611b1c565b611b00565b6119f3565b6119ca565b611922565b611904565b611662565b6115a2565b611579565b61154c565b6114eb565b6114ca565b611396565b6112a6565b611236565b6110b3565b610f38565b610eb4565b610e5d565b610c39565b610be7565b610988565b610941565b610792565b6106eb565b61062b565b6104dc565b6102de565b9181601f840112156102d9578235916001600160401b0383116102d957602083818601950101116102d957565b600080fd5b346102d95760403660031901126102d9576001600160401b036004358181116102d95761030f9036906004016102ac565b91906024359182116102d95761043c927ff3897b43b82055dbcce0f9011f85a239a69153e8b3c03aa8fc17dabd642787e26103516104379436906004016102ac565b6103bf60016103b0600a61038461037f61036e8a8c9a999a612603565b5461037a811515612680565b6126d6565b610f93565b50808401546103a5906001600160a01b03163390868060a01b031614612706565b015460081c60ff1690565b6103b981611005565b14612752565b6103e56103d66103cf868861261c565b5460ff1690565b6103df81611542565b15612797565b6103f981846103f48789612635565b61253c565b610413610406858761261c565b805460ff19166001179055565b61041d84866127d7565b9261042d6040519283928361280d565b0390a236916105d6565b612a57565b005b602435906001600160a01b03821682036102d957565b600435906001600160a01b03821682036102d957565b9060a06003198301126102d9576001600160a01b039160043583811681036102d9579260243590811681036102d95791604435916001600160401b03916064358381116102d957826104be916004016102ac565b939093926084359182116102d9576104d8916004016102ac565b9091565b346102d957602061051a61050c6105146104f53661046a565b9693959791610505939193614fc2565b36916105d6565b9436916105d6565b93614dfd565b60016000556040519015158152f35b634e487b7160e01b600052604160045260246000fd5b604081019081106001600160401b0382111761055a57604052565b610529565b608081019081106001600160401b0382111761055a57604052565b90601f801991011681019081106001600160401b0382111761055a57604052565b604051906101a082018281106001600160401b0382111761055a57604052565b6001600160401b03811161055a57601f01601f191660200190565b9291926105e2826105bb565b916105f0604051938461057a565b8294818452818301116102d9578281602093846000960137010152565b9080601f830112156102d957816020610628933591016105d6565b90565b346102d95760603660031901126102d9576004356001600160401b036024358181116102d95761065f90369060040161060d565b906044359081116102d95761067890369060040161060d565b7f00000000000000000000000000000000000000000000000000000000000000006001600160a01b031633036106d9576106b29183613f1c565b7f85e1543bf2f84fe80c6badbce3648c8539ad1df4d2b3d822938ca0538be727e6600080a2005b60405163c6829f8360e01b8152600490fd5b346102d95760203660031901126102d9576004356001600160401b0381168091036102d95760407f216f7020a29aa48a5cd85533a935f918c19d3c37e64e723350a6eb69881441679161073c612470565b6012805467ffffffffffffffff19168217905581517f00000000000000000000000000000000000000000000000000000000000000006001600160a01b031681526020810191909152a1005b801515036102d957565b346102d95760803660031901126102d9576004356001600160401b0381116102d9576107c29036906004016102ac565b906107cb61043e565b906044359160ff831683036102d957606435926107e784610788565b6107ef612470565b6001600160a01b03821694610805861515614fe5565b80156108fc5783836108b2876108d1956108956108616108e49961084a897f5b98a0b8d95466d30425b78df6c383f9e0e0ceb178abd7068bbf3d501d94dc2d9d61264e565b9060018060a01b0316600052602052604060002090565b80546001600160a01b0319166001600160a01b03871617815591825460ff60a01b191660a09190911b60ff60a01b16178255565b805460ff60a81b191691151560a81b60ff60a81b16919091179055565b86156108e9576108cb906108c68484612667565b615029565b506127d7565b6040519315158452929081906020820190565b0390a3005b6108cb906108f78484612667565b615091565b60405162461bcd60e51b815260206004820152601760248201527f4e6574776f726b2063616e6e6f7420626520656d7074790000000000000000006044820152606490fd5b346102d95760003660031901126102d95760206040516107088152f35b60206003198201126102d957600435906001600160401b0382116102d9576104d8916004016102ac565b346102d957610a556109993661095e565b906109a2614fc2565b610a506109b561037f61036e8585612603565b50610a3f60ff600a830192610a35610a2d60058654936109e260018787166109dc81610fe9565b146151f4565b610a06868660081c166109f481611005565b60018114908115610a84575b50615339565b8054610a26906001600160a01b03165b6001600160a01b03163314615279565b015461307d565b421115615376565b60101c16156153bb565b805462ff0000191662010000179055565b6127d7565b7f91c26a99a0a4d117c4d67f42c08c4c42d13094fbef4b6a53a9dd88e5c2256386600080a261043c6001600055565b60029150610a9181611005565b1438610a00565b634e487b7160e01b600052600060045260246000fd5b90600182811c92168015610ade575b6020831014610ac857565b634e487b7160e01b600052602260045260246000fd5b91607f1691610abd565b9060405191826000825492610afc84610aae565b908184526001948581169081600014610b6b5750600114610b28575b5050610b269250038361057a565b565b9093915060005260209081600020936000915b818310610b53575050610b2693508201013880610b18565b85548884018501529485019487945091830191610b3b565b915050610b2694506020925060ff191682840152151560051b8201013880610b18565b60005b838110610ba15750506000910152565b8181015183820152602001610b91565b90602091610bca81518092818552858086019101610b8e565b601f01601f1916010190565b906020610628928181520190610bb1565b346102d95760203660031901126102d9576001600160a01b03610c08610454565b16600052600b602052610c35610c216040600020610ae8565b604051918291602083526020830190610bb1565b0390f35b346102d957610d4b610c4a3661095e565b9190610c54614fc2565b610c6461037f61036e8584612603565b50600a810193845492610c7f600160ff86166109dc81610fe9565b610ce360ff8560081c1696610c9388611005565b600188148015610e4a575b610ca7906153fa565b60018501546001600160a01b0396610ccb9188163314908115610e3c575b50615279565b610cd488611005565b805461ff001916610400179055565b6002830154610d0890610cfc906001600160a01b031681565b6001600160a01b031690565b835460038501805460405163a9059cbb60e01b81526001600160a01b03909316600484015260248301529096909591602091889190829060009082906044820190565b03925af1948515610e37577f4f4233d8b608dab7ae8be019715573700f481096c3c0695cc3f8ff3bdc436bdd610db0610dd496610da3610dfc996000805160206154798339815191529b600091610e09575b50614beb565b546001600160a01b031690565b915492610dbd86866127d7565b60405194855292169280602081015b0390a36127d7565b6040805160ff9095168552600460208601523390850152426060850152929081906080820190565b0390a261043c6001600055565b610e2a915060203d8111610e30575b610e22818361057a565b810190613ebb565b38610d9d565b503d610e18565b612f1f565b60ff915060101c1638610cc5565b50610e5488611005565b60028814610c9e565b346102d95760003660031901126102d957602060405160058152f35b6020908160408183019282815285518094520193019160005b828110610ea0575050505090565b835185529381019392810192600101610e92565b346102d9576020806003193601126102d9576001600160a01b03610ed6610454565b1660005260088152604060002090604051908181845491828152019360005281600020916000905b828210610f2157610c3585610f158189038261057a565b60405191829182610e79565b835486529485019460019384019390910190610efe565b346102d95760003660031901126102d9576040517f00000000000000000000000000000000000000000000000000000000000000006001600160a01b03168152602090f35b634e487b7160e01b600052603260045260246000fd5b600554811015610fce57600b906005600052027f036b6384b5eca791c62761152d0c79bb0604c104a5fb6f4eb0703f3154bb3db00190600090565b610f7d565b634e487b7160e01b600052602160045260246000fd5b60021115610ff357565b610fd3565b906002821015610ff35752565b60061115610ff357565b906006821015610ff35752565b9891966110a0969b9e9d9b611094966101809c96610b269f9a60408e91611085996110ab9f9860018060a01b03928380921686521660208501521691015260608d015260808c015260a08b015260c08a015260e08901526101a0806101008a0152880190610bb1565b90868203610120880152610bb1565b98610140850190610ff8565b61016083019061100f565b019015159052565b346102d95760203660031901126102d9576004356005548110156102d9576110da90610f93565b50805460018201546001600160a01b039182169291610c35911660028301549093906001600160a01b0316926003810154946004820154916005810154600682015460078301549061112e60088501610ae8565b92600a61113d60098701610ae8565b950154966040519b8c9b8c9860ff8b60101c169b60ff808d60081c169c169a61101c565b9061117460209282815194859201610b8e565b0190565b6020611191918160405193828580945193849201610b8e565b8101600981520301902090565b60206111b7918160405193828580945193849201610b8e565b8101600c81520301902090565b60206111dd918160405193828580945193849201610b8e565b8101600e81520301902090565b6020611203918160405193828580945193849201610b8e565b8101600d81520301902090565b6020611229918160405193828580945193849201610b8e565b8101600681520301902090565b346102d95760403660031901126102d9576004356001600160401b0381116102d95761127c61126b606092369060040161060d565b61084a61127661043e565b91611178565b5460ff6040519160018060a01b0381168352818160a01c16602084015260a81c1615156040820152f35b346102d95760203660031901126102d95760043560055481101561135b576112cd90610f93565b5080546001600160a01b03166001820154909190610c35906001600160a01b031660028301549093906001600160a01b03169260038101549460048201546005830154926006810154600782015490600a8301549561133a600961133360088701610ae8565b9501610ae8565b946040519b8c9b8c9860ff8b60101c169b60ff808d60081c169c169a61101c565b60405162461bcd60e51b8152602060048201526013602482015272496e646578206f7574206f6620626f756e647360681b6044820152606490fd5b346102d9576113a43661046a565b959193909294861561145b5761144861141b9661144e96611432610c359a6113f9620f424060405160208101904282523360601b6040820152446054820152605481526113f08161055f565b519020066149ea565b98611429604051809d819c637061795f60e01b60208401526024830190611161565b03601f1981018c528b61057a565b6103f48a61119e565b61050561143e886111c4565b805460ff19169055565b92614dfd565b5060405191829182610bd6565b60405162461bcd60e51b815260206004820152601e60248201527f4d65726368616e7420656d61696c2063616e6e6f7420626520656d70747900006044820152606490fd5b60206003198201126102d957600435906001600160401b0382116102d9576106289160040161060d565b346102d957610c35610c216114e66114e1366114a0565b61119e565b610ae8565b346102d95760403660031901126102d9577f7c7fc64fb8e9eab789082a884abdac75659103a8b5ba08d25925d6610e74996d604060043560243561152d612470565b81600f558060105582519182526020820152a1005b60041115610ff357565b346102d95760ff61156461155f366114a0565b6111c4565b54166040516004821015610ff3576020918152f35b346102d95760003660031901126102d9576003546040516001600160a01b039091168152602090f35b346102d95760008060031936011261165f576002546001600160a01b039081163303611621576001546001600160a01b0316600180546001600160a01b0319163317905590600280546001600160a01b03191690553391167f8be0079c531659141344cd1fd0a4f28419497f9722a3daafe3b4186f6b6457e08380a380f35b60405162461bcd60e51b815260206004820152601660248201527526bab9ba10313290383937b837b9b2b21037bbb732b960511b6044820152606490fd5b80fd5b346102d9576116703661046a565b90919392949561167e614fc2565b6001600160a01b038181169790611696891515614a84565b6116a1861515614ac5565b6116ac841515614b11565b6116cf6116ca6116c08461084a8b8d61264e565b5460a81c60ff1690565b614ba9565b6040516323b872dd60e01b81523360048201523060248201526044810187905290821692906020906000908281606481858a5af18015610e37576117199183916118ed5750614beb565b808261178461173261172a8c6131c7565b6103e8900490565b9761173d898d6126f9565b61175161174c8b6004546130c7565b600455565b60405163a9059cbb60e01b81526001600160a01b0389166004820152602481019190915293849283919082906044820190565b03925af18015610e375761179f9183916118d0575b50615199565b600554948594846117ae61059b565b338152946001600160a01b03909116908501526001600160a01b031660408401528860608401524260808401528160a08401528160c084015260e0830152366117f89087896105d6565b610100830152611809368a8c6105d6565b610120830152806101408301528061016083015261018082015261182c90614c41565b3360009081526007602052604090208261184591614da2565b6001600160a01b031660009081526008602052604090209061186691614da2565b61186f9061308d565b6118798284612603565b55611883916127d7565b91604051918291339561189692846151dd565b037fce1770ab7d1a256d012b7c071d6629036759ad11c5cffd2e6cd7d8b2dffc7e7c91a46118c46001600055565b60405160018152602090f35b6118e79150843d8611610e3057610e22818361057a565b38611799565b610e2a9150843d8611610e3057610e22818361057a565b346102d95760003660031901126102d9576020604051620151808152f35b346102d9576119396119333661095e565b90612667565b60405190819080548084526020809401908192600052846000209060005b868282106119b657868661196d8288038361057a565b604051928392818401908285525180915260408401929160005b82811061199657505050500390f35b83516001600160a01b031685528695509381019392810192600101611987565b835485529093019260019283019201611957565b346102d95760003660031901126102d9576001546040516001600160a01b039091168152602090f35b346102d957611ad8600080516020615479833981519152610dfc611a163661095e565b611a21949194614fc2565b611a3161037f61036e8388612603565b5094600a860195611a9660ff8854611a5060018383166109dc81610fe9565b60081c1697611a5e89611005565b611a6a60018a14615238565b8254611a7e906001600160a01b0316610a16565b611a8789611005565b805461ff001916610200179055565b600642910155611aa682826127d7565b604051600081527f0338bd150f7922769ad6d998d3a6b2fc3668a74ac52c70c13136927bd1c1978990602090a26127d7565b6040805160ff9095168552600260208601523390850152426060850152929081906080820190565b346102d957610c35610c216114e6611b17366114a0565b6111ea565b346102d95760003660031901126102d9576020604051612a308152f35b346102d9576020806003193601126102d9576001600160a01b03611b5b610454565b1660005260078152604060002090604051908181845491828152019360005281600020916000905b828210611b9a57610c3585610f158189038261057a565b835486529485019460019384019390910190611b83565b346102d957611bbf3661095e565b908115611ca257600090338252602092600b845260408320916001600160401b03821161055a57611bfa82611bf48554610aae565b856124f7565b8394601f8311600114611c36575093839482939492611c2b575b50508160011b916000199060031b1c191617905580f35b013590503880611c14565b90601f19831695611c4c85600052602060002090565b9286905b888210611c8a57505083600195969710611c70575b505050811b01905580f35b0135600019600384901b60f8161c19169055388080611c65565b80600184968294958701358155019501920190611c50565b60405162461bcd60e51b8152602060048201526015602482015274456d61696c2063616e6e6f7420626520656d70747960581b6044820152606490fd5b346102d957611e06611cf03661095e565b9190611cfa614fc2565b611d0a61037f61036e8584612603565b50600a810193611d85855495611d28600160ff89166109dc81610fe9565b611d5b60ff808960081c1698611d3d8a611005565b60028a148015611f0a575b611d51906152b6565b60101c16156152f7565b611d6487611005565b60018714611ece575b611d7687611005565b805461ff001916610300179055565b6003820154926007830193611dab61174c611da2875480946126f9565b926004546130c7565b6020816001611dc9610cfc610cfc60028a015460018060a01b031690565b9601805460405163a9059cbb60e01b81526001600160a01b0390911660048201526024810192909252909790958891829060009082906044820190565b03925af1948515610e37577fa4b9aff2e7bd4815fd0c77044b1652a3cdc9d61c082a9a75510dd9d30d1c1009611e5d611e8e96610da3610dfc996000805160206154798339815191529b600091611eb65750615199565b9154611e6986866127d7565b6040805195865260208601929092526001600160a01b03909316939081908101610dcc565b6040805160ff9095168552600360208601523390850152426060850152929081906080820190565b6118e7915060203d8111610e3057610e22818361057a565b611ed883866127d7565b604051600181527f0338bd150f7922769ad6d998d3a6b2fc3668a74ac52c70c13136927bd1c1978990602090a2611d6d565b50611f148a611005565b60018a148015611d485750611d51611f2f600589015461309b565b4210159050611d48565b346102d95760203660031901126102d957611f52610454565b611f5a612470565b6001600160a01b031615611fd35760405162461bcd60e51b815260206004820152603960248201527f526f7574657220757064617465206e6f7420737570706f72746564202d206e6560448201527f656420746f206465706c6f79206e657720636f6e7472616374000000000000006064820152608490fd5b60405162461bcd60e51b815260206004820152601860248201527f5a65726f2061646472657373206e6f7420616c6c6f77656400000000000000006044820152606490fd5b346102d95760003660031901126102d9576020600454604051908152f35b346102d9576112cd61037f602061204c3661095e565b9190826040519384928337810160068152030190205461037a811515612680565b346102d95761207b3661095e565b90612084614fc2565b61209461037f61036e8484612603565b5061215a600a8201936120fe60ff86546120b560018383166109dc81610fe9565b60081c16956120c387611005565b6120cf60018814615238565b6120e66120df60058701546130aa565b4211615436565b6120ef87611005565b805461ff001916610500179055565b600283015461211790610cfc906001600160a01b031681565b835460038501805460405163a9059cbb60e01b81526001600160a01b03909316600484015260248301529590939091602091859190829060009082906044820190565b03925af1948515610e3757612190610dfc95610da3600080516020615479833981519152986121dd97600091610e095750614beb565b9054907f28afe715dbd83795e640b15a8e7a443f6bcc98def0089c4fe40e6c0841de9145610dcc6121c186866127d7565b6040519485526001600160a01b03909316939081906020820190565b6040805160ff9095168552600560208601523390850152426060850152929081906080820190565b90610628949261222061222e92608085526080850190610bb1565b908382036020850152610bb1565b9260408201526060818403910152610bb1565b346102d957610c35612264612255366114a0565b60208082518301019101613d5b565b9060409492945194859485612205565b346102d95760003660031901126102d95760206001600160401b0360125416604051908152f35b346102d957610c356122646122af366114a0565b614612565b346102d95760203660031901126102d9576123386122d0610454565b6122d8612470565b6001600160a01b03166122ec811515614fe5565b602060045480926122fd6000600455565b60015460405163a9059cbb60e01b81526001600160a01b03909116600482015260248101929092529093849190829060009082906044820190565b03925af1908115610e3757612379612389927f9870c8023baa016ac002ddfa7cdad341155acddddee3032c07d4baa4947ae64394600091610e095750614beb565b6040519081529081906020820190565b0390a1005b346102d95760203660031901126102d9576123a7610454565b6123af612470565b6001600160a01b031633811461240d57600280546001600160a01b031916821790556001546123e6906001600160a01b0316610cfc565b7fed8889f560326eb138920d842192f0eb3dd22b4f139c87a2c57538e05bae1278600080a3005b60405162461bcd60e51b815260206004820152601760248201527f43616e6e6f74207472616e7366657220746f2073656c660000000000000000006044820152606490fd5b346102d95760003660031901126102d95760206040516203f4808152f35b6001546001600160a01b0316330361248457565b60405162461bcd60e51b815260206004820152601660248201527527b7363c9031b0b63630b1363290313c9037bbb732b960511b6044820152606490fd5b916124dc9183549060031b91821b91600019901b19161790565b9055565b8181106124eb575050565b600081556001016124e0565b9190601f811161250657505050565b610b26926000526020600020906020601f840160051c83019310612532575b601f0160051c01906124e0565b9091508190612525565b9092916001600160401b03811161055a576125618161255b8454610aae565b846124f7565b6000601f821160011461259b5781929394600092612590575b50508160011b916000199060031b1c1916179055565b01359050388061257a565b601f198216946125b084600052602060002090565b91805b8781106125eb5750836001959697106125d1575b505050811b019055565b0135600019600384901b60f8161c191690553880806125c7565b909260206001819286860135815501940191016125b3565b6020908260405193849283378101600681520301902090565b6020908260405193849283378101600e81520301902090565b6020908260405193849283378101600d81520301902090565b6020908260405193849283378101600981520301902090565b6020908260405193849283378101600a81520301902090565b1561268757565b60405162461bcd60e51b815260206004820152601160248201527014185e5b595b9d081b9bdd08199bdd5b99607a1b6044820152606490fd5b634e487b7160e01b600052601160045260246000fd5b6000198101919082116126e557565b6126c0565b601f198101919082116126e557565b919082039182116126e557565b1561270d57565b60405162461bcd60e51b815260206004820152601d60248201527f4f6e6c792064657369676e61746564204c502063616e207375626d69740000006044820152606490fd5b1561275957565b60405162461bcd60e51b8152602060048201526016602482015275496e76616c6964207061796d656e742073746174757360501b6044820152606490fd5b1561279e57565b60405162461bcd60e51b8152602060048201526011602482015270105b1c9958591e481cdd589b5a5d1d1959607a1b6044820152606490fd5b81604051928392833781016000815203902090565b908060209392818452848401376000828201840152601f01601f1916010190565b9160206106289381815201916127ec565b6040519060e082018281106001600160401b0382111761055a57604052606060c08360008152600060208201526000604082015282808201528260808201528260a08201520152565b60405190602082018281106001600160401b0382111761055a5760405260008252565b60405190606082018281106001600160401b0382111761055a576040526022825261293b60f01b6040837f72657475726e2046756e6374696f6e732e656e636f646555696e74323536283160208201520152565b6040519060a082018281106001600160401b0382111761055a57604052600482528160005b6080811061290f575050565b806060602080938501015201612903565b805115610fce5760200190565b805160011015610fce5760400190565b805160021015610fce5760600190565b805160031015610fce5760800190565b8051821015610fce5760209160051b010190565b91909182516001600160401b03811161055a576129928161255b8454610aae565b602080601f83116001146129cd5750819293946000926129c25750508160011b916000199060031b1c1916179055565b01519050388061257a565b90601f198316956129e385600052602060002090565b926000905b888210612a1f57505083600195969710612a0657505050811b019055565b015160001960f88460031b161c191690553880806125c7565b806001859682949686015181550195019301906129e8565b612a4f90602060405192828480945193849201610b8e565b810103902090565b7fcb4efc405b00543d057b47dbeaf4292cbb3b07be86fbeaa9d4afd6080ec711da612bcc612bbb612b98612b83612a9961037f612a9388611210565b546126d6565b50612b7e612aa96114e6896111ea565b612ab56114e68a61119e565b92612b50612b4b612aef6114e6612ad5600186015460018060a01b031690565b6001600160a01b03166000908152600b6020526040902090565b92612af861281e565b96612b0a612b0461288a565b89612ec8565b612b126128de565b95612b1c87612920565b52612b2686612920565b50612b308661292d565b52612b3a8561292d565b5060076003820154910154906126f9565b613b4f565b612b598361293d565b52612b638261293d565b50612b6d8261294d565b52612b778161294d565b5082612ef1565b612cf5565b6012546001600160401b031660115491612f2b565b93612bb681612bb1876000526013602052604060002090565b612971565b612a37565b604051938452929081906020820190565b0390a2565b60405190612bde8261053f565b600c82526b31b7b232a637b1b0ba34b7b760a11b6020830152565b60031115610ff357565b60405190612c108261053f565b60088252676c616e677561676560c01b6020830152565b60011115610ff357565b60405190612c3e8261053f565b6006825265736f7572636560d01b6020830152565b60405190612c608261053f565b60048252636172677360e01b6020830152565b60001981146126e55760010190565b60405190612c8f8261053f565b600f82526e39b2b1b932ba39a637b1b0ba34b7b760891b6020830152565b60405190612cba8261053f565b60078252667365637265747360c81b6020830152565b60405190612cdd8261053f565b600982526862797465734172677360b81b6020830152565b612cfd61302d565b90612d0f612d09612bd1565b836137de565b612d2c8151612d1d81612bf9565b612d2681612bf9565b83613126565b612d37612d09612c03565b612d516040820151612d4881612c27565b612d2681612c27565b612d5c612d09612c31565b612d6a6060820151836137de565b60a08101805151612e6f575b506080810190815151612def575b60c0915001805151612d97575b50515190565b91612da3612d09612cd0565b612dac82613862565b60005b83518051821015612ddc5790612dd2612dcb82612dd79461295d565b5185613729565b612c73565b612daf565b50509150612de9816138ee565b38612d91565b602081018051612dfe81612bf9565b612e0781612bf9565b15612e5d5760c092612e40612e5892612e27612e21612c82565b886137de565b51612e3181612bf9565b612e3a81612bf9565b86613126565b612e51612e4b612cad565b866137de565b5184613729565b612d84565b60405163a80d31f760e01b8152600490fd5b92612e81612e7b612c53565b846137de565b612e8a83613862565b60005b84518051821015612eb55790612dd2612ea982612eb09461295d565b51866137de565b612e8d565b50509250612ec2826138ee565b38612d76565b815115612edf576000808252604082015260600152565b6040516322ce3edd60e01b8152600490fd5b815115612efe5760a00152565b60405163fe936cb760e01b8152600490fd5b908160209103126102d9575190565b6040513d6000823e3d90fd5b916020916001600160401b0391612f64604051958694859463230e93b160e11b865216600485015260a0602485015260a4840190610bb1565b60016044840152620493e060648401526084830191909152038160007f00000000000000000000000000000000000000000000000000000000000000006001600160a01b03165af1908115610e3757600091612fe5575b50807f1131472297a800fee664d1d89cfa8f7676ff07189ecc53f80bbb5f4969099db8600080a290565b613006915060203d811161300c575b612ffe818361057a565b810190612f10565b38612fbb565b503d612ff4565b604051906130208261053f565b6000602083606081520152565b6040516130398161053f565b613041613013565b8082526020820160008152613054613013565b5061010060208301526040518092526000825261012082019182106102d9576000916040525290565b906203f48082018092116126e557565b90600182018092116126e557565b90612a3082018092116126e557565b9061070882018092116126e557565b90602082018092116126e557565b919082018092116126e557565b906130dd613013565b50601f81168061310c575b50806020830152604051908183526000825281016020019081106102d95760405290565b602003602081116126e55781018091116126e557386130e8565b90815191613132613013565b5082515160018101908181116126e557602085015181101561318b575b60c26020610b269651928301015380518211613183575b50506040519160208301526020825261317e8261053f565b613729565b523880613166565b8160011b94828604600214831517156126e5576020816131bd610b26986131b660c2955191846130d4565b5082613671565b509650505061314f565b906005820291808304600514901517156126e557565b908160011b91808304600214901517156126e557565b90600a820291808304600a14901517156126e557565b613211613013565b5080515160018101908181116126e557602083015181101561324a575b605b6020845192830101538051821161324657505090565b5290565b8160011b828104600214831517156126e5576132739061326c855191866130d4565b5084613671565b5061322e565b613281613013565b5080515160018101908181116126e55760208301518110156132b6575b605a6020845192830101538051821161324657505090565b8160011b828104600214831517156126e5576132d89061326c855191866130d4565b5061329e565b6132e6613013565b5080515160018101908181116126e557602083015181101561331b575b60596020845192830101538051821161324657505090565b8160011b828104600214831517156126e55761333d9061326c855191866130d4565b50613303565b61334b613013565b5080515160018101908181116126e5576020830151811015613380575b60586020845192830101538051821161324657505090565b8160011b828104600214831517156126e5576133a29061326c855191866130d4565b50613368565b6133b0613013565b5080515160018101908181116126e55760208301518110156133e5575b607b6020845192830101538051821161324657505090565b8160011b828104600214831517156126e5576134079061326c855191866130d4565b506133cd565b613415613013565b5080515160018101908181116126e557602083015181101561344a575b607a6020845192830101538051821161324657505090565b8160011b828104600214831517156126e55761346c9061326c855191866130d4565b50613432565b61347a613013565b5080515160018101908181116126e55760208301518110156134af575b60796020845192830101538051821161324657505090565b8160011b828104600214831517156126e5576134d19061326c855191866130d4565b50613497565b6134df613013565b5080515160018101908181116126e5576020830151811015613514575b60786020845192830101538051821161324657505090565b8160011b828104600214831517156126e5576135369061326c855191866130d4565b506134fc565b90613545613013565b5081515160018101918282116126e5576020840151821015613578575b6020845192830101538051821161324657505090565b8260011b838104600214841517156126e5576135a19061359a865191876130d4565b5085613671565b50613562565b906135b4825191836130d4565b506135bd613013565b508051906135c9613013565b506135d78151831115613722565b825151926135e583856130c7565b91602092828480940151821161365a575b5183815197820101968211613652575b505001915b8181101561362c5760001991036101000a0190811990511690825116179052565b919261364761364161364d92865181526130b9565b946130b9565b926126ea565b61360b565b523880613606565b61366c613666836131dd565b826135a7565b6135f6565b9061367a613013565b508051613685613013565b506136938251821115613722565b825151916136a182846130c7565b602091829182870151811161370b575b865183815197820101968211613703575b505001915b818110156136e95760001991036101000a019081199051169082511617905290565b91926136476136416136fe92865181526130b9565b6136c7565b5238806136c2565b61371d613717826131dd565b886135a7565b6136b1565b156102d957565b81516137609291906001600160401b0381169060178211613763576137589150604060ff84519216179061353c565b505b51613671565b50565b5060ff8111613788576137829061377a8351613343565b508251613ab7565b5061375a565b61ffff81116137a7576137829061379f83516132de565b508251613a50565b63ffffffff81116137c857613782906137c08351613279565b5082516139e7565b613782906137d68351613209565b50825161397b565b81516137609291906001600160401b038116906017821161380d576137589150606060ff84519216179061353c565b5060ff8111613824576137829061377a83516134d7565b61ffff811161383b576137829061379f8351613472565b63ffffffff811161385457613782906137c0835161340d565b613782906137d683516133a8565b80519061386d613013565b5081515160018101908181116126e55760208401518110156138bb575b609f60208095519283010153805182116138b3575b505001805190600182018092116126e55752565b52388061389f565b8160011b93828504600214831517156126e5576020816138e482976131b6609f955191846130d4565b509550505061388a565b8051906138f9613013565b5081515160018101908181116126e5576020840151811015613948575b60ff6020809551928301015380518211613940575b50500180516000198101919082116126e55752565b52388061392b565b8160011b93828504600214831517156126e55760208161397182976131b660ff955191846130d4565b5095505050613916565b90613984613013565b508151518060080191826008116126e557602084015183116139c6575b6008845192830101906001600160401b03198251161790528051821161324657505090565b8260011b838104600214841517156126e5576139e290856135a7565b6139a1565b906139f0613013565b508151518060040191826004116126e55760208401518311613a2f575b60048451928301019063ffffffff198251161790528051821161324657505090565b8260011b838104600214841517156126e557613a4b90856135a7565b613a0d565b90613a59613013565b508151518060020191826002116126e55760208401518311613a96575b60028451928301019061ffff198251161790528051821161324657505090565b8260011b838104600214841517156126e557613ab290856135a7565b613a76565b90613ac0613013565b508151518060010191826001116126e55760208401518311613afc575b60018451928301019060ff198251161790528051821161324657505090565b8260011b838104600214841517156126e557613b1890856135a7565b613add565b90613b27826105bb565b613b34604051918261057a565b8281528092613b45601f19916105bb565b0190602036910137565b806000917a184f03e93ff9f4daa797ed6e38ed64bf6a1f01000000000000000080821015613c84575b506d04ee2d6d415b85acef810000000080831015613c75575b50662386f26fc1000080831015613c66575b506305f5e10080831015613c57575b5061271080831015613c48575b506064821015613c38575b600a80921015613c2e575b600190816021613be6828701613b1d565b95860101905b613bf8575b5050505090565b600019019083906f181899199a1a9b1b9c1cb0b131b232b360811b8282061a835304918215613c2957919082613bec565b613bf1565b9160010191613bd5565b9190606460029104910191613bca565b60049193920491019138613bbf565b60089193920491019138613bb2565b60109193920491019138613ba3565b60209193920491019138613b91565b604093508104915038613b78565b15613c9957565b60405162461bcd60e51b815260206004820152600f60248201526e155b9adb9bdddb881c995c5d595cdd608a1b6044820152606490fd5b613cda8154610aae565b9081613ce4575050565b81601f60009311600114613cf6575055565b908083918252613d15601f60208420940160051c8401600185016124e0565b5555565b81601f820112156102d9578051613d2f816105bb565b92613d3d604051948561057a565b818452602082840101116102d9576106289160208085019101610b8e565b916080838303126102d9578251906001600160401b03918281116102d95783613d85918601613d19565b9360208101518381116102d95784613d9e918301613d19565b9360408201519360608301519081116102d9576106289201613d19565b600092918154613dca81610aae565b92600191808316908115613e235750600114613de7575b50505050565b90919293945060005260209081600020906000915b858310613e125750505050019038808080613de1565b805485840152918301918101613dfc565b60ff1916845250505081151590910201915038808080613de1565b60405190613e4b8261053f565b600982526810d3d354131155115160ba1b6020830152565b60405190613e708261053f565b601a82527f566572696669636174696f6e2064617461206d69736d617463680000000000006020830152565b906006811015610ff35761ff0082549160081b169061ff001916179055565b908160209103126102d9575161062881610788565b15613ed757565b60405162461bcd60e51b815260206004820152601c60248201527f4175746f2072656c65617365207472616e73666572206661696c6564000000006044820152606490fd5b90613f5c613f57613f3a6114e6856000526013602052604060002090565b93613f4785511515613c92565b6000526013602052604060002090565b613cd0565b613f6b61037f61036e84611210565b509280516145ab57506040805163eb758d9560e01b81529093819081613f948560048301610bd6565b03600093849181305afa9083918493818691879361457f575b5061400557505050505050612bcc90613ffa83612bb6613fed7f7c25a4602a93bbf53e4a774f7358258af8f55caf75fc6b294ac8bb2f056d8bea966111c4565b805460ff19166003179055565b935191829182610bd6565b90919293949550614014612867565b9084519260209384870120918460018701978c6140378a5460018060a01b031690565b956140576114e68860018060a01b0316600052600b602052604060002090565b84815191012014958615614515575b5050508851818a012061407b6114e68d61119e565b82815191012014988c8c8b1561449f575b505050506003860197858c8a549384811494851561441f575b505050508251868401206140b7613e3e565b87815191012014928c8415614398575b505083614390575b5082614388575b5081614380575b50156143225750859161426861174c926141096140fc6141de9a6111c4565b805460ff19166002179055565b80600a84019761411e895460ff9060081c1690565b61412781611005565b895461ff001916610200178a5542600687015561414388612a37565b7fa9666caa7f73e1d8695413f0d01a9d1a35790236aef99afea9a330c933260ec18c80a28c7f0338bd150f7922769ad6d998d3a6b2fc3668a74ac52c70c13136927bd1c197896141928a612a37565b915160008152602090a26141a588612a37565b8d5160ff9092168252600260208301523060408301524260608301526000805160206154798339815191529c90918d9181906080820190565b0390a288546141f79060081c60ff1699611d768b611005565b54614230610cfc610cfc600260078901986142226142178b5480986126f9565b9b8c976004546130c7565b01546001600160a01b031690565b88548d5163a9059cbb60e01b81526001600160a01b0390911660048201526024810192909252909384919082908c9082906044820190565b03925af1958615610e3757610da36142df977fa4b9aff2e7bd4815fd0c77044b1652a3cdc9d61c082a9a75510dd9d30d1c1009946142b194612bcc9c92614305575b5050613ed0565b91546142bc85612a37565b8a5194855260208501919091526001600160a01b039290921692604090a3612a37565b935160ff9091168152600360208201523060408201524260608201529081906080820190565b61431b9250803d10610e3057610e22818361057a565b38806142aa565b9350505050612bcc91508261435a613fed7f7c25a4602a93bbf53e4a774f7358258af8f55caf75fc6b294ac8bb2f056d8bea956111c4565b81511561436b575b613ffa90612a37565b9050613ffa614378613e63565b919050614362565b9050386140dd565b9150386140d6565b9250386140cf565b956144096143fb614417936143f56143b8969a519687958d870190611161565b7f537461747573206d69736d617463682e2045787065637465643a20434f4d504c81526a022aa22a2161023b7ba1d160ad1b6020820152602b0190565b90611161565b61017160f51b815260020190565b03601f19810183528261057a565b93388c6140c7565b61449593926143f5614482614409946143f561445961444c9a9e9a6144466143fb986149ea565b936149ea565b95519a8b998a0190611161565b7f416d6f756e74206d69736d617463682e2045787065637465643a2000000000008152601b0190565b660161023b7ba1d160cd1b815260070190565b93858c38806140a5565b61450b93926143f5614482614409946145056144d06144c36143fb979e9b9e61119e565b92519a8b998a0190611161565b7f4d65726368616e7420656d61696c206d69736d617463682e20457870656374658152620321d160ed1b602082015260230190565b90613dbb565b9284388c8c61408c565b61457593926143f56144826144099461450561454c6144c36143fb979e9b9e60018060a01b0316600052600b602052604060002090565b7f506179657220656d61696c206d69736d617463682e2045787065637465643a20815260200190565b9284388c81614066565b92509350506145a19193503d8086833e614599818361057a565b810190613d5b565b9194929338613fad565b925050612bcc6145e282612bb6613fed7f7c25a4602a93bbf53e4a774f7358258af8f55caf75fc6b294ac8bb2f056d8bea956111c4565b9260405191829182610bd6565b604051906145fc8261053f565b60078252667375636365737360c81b6020830152565b602081511461469a575b60405163d6d0604760e01b81526020600482015260008082806146426024820187610bb1565b0381305afa81818394848094614674575b505061466c575050505061466690614707565b90919293565b949293509091565b92509250935061468e92503d8091833e614599818361057a565b91939092903880614653565b600160208201510361461c57506146af6145ef565b906146b86145ef565b90620f424090610628613e3e565b156146cd57565b60405162461bcd60e51b8152602060048201526012602482015271125b9d985b1a590810d4d588199bdc9b585d60721b6044820152606490fd5b61471081614820565b9160001990614721828514156146c6565b60018401928385116126e5576147378482614866565b93614744848614156146c6565b600185018086116126e55761475c6147659184614866565b948514156146c6565b61476e86613b1d565b6000805b8881106147df5750506147bc61479e610628949361479761037a6147c1959b8b6126f9565b908561489e565b966147b561037a6147ae8361308d565b92896126f9565b908461489e565b614906565b936147d961037a6147d18361308d565b9284516126f9565b9161489e565b61480a906001600160f81b03196147f6828861480f565b5116831a614804828661480f565b53612c73565b614772565b908151811015610fce570160200190565b60005b815181101561485e57600b60fa1b6001600160f81b0319614844838561480f565b5116146148595761485490612c73565b614823565b905090565b505060001990565b905b815181101561485e57600b60fa1b6001600160f81b0319614889838561480f565b5116146148595761489990612c73565b614868565b916148a881613b1d565b92600092835b8381106148bd57505050505090565b808201908183116126e5576148ee916001600160f81b0319906148e0908661480f565b5116861a614804828961480f565b6148ae565b60ff602f199116019060ff82116126e557565b906000805b83518210156149e5576001600160f81b0319600360fc1b8161492d858861480f565b5116101590816149ca575b50156149945761498861494d61498e926131f3565b61498261497c614977614971614963888b61480f565b516001600160f81b03191690565b60f81c90565b6148f3565b60ff1690565b906130c7565b91612c73565b9061490b565b60405162461bcd60e51b815260206004820152600e60248201526d24b73b30b634b210373ab6b132b960911b6044820152606490fd5b603960f81b91506149db848761480f565b5116111538614938565b925050565b8015614a66576000818181805b614a4e5750614a0581613b1d565b935b614a115750505090565b614a1a906126d6565b90600a90603082820681018091116126e55760f81b6001600160f81b031916841a614a45848761480f565b53049081614a07565b9150614a5b600a91612c73565b9104808492916149f7565b50604051614a738161053f565b60018152600360fc1b602082015290565b15614a8b57565b60405162461bcd60e51b8152602060048201526012602482015271496e76616c6964204c50206164647265737360701b6044820152606490fd5b15614acc57565b60405162461bcd60e51b815260206004820152601d60248201527f416d6f756e74206d7573742062652067726561746572207468616e20300000006044820152606490fd5b15614b1857565b60405162461bcd60e51b815260206004820152601a60248201527f5061796d656e742049442063616e6e6f7420626520656d7074790000000000006044820152606490fd5b15614b6457565b60405162461bcd60e51b815260206004820152601760248201527f5061796d656e7420494420616c726561647920757365640000000000000000006044820152606490fd5b15614bb057565b60405162461bcd60e51b8152602060048201526013602482015272151bdad95b881b9bdd081cdd5c1c1bdc9d1959606a1b6044820152606490fd5b15614bf257565b60405162461bcd60e51b815260206004820152600f60248201526e151c985b9cd9995c8819985a5b1959608a1b6044820152606490fd5b906002811015610ff35760ff80198354169116179055565b600554600160401b81101561055a57806001614c609201600555610f93565b919091614d8557805182546001600160a01b0319166001600160a01b03909116178255610b2691614d6d9061018090600a9060208501516001820180546001600160a01b0319166001600160a01b0390921691909117905560408501516002820180546001600160a01b0319166001600160a01b03909216919091179055606085015160038201556080850151600482015560a0850151600582015560c0850151600682015560e08501516007820155614d2261010086015160088301612971565b614d3461012086015160098301612971565b0192614d4e610140820151614d4881610fe9565b85614c29565b614d66610160820151614d6081611005565b85613e9c565b0151151590565b815462ff0000191690151560101b62ff000016179055565b610a98565b8054821015610fce5760005260206000200190600090565b805490600160401b82101561055a5781614dc49160016124dc94018155614d8a565b819391549060031b91821b91600019901b19161790565b614df360409295949395606083526060830190610bb1565b9460208201520152565b6001600160a01b038082169594939092909190614e1b871515614a84565b614e26831515614ac5565b614e3286511515614b11565b614e45614e3e87611210565b5415614b5d565b614e586116ca6116c08361084a89611178565b614e6461172a846131c7565b6040516323b872dd60e01b81523360048201523060248201526044810185905290946020908290606490829060009087165af1958615610e3757614f7b614f9f94614edb7f53c508e52d8f5e261d87a8d93a78c6851a65cafad8c6d9793451b38b256015f399614f9a95600091610e095750614beb565b614f61600554958694614f12614eef61059b565b338152926001600160a01b03861660208501526001600160a01b03166040840152565b8960608301524260808301524260a0830152600060c08301528a60e08301528c610100830152610120820152614f4c610140820160019052565b60016101608201526000610180820152614c41565b336000908152600760205260409020614f80908490614da2565b614da2565b6001600160a01b0316600090815260086020526040902090565b61308d565b614fa885611210565b55614fba604051928392339684614ddb565b0390a3600190565b600260005414614fd3576002600055565b604051633ee5aeb560e01b8152600490fd5b15614fec57565b60405162461bcd60e51b8152602060048201526015602482015274496e76616c696420746f6b656e206164647265737360581b6044820152606490fd5b610628916001600160a01b0316906001810190826000528160205260406000205415600014615089578054600160401b81101561055a57615074614dc4826001879401855584614d8a565b90555491600052602052604060002055600190565b505050600090565b610628916001600160a01b0316906150e4565b80549081156150ce57600019918201916150be8383614d8a565b909182549160031b1b1916905555565b634e487b7160e01b600052603160045260246000fd5b60018101918060005282602052604060002054928315156000146151905760001992848401908582116126e55780549485019485116126e557600095858361514797615138950361514d575b5050506150a4565b90600052602052604060002090565b55600190565b615177615171916151616151879487614d8a565b90549060031b1c92839187614d8a565b906124c2565b8590600052602052604060002090565b55388080615130565b50505050600090565b156151a057565b60405162461bcd60e51b8152602060048201526015602482015274151c985b9cd9995c881d1bc813140819985a5b1959605a1b6044820152606490fd5b6040906106289492815281602082015201916127ec565b156151fb57565b60405162461bcd60e51b8152602060048201526015602482015274139bdd08185b88195cd8dc9bddc81c185e5b595b9d605a1b6044820152606490fd5b1561523f57565b60405162461bcd60e51b815260206004820152601260248201527114185e5b595b9d081b9bdd081b1bd8dad95960721b6044820152606490fd5b1561528057565b60405162461bcd60e51b815260206004820152600e60248201526d139bdd08185d5d1a1bdc9a5e995960921b6044820152606490fd5b156152bd57565b60405162461bcd60e51b815260206004820152601260248201527110d85b9b9bdd081c995b19585cd9481e595d60721b6044820152606490fd5b156152fe57565b60405162461bcd60e51b815260206004820152601360248201527214185e5b595b9d081a5cc8191a5cdc1d5d1959606a1b6044820152606490fd5b1561534057565b60405162461bcd60e51b815260206004820152600e60248201526d43616e6e6f74206469737075746560901b6044820152606490fd5b1561537d57565b60405162461bcd60e51b8152602060048201526016602482015275111a5cdc1d5d19481dda5b991bddc8195e1c1a5c995960521b6044820152606490fd5b156153c257565b60405162461bcd60e51b815260206004820152601060248201526f105b1c9958591e48191a5cdc1d5d195960821b6044820152606490fd5b1561540157565b60405162461bcd60e51b815260206004820152600d60248201526c10d85b9b9bdd081c99599d5b99609a1b6044820152606490fd5b1561543d57565b60405162461bcd60e51b815260206004820152601360248201527214185e5b595b9d081b9bdd08195e1c1a5c9959606a1b6044820152606490fdfe22c682de3fcd506153c6e19ddc037c8ea009baf9e1f7561ca71fc25a6316ad72a2646970667358221220503c794c9549e06c16ad58e121ef76eceadd4481bf557a8e231288655c4e16a064736f6c63430008140033",
  "linkReferences": {},
  "deployedLinkReferences": {}
}